:0C000E00746F6E652D3E2562750D0A00B2
:10248E00752403E4F523FB7A0079237F031217BE2C
:10249E00752402E4F523FB7A0079237F050217BE2B
:1023F4007523407524017528007527C2752601755B
:102404002500752A01E4F52BFB7A0079237F01125C
:0C24140007FC7D017F011220F753A23F5E
:012420002299
:101D5B0075220143BA8012248E1223F41225A6D2C7
:101D6B00AF20C92CAF221224DF7BFF7A00790E85BE
:101D7B002226120D380522E522D394084003752242
:101D8B00017FFA1225521200037FFA12255280D1DD
:081D9B0030C9CE12000380C91B
:0F2552007D607C09ED1D70011C144C70F7DFF1EA
:012561002257
:10002600AB07AA06EB1BAE0270011AC3EE648094FE
:0B0036008040077F0112255280EA2263
:1017BE00EFD3940740037FFF221205A5FED39403B7
:1017CE0040037FFF22EF7041EE700B900001120577
:1017DE00BEF4529352941205A5B4010B900001125F
:1017EE0005BE4293F452941205A5FEB4020A90006F
:1017FE00011205BE42934294EEB4030D9000011205
:10180E0005BEFEF45293EE4294EF6401704312054E
:10181E00A5FE700B9000011205BEF452915292EE8D
:10182E00B4010B9000011205BE4291F452921205C2
:10183E00A5B4020A9000011205BE42914292120511
:10184E00A5B4030D9000011205BEFEF45291EE42B6
:10185E0092EF640270431205A5FE700B9000011208
:10186E0005BEF452955296EEB4010B90000112058E
:10187E00BE4295F452961205A5B4020A90000112CA
:10188E0005BE429542961205A5B4030D90000112B5
:10189E0005BEFEF45295EE4296EF640370431205B8
:1018AE00A5FE700B9000011205BEF452B152B2EEBD
:1018BE00B4010B9000011205BE42B1F452B21205F2
:1018CE00A5B4020A9000011205BE42B142B2120541
:1018DE00A5B4030D9000011205BEFEF452B1EE4206
:1018EE00B2EF640470431205A5FE700B9000011256
:1018FE0005BEF452B352B4EEB4010B9000011205C2
:10190E00BE42B3F452B41205A5B4020A90000112FD
:10191E0005BE42B342B41205A5B4030D90000112E8
:10192E0005BEFEF452B3EE42B4EF640570431205E9
:10193E00A5FE700B9000011205BEF452C952CAEEFC
:10194E00B4010B9000011205BE42C9F452CA120531
:10195E00A5B4020A9000011205BE42C942CA120580
:10196E00A5B4030D9000011205BEFEF452C9EE425D
:10197E00CAEF640670431205A5FE700B90000112AB
:10198E0005BEF452CB52CCEEB4010B900001120501
:10199E00BE42CBF452CC1205A5B4020A900001123D
:1019AE0005BE42CB42CC1205A5B4030D9000011228
:1019BE0005BEFEF452CBEE42CCEF64077043120527
:1019CE00A5FF700B9000011205BEF452E152E2EF3A
:1019DE00B4010B9000011205BE42E1F452E2120571
:1019EE00A5B4020A9000011205BE42E142E21205C0
:1019FE00A5B4030D9000011205BEFFF452E1EF42B3
:041A0E00E27F002251
:101FC100EFD3940140037FFF22EDD3940340037FBD
:101FD100FF22EF7004C2A98002D2A9ED700553B7A8
:101FE100FDC2B9BD010553B7FDD2B9BD020543B765
:0E1FF10002C2B9BD030543B702D2B97F002278
:101FFF00EFD3940140037FFF22EDD3940340037F7F
:10200F00FF22EF7004C2AB8002D2ABED700553B765
:10201F00F7C2BBBD010553B7F7D2BBBD020543B72E
:0E202F0008C2BBBD030543B708D2BB7F002229
:10244A00EFD3940140037FFF22EDD3940340037F2F
:10245A00FF22EF25E025E0FFE5AF54FB4FF5AFE49F
:02246A00FF224F
:10246C00EFD3940140037FFF22EDD3940340037F0D
:10247C00FF22EFC43354E0FFE5AF54DF4FF5AFE478
:02248C00FF222D
:10006600EFD3940140037FFF22EDD3940340037F37
:10007600FF22EFC4333354C0FFE5AF54BF4FF5AF93
:03008600E4FF2272
:10203D00EFD3940140037FFF22EDD3940340037F40
:10204D00FF22EF7004C2A88002D2A8ED700553B72D
:10205D00FEC2B8BD010553B7FED2B8BD020543B7E8
:0E206D0001C2B8BD030543B701D2B87F0022FF
:10207B00EFD3940140037FFF22EDD3940340037F02
:10208B00FF22EF7004C2AA8002D2AAED700553B7EB
:10209B00FBC2BABD010553B7FBD2BABD020543B7AC
:0E20AB0004C2BABD030543B704D2BA7F0022B7
:1024C700EFD3940140037FFF22EFC454F0FFE58F61
:0824D70054EF4FF58FE4FF22E2
:1024AE00EFD3940140037FFF22EFC43354E0FFE5E6
:0924BE008F54DF4FF58FE4FF227B
:10004600EFD3940140037FFF22EFC4333354C0FF44
:0A005600E58F54BF4FF58FE4FF2241
:1020B900EFD3940140037FFF22EDD3940340037FC4
:1020C900FF22EF7004C2AD8002D2ADED700553B7A7
:1020D900DFC2BDBD010553B7DFD2BDBD020543B7A0
:0E20E90020C2BDBD030543B720D2BD7F00223B
:101DA300EDD3940340037FFF22EF30E10543E620A8
:101DB300800353E6DFEF30E00543E610800353E68C
:101DC300EFED700653B6DF53B5DFBD010653B6DF43
:101DD30043B520BD020643B62053B5DFBD0306431A
:081DE300B62043B5207F002269
:101BD900EFD3940140037FFF22EBD3940340037FAB
:101BE900FF22BF0112ED90FE817006E0547FF08064
:101BF90011E04480F0800BEF700890FE83E0548779
:101C09004DF0EB700653B6DF53B5DFBB010653B693
:101C1900DF43B520BB020643B62053B5DFBB03063D
:091C290043B62043B5207F0022E0
:1020F700EFD3940140037FFF22EDD3940340037F86
:10210700FF22EF7004C2AC8002D2ACED700553B76A
:10211700EFC2BCBD010553B7EFD2BCBD020543B743
:0E21270010C2BCBD030543B710D2BC7F00221E
:101F4200EFD3940140037FFF22EDD3940340037F3C
:101F5200FF22E5AF54FE4FF5AFED700653B6FE53C8
:101F6200B5FEBD010653B6FE43B501BD020643B63A
:101F72000153B5FEBD030643B60143B5017F0022FE
:101DEB00EFD3940140037FFF22EDD3940340037F95
:101DFB00FF22EF33333354F8FFE5AF54F74FF5AF12
:101E0B00ED700653EEFE53DFFEBD010653EEFE43AF
:101E1B00DF01BD020643EE0153DFFEBD030643EEB9
:071E2B000143DF017F0022EB
:101E3200EFD3940140037FFF22EDD3940340037F4D
:101E4200FF22EFC454F0FFE5AF54EF4FF5AFED7052
:101E52000653EEFD53DFFDBD010653EEFD43DF02E7
:101E6200BD020643EE0253DFFDBD030643EE02430D
:051E7200DF027F0022E9
:101E7700EFD3940140037FFF22EDD3940340037F08
:101E8700FF22EF25E0FFE5AF54FD4FF5AFED7006FC
:101E970053B6FD53B5FDBD010653B6FD43B502BDAF
:101EA700020643B60253B5FDBD030643B60243B56A
:041EB700027F002284
:101B5F00EFD3948140037FFF22EBD3940340037FA5
:101B6F00FF22EF247F603004705890FEC4EDF0EB3D
:101B7F00700653B6FB53B5FBBB010653B6FB43B51B
:101B8F0004BB020643B60453B5FBEB640370384342
:101B9F00B60443B504803090FEE4EDF0EB700653CD
:101BAF00B6F753B5F7BB010653B6F743B508BB02FB
:101BBF000643B60853B5F7BB030D43B60843B50844
:0A1BCF00800590FEE4EDF07F002297
:10213500EDD394035026ED700653EEFB53DFFBBD44
:10214500010653EEFB43DF04BD020643EE0453DFF5
:10215500FBBD030B43EE0443DF0480037FFF2290A6
:07216500FE62EFF07F002293
:10216C0090FA10E054F0F0EDD39403500BE0FEED38
:10217C0025E025E0FDEE4DF0EBD39403500690FAEC
:10218C0010E04BF090FA10E0BF01054480F08003A2
:06219C00547FF07F0022D9
:1021A20090FA00E054F0F0EDD39403500BE0FEED12
:1021B20025E025E0FDEE4DF0EBD39403500690FAB6
:1021C20000E04BF090FA00E0BF01054480F080038C
:0621D200547FF07F0022A3
:1021D80090FA20E054F0F0EDD39403500BE0FEEDBC
:1021E80025E025E0FDEE4DF0EBD39403500690FA80
:1021F80020E04BF090FA20E0BF01054480F0800316
:06220800547FF07F00226C
:10220E0090FA30E054F0F0EDD39403500BE0FEED75
:10221E0025E025E0FDEE4DF0EBD39403500690FA49
:10222E0030E04BF090FA30E0BF01054480F08003BF
:06223E00547FF07F002236
:1022440090FA38E054F0F0EDD39403500BE0FEED37
:1022540025E025E0FDEE4DF0EBD39403500690FA13
:1022640038E04BF090FA38E0BF01054480F0800379
:06227400547FF07F002200
:10227A0090FA40E054F0F0EDD39403500BE0FEEDF9
:10228A0025E025E0FDEE4DF0EBD39403500690FADD
:10229A0040E04BF090FA40E0BF01054480F0800333
:0622AA00547FF07F0022CA
:1022B00090FA48E054F0F0EDD39403500BE0FEEDBB
:1022C00025E025E0FDEE4DF0EBD39403500690FAA7
:1022D00048E04BF090FA48E0BF01054480F08003ED
:0622E000547FF07F002294
:1022E60090FA50E054F0F0EDD39403500BE0FEED7D
:1022F60025E025E0FDEE4DF0EBD39403500690FA71
:1023060050E04BF090FA50E0BF01054480F08003A6
:06231600547FF07F00225D
:10231C0090FA58E054F0F0EDD39403500BE0FEED3E
:10232C0025E025E0FDEE4DF0EBD39403500690FA3A
:10233C0058E04BF090FA58E0BF01054480F0800360
:06234C00547FF07F002227
:1023520090FA60E054F0F0EDD39403500BE0FEED00
:1023620025E025E0FDEE4DF0EBD39403500690FA04
:1023720060E04BF090FA60E0BF01054480F080031A
:06238200547FF07F0022F1
:1023880090FA68E054F0F0EDD39403500BE0FEEDC2
:1023980025E025E0FDEE4DF0EBD39403500690FACE
:1023A80068E04BF090FA68E0BF01054480F08003D4
:0623B800547FF07F0022BB
:1023BE0090FA70E054F0F0EDD39403500BE0FEED84
:1023CE0025E025E0FDEE4DF0EBD39403500690FA98
:1023DE0070E04BF090FA70E0BF01054480F080038E
:0623EE00547FF07F002285
:1024210090FE50E054CFF0EDD39403500AE0FEED5E
:10243100C454F0FDEE4DF090FE50E0BF0105448024
:09244100F08003547FF07F0022BB
:0807FC008F2C8B2D8A2E892F12
:10080400E52C64016003020972F508F509F50AF59F
:100814000BF50CF530F53174402531F58274013552
:1008240030F583E4F00531E531700205306480452C
:100834003070E4E4F530F53174002531F58274004C
:100844003530F583E4F00531E5317002053064801C
:10085400453070E4AB2DAA2EA92F1205A5FFE5980B
:10086400543F4FF598EF64C06008EF6440600302A2
:1008740009279000021207607F807E8D7D5B7C00DB
:1008840012069C8F358E348D338C32E4FFFE7D014D
:10089400FCAB35AA34A933A832C312073C40037F0A
:1008A400FF22C3E49535F535E49534F534740195A8
:1008B40033F533E49532F532AB2DAA2EA92F9000EF
:1008C400011205BEFB6401702CC28E538EFE538947
:1008D400BF5389CF438E40AF35AE34AD33AC32789D
:1008E4000812074D8F8D85358BC2AB5389BF538F4B
:1008F400FDD28E8062EB64027026538EEF438E012C
:10090400538EF7438E04AF35AE34AD33AC32780832
:1009140012074D8FD68535D753AFFB438E108037E2
:100924007FFF22AB2DAA2EA92F1205A5FF701390CD
:1009340000081205BEB40105438E20801A538EDFD1
:100944008015EFB480119000081205BEB401054370
:100954008780800353877FAB2DAA2EA92F90000791
:100964001205BE7004C29C8002D29C7F0022E52C3A
:1009740064026003020A6BF50DF50EF50FF510F530
:1009840011F530F53174E02531F58274013530F517
:1009940083E4F00531E53170020530648045307040
:1009A400E4E4F530F53174802531F5827400353096
:1009B400F583E4F00531E53170020530648045309B
:1009C40070E4AB2DAA2EA92F1205A5FF64C0600503
:1009D400EF64407075EFB4C005439A808003539A66
:1009E4007F9000021207607F807E8D7D5B7C001209
:1009F400069C8F358E348D338C32E4FFFE7D01FCF2
:100A0400AB35AA34A933A832C312073C40037FFF95
:100A140022C3E49535F535E49534F5347401953302
:100A2400F533E49532F532538EEF538EF7438E044B
:100A3400AF35AE34AD33AC32780812074D8FD6855E
:100A440035D753AFFB438E1080037FFF22AB2DAA13
:100A54002EA92F9000071205BEC454F0FFE59A5446
:100A6400EF4FF59A7F0022E52C64036003020B9F8D
:100A7400F512F513F514F515F516F530F531746026
:100A84002531F58274023530F583E4F00531E53122
:100A9400700205306440453070E4E4F530F531749B
:100AA400002531F58274013530F583E4F00531E534
:100AB40031700205306440453070E4AB2DAA2EA994
:100AC4002F1205A5FF64C06008EF64406003020BA9
:100AD40082EFB4C00543AC80800353AC7F90000226
:100AE4001207607F807E8D7D5B7C0012069C8F35B3
:100AF4008E348D338C32E4FFFE7D01FCAB35AA3499
:100B0400A933A832C312073C40037FFF22C3E495F4
:100B140035F535E49534F53474019533F533E495BE
:100B240032F532AB2DAA2EA92F9000011205BEFB7F
:100B3400B4031D43AC40AF35AE34AD33AC327808AA
:100B440012074D8FD48535D553D1F043D10A803166
:100B5400EB64027026538EEF53ACBF538EF7438E73
:100B640004AF35AE34AD33AC32780812074D8FD6AE
:100B74008535D753AFFB438E1080067FFF227FFF5E
:100B840022AB2DAA2EA92F9000071205BEC454F043
:100B9400FFE5AC54EF4FF5AC7F0022E52C64046014
:100BA40003020CD3F517F518F519F51AF51BF530F2
:100BB400F53174A02531F58274023530F583E4F003
:100BC4000531E531700205306420453070E4E4F508
:100BD40030F53174C02531F58274013530F583E484
:100BE400F00531E531700205306420453070E4AB26
:100BF4002DAA2EA92F1205A5FF64C06008EF64403A
:100C04006003020CB6EFB4C00543848080035384B0
:100C14007F9000021207607F807E8D7D5B7C0012D6
:100C2400069C8F358E348D338C32E4FFFE7D01FCBF
:100C3400AB35AA34A933A832C312073C40037FFF63
:100C440022C3E49535F535E49534F53474019533D0
:100C5400F533E49532F532AB2DAA2EA92F9000017D
:100C64001205BEFBB4041D438440AF35AE34AD332E
:100C7400AC32780812074D8FD28535D353D10F4348
:100C8400D1A08031EB64027026538EEF5384BF539E
:100C94008EF7438E04AF35AE34AD33AC32780812E0
:100CA400074D8FD68535D753AFFB438E1080067F13
:100CB400FF227FFF22AB2DAA2EA92F900007120539
:100CC400BEC454F0FFE58454EF4FF5847F00227FC7
:010CD400FF20
:010CD50022FC
:0A257E008F99750A01E50A70FC222E
:1024F5001205A5FF600C12257E740129F9E43AFA4C
:0325050080EE2243
:0A2588008F9B750F01E50F70FC2218
:102508001205A5FF600C122588740129F9E43AFA2E
:0325180080EE2230
:0A2592008FAD751401E51470FC22F2
:10251B001205A5FF600C122592740129F9E43AFA11
:03252B0080EE221D
:0A259C008F85751901E51970FC2206
:10252E001205A5FF600C12259C740129F9E43AFAF4
:03253E0080EE220A
:05001E00AE0702257E83
:03002300021EFFBB
:101EFF00C0E0C083C082C0D075D000C0073098202A
:101F0F00C298E50BC394804003750B00AF0B050B14
:101F1F0074002FF582E43400F583E599F0750C0514
:101F2F00309905C299750A00D007D0D0D082D083DE
:031F3F00D0E032BD
:03004300021C801C
:101C8000C0E0C083C082C0D075D000C007E59A30E4
:101C9000E021539AFEE510C394804003751000AF15
:101CA00010051074802FF582E43400F583E59BF075
:101CB000751105E59A30E106539AFD750F00D007BE
:091CC000D0D0D082D083D0E032F4
:03008B00021CC98B
:101CC900C0E0C083C082C0D075D000C007E5AC3089
:101CD900E02153ACFEE515C394404003751500AFF0
:101CE90015051574002FF582E43401F583E5ADF08F
:101CF900751605E5AC30E10653ACFD751400D00747
:091D0900D0D0D082D083D0E032AA
:03009300021D1239
:101D1200C0E0C083C082C0D075D000C007E5843067
:101D2200E0215384FEE51AC394204003751A00AFE4
:101D32001A051A74C02FF582E43401F583E585F0A3
:101D4200751B05E58430E1065384FD751900D00743
:091D5200D0D0D082D083D0E03261
:10114500AD07ED6401707A90FECCE054FEF0E054FA
:10115500FBF090FEC8E054FCF01205A5FF90FEC818
:10116500E0548F4FF09000061205BEFF90FECC3084
:10117500E00DE04401F090FEB1E04401F0800BE0A9
:1011850054FEF090FEB1E054FEF0EF90FECC30E15D
:101195000DE04404F090FEB1E04402F0800BE05411
:1011A500FBF090FEB1E054FDF0900003120628E537
:1011B500F090FED5F090000312062890FED602149A
:1011C500FFED6402707A90FECCE054EFF0E054BF7E
:1011D500F090FEC9E054FCF01205A5FF90FEC9E0B1
:1011E500548F4FF09000061205BEFF90FECC30E202
:1011F5000DE04410F090FEB1E04404F0800BE054A3
:10120500EFF090FEB1E054FBF0EF90FECC30E30D33
:10121500E04440F090FEB1E04408F0800BE054BF9C
:10122500F090FEB1E054F7F0900003120628E5F0C7
:1012350090FED7F090000312062890FED80214FF06
:10124500ED6403707A90FECDE054FEF0E054FBF0BF
:1012550090FECAE054FCF01205A5FF90FECAE054CA
:101265008F4FF09000061205BEFF90FECD30E40DC5
:10127500E04401F090FEB1E04410F0800BE054FE34
:10128500F090FEB1E054EFF0EF90FECD30E50DE0CB
:101295004404F090FEB1E04420F0800BE054FBF0F4
:1012A50090FEB1E054DFF0900003120628E5F090BF
:1012B500FED9F090000312062890FEDA0214FFED25
:1012C5006404707A90FECDE054EFF0E054BFF090E6
:1012D500FECBE054FCF01205A5FF90FECBE0548F49
:1012E5004FF09000061205BEFF90FECD30E60DE0F2
:1012F5004410F090FEB1E04440F0800BE054EFF074
:1013050090FEB1E054BFF0EF90FECD30E70DE04424
:1013150040F090FEB1E04480F0800BE054BFF090C7
:10132500FEB1E0547FF0900003120628E5F090FE30
:10133500DBF090000312062890FEDC0214FFED643A
:1013450080704F9000051205BE90FEDEF090000102
:10135500120628E5F090FED2F090000112062890C2
:10136500FED3F09000081205BE90FEDDB40106E044
:101375004480F08004E0547FF09000071205BE9091
:10138500FEC0B40106E04401F08004E054FEF07FA5
:101395000022ED6405705690FEECE054FEF090FEE0
:1013A500E8E054FCF01205A5FF90FEE8E0548F4FED
:1013B500F09000061205BE90FEEC30E00DE0440111
:1013C500F090FEB5E04401F0800BE054FEF090FE95
:1013D500B5E054FEF0900003120628E5F090FEF506
:1013E500F090000312062890FEF60214FFED640645
:1013F500705690FEECE054EFF090FEE9E054FCF0FE
:101405001205A5FF90FEE9E0548F4FF090000612FB
:1014150005BE90FEEC30E20DE04410F090FEB5E024
:101425004404F0800BE054EFF090FEB5E054FBF07F
:10143500900003120628E5F090FEF7F090000312E5
:10144500062890FEF80214FFED6407705590FEED36
:10145500E054FEF090FEEAE054FCF01205A5FF9082
:10146500FEEAE0548F4FF09000061205BE90FEEDA7
:1014750030E40DE04401F090FEB5E04410F0800B3F
:10148500E054FEF090FEB5E054EFF0900003120634
:1014950028E5F090FEF9F090000312062890FEFA78
:1014A5008058ED6408705790FEEDE054EFF090FE23
:1014B500EBE054FCF01205A5FF90FEEBE0548F4FD6
:1014C500F09000061205BE90FEED30E60DE04410EA
:1014D500F090FEB5E04440F0800BE054EFF090FE54
:1014E500B5E054BFF0900003120628E5F090FEFB2E
:1014F500F090000312062890FEFCF07F0022ED64B8
:1015050081704C9000051205BE90FEFEF090000122
:10151500120628FDACF0EC90FEF2F0AF05A3EFF05B
:101525009000081205BE90FEFDB40106E04480F06F
:101535008004E0547FF09000071205BE90FEE0B4F1
:101545000106E04401F08004E054FEF07F00227FB4
:02155500FF2273
:101A1200EF24807003021ACD147003021B1224807B
:101A2200B408004003021B5E901A3875F003A4C587
:101A32008325F0C58373021A50021A5D021A6D02E1
:101A42001A7D021A8D021A9D021AAD021ABD1205E2
:101A5200FDFDACF0EC90FED5021B58900002120680
:101A620028FDACF0EC90FED7021B58900004120641
:101A720028FDACF0EC90FED9021B5890000612062D
:101A820028FDACF0EC90FEDB021B58900008120619
:101A920028FDACF0EC90FEF5021B5890000A1206ED
:101AA20028FDACF0EC90FEF7021B5890000C1206D9
:101AB20028FDACF0EC90FEF9021B5890000E1206C5
:101AC20028FDACF0EC90FEFB021B581205FDFDACAC
:101AD200F0EC90FED5F0AF05A3EFF09000021206F5
:101AE20028FDACF0EC90FED7F0AF05A3EFF090002C
:101AF20004120628FDACF0EC90FED9F0AF05A3EF7E
:101B0200F0900006120628FDACF0EC90FEDB804659
:101B1200900008120628FDACF0EC90FEF5F0AF053F
:101B2200A3EFF090000A120628FDACF0EC90FEF74D
:101B3200F0AF05A3EFF090000C120628FDACF0EC1C
:101B420090FEF9F0AF05A3EFF090000E120628FD0B
:0D1B5200ACF0EC90FEFBF0AF05A3EFF0222D
:10155700AD07ED7079C28C1205A5FED39403400345
:101567007FFF22E58954FC4EF5899000011205BEE4
:10157700FED3940240037FFF22EE7006538E7F5303
:1015870089FB9000011205BEB40106438E80538982
:10159700FB9000011205BEB40203438904900002C8
:1015A7001205BEFFE58F54FE4FF58F90000312061C
:1015B70028E5F0F58C900003120628F58A900006BE
:1015C7001205BE7004C28C8002D28C7F0022ED64AB
:1015D70001600302165DC28E1205A5FED394034077
:1015E700037FFF22EEC454F0FFE58954CF4FF589FE
:1015F7009000011205BEFED3940240037FFF22EE46
:101607007006538EBF5389BF9000011205BEB40107
:1016170006438E405389BF9000011205BEB40203F2
:101627004389409000021205BE25E0FFE58F54FD77
:101637004FF58F900003120628E5F0F58D90000313
:10164700120628F58B9000061205BE7004C28E8024
:1016570002D28E7F0022ED64027065538EEF9000F8
:10166700011205BEFF7006538EFB538EF7EFB401D0
:1016770006438E04538EF7EFB40203438E0890009F
:10168700021205BE25E025E0FFE58F54FB4FF58FDD
:10169700900003120628E5F0F5D6900003120628FD
:1016A700F5D79000051205BE90FEA2F09000061235
:1016B70005BEC454F0FFE58E54EF4FF58E7F002230
:1016C700ED6403707253D1F79000011205BEFED38B
:1016D700940240037FFF22EE700653D1FD53D1FBE6
:1016E7009000011205BEB4010643D10253D1FB900D
:1016F70000011205BEB4020343D104900002120593
:10170700BEFFE5D154FE4FF5D1900003120628E540
:10171700F0F5D4900003120628F5D59000051205C0
:10172700BE90FEA3F09000061205BE33333354F883
:10173700FFE5D154F78077ED6404707853D17F903B
:1017470000011205BEFED3940240037FFF22EE7014
:101757000653D1DF53D1BF9000011205BEB4010675
:1017670043D12053D1BF9000011205BEB4020343F9
:10177700D1409000021205BEC454F0FFE5D154EFEA
:101787004FF5D1900003120628FDACF0ECF5D2AF6F
:10179700058FD39000051205BE90FEA4F0900006B9
:1017A7001205BEC43333335480FFE5D1547F4FF560
:0717B700D17F00227FFF2219
:03000B0002006090
:03006000B2EF32CA
:03001B0002008E52
:03008E00B2EE329D
:0300630002009602
:03009600B2ED3296
:03009B0002009EC2
:03009E00B2EC328F
:0300A3000225AF84
:0325AF00B2EB325A
:10256200020B024B029302BA0310037003DC04173E
:102541007524017523037B007A007923E4FF0217C8
:01255100BECB
:101F8200752360E4F526F527752901FB7A0079238C
:101F92007F0512114575245D7525C0E4F528752B62
:101FA20001752A01FB7A0079237F8112114590FE87
:0F1FB200B6E054FC4402F0E4FBFD7F81021B5FAC
:0925A60043BA80122541021F8294
:101C3200AB07AA06E4F9F8FF7E367D6E7C01121E20
:101C4200BB8E238F24AC23AD24E41201B17BCD7A69
:101C5200CC794C783D1200A61201EAAC0690FEF552
:101C6200ECF0A3EFF0E52424FFE52334FF90FEF22D
:0D1C7200F0E52414A3F090FEECE04401F036
:011C7F002242
:1024DF00EF25E02460F582E43425F583E493FE7460
:0624EF000193FF021C3204
:0800030090FEECE054FEF02237
:1000A600EC4D6011E8497017ED33EC3304600DE454
:1000B600FCFFFEFD22E933E8330470F80202561213
:1000C600022158046009E4CC248150062850090214
:1000D600026028400302025DC0E0EB4A7044B9802A
:1000E60006D0E0FB02024CEF4E701CBD8008EBFF11
:1000F600EAFEE9FD80EBE98DF0A4FEE5F002018F52
:10010600E9CDF9EAFEEBFFEF89F0A4FCE5F0CE8934
:10011600F0A42EFFE435F0CD89F0A42DFEE435F0F1
:100126008067EF4E7005BD80D780C3EF8BF0A4AC1F
:10013600F0EE8BF0A42CFCE435F0F8EF8AF0A42C5A
:10014600E5F038FCE433CB8DF0A42CFCE5F03BF86D
:10015600EE8AF0A42CFCE5F038F8E433CF89F0A45D
:100166002CFCE5F038CF3400CE89F0A42FFFE5F063
:100176003EFEE433C98DF0A42EFEE5F039CD8AF0BB
:10018600A42FFFE5F03EFEE43DFD33D0E0FB500733
:100196000BBB000F020260EC2CFCEF33FFEE33FECC
:0601A600ED33FD020238FA
:1001AC0075F020800E75F010800575F0087D007ECE
:1001BC00007F003392D530D50312072EEC3340105C
:1001CC00EF33FFEE33FEED33FDEC33FCD5F0ED22D7
:0E01DC00E5F0247EA2D513CC92E7CDCEFF2213
:1001EA00EDD2E7CD33EC3392D524814006E4FFFE0D
:1001FA00FDFC22FCE4CFCECDCC24E0501174FF806C
:10020A00EDC3CC13CCCD13CDCE13CECF13CF047008
:07021A00F030D5DE02072ED3
:100CD600E53A2426F8E6053A2278233007027826F4
:100CE600E475F0011207900205A52000EB7F2ED2D5
:100CF600008018EF540F2490D43440D4FF30040BF6
:100D0600EF24BFB41A0050032461FFE53B600215CF
:100D16003B053EE53E7002053D30070D7823E47540
:100D2600F001120790EF0205EB02001E7403D207D2
:100D36008003E4C207F53A8B238A248925E4F53B30
:100D4600F53DF53EE53B60077F20120D1180F575F8
:100D56003CFFC201C200C202C203C205C206C208EB
:100D6600120CDFFF700D3007057F00120D22AF3E1B
:100D7600AE3D22B4255FC2D5C204120CDFFF24D0DB
:100D8600B40A00501A75F00A783B30D50508B6FF4C
:100D96000106C6A426F620D5047002D20380D92403
:100DA600CFB41A00EF5004C2E5D20402100FD201EC
:100DB60080C6D20080C0D20280BCD2D580BAD2050D
:100DC60080B47F20120D112002077401B53B00404C
:100DD600F1120CD6FF120D11020D4AD208D206806E
:100DE60095120CD6FB120CD6FA120CD6F94A4B7099
:100DF6000679067A117BFF20022EE53B602A7E00EB
:100E06008E827583001205BE60060EEE653C70F09C
:100E1600C2D5EBC0E0EAC0E0E9C0E0EE12106FD048
:100E2600E0F9D0E0FAD0E0FB1205A5FF60AAEBC01E
:100E3600E0EAC0E0E9C0E0120D11D0E02401F9D0EB
:100E4600E03400FAD0E0FBE53C0460DCD53CD98018
:100E560087D20280A212105260F7E53C700104129C
:100E6600026BA93C600DE53C600914F53C1210F9D3
:100E7600EF60F3EA30E702F404C3995077EAF42509
:100E86003C0430E701E404F53C800D12105260C1C9
:100E9600EA053C253C12026BEA7839F630E701E4B4
:100EA600253C04D53C042005011412106FE4C0E073
:100EB6001210F97839E6601320E70714F6120CF9D8
:100EC600802204F6D0E014C0E07F00120CF9E53C65
:100ED6006007120CF0153C800B300503120CF0D0A5
:100EE600E0020D4AD0E00480C512105260A0E53C35
:100EF6000412026B7839EAF6E53C2005026001042B
:050F0600240412106F2D
:100F0B0074FF04C0E01210F9120CF9E53C20050245
:100F1B006003120CF0D0E0B53CE87F45120D03786E
:100F2B0039E67F2B30E7047F2DF404C0E0120D115E
:100F3B00D0E075F00A84C0F0120CFAD0E0120CFA73
:100F4B00020D4A791080027908C206C2088008D2C5
:100F5B00D5790A8004790AC2D5E53C047002F53CC8
:100F6B00E4FAFDFEFF120CD6FC7B08200113120CD9
:100F7B00D6FD7B1030000A120CD6FE120CD6FF7B6E
:100F8B0020EC3382D592D55013C3E43000069FFF7B
:100F9B00E49EFEE42001039DFDE49CFCE4CBF8C23F
:100FAB0001EC700CCFCECDCCE824F8F870F38017A1
:100FBB00C3EF33FFEE33FEED33FDEC33FCEB33FBD2
:100FCB00994002FB0FD8E9EB300105F8D0E0C4489B
:100FDB00B201C0E00AEC4D4E4F78207B0070C2EAA4
:100FEB00B53C0040BCC0E0121071D0F0D0E0200145
:100FFB0004C4C0E0C4B201C0F0120CFAD0F0D5F0BA
:10100B00EB020D4A1207A00DE7530F4E580DB84CCB
:10101B000DB4420F524F0F5A440F5A490DCD430F87
:10102B0060550E91460EEF450E5B471126500DBCD9
:10103B002D0DC02E0DE32B0DC4230DE120110F2A16
:10104B000D7C4800000DDBE53CB4FF03753C06123C
:10105B000CD6FC120CD6FD120CD6FE120CD6FF7859
:10106B003202029A790AA2D5200314300509B9106D
:10107B00020404B9080104A2D52006025001042081
:10108B0002689202B53B005034C0E07F2030031958
:10109B007F30A20272067205500F1210C8C202C234
:1010AB0006C205C2087F30800F300503E9C0E0128D
:1010BB000D11300503D0E0F9D0E0B53BCC3005176E
:1010CB007F30B9100C120D117F583004077F7880D8
:1010DB0003B90803120D113002057F2D020D117F8C
:1010EB00202008F87F2B2006F322920280CF7F006E
:1010FB00B4070050052432F8E6FF22286E756C6C9D
:10110B002900D201120CD63001F8C201783B30D540
:10111B000108F6020D7C2D50434958120CD62403BE
:10112B00B405004001E490112193120D02743A12A0
:0A113B000D02D203753B04020F4EB3
:10022100E9D2E7C933E833F892D5EDD2E7CD33EC23
:0702310033FC5002B2D5229C
:10023800EC30E7100FBF000C0EBE00080DBD000427
:100248000BEB6014A2D5EB13FCED92E7FD2274FFD3
:10025800FCFDFEFF22E480F8A2D574FF13FC7D802C
:03026800E480EF40
:10026B00F920E72824F950037907E4F42402FB185A
:10027B00DBFDE624FB5014E9600DE4F618E604F60A
:0F028B00B40A08E4F6D9F57401F60A22C2D522A6
:10029A00ED33EC3392D5FA602AB4FF33EDC2E77B33
:1002AA00FF60067A0279BFE4227A0279C820D5046F
:1002BA007A0279C3224E614E002B494E46002D49DF
:1002CA004E4600E47A08F608DAFC7B00740722E856
:1002DA00C0E0ECC0E0EDC0E0EEC0E0EFC0E0EA75DF
:1002EA00F010A4CAABF075F04DA42BFBE435F0FC7A
:1002FA00EA2410FAEB34C5FBEC34D9FCEDC2E7FF73
:10030A0075F056A4F42411C5F0F434C58FF0A42A6C
:10031A00E5F03BE43CF620E714120565D0E0FFD097
:10032A00E0FED0E0FDD0E0FC1204988014F4041240
:10033A000565D0E0FFD0E0FED0E0FDD0E0FC120081
:10034A00A6D0E0F8E6FAEDD2E7CD33EC332482FB0F
:10035A00E4C3CF33CFCE33CECD33CD33DBF37B07FC
:10036A0075F00A846004F6081B0AE5F0F6088FF0B7
:10037A00740AA4FFACF08EF0740AA42CFEACF05000
:10038A00010C8DF0740AA42CFDE435F0F608DBDECE
:03039A00740722C3
:10039D00020256E86480F8E933E83360110460F036
:1003AD00ED33EC337009E8FCE9FDEAFEEBFF2204C6
:1003BD0060DED3EB9FEA9EE99DE8C2E78CF0C2F7C1
:1003CD0095F0400CE8CCF8E9CDF9EACEFAEBCFFB8D
:1003DD0012022185D0F05804700320D5B3E80470C3
:1003ED00075002B2D502026092D5EC0460F7E4CC5E
:1003FD00C0E0C398F8603B94186008400DD0E0FB56
:10040D00020238E4FBFAC9FC8028E830E406E4C9AE
:10041D00FBE4CAFCE830E305E4C9CACBFCE85407A9
:10042D006010F8C3E913F9EA13FAEB13FBEC13FCB4
:10043D00D8F130F52FC3E49CFCEF9BFFEE9AFEED57
:10044D0099FDD0E0FBEF4E4D4C701222DB03020202
:10045D005DEC2CFCEF33FFEE33FEED33FDED30E7BD
:10046D00EB020238EF2BFFEE3AFEED39FDD0E0FB4B
:10047D0050130BBB0003020260ED13FDEE13FEEFF4
:08048D0013FFEC13FC0202381E
:10049500020260EC5D046005E8590470030202562F
:1004A500120221580460F6EC4860F2EC7004FDFE7F
:1004B500FF22C860DB2481C85009C398600250063A
:1004C50002025D9850CAF582E9294B4A7005AB8254
:1004D50002024C75F0007C1A7880C3EF9BEE9AED12
:1004E50099400DC3EF9BFFEE9AFEED99FDE842F0B2
:1004F500DC23ACF0D0E0FFD0E0FED0E0FDAB822005
:10050500E7101BEB60BAEC2CFCEF33FFEE33FEED8E
:1005150033FD020238E803F830E705C0F075F00056
:10052500EF2FFFEE33FEED33FD40B830E7C280AA72
:100535003F8000004120000042C80000447A0000CE
:10054500461C400047C35000497424004B18968050
:100555004CBEBC205A0E1BCA6753C21C749DC5AE47
:10056500FB60065407601C2323120593EB54386087
:100575000912057F12058E1200A6ECF8EDF9EEFAC8
:10058500EFCB22EB12058E80F1543803241C900525
:1005950035FE93FC0EEE93FD0EEE930ECE93FF22E9
:0300000002257264
:0C257200787FE4F6D8FD75813E021D5B09
:1005A500BB010689828A83E0225002E722BBFE0254
:0905B500E32289828A83E4932287
:1005BE00BB010CE58229F582E5833AF583E02250F2
:1005CE0006E92582F8E622BBFE06E92582F8E2223C
:0D05DE00E58229F582E5833AF583E4932256
:1005EB00BB010689828A83F0225002F722BBFE01EF
:0205FB00F322E9
:1005FD00BB010A89828A83E0F5F0A3E022500687C9
:10060D00F009E71922BBFE07E3F5F009E31922898A
:0B061D00828A83E493F5F074019322BD
:10062800BB0110E58229F582E5833AF583E0F5F010
:10063800A3E0225009E92582F886F008E622BBFEED
:100648000AE92582F8E2F5F008E222E5832AF58333
:08065800E993F5F0A3E99322F8
:1006600075F008758200EF2FFFEE33FECD33CDCC51
:1006700033CCC58233C5829BED9AEC99E5829840D4
:100680000CF582EE9BFEED9AFDEC99FC0FD5F0D6B1
:10069000E4CEFBE4CDFAE4CCF9A88222B800C1B9DB
:1006A0000059BA002DEC8BF084CFCECDFCE5F0CB19
:1006B000F97818EF2FFFEE33FEED33FDEC33FCEB52
:1006C00033FB10D703994004EB99FB0FD8E5E4F90D
:1006D000FA227818EF2FFFEE33FEED33FDEC33FCFA
:1006E000C933C910D7059BE99A4007EC9BFCE99AEE
:1006F000F90FD8E0E4C9FAE4CCFB2275F010EF2F33
:10070000FFEE33FEED33FDCC33CCC833C810D70732
:100710009BEC9AE899400AED9BFDEC9AFCE899F86D
:0E0720000FD5F0DAE4CDFBE4CCFAE4C8F92200
:101EBB00C2D5E830E70FB2D5E4C39BFBE49AFAE452
:101ECB0099F9E498F8EC30E717B2D5121EF1120627
:101EDB009CE4C39BFBE49AFAE499F9E498F8800339
:101EEB0012069C30D50DE4C39FFFE49EFEE49DFDDE
:041EFB00E49CFC2245
:0E072E00C3E49FFFE49EFEE49DFDE49CFC22DC
:10073C00EB9FF5F0EA9E42F0E99D42F0E89C45F013
:01074C00228A
:10074D00E8600FECC313FCED13FDEE13FEEF13FF8A
:03075D00D8F122AE
:10076000BB010DE58229F582E5833AF5830207D3C3
:100770005007E92582F80207C6BBFE07E92582F883
:100780000207DFE58229F582E5833AF5830207EC6B
:10079000FAE6FB0808E6F925F0F618E6CA3AF6226A
:1007A000D083D082F8E4937012740193700DA3A3E8
:1007B00093F8740193F5828883E4737402936860FC
:0607C000EFA3A3A380DFFC
:0D07C600E6FB08E6F908E6FA08E6CBF822A3
:0C07D300E0F8A3E0F9A3E0FAA3E0FB22A9
:0D07DF00E2FB08E2F908E2FA08E2CBF8229A
:1007EC00E493F8740193F9740293FA740393FB2263
:00000001FF
