:1013F200687A203A2025640A000188020B020B0257
:1014020093037002930310031003700310029302FC
:10141200BA0293024B01B8024B024B02BA03DC033D
:10142200DC0370031002BA02BA0293037003DC02F7
:101432000B024B0188020B020B029303700293030F
:1014420010031003700310029302BA0293024B01BD
:10145200B8024B024B02BA03DC03DC037003100236
:10146200BA02BA029303DC024B020B03700370034D
:101472001002BA031003700310024B029302BA0265
:101482004B031003700310024B029302BA024B0388
:10149200100370031002BA024B024B03DC03700309
:1014A2001003700310031003700293024B020B032C
:1014B20070031002BA024B024B03DC0370031003E9
:1014C200700310031003700293024B020B020B0213
:1014D2004B029302BA029302BA0293024B029302A4
:1014E2004B0293024B020B0370037001EE020B02DC
:1014F2004B01B801B801EE020B024B020B030103D0
:1015020001030104030103010301040301030103B5
:1015120001030102020301020402030103010301A8
:101522000403010301030104030103010301030195
:10153200020203010404020201010102010101018C
:101542000103020101010101030201010101010183
:101552000101030101010103020101010101010174
:101562000103010101010301010101010101030163
:0F15720001010103020202010102020201010450
:1020E4001036002100250029002C00310037003E65
:0220F4000041A9
:101FE800750B01750A037B007A00790AE4FF120F6A
:101FF80055750B03E4F50AFB7A00790A7F03120F83
:1020080055750B02E4F50AFB7A00790A7F05020F81
:012018005572
:10201900750A40750B01750F00750EC2750D0175B6
:102029000C00751101E4F512FB7A00790A7F01129F
:0C20390000A67D017F01121CB053A23FE5
:012045002278
:101B3B00E4F50A750B01F50CAB07AA06F9F8FF7E65
:101B4B00367D6E7C01121A74E47B02FAF9F8121AD4
:101B5B0074C3E49FF50EE49EF50D7510017B007ABE
:0F1B6B0000790AE4FF120CEEE4FD7F01021B7A01
:03000800B28022A1
:10182D00E4F50875098243BA80121FE8122019D217
:10183D00AF20C939E50825E02436F8E6FE08E6FFB5
:10184D00121B3B7BFF7A1379F2E50825E02436F86D
:10185D00E6F50D08E6F50E1209F40508E508C39541
:10186D00094003E4F5087F6412214380C430C9C1E7
:04187D00C28080BDE8
:0F2143007D607C09ED1D70011C144C70F7DFF1FD
:01215200226A
:10002600AB07AA06EB1BAE0270011AC3EE648094FE
:0B0036008040077F0112214380EA2276
:100F5500EFD3940740037FFF221211A9FED3940318
:100F650040037FFF22EF7041EE700B9000011211DC
:100F7500C2F4529352941211A9B4010B90000112BC
:100F850011C24293F452941211A9FEB4020A9000C0
:100F9500011211C242934294EEB4030D9000011266
:100FA50011C2FEF45293EE4294EF640170431211A4
:100FB500A9FE700B9000011211C2F452915292EEEB
:100FC500B4010B9000011211C24291F45292121118
:100FD500A9B4020A9000011211C242914292121163
:100FE500A9B4030D9000011211C2FEF45291EE4214
:100FF50092EF640270431211A9FE700B900001126A
:1010050011C2F452955296EEB4010B9000011211E3
:10101500C24295F452961211A9B4020A9000011227
:1010250011C2429542961211A9B4030D9000011206
:1010350011C2FEF45295EE4296EF6403704312110D
:10104500A9FE700B9000011211C2F452B152B2EE1A
:10105500B4010B9000011211C242B1F452B2121147
:10106500A9B4020A9000011211C242B142B2121192
:10107500A9B4030D9000011211C2FEF452B1EE4263
:10108500B2EF640470431211A9FE700B90000112B7
:1010950011C2F452B352B4EEB4010B900001121117
:1010A500C242B3F452B41211A9B4020A900001125B
:1010B50011C242B342B41211A9B4030D900001123A
:1010C50011C2FEF452B3EE42B4EF6405704312113F
:1010D500A9FE700B9000011211C2F452C952CAEE5A
:1010E500B4010B9000011211C242C9F452CA121187
:1010F500A9B4020A9000011211C242C942CA1211D2
:10110500A9B4030D9000011211C2FEF452C9EE42BA
:10111500CAEF640670431211A9FE700B900001120C
:1011250011C2F452CB52CCEEB4010B900001121156
:10113500C242CBF452CC1211A9B4020A900001129A
:1011450011C242CB42CC1211A9B4030D9000011279
:1011550011C2FEF452CBEE42CCEF6407704312117C
:10116500A9FF700B9000011211C2F452E152E2EF97
:10117500B4010B9000011211C242E1F452E21211C6
:10118500A9B4020A9000011211C242E142E2121111
:10119500A9B4030D9000011211C2FFF452E1EF4210
:0411A500E27F0022C3
:101B7A00EFD3940140037FFF22EDD3940340037F08
:101B8A00FF22EF7004C2A98002D2A9ED700553B7F3
:101B9A00FDC2B9BD010553B7FDD2B9BD020543B7B0
:0E1BAA0002C2B9BD030543B702D2B97F0022C3
:101BB800EFD3940140037FFF22EDD3940340037FCA
:101BC800FF22EF7004C2AB8002D2ABED700553B7B1
:101BD800F7C2BBBD010553B7F7D2BBBD020543B77A
:0E1BE80008C2BBBD030543B708D2BB7F002275
:10206F00EFD3940140037FFF22EDD3940340037F0E
:10207F00FF22EF25E025E0FFE5AF54FB4FF5AFE47E
:02208F00FF222E
:10209100EFD3940140037FFF22EDD3940340037FEC
:1020A100FF22EFC43354E0FFE5AF54DF4FF5AFE457
:0220B100FF220C
:10006600EFD3940140037FFF22EDD3940340037F37
:10007600FF22EFC4333354C0FFE5AF54BF4FF5AF93
:03008600E4FF2272
:101BF600EFD3940140037FFF22EDD3940340037F8C
:101C0600FF22EF7004C2A88002D2A8ED700553B778
:101C1600FEC2B8BD010553B7FED2B8BD020543B733
:0E1C260001C2B8BD030543B701D2B87F00224A
:101C3400EFD3940140037FFF22EDD3940340037F4D
:101C4400FF22EF7004C2AA8002D2AAED700553B736
:101C5400FBC2BABD010553B7FBD2BABD020543B7F7
:0E1C640004C2BABD030543B704D2BA7F002202
:1020CC00EFD3940140037FFF22EFC454F0FFE58F60
:0820DC0054EF4FF58FE4FF22E1
:1020B300EFD3940140037FFF22EFC43354E0FFE5E5
:0920C3008F54DF4FF58FE4FF227A
:10004600EFD3940140037FFF22EFC4333354C0FF44
:0A005600E58F54BF4FF58FE4FF2241
:101C7200EFD3940140037FFF22EDD3940340037F0F
:101C8200FF22EF7004C2AD8002D2ADED700553B7F2
:101C9200DFC2BDBD010553B7DFD2BDBD020543B7EB
:0E1CA20020C2BDBD030543B720D2BD7F002286
:10195C00EDD3940340037FFF22EF30E10543E620F3
:10196C00800353E6DFEF30E00543E610800353E6D7
:10197C00EFED700653B6DF53B5DFBD010653B6DF8E
:10198C0043B520BD020643B62053B5DFBD03064365
:08199C00B62043B5207F0022B4
:1017D400EFD3940140037FFF22EBD3940340037FB4
:1017E400FF22BF0112ED90FE817006E0547FF0806D
:1017F40011E04480F0800BEF700890FE83E0548782
:101804004DF0EB700653B6DF53B5DFBB010653B69C
:10181400DF43B520BB020643B62053B5DFBB030646
:0918240043B62043B5207F0022E9
:101CB000EFD3940140037FFF22EDD3940340037FD1
:101CC000FF22EF7004C2AC8002D2ACED700553B7B6
:101CD000EFC2BCBD010553B7EFD2BCBD020543B78F
:0E1CE00010C2BCBD030543B710D2BC7F00226A
:101AFB00EFD3940140037FFF22EDD3940340037F88
:101B0B00FF22E5AF54FE4FF5AFED700653B6FE5313
:101B1B00B5FEBD010653B6FE43B501BD020643B685
:101B2B000153B5FEBD030643B60143B5017F002249
:1019A400EFD3940140037FFF22EDD3940340037FE0
:1019B400FF22EF33333354F8FFE5AF54F74FF5AF5D
:1019C400ED700653EEFE53DFFEBD010653EEFE43FB
:1019D400DF01BD020643EE0153DFFEBD030643EE05
:0719E4000143DF017F002237
:1019EB00EFD3940140037FFF22EDD3940340037F99
:1019FB00FF22EFC454F0FFE5AF54EF4FF5AFED709E
:101A0B000653EEFD53DFFDBD010653EEFD43DF0232
:101A1B00BD020643EE0253DFFDBD030643EE024358
:051A2B00DF027F002234
:101A3000EFD3940140037FFF22EDD3940340037F53
:101A4000FF22EF25E0FFE5AF54FD4FF5AFED700647
:101A500053B6FD53B5FDBD010653B6FD43B502BDFA
:101A6000020643B60253B5FDBD030643B60243B5B5
:041A7000027F0022CF
:10175A00EFD3948140037FFF22EBD3940340037FAE
:10176A00FF22EF247F603004705890FEC4EDF0EB46
:10177A00700653B6FB53B5FBBB010653B6FB43B524
:10178A0004BB020643B60453B5FBEB64037038434B
:10179A00B60443B504803090FEE4EDF0EB700653D6
:1017AA00B6F753B5F7BB010653B6F743B508BB0204
:1017BA000643B60853B5F7BB030D43B60843B5084D
:0A17CA00800590FEE4EDF07F0022A0
:101D2900EDD394035026ED700653EEFB53DFFBBD54
:101D3900010653EEFB43DF04BD020643EE0453DF05
:101D4900FBBD030B43EE0443DF0480037FFF2290B6
:071D5900FE62EFF07F0022A3
:101D600090FA10E054F0F0EDD39403500BE0FEED48
:101D700025E025E0FDEE4DF0EBD39403500690FAFC
:101D800010E04BF090FA10E0BF01054480F08003B2
:061D9000547FF07F0022E9
:101D960090FA00E054F0F0EDD39403500BE0FEED22
:101DA60025E025E0FDEE4DF0EBD39403500690FAC6
:101DB60000E04BF090FA00E0BF01054480F080039C
:061DC600547FF07F0022B3
:101DCC0090FA20E054F0F0EDD39403500BE0FEEDCC
:101DDC0025E025E0FDEE4DF0EBD39403500690FA90
:101DEC0020E04BF090FA20E0BF01054480F0800326
:061DFC00547FF07F00227D
:101E020090FA30E054F0F0EDD39403500BE0FEED85
:101E120025E025E0FDEE4DF0EBD39403500690FA59
:101E220030E04BF090FA30E0BF01054480F08003CF
:061E3200547FF07F002246
:101E380090FA38E054F0F0EDD39403500BE0FEED47
:101E480025E025E0FDEE4DF0EBD39403500690FA23
:101E580038E04BF090FA38E0BF01054480F0800389
:061E6800547FF07F002210
:101E6E0090FA40E054F0F0EDD39403500BE0FEED09
:101E7E0025E025E0FDEE4DF0EBD39403500690FAED
:101E8E0040E04BF090FA40E0BF01054480F0800343
:061E9E00547FF07F0022DA
:101EA40090FA48E054F0F0EDD39403500BE0FEEDCB
:101EB40025E025E0FDEE4DF0EBD39403500690FAB7
:101EC40048E04BF090FA48E0BF01054480F08003FD
:061ED400547FF07F0022A4
:101EDA0090FA50E054F0F0EDD39403500BE0FEED8D
:101EEA0025E025E0FDEE4DF0EBD39403500690FA81
:101EFA0050E04BF090FA50E0BF01054480F08003B7
:061F0A00547FF07F00226D
:101F100090FA58E054F0F0EDD39403500BE0FEED4E
:101F200025E025E0FDEE4DF0EBD39403500690FA4A
:101F300058E04BF090FA58E0BF01054480F0800370
:061F4000547FF07F002237
:101F460090FA60E054F0F0EDD39403500BE0FEED10
:101F560025E025E0FDEE4DF0EBD39403500690FA14
:101F660060E04BF090FA60E0BF01054480F080032A
:061F7600547FF07F002201
:101F7C0090FA68E054F0F0EDD39403500BE0FEEDD2
:101F8C0025E025E0FDEE4DF0EBD39403500690FADE
:101F9C0068E04BF090FA68E0BF01054480F08003E4
:061FAC00547FF07F0022CB
:101FB20090FA70E054F0F0EDD39403500BE0FEED94
:101FC20025E025E0FDEE4DF0EBD39403500690FAA8
:101FD20070E04BF090FA70E0BF01054480F080039E
:061FE200547FF07F002295
:1020460090FE50E054CFF0EDD39403500AE0FEED3D
:10205600C454F0FDEE4DF090FE50E0BF0105448003
:09206600F08003547FF07F00229A
:0800A6008F138B148A158916D3
:1000AE00E5136401600302021CF522F523F524F525
:1000BE0025F526F517F51874402518F582740135C7
:1000CE0017F583E4F00518E51870020517648045EE
:1000DE001770E4E4F517F51874002518F58274000E
:1000EE003517F583E4F00518E518700205176480DE
:1000FE00451770E4AB14AA15A9161211A9FFE598BD
:10010E00543F4FF598EF64C06008EF6440600302FF
:10011E0001D19000021213447F807E8D7D5B7C00A6
:10012E0012128E8F1C8E1B8D1A8C19E4FFFE7D0110
:10013E00FCAB1CAA1BA91AA819C312132040037FDB
:10014E00FF22C3E4951CF51CE4951BF51B74019569
:10015E001AF51AE49519F519AB14AA15A9169000FB
:10016E00011211C2FB6401702CC28E538EFE538994
:10017E00BF5389CF438E40AF1CAE1BAD1AAC19785E
:10018E00081213318F8D851C8BC2AB5389BF538FD1
:10019E00FDD28E8062EB64027026538EEF438E0189
:1001AE00538EF7438E04AF1CAE1BAD1AAC197808F4
:1001BE001213318FD6851CD753AFFB438E10803769
:1001CE007FFF22AB14AA15A9161211A9FF70139066
:1001DE0000081211C2B40105438E20801A538EDF1F
:1001EE008015EFB480119000081211C2B4010543BE
:1001FE008780800353877FAB14AA15A9169000073A
:10020E001211C27004C29C8002D29C7F0022E513A0
:10021E0064026003020315F527F528F529F52AF582
:10022E002BF517F51874E02518F58274013517F5BE
:10023E0083E4F00518E51870020517648045177001
:10024E00E4E4F517F51874802518F5827400351757
:10025E00F583E4F00518E51870020517648045175C
:10026E0070E4AB14AA15A9161211A9FF64C060059B
:10027E00EF64407075EFB4C005439A808003539AC3
:10028E007F9000021213447F807E8D7D5B7C001276
:10029E00128E8F1C8E1B8D1A8C19E4FFFE7D01FCB5
:1002AE00AB1CAA1BA91AA819C312132040037FFF67
:1002BE0022C3E4951CF51CE4951BF51B7401951ADD
:1002CE00F51AE49519F519538EEF538EF7438E04F4
:1002DE00AF1CAE1BAD1AAC1978081213318FD68530
:1002EE001CD753AFFB438E1080037FFF22AB14AAA3
:1002FE0015A9169000071211C2C454F0FFE59A54C6
:10030E00EF4FF59A7F0022E5136403600302044960
:10031E00F52CF52DF52EF52FF530F517F518746033
:10032E002518F58274023517F583E4F00518E518E3
:10033E00700205176440451770E4E4F517F518745C
:10034E00002518F58274013517F583E4F00518E5DC
:10035E0018700205176440451770E4AB14AA15A96E
:10036E00161211A9FF64C06008EF64406003020416
:10037E002CEFB4C00543AC80800353AC7F900002D9
:10038E001213447F807E8D7D5B7C0012128E8F1C3B
:10039E008E1B8D1A8C19E4FFFE7D01FCAB1CAA1B73
:1003AE00A91AA819C312132040037FFF22C3E49594
:1003BE001CF51CE4951BF51B7401951AF51AE495B2
:1003CE0019F519AB14AA15A9169000011211C2FB4A
:1003DE00B4031D43AC40AF1CAE1BAD1AAC1978086C
:1003EE001213318FD4851CD553D1F043D10A8031ED
:1003FE00EB64027026538EEF53ACBF538EF7438ED1
:10040E0004AF1CAE1BAD1AAC1978081213318FD67F
:10041E00851CD753AFFB438E1080067FFF227FFFD4
:10042E0022AB14AA15A9169000071211C2C454F0DB
:10043E00FFE5AC54EF4FF5AC7F0022E5136404608A
:10044E000302057DF531F532F533F534F535F51743
:10045E00F51874A02518F58274023517F583E4F0AB
:10046E000518E518700205176420451770E4E4F5C9
:10047E0017F51874C02518F58274013517F583E445
:10048E00F00518E518700205176420451770E4ABE7
:10049E0014AA15A9161211A9FF64C06008EF6440D2
:1004AE006003020560EFB4C005438480800353846B
:1004BE007F9000021213447F807E8D7D5B7C001244
:1004CE00128E8F1C8E1B8D1A8C19E4FFFE7D01FC83
:1004DE00AB1CAA1BA91AA819C312132040037FFF35
:1004EE0022C3E4951CF51CE4951BF51B7401951AAB
:1004FE00F51AE49519F519AB14AA15A91690000171
:10050E001211C2FBB4041D438440AF1CAE1BAD1AC6
:10051E00AC1978081213318FD2851CD353D10F43E7
:10052E00D1A08031EB64027026538EEF5384BF53FB
:10053E008EF7438E04AF1CAE1BAD1AAC19780812A1
:10054E0013318FD6851CD753AFFB438E1080067F99
:10055E00FF227FFF22AB14AA15A9169000071211D5
:10056E00C2C454F0FFE58454EF4FF5847F00227F20
:01057E00FF7D
:01057F002259
:0A000E008F99752401E52470FC228F
:1020F7001211A9FF600C12000E740129F9E43AFAD3
:0321070080EE2245
:0A2153008F9B752901E52970FC221D
:10210A001211A9FF600C122153740129F9E43AFA59
:03211A0080EE2232
:0A215D008FAD752E01E52E70FC22F7
:10211D001211A9FF600C12215D740129F9E43AFA3C
:03212D0080EE221F
:0A2167008F85753301E53370FC220B
:102130001211A9FF600C122167740129F9E43AFA1F
:0321400080EE220C
:05000300AE0702000E33
:03002300021AB806
:101AB800C0E0C083C082C0D075D000C00730982075
:101AC800C298E525C394804003752500AF250525F8
:101AD80074002FF582E43400F583E599F075260546
:101AE800309905C299752400D007D0D0D082D08310
:031AF800D0E03209
:030043000218811F
:10188100C0E0C083C082C0D075D000C007E59A30E7
:10189100E021539AFEE52AC394804003752A00AFE4
:1018A1002A052A74802FF582E43400F583E59BF044
:1018B100752B05E59A30E106539AFD752900D0078D
:0918C100D0D0D082D083D0E032F7
:03008B000218CA8E
:1018CA00C0E0C083C082C0D075D000C007E5AC308C
:1018DA00E02153ACFEE52FC394404003752F00AFBF
:1018EA002F052F74002FF582E43401F583E5ADF05E
:1018FA00753005E5AC30E10653ACFD752E00D00716
:09190A00D0D0D082D083D0E032AD
:030093000219133C
:10191300C0E0C083C082C0D075D000C007E584306A
:10192300E0215384FEE534C394204003753400AFB3
:1019330034053474C02FF582E43401F583E585F072
:10194300753505E58430E1065384FD753300D00712
:09195300D0D0D082D083D0E03264
:10058000AD07ED6401707A90FECCE054FEF0E054CB
:10059000FBF090FEC8E054FCF01211A9FF90FEC8D9
:1005A000E0548F4FF09000061211C2FF90FECC3045
:1005B000E00DE04401F090FEB1E04401F0800BE07A
:1005C00054FEF090FEB1E054FEF0EF90FECC30E12E
:1005D0000DE04404F090FEB1E04402F0800BE054E2
:1005E000FBF090FEB1E054FDF090000312121AE50A
:1005F000F090FED5F090000312121A90FED6020978
:100600003AED6402707A90FECCE054EFF0E054BF13
:10061000F090FEC9E054FCF01211A9FF90FEC9E071
:10062000548F4FF09000061211C2FF90FECC30E2C2
:100630000DE04410F090FEB1E04404F0800BE05473
:10064000EFF090FEB1E054FBF0EF90FECC30E30D04
:10065000E04440F090FEB1E04408F0800BE054BF6D
:10066000F090FEB1E054F7F090000312121AE5F09A
:1006700090FED7F090000312121A90FED802093AA9
:10068000ED6403707A90FECDE054FEF0E054FBF090
:1006900090FECAE054FCF01211A9FF90FECAE0548B
:1006A0008F4FF09000061211C2FF90FECD30E40D86
:1006B000E04401F090FEB1E04410F0800BE054FE05
:1006C000F090FEB1E054EFF0EF90FECD30E50DE09C
:1006D0004404F090FEB1E04420F0800BE054FBF0C5
:1006E00090FEB1E054DFF090000312121AE5F09092
:1006F000FED9F090000312121A90FEDA02093AEDC8
:100700006404707A90FECDE054EFF0E054BFF090B6
:10071000FECBE054FCF01211A9FF90FECBE0548F09
:100720004FF09000061211C2FF90FECD30E60DE0B2
:100730004410F090FEB1E04440F0800BE054EFF044
:1007400090FEB1E054BFF0EF90FECD30E70DE044F5
:1007500040F090FEB1E04480F0800BE054BFF09098
:10076000FEB1E0547FF090000312121AE5F090FE03
:10077000DBF090000312121A90FEDC02093AED64DD
:1007800080704F9000051211C290FEDEF0900001C3
:1007900012121AE5F090FED2F090000112121A9097
:1007A000FED3F09000081211C290FEDDB40106E005
:1007B0004480F08004E0547FF09000071211C29052
:1007C000FEC0B40106E04401F08004E054FEF07F76
:1007D0000022ED6405705690FEECE054FEF090FEB1
:1007E000E8E054FCF01211A9FF90FEE8E0548F4FAE
:1007F000F09000061211C290FEEC30E00DE04401D2
:10080000F090FEB5E04401F0800BE054FEF090FE65
:10081000B5E054FEF090000312121AE5F090FEF5D8
:10082000F090000312121A90FEF602093AED6406E7
:10083000705690FEECE054EFF090FEE9E054FCF0CE
:100840001211A9FF90FEE9E0548F4FF090000612BC
:1008500011C290FEEC30E20DE04410F090FEB5E0E5
:100860004404F0800BE054EFF090FEB5E054FBF050
:1008700090000312121AE5F090FEF7F090000312B8
:10088000121A90FEF802093AED6407705590FEEDD9
:10089000E054FEF090FEEAE054FCF01211A9FF9043
:1008A000FEEAE0548F4FF09000061211C290FEED68
:1008B00030E40DE04401F090FEB5E04410F0800B10
:1008C000E054FEF090FEB5E054EFF09000031212F9
:1008D0001AE5F090FEF9F090000312121A90FEFA59
:1008E0008058ED6408705790FEEDE054EFF090FEF4
:1008F000EBE054FCF01211A9FF90FEEBE0548F4F97
:10090000F09000061211C290FEED30E60DE04410AA
:10091000F090FEB5E04440F0800BE054EFF090FE24
:10092000B5E054BFF090000312121AE5F090FEFB00
:10093000F090000312121A90FEFCF07F0022ED648A
:1009400081704C9000051211C290FEFEF0900001E3
:1009500012121AFDACF0EC90FEF2F0AF05A3EFF02E
:100960009000081211C290FEFDB40106E04480F030
:100970008004E0547FF09000071211C290FEE0B4B2
:100980000106E04401F08004E054FEF07F00227F85
:02099000FF2244
:10158100EF2480700302163C14700302168124803C
:10159100B4080040030216CD9015A775F003A4C549
:1015A1008325F0C583730215BF0215CC0215DC0239
:1015B10015EC0215FC02160C02161C02162C121157
:1015C100EFFDACF0EC90FED50216C79000021212AE
:1015D1001AFDACF0EC90FED70216C790000412126F
:1015E1001AFDACF0EC90FED90216C790000612125B
:1015F1001AFDACF0EC90FEDB0216C7900008121247
:101601001AFDACF0EC90FEF50216C790000A12121A
:101611001AFDACF0EC90FEF70216C790000C121206
:101621001AFDACF0EC90FEF90216C790000E1212F2
:101631001AFDACF0EC90FEFB0216C71211EFFDACE7
:10164100F0EC90FED5F0AF05A3EFF090000212127E
:101651001AFDACF0EC90FED7F0AF05A3EFF09000CF
:101661000412121AFDACF0EC90FED9F0AF05A3EF15
:10167100F090000612121AFDACF0EC90FEDB8046F1
:1016810090000812121AFDACF0EC90FEF5F0AF05D7
:10169100A3EFF090000A12121AFDACF0EC90FEF7E5
:1016A100F0AF05A3EFF090000C12121AFDACF0ECB4
:1016B10090FEF9F0AF05A3EFF090000E12121AFDA3
:0D16C100ACF0EC90FEFBF0AF05A3EFF022C3
:100CEE00AD07ED7079C28C1211A9FED394034003A7
:100CFE007FFF22E58954FC4EF5899000011211C246
:100D0E00FED3940240037FFF22EE7006538E7F5374
:100D1E0089FB9000011211C2B40106438E805389E3
:100D2E00FB9000011211C2B4020343890490000229
:100D3E001211C2FFE58F54FE4FF58F900003121271
:100D4E001AE5F0F58C90000312121AF58A9000063F
:100D5E001211C27004C28C8002D28C7F0022ED640C
:100D6E00016003020DF4C28E1211A9FED39403404A
:100D7E00037FFF22EEC454F0FFE58954CF4FF5896F
:100D8E009000011211C2FED3940240037FFF22EEA7
:100D9E007006538EBF5389BF9000011211C2B40169
:100DAE0006438E405389BF9000011211C2B4020354
:100DBE004389409000021211C225E0FFE58F54FDD9
:100DCE004FF58F90000312121AE5F0F58D90000387
:100DDE0012121AF58B9000061211C27004C28E8088
:100DEE0002D28E7F0022ED64027065538EEF90006A
:100DFE00011211C2FF7006538EFB538EF7EFB40132
:100E0E0006438E04538EF7EFB40203438E08900010
:100E1E00021211C225E025E0FFE58F54FB4FF58F3E
:100E2E0090000312121AE5F0F5D690000312121A72
:100E3E00F5D79000051211C290FEA2F09000061296
:100E4E0011C2C454F0FFE58E54EF4FF58E7F002291
:100E5E00ED6403707253D1F79000011211C2FED3EC
:100E6E00940240037FFF22EE700653D1FD53D1FB57
:100E7E009000011211C2B4010643D10253D1FB906E
:100E8E0000011211C2B4020343D1049000021211E8
:100E9E00C2FFE5D154FE4FF5D190000312121AE5B0
:100EAE00F0F5D490000312121AF5D5900005121128
:100EBE00C290FEA3F09000061211C233333354F8E1
:100ECE00FFE5D154F78077ED6404707853D17F90AD
:100EDE0000011211C2FED3940240037FFF22EE7076
:100EEE000653D1DF53D1BF9000011211C2B40106D7
:100EFE0043D12053D1BF9000011211C2B40203435B
:100F0E00D1409000021211C2C454F0FFE5D154EF4B
:100F1E004FF5D190000312121AFDACF0ECF5D2AFE2
:100F2E00058FD39000051211C290FEA4F09000061A
:100F3E001211C2C43333335480FFE5D1547F4FF5C1
:070F4E00D17F00227FFF228A
:03000B00021CEEE6
:101CEE00C0E0C0F0C083C082C0D075D000C000C0BC
:101CFE0001C002C003C004C005C006C00712000820
:101D0E00D007D006D005D004D003D002D001D00029
:0B1D1E00D0D0D082D083D0F0D0E032D3
:03001B00020018C8
:03001800B2EE3213
:0300630002001E7A
:03001E00B2ED320E
:03009B0002006000
:03006000B2EC32CD
:0300A30002008ECA
:03008E00B2EB32A0
:030000000216CE17
:0C16CE00787FE4F6D8FD75814502171501
:1011A900BB010689828A83E0225002E722BBFE0244
:0911B900E32289828A83E4932277
:1011C200BB010CE58229F582E5833AF583E02250E2
:1011D20006E92582F8E622BBFE06E92582F8E2222C
:0D11E200E58229F582E5833AF583E4932246
:1011EF00BB010A89828A83E0F5F0A3E022500687CB
:1011FF00F009E71922BBFE07E3F5F009E31922898D
:0B120F00828A83E493F5F074019322BF
:10121A00BB0110E58229F582E5833AF583E0F5F012
:10122A00A3E0225009E92582F886F008E622BBFEEF
:10123A000AE92582F8E2F5F008E222E5832AF58335
:08124A00E993F5F0A3E99322FA
:1012520075F008758200EF2FFFEE33FECD33CDCC53
:1012620033CCC58233C5829BED9AEC99E5829840D6
:101272000CF582EE9BFEED9AFDEC99FC0FD5F0D6B3
:10128200E4CEFBE4CDFAE4CCF9A88222B800C1B9DD
:101292000059BA002DEC8BF084CFCECDFCE5F0CB1B
:1012A200F97818EF2FFFEE33FEED33FDEC33FCEB54
:1012B20033FB10D703994004EB99FB0FD8E5E4F90F
:1012C200FA227818EF2FFFEE33FEED33FDEC33FCFC
:1012D200C933C910D7059BE99A4007EC9BFCE99AF0
:1012E200F90FD8E0E4C9FAE4CCFB2275F010EF2F35
:1012F200FFEE33FEED33FDCC33CCC833C810D70735
:101302009BEC9AE899400AED9BFDEC9AFCE899F86F
:0E1312000FD5F0DAE4CDFBE4CCFAE4C8F92202
:101A7400C2D5E830E70FB2D5E4C39BFBE49AFAE49D
:101A840099F9E498F8EC30E717B2D5121AAA1212B1
:101A94008EE4C39BFBE49AFAE499F9E498F8800392
:101AA40012128E30D50DE4C39FFFE49EFEE49DFD2B
:041AB400E49CFC2290
:10132000EB9FF5F0EA9E42F0E99D42F0E89C45F023
:01133000229A
:10133100E8600FECC313FCED13FDEE13FEEF13FF9A
:03134100D8F122BE
:10134400BB010DE58229F582E5833AF58302139307
:101354005007E92582F8021386BBFE07E92582F8C7
:1013640002139FE58229F582E5833AF5830213ACE3
:10099200E519240DF8E6051922780A300702780DC8
:1009A200E475F0011213BC0211A92000EB7F2ED2D4
:1009B200008018EF540F2490D43440D4FF30040B3D
:1009C200EF24BFB41A0050032461FFE51A60021538
:1009D2001A051DE51D7002051C30070D780AE47525
:1009E200F0011213BCEF0213740200037403D20766
:1009F2008003E4C207F5198B0A8A0B890CE4F51A05
:100A0200F51CF51DE51A60077F201209CD80F575EA
:100A12001BFFC201C200C202C203C205C206C20853
:100A220012099BFF700D3007057F001209DEAF1D12
:100A3200AE1C22B4255FC2D5C20412099BFF24D08A
:100A4200B40A00501A75F00A781A30D50508B6FFB4
:100A52000106C6A426F620D5047002D20380D9244A
:100A6200CFB41A00EF5004C2E5D204020BDED20169
:100A720080C6D20080C0D20280BCD2D580BAD20554
:100A820080B47F201209CD2002077401B51A0040FC
:100A9200F1120992FF1209CD020A06D208D206808B
:100AA20095120992FB120992FA120992F94A4B70B5
:100AB2000679AF7A0C7BFF20022EE51A602A7E00AF
:100AC2008E827583001211C260060EEE651B70F0F5
:100AD200C2D5EBC0E0EAC0E0E9C0E0EE120C25D0DE
:100AE200E0F9D0E0FAD0E0FB1211A9FF60AAEBC056
:100AF200E0EAC0E0E9C0E01209CDD0E02401F9D07B
:100B0200E03400FAD0E0FBE51B0460DCD51BD980A1
:100B1200877BFF7A0C7921D202809C79108002793E
:100B220008C206C2088008D2D5790A8004790AC2AE
:100B3200D5E51B047002F51BE4FAFDFEFF120992D3
:100B4200FC7B08200113120992FD7B1030000A126F
:100B52000992FE120992FF7B20EC3382D592D55086
:100B620013C3E43000069FFFE49EFEE42001039DD0
:100B7200FDE49CFCE4CBF8C201EC700CCFCECDCCF2
:100B8200E824F8F870F38017C3EF33FFEE33FEED7D
:100B920033FDEC33FCEB33FB994002FB0FD8E9EB5E
:100BA200300105F8D0E0C448B201C0E00AEC4D4E75
:100BB2004F78207B0070C2EAB51B0040BCC0E01237
:100BC2000C27D0F0D0E0200104C4C0E0C4B201C0C0
:100BD200F01209B6D0F0D5F0EB020A061213CC0AD5
:100BE200A3530B1D580A744C0A70420B214F0B2958
:0F0BF200440B29490A89430B2F550B13460B134C
:100C0100450B13470CCF500A782D0A7C2E0A9F2BD7
:100C11000A80230A9D200CB82A0A384800000A9746
:100C21003F3F3F00790AA2D5200314300509B910CE
:100C3100020404B9080104A2D520060250010420CF
:100C410002689202B51A005034C0E07F20300319C7
:100C51007F30A20272067205500F120C7EC202C2D0
:100C610006C205C2087F30800F300503E9C0E012DB
:100C710009CD300503D0E0F9D0E0B51ACC30051725
:100C81007F30B9100C1209CD7F583004077F78806E
:100C910003B908031209CD3002057F2D0209CD7F6A
:100CA100202008F87F2B2006F322920280CF286EA5
:100CB100756C6C2900D2011209923001F8C20178D9
:100CC1001A30D50108F6020A382D50434958120945
:100CD100922403B405004001E4900CCA931209BEAA
:0D0CE100743A1209BED203751A04020B1DED
:1016DA0002182DE493A3F8E493A34003F68001F2E1
:1016EA0008DFF48029E493A3F85407240CC8C33311
:1016FA00C4540F4420C8834004F456800146F6DFE0
:10170A00E4800B01020408102040809020E4E47E6B
:10171A00019360BCA3FF543F30E509541FFEE493D4
:10172A00A360010ECF54C025E060A840B8E493A39B
:10173A00FAE493A3F8E493A3C8C582C8CAC583CAC6
:10174A00F0A3C8C582C8CAC583CADFE9DEE780BE7E
:0120F60000E9
:10137400BB010689828A83F0225002F722BBFE0158
:02138400F32252
:0D138600E6FB08E6F908E6FA08E6CBF822D7
:0C139300E0F8A3E0F9A3E0FAA3E0FB22DD
:0D139F00E2FB08E2F908E2FA08E2CBF822CE
:1013AC00E493F8740193F9740293FA740393FB2297
:1013BC00FAE6FB0808E6F925F0F618E6CA3AF62232
:1013CC00D083D082F8E4937012740193700DA3A3B0
:1013DC0093F8740193F5828883E4737402936860C4
:0613EC00EFA3A3A380DFC4
:00000001FF
