:04001D00023F00009E
:101D2A00751D04751C037B007A00791CE4FF020F01
:011D3A003D6B
:101BF100751C40751D017521007520C2751F017589
:101C01001E00752301E4F524FB7A00791C7F011283
:0C1C110006517D017F011218F453A23F20
:011C1D0022A4
:1014FF00751C60853B1F853C207522107B007A0090
:10150F00791C7F07120B2B751DBB751E7FE4F52110
:10151F00752401752301FB7A00791C7F81120B2B37
:10152F0090FEF0E4F0A37409F090FEB6E054CF44BF
:0A153F0020F0E4FBFD7F8102136A37
:0814A9008F1F8E1E8D1D8C1C8F
:1014B100E4FFFE7DFA7C44AB1FAA1EA91DA81C12E5
:1014C100018EE4FBFA79347843120297E4FBFA794E
:1014D100FA784312009D120372E4FCFD7B807ABB13
:1014E100F9F812049CE47B207A4EF9F81216F78E73
:0E14F1003B8F3C7B007A00792F7F0702119120
:1013E400E4FFFEE50CD394004061150CE50C705B42
:1013F400E50BD394004051900000E0FD70067EFFA1
:101404007FF68008EDB401047E007F0AEF2540F5E5
:1014140040EE353FF53FC3E54094B4E53F64809426
:10142400804008753F007540B48012D3E5409400B5
:10143400E53F648094805005E4F53FF540AC3FAD52
:0B14440040EC1203391214A9E4F50B70
:01144F00227A
:101CAE0043BA80121D2A121BF11214FFD2AF121367
:081CBE00E47F14121D3B80F6C7
:0F1D3B007D607C09ED1D70011C144C70F7DFF109
:011D4A002276
:100F3D00EFD3940740037FFF221203F3FED39403F4
:100F4D0040037FFF22EF7041EE700B900001120401
:100F5D000CF4529352941203F3B4010B900001124E
:100F6D00040C4293F452941203F3FEB4020A90005F
:100F7D000112040C42934294EEB4030D9000011241
:100F8D00040CFEF45293EE4294EF6401704312038D
:100F9D00F3FE700B90000112040CF452915292EE7C
:100FAD00B4010B90000112040C4291F45292120301
:100FBD00F3B4020A90000112040C42914292120302
:100FCD00F3B4030D90000112040CFEF45291EE42A5
:100FDD0092EF640270431203F3FE700B9000011246
:100FED00040CF452955296EEB4010B9000011204CC
:100FFD000C4295F452961203F3B4020A90000112BA
:10100D00040C429542961203F3B4030D90000112A5
:10101D00040CFEF45295EE4296EF640370431203F6
:10102D00F3FE700B90000112040CF452B152B2EEAB
:10103D00B4010B90000112040C42B1F452B2120330
:10104D00F3B4020A90000112040C42B142B2120331
:10105D00F3B4030D90000112040CFEF452B1EE42F4
:10106D00B2EF640470431203F3FE700B9000011293
:10107D00040CF452B352B4EEB4010B9000011204FF
:10108D000C42B3F452B41203F3B4020A90000112ED
:10109D00040C42B342B41203F3B4030D90000112D9
:1010AD00040CFEF452B3EE42B4EF64057043120328
:1010BD00F3FE700B90000112040CF452C952CAEEEB
:1010CD00B4010B90000112040C42C9F452CA120370
:1010DD00F3B4020A90000112040C42C942CA120371
:1010ED00F3B4030D90000112040CFEF452C9EE424C
:1010FD00CAEF640670431203F3FE700B90000112E9
:10110D00040CF452CB52CCEEB4010B90000112043E
:10111D000C42CBF452CC1203F3B4020A900001122C
:10112D00040C42CB42CC1203F3B4030D9000011218
:10113D00040CFEF452CBEE42CCEF64077043120365
:10114D00F3FF700B90000112040CF452E152E2EF28
:10115D00B4010B90000112040C42E1F452E21203AF
:10116D00F3B4020A90000112040C42E142E21203B0
:10117D00F3B4030D90000112040CFFF452E1EF42A1
:04118D00E27F0022DB
:0300230002173B86
:10173B00C0E0C083C082C0D075D000C007309820F5
:10174B00C298E50BC394804003750B00AF0B050BE0
:10175B0074002FF582E43400F583E599F0750C05E0
:10176B00309905C299750A00D007D0D0D082D083AA
:03177B00D0E03289
:030043000215495A
:10154900C0E0C083C082C0D075D000C007E59A3022
:10155900E021539AFEE510C394804003751000AF53
:1015690010051074802FF582E43400F583E59BF0B3
:10157900751105E59A30E106539AFD750F00D007FC
:09158900D0D0D082D083D0E03232
:03008B00021592C9
:10159200C0E0C083C082C0D075D000C007E5AC30C7
:1015A200E02153ACFEE515C394404003751500AF2E
:1015B20015051574002FF582E43401F583E5ADF0CD
:1015C200751605E5AC30E10653ACFD751400D00785
:0915D200D0D0D082D083D0E032E9
:030093000215DB78
:1015DB00C0E0C083C082C0D075D000C007E58430A6
:1015EB00E0215384FEE51AC394204003751A00AF23
:1015FB001A051A74C02FF582E43401F583E585F0E2
:10160B00751B05E58430E1065384FD751900D00781
:09161B00D0D0D082D083D0E0329F
:1017BE00EFD3940140037FFF22EDD3940340037FC8
:1017CE00FF22EF7004C2A98002D2A9ED700553B7B3
:1017DE00FDC2B9BD010553B7FDD2B9BD020543B770
:0E17EE0002C2B9BD030543B702D2B97F002283
:1017FC00EFD3940140037FFF22EDD3940340037F8A
:10180C00FF22EF7004C2AB8002D2ABED700553B770
:10181C00F7C2BBBD010553B7F7D2BBBD020543B739
:0E182C0008C2BBBD030543B708D2BB7F002234
:101C6A00EFD3940140037FFF22EDD3940340037F17
:101C7A00FF22EF25E025E0FFE5AF54FB4FF5AFE487
:021C8A00FF2237
:101C8C00EFD3940140037FFF22EDD3940340037FF5
:101C9C00FF22EFC43354E0FFE5AF54DF4FF5AFE460
:021CAC00FF2215
:101C4700EFD3940140037FFF22EDD3940340037F3A
:101C5700FF22EFC4333354C0FFE5AF54BF4FF5AF96
:031C6700E4FF2275
:10183A00EFD3940140037FFF22EDD3940340037F4B
:10184A00FF22EF7004C2A88002D2A8ED700553B738
:10185A00FEC2B8BD010553B7FED2B8BD020543B7F3
:0E186A0001C2B8BD030543B701D2B87F00220A
:10187800EFD3940140037FFF22EDD3940340037F0D
:10188800FF22EF7004C2AA8002D2AAED700553B7F6
:10189800FBC2BABD010553B7FBD2BABD020543B7B7
:0E18A80004C2BABD030543B704D2BA7F0022C2
:101CC600EFD3940140037FFF22EFC454F0FFE58F6A
:081CD60054EF4FF58FE4FF22EB
:10002600EFD3940140037FFF22EFC43354E0FFE592
:090036008F54DF4FF58FE4FF2227
:10000300EFD3940140037FFF22EFC4333354C0FF87
:0A001300E58F54BF4FF58FE4FF2284
:1018B600EFD3940140037FFF22EDD3940340037FCF
:1018C600FF22EF7004C2AD8002D2ADED700553B7B2
:1018D600DFC2BDBD010553B7DFD2BDBD020543B7AB
:0E18E60020C2BDBD030543B720D2BD7F002246
:10162400EDD3940340037FFF22EF30E10543E6202E
:10163400800353E6DFEF30E00543E610800353E612
:10164400EFED700653B6DF53B5DFBD010653B6DFC9
:1016540043B520BD020643B62053B5DFBD030643A0
:08166400B62043B5207F0022EF
:10145000EFD3940140037FFF22EBD3940340037F3B
:10146000FF22BF0112ED90FE817006E0547FF080F4
:1014700011E04480F0800BEF700890FE83E0548709
:101480004DF0EB700653B6DF53B5DFBB010653B624
:10149000DF43B520BB020643B62053B5DFBB0306CE
:0914A00043B62043B5207F002271
:1018F400EFD3940140037FFF22EDD3940340037F91
:10190400FF22EF7004C2AC8002D2ACED700553B775
:10191400EFC2BCBD010553B7EFD2BCBD020543B74E
:0E19240010C2BCBD030543B710D2BC7F002229
:10177E00EFD3940140037FFF22EDD3940340037F08
:10178E00FF22E5AF54FE4FF5AFED700653B6FE5394
:10179E00B5FEBD010653B6FE43B501BD020643B606
:1017AE000153B5FEBD030643B60143B5017F0022CA
:10166C00EFD3940140037FFF22EDD3940340037F1B
:10167C00FF22EF33333354F8FFE5AF54F74FF5AF98
:10168C00ED700653EEFE53DFFEBD010653EEFE4336
:10169C00DF01BD020643EE0153DFFEBD030643EE40
:0716AC000143DF017F002272
:10004600EFD3940140037FFF22EDD3940340037F57
:10005600FF22EFC454F0FFE5AF54EF4FF5AFED705C
:100066000653EEFD53DFFDBD010653EEFD43DF02F1
:10007600BD020643EE0253DFFDBD030643EE024317
:05008600DF027F0022F3
:1016B300EFD3940140037FFF22EDD3940340037FD4
:1016C300FF22EF25E0FFE5AF54FD4FF5AFED7006C8
:1016D30053B6FD53B5FDBD010653B6FD43B502BD7B
:1016E300020643B60253B5FDBD030643B60243B536
:0416F300027F002250
:10136A00EFD3948140037FFF22EBD3940340037FA2
:10137A00FF22EF247F603004705890FEC4EDF0EB3A
:10138A00700653B6FB53B5FBBB010653B6FB43B518
:10139A0004BB020643B60453B5FBEB64037038433F
:1013AA00B60443B504803090FEE4EDF0EB700653CA
:1013BA00B6F753B5F7BB010653B6F743B508BB02F8
:1013CA000643B60853B5F7BB030D43B60843B50841
:0A13DA00800590FEE4EDF07F002294
:10193200EDD394035026ED700653EEFB53DFFBBD4F
:10194200010653EEFB43DF04BD020643EE0453DF00
:10195200FBBD030B43EE0443DF0480037FFF2290B1
:07196200FE62EFF07F00229E
:1019690090FA10E054F0F0EDD39403500BE0FEED43
:1019790025E025E0FDEE4DF0EBD39403500690FAF7
:1019890010E04BF090FA10E0BF01054480F08003AD
:06199900547FF07F0022E4
:10199F0090FA00E054F0F0EDD39403500BE0FEED1D
:1019AF0025E025E0FDEE4DF0EBD39403500690FAC1
:1019BF0000E04BF090FA00E0BF01054480F0800397
:0619CF00547FF07F0022AE
:1019D50090FA20E054F0F0EDD39403500BE0FEEDC7
:1019E50025E025E0FDEE4DF0EBD39403500690FA8B
:1019F50020E04BF090FA20E0BF01054480F0800321
:061A0500547FF07F002277
:101A0B0090FA30E054F0F0EDD39403500BE0FEED80
:101A1B0025E025E0FDEE4DF0EBD39403500690FA54
:101A2B0030E04BF090FA30E0BF01054480F08003CA
:061A3B00547FF07F002241
:101A410090FA38E054F0F0EDD39403500BE0FEED42
:101A510025E025E0FDEE4DF0EBD39403500690FA1E
:101A610038E04BF090FA38E0BF01054480F0800384
:061A7100547FF07F00220B
:101A770090FA40E054F0F0EDD39403500BE0FEED04
:101A870025E025E0FDEE4DF0EBD39403500690FAE8
:101A970040E04BF090FA40E0BF01054480F080033E
:061AA700547FF07F0022D5
:101AAD0090FA48E054F0F0EDD39403500BE0FEEDC6
:101ABD0025E025E0FDEE4DF0EBD39403500690FAB2
:101ACD0048E04BF090FA48E0BF01054480F08003F8
:061ADD00547FF07F00229F
:101AE30090FA50E054F0F0EDD39403500BE0FEED88
:101AF30025E025E0FDEE4DF0EBD39403500690FA7C
:101B030050E04BF090FA50E0BF01054480F08003B1
:061B1300547FF07F002268
:101B190090FA58E054F0F0EDD39403500BE0FEED49
:101B290025E025E0FDEE4DF0EBD39403500690FA45
:101B390058E04BF090FA58E0BF01054480F080036B
:061B4900547FF07F002232
:101B4F0090FA60E054F0F0EDD39403500BE0FEED0B
:101B5F0025E025E0FDEE4DF0EBD39403500690FA0F
:101B6F0060E04BF090FA60E0BF01054480F0800325
:061B7F00547FF07F0022FC
:101B850090FA68E054F0F0EDD39403500BE0FEEDCD
:101B950025E025E0FDEE4DF0EBD39403500690FAD9
:101BA50068E04BF090FA68E0BF01054480F08003DF
:061BB500547FF07F0022C6
:101BBB0090FA70E054F0F0EDD39403500BE0FEED8F
:101BCB0025E025E0FDEE4DF0EBD39403500690FAA3
:101BDB0070E04BF090FA70E0BF01054480F0800399
:061BEB00547FF07F002290
:101C1E0090FE50E054CFF0EDD39403500AE0FEED69
:101C2E00C454F0FDEE4DF090FE50E0BF010544802F
:091C3E00F08003547FF07F0022C6
:100B2B00AD07ED6401707A90FECCE054FEF0E0541A
:100B3B00FBF090FEC8E054FCF01203F3FF90FEC8EC
:100B4B00E0548F4FF090000612040CFF90FECC3057
:100B5B00E00DE04401F090FEB1E04401F0800BE0C9
:100B6B0054FEF090FEB1E054FEF0EF90FECC30E17D
:100B7B000DE04404F090FEB1E04402F0800BE05431
:100B8B00FBF090FEB1E054FDF0900003120464E51D
:100B9B00F090FED5F090000312046490FED6020E86
:100BAB00E5ED6402707A90FECCE054EFF0E054BFB8
:100BBB00F090FEC9E054FCF01203F3FF90FEC9E085
:100BCB00548F4FF090000612040CFF90FECC30E2D5
:100BDB000DE04410F090FEB1E04404F0800BE054C3
:100BEB00EFF090FEB1E054FBF0EF90FECC30E30D54
:100BFB00E04440F090FEB1E04408F0800BE054BFBD
:100C0B00F090FEB1E054F7F0900003120464E5F0AD
:100C1B0090FED7F090000312046490FED8020EE50C
:100C2B00ED6403707A90FECDE054FEF0E054FBF0DF
:100C3B0090FECAE054FCF01203F3FF90FECAE0549E
:100C4B008F4FF090000612040CFF90FECD30E40D98
:100C5B00E04401F090FEB1E04410F0800BE054FE54
:100C6B00F090FEB1E054EFF0EF90FECD30E50DE0EB
:100C7B004404F090FEB1E04420F0800BE054FBF014
:100C8B0090FEB1E054DFF0900003120464E5F090A5
:100C9B00FED9F090000312046490FEDA020EE5ED2B
:100CAB006404707A90FECDE054EFF0E054BFF09006
:100CBB00FECBE054FCF01203F3FF90FECBE0548F1D
:100CCB004FF090000612040CFF90FECD30E60DE0C5
:100CDB004410F090FEB1E04440F0800BE054EFF094
:100CEB0090FEB1E054BFF0EF90FECD30E70DE04445
:100CFB0040F090FEB1E04480F0800BE054BFF090E8
:100D0B00FEB1E0547FF0900003120464E5F090FE16
:100D1B00DBF090000312046490FEDC020EE5ED6440
:100D2B0080704F90000512040C90FEDEF0900001D5
:100D3B00120464E5F090FED2F0900001120464906E
:100D4B00FED3F090000812040C90FEDDB40106E017
:100D5B004480F08004E0547FF090000712040C9064
:100D6B00FEC0B40106E04401F08004E054FEF07FC5
:100D7B000022ED6405705690FEECE054FEF090FE00
:100D8B00E8E054FCF01203F3FF90FEE8E0548F4FC1
:100D9B00F090000612040C90FEEC30E00DE04401E4
:100DAB00F090FEB5E04401F0800BE054FEF090FEB5
:100DBB00B5E054FEF0900003120464E5F090FEF5EC
:100DCB00F090000312046490FEF6020EE5ED64064B
:100DDB00705690FEECE054EFF090FEE9E054FCF01E
:100DEB001203F3FF90FEE9E0548F4FF090000612D0
:100DFB00040C90FEEC30E20DE04410F090FEB5E0F8
:100E0B004404F0800BE054EFF090FEB5E054FBF09F
:100E1B00900003120464E5F090FEF7F090000312CB
:100E2B00046490FEF8020EE5ED6407705590FEED3C
:100E3B00E054FEF090FEEAE054FCF01203F3FF9056
:100E4B00FEEAE0548F4FF090000612040C90FEED7A
:100E5B0030E40DE04401F090FEB5E04410F0800B5F
:100E6B00E054FEF090FEB5E054EFF0900003120456
:100E7B0064E5F090FEF9F090000312046490FEFA22
:100E8B008058ED6408705790FEEDE054EFF090FE43
:100E9B00EBE054FCF01203F3FF90FEEBE0548F4FAA
:100EAB00F090000612040C90FEED30E60DE04410BD
:100EBB00F090FEB5E04440F0800BE054EFF090FE74
:100ECB00B5E054BFF0900003120464E5F090FEFB14
:100EDB00F090000312046490FEFCF07F0022ED649E
:100EEB0081704C90000512040C90FEFEF0900001F6
:100EFB00120464FDACF0EC90FEF2F0AF05A3EFF042
:100F0B0090000812040C90FEFDB40106E04480F042
:100F1B008004E0547FF090000712040C90FEE0B4C4
:100F2B000106E04401F08004E054FEF07F00227FD4
:020F3B00FF2293
:10119100EF2480700302124C147003021291248018
:1011A100B4080040030212DD9011B775F003A4C525
:1011B1008325F0C583730211CF0211DC0211EC0209
:1011C10011FC02120C02121C02122C02123C12041B
:1011D10039FDACF0EC90FED50212D790000212045A
:1011E10064FDACF0EC90FED70212D790000412041B
:1011F10064FDACF0EC90FED90212D7900006120407
:1012010064FDACF0EC90FEDB0212D79000081204F2
:1012110064FDACF0EC90FEF50212D790000A1204C6
:1012210064FDACF0EC90FEF70212D790000C1204B2
:1012310064FDACF0EC90FEF90212D790000E12049E
:1012410064FDACF0EC90FEFB0212D7120439FDAC48
:10125100F0EC90FED5F0AF05A3EFF0900002120480
:1012610064FDACF0EC90FED7F0AF05A3EFF0900079
:1012710004120464FDACF0EC90FED9F0AF05A3EFCD
:10128100F0900006120464FDACF0EC90FEDB8046A9
:10129100900008120464FDACF0EC90FEF5F0AF058F
:1012A100A3EFF090000A120464FDACF0EC90FEF79D
:1012B100F0AF05A3EFF090000C120464FDACF0EC6C
:1012C10090FEF9F0AF05A3EFF090000E120464FD5B
:0D12D100ACF0EC90FEFBF0AF05A3EFF022B7
:080651008F258B268A278928DA
:10065900E525640160030207C7F508F509F50AF500
:100669000BF50CF529F52A7440252AF58274013514
:1006790029F583E4F0052AE52A70020529648045F5
:100689002970E4E4F529F52A7400252AF582740015
:100699003529F583E4F0052AE52A700205296480E5
:1006A900452970E4AB26AA27A9281203F3FFE59888
:1006B900543F4FF598EF64C06008EF64406003024F
:1006C900077C9000021205EB7F807E8D7D5B7C00AC
:1006D9001205278F2E8E2D8D2C8C2BE4FFFE7D018C
:1006E900FCAB2EAA2DA92CA82BC31205C740037F4A
:1006F900FF22C3E4952EF52EE4952DF52D74019571
:100709002CF52CE4952BF52BAB26AA27A9289000CC
:100719000112040CFB6401702CC28E538EFE5389A6
:10072900BF5389CF438E40AF2EAE2DAD2CAC2B7865
:10073900081205D88F8D852E8BC2AB5389BF538F75
:10074900FDD28E8062EB64027026538EEF438E01D8
:10075900538EF7438E04AF2EAE2DAD2CAC2B7808FB
:100769001205D88FD6852ED753AFFB438E1080370D
:100779007FFF22AB26AA27A9281203F3FF70139043
:10078900000812040CB40105438E20801A538EDF31
:100799008015EFB4801190000812040CB4010543D0
:1007A9008780800353877FAB26AA27A92890000753
:1007B90012040C7004C29C8002D29C7F0022E525A1
:1007C900640260030208C0F50DF50EF50FF510F58A
:1007D90011F529F52A74E0252AF58274013529F5E0
:1007E90083E4F0052AE52A70020529648045297009
:1007F900E4E4F529F52A7480252AF582740035295F
:10080900F583E4F0052AE52A700205296480452963
:1008190070E4AB26AA27A9281203F3FF64C0600578
:10082900EF64407075EFB4C005439A808003539A12
:100839007F9000021205EB7F807E8D7D5B7C00122C
:1008490005278F2E8E2D8D2C8C2BE4FFFE7D01FC30
:10085900AB2EAA2DA92CA82BC31205C740037FFFD5
:1008690022C3E4952EF52EE4952DF52D7401952CD2
:10087900F52CE4952BF52B538EEF538EF7438E040D
:10088900AF2EAE2DAD2CAC2B78081205D88FD6859E
:100899002ED753AFFB438E1080037FFF22AB26AACE
:1008A90027A92890000712040CC454F0FFE59A54B4
:1008B900EF4FF59A7F0022E525640360030209F4EE
:1008C900F512F513F514F515F516F529F52A7460E1
:1008D900252AF58274023529F583E4F0052AE52AEB
:1008E900700205296440452970E4E4F529F52A7464
:1008F90000252AF58274013529F583E4F0052AE5F6
:100909002A700205296440452970E4AB26AA27A963
:10091900281203F3FF64C06008EF64406003020912
:10092900D7EFB4C00543AC80800353AC7F9000027D
:100939001205EB7F807E8D7D5B7C001205278F2E53
:100949008E2D8D2C8C2BE4FFFE7D01FCAB2EAA2D68
:10095900A92CA82BC31205C740037FFF22C3E49526
:100969002EF52EE4952DF52D7401952CF52CE49595
:100979002BF52BAB26AA27A92890000112040CFB02
:10098900B4031D43AC40AF2EAE2DAD2CAC2B780873
:100999001205D88FD4852ED553D1F043D10A803191
:1009A900EB64027026538EEF53ACBF538EF7438E20
:1009B90004AF2EAE2DAD2CAC2B78081205D88FD6EE
:1009C900852ED753AFFB438E1080067FFF227FFF12
:1009D90022AB26AA27A92890000712040CC454F0B8
:1009E900FFE5AC54EF4FF5AC7F0022E525640460C8
:1009F90003020B28F517F518F519F51AF51BF52952
:100A0900F52A74A0252AF58274023529F583E4F0C4
:100A1900052AE52A700205296420452970E4E4F5D0
:100A290029F52A74C0252AF58274013529F583E44C
:100A3900F0052AE52A700205296420452970E4ABEE
:100A490026AA27A9281203F3FF64C06008EF6440AF
:100A59006003020B0BEFB4C0054384808003538409
:100A69007F9000021205EB7F807E8D7D5B7C0012FA
:100A790005278F2E8E2D8D2C8C2BE4FFFE7D01FCFE
:100A8900AB2EAA2DA92CA82BC31205C740037FFFA3
:100A990022C3E4952EF52EE4952DF52D7401952CA0
:100AA900F52CE4952BF52BAB26AA27A92890000154
:100AB90012040CFBB4041D438440AF2EAE2DAD2CA3
:100AC900AC2B78081205D88FD2852ED353D10F437A
:100AD900D1A08031EB64027026538EEF5384BF534B
:100AE9008EF7438E04AF2EAE2DAD2CAC2B780812A9
:100AF90005D88FD6852ED753AFFB438E1080067F3E
:100B0900FF227FFF22AB26AA27A9289000071204FB
:100B19000CC454F0FFE58454EF4FF5847F00227F25
:010B2900FFCC
:010B2A0022A8
:0A1D4B008F99750A01E50A70FC2269
:101CDE001203F3FF600C121D4B740129F9E43AFA5A
:031CEE0080EE2263
:0A1D55008F9B750F01E50F70FC2253
:101CF1001203F3FF600C121D55740129F9E43AFA3D
:031D010080EE224F
:0A1D5F008FAD751401E51470FC222D
:101D04001203F3FF600C121D5F740129F9E43AFA1F
:031D140080EE223C
:0A1D69008F85751901E51970FC2241
:101D17001203F3FF600C121D69740129F9E43AFA02
:031D270080EE2229
:05008E00AE07021D4B4E
:100096000203DEE86480F8E933E83360110460F0B7
:1000A600ED33EC337009E8FCE9FDEAFEEBFF2204D0
:1000B60060DED3EB9FEA9EE99DE8C2E78CF0C2F7CB
:1000C60095F0400CE8CCF8E9CDF9EACEFAEBCFFB97
:1000D6001203A985D0F05804700320D5B3E8047044
:1000E600075002B2D50203E892D5EC0460F7E4CCDF
:1000F600C0E0C398F8603B94186008400DD0E0FB60
:100106000203C0E4FBFAC9FC8028E830E406E4C92F
:10011600FBE4CAFCE830E305E4C9CACBFCE85407B3
:100126006010F8C3E913F9EA13FAEB13FBEC13FCBE
:10013600D8F130F52FC3E49CFCEF9BFFEE9AFEED61
:1001460099FDD0E0FBEF4E4D4C701222DB0302030B
:10015600E5EC2CFCEF33FFEE33FEED33FDED30E73F
:10016600EB0203C0EF2BFFEE3AFEED39FDD0E0FBCC
:1001760050130BBB00030203E8ED13FDEE13FEEF75
:0801860013FFEC13FC0203C09F
:10018E00EC4D6011E8497017ED33EC3304600DE46B
:10019E00FCFFFEFD22E933E8330470F80203DE12A1
:1001AE0003A958046009E4CC2481500628500902A2
:1001BE0003E82840030203E5C0E0EB4A7044B9802F
:1001CE0006D0E0FB0203D4EF4E701CBD8008EBFF9F
:1001DE00EAFEE9FD80EBE98DF0A4FEE5F002027780
:1001EE00E9CDF9EAFEEBFFEF89F0A4FCE5F0CE894C
:1001FE00F0A42EFFE435F0CD89F0A42DFEE435F009
:10020E008067EF4E7005BD80D780C3EF8BF0A4AC36
:10021E00F0EE8BF0A42CFCE435F0F8EF8AF0A42C71
:10022E00E5F038FCE433CB8DF0A42CFCE5F03BF884
:10023E00EE8AF0A42CFCE5F038F8E433CF89F0A474
:10024E002CFCE5F038CF3400CE89F0A42FFFE5F07A
:10025E003EFEE433C98DF0A42EFEE5F039CD8AF0D2
:10026E00A42FFFE5F03EFEE43DFD33D0E0FB50074A
:10027E000BBB000F0203E8EC2CFCEF33FFEE33FE5A
:06028E00ED33FD0203C088
:100294000203E8EC5D046005E8590470030203DE20
:1002A4001203A9580460F6EC4860F2EC7004FDFEF9
:1002B400FF22C860DB2481C85009C398600250063D
:1002C4000203E59850CAF582E9294B4A7005AB82CE
:1002D4000203D475F0007C1A7880C3EF9BEE9AED8C
:1002E40099400DC3EF9BFFEE9AFEED99FDE842F0B5
:1002F400DC23ACF0D0E0FFD0E0FED0E0FDAB822008
:10030400E7101BEB60BAEC2CFCEF33FFEE33FEED91
:1003140033FD0203C0E803F830E705C0F075F000D0
:10032400EF2FFFEE33FEED33FD40B830E7C280AA75
:1003340075F020800E75F010800575F0087D007E44
:10034400007F003392D530D5031205B9EC33401049
:10035400EF33FFEE33FEED33FDEC33FCD5F0ED224D
:0E036400E5F0247EA2D513CC92E7CDCEFF2289
:10037200EDD2E7CD33EC3392D524814006E4FFFE83
:10038200FDFC22FCE4CFCECDCC24E0501174FF80E2
:10039200EDC3CC13CCCD13CDCE13CECF13CF04707F
:0703A200F030D5DE0205B9C1
:1003A900E9D2E7C933E833F892D5EDD2E7CD33EC9A
:0703B90033FC5002B2D52213
:1003C000EC30E7100FBF000C0EBE00080DBD00049E
:1003D0000BEB6014A2D5EB13FCED92E7FD2274FF4A
:1003E000FCFDFEFF22E480F8A2D574FF13FC7D80A3
:0303F000E480EFB7
:030000000212DE0B
:0C12DE00787FE4F6D8FD758140021325EE
:1003F300BB010689828A83E0225002E722BBFE0208
:09040300E32289828A83E493223A
:10040C00BB010CE58229F582E5833AF583E02250A5
:10041C0006E92582F8E622BBFE06E92582F8E222EF
:0D042C00E58229F582E5833AF583E4932209
:10043900BB010A89828A83E0F5F0A3E0225006878E
:10044900F009E71922BBFE07E3F5F009E319228950
:0B045900828A83E493F5F07401932283
:10046400BB0110E58229F582E5833AF583E0F5F0D6
:10047400A3E0225009E92582F886F008E622BBFEB3
:100484000AE92582F8E2F5F008E222E5832AF583F9
:08049400E993F5F0A3E99322BE
:10049C00E88FF0A4CC8BF0A42CFCE98EF0A42CFCFF
:1004AC008AF0EDA42CFCEA8EF0A4CDA8F08BF0A47D
:1004BC002DCC3825F0FDE98FF0A42CCD35F0FCEBDC
:1004CC008EF0A4FEA9F0EB8FF0A4CFC5F02ECD39A1
:0F04DC00FEE43CFCEAA42DCE35F0FDE43CFC220E
:1004EB0075F008758200EF2FFFEE33FECD33CDCCC8
:1004FB0033CCC58233C5829BED9AEC99E58298404B
:10050B000CF582EE9BFEED9AFDEC99FC0FD5F0D627
:10051B00E4CEFBE4CDFAE4CCF9A88222B800C1B951
:10052B000059BA002DEC8BF084CFCECDFCE5F0CB8F
:10053B00F97818EF2FFFEE33FEED33FDEC33FCEBC8
:10054B0033FB10D703994004EB99FB0FD8E5E4F983
:10055B00FA227818EF2FFFEE33FEED33FDEC33FC70
:10056B00C933C910D7059BE99A4007EC9BFCE99A64
:10057B00F90FD8E0E4C9FAE4CCFB2275F010EF2FA9
:10058B00FFEE33FEED33FDCC33CCC833C810D707A9
:10059B009BEC9AE899400AED9BFDEC9AFCE899F8E4
:0E05AB000FD5F0DAE4CDFBE4CCFAE4C8F92277
:1016F700C2D5E830E70FB2D5E4C39BFBE49AFAE41E
:1017070099F9E498F8EC30E717B2D512172D1205BE
:1017170027E4C39BFBE49AFAE499F9E498F8800379
:1017270012052730D50DE4C39FFFE49EFEE49DFD1F
:04173700E49CFC2210
:0E05B900C3E49FFFE49EFEE49DFDE49CFC2253
:1005C700EB9FF5F0EA9E42F0E99D42F0E89C45F08A
:0105D7002201
:1005D800E8600FECC313FCED13FDEE13FEEF13FF01
:0305E800D8F12225
:1005EB00BB010DE58229F582E5833AF583020628E6
:1005FB005007E92582F802061BBBFE07E92582F8A6
:10060B00020634E58229F582E5833AF58302064139
:1012EA00021CAEE493A3F8E493A34003F68001F250
:1012FA0008DFF48029E493A3F85407240CC8C33305
:10130A00C4540F4420C8834004F456800146F6DFD3
:10131A00E4800B010204081020408090001DE47E46
:10132A00019360BCA3FF543F30E509541FFEE493C8
:10133A00A360010ECF54C025E060A840B8E493A38F
:10134A00FAE493A3F8E493A3C8C582C8CAC583CABA
:10135A00F0A3C8C582C8CAC583CADFE9DEE780BE72
:0100210000DE
:0D061B00E6FB08E6F908E6FA08E6CBF8224F
:0C062800E0F8A3E0F9A3E0FAA3E0FB2255
:0D063400E2FB08E2F908E2FA08E2CBF82246
:10064100E493F8740193F9740293FA740393FB220F
:00000001FF
