:101712006B65792564203A2055500A006B6579255E
:0A17220064203A20444F574E0A009D
:03008E00011F0F40
:10000300750A03E4F509FB7A0079097F031208CC2A
:0C00130053C9E153CAE15393FD4394022A
:01001F0022BE
:10161100750940750A01750E00750DC2750C0175CD
:101621000B00751001E4F511FB7A0079097F0112B5
:0C16310000967D017F0112131453A23FAC
:01163D00228A
:1016F10075361FE4F539753A01F537753801FB7A0E
:10170100007936120F587F011217C0E4FDFF021253
:01171100D601
:10166700EF14600E14600F14601024037012A2C9E7
:10167700800AA2CA8006A2CB8002A2CCE433FF2252
:031687007F0022BF
:100D920043BA80120003121611D2AFC281E4F508E1
:100DA200AF08121667AE08A806E51F088002C31333
:100DB200D8FC54016F60547F0A1217B0AF081216A4
:100DC20067EF60247BFF7A177912E5082401F50D9D
:100DD200E433F50C1205D2AF08A8077401088002AB
:100DE200C333D8FC421F80237BFF7A17791EE508A4
:100DF2002401F50DE433F50C1205D2AF08A80774EF
:100E020001088002C333D8FCF4521F0508E508C369
:060E12009404408C80876F
:0F17B0007D607C09ED1D70011C144C70F7DFF19A
:0117BF002207
:1008CC00EFD3940740037FFF22120B20FED3940337
:1008DC0040037FFF22EF7041EE700B900001120B72
:1008EC0039F452935294120B20B4010B9000011264
:1008FC000B394293F45294120B20FEB4020A90006E
:10090C0001120B3942934294EEB4030D9000011284
:10091C000B39FEF45293EE4294EF64017043120BC8
:10092C0020FE700B900001120B39F452915292EE92
:10093C00B4010B900001120B394291F45292120B3C
:10094C0020B4020A900001120B3942914292120B10
:10095C0020B4030D900001120B39FEF45291EE42BB
:10096C0092EF64027043120B20FE700B9000011288
:10097C000B39F452955296EEB4010B900001120B08
:10098C00394295F45296120B20B4020A90000112CF
:10099C000B3942954296120B20B4030D90000112B4
:1009AC000B39FEF45295EE4296EF64037043120B32
:1009BC0020FE700B900001120B39F452B152B2EEC2
:1009CC00B4010B900001120B3942B1F452B2120B6C
:1009DC0020B4020A900001120B3942B142B2120B40
:1009EC0020B4030D900001120B39FEF452B1EE420B
:1009FC00B2EF64047043120B20FE700B90000112D6
:100A0C000B39F452B352B4EEB4010B900001120B3B
:100A1C003942B3F452B4120B20B4020A9000011202
:100A2C000B3942B342B4120B20B4030D90000112E7
:100A3C000B39FEF452B3EE42B4EF64057043120B63
:100A4C0020FE700B900001120B39F452C952CAEE01
:100A5C00B4010B900001120B3942C9F452CA120BAB
:100A6C0020B4020A900001120B3942C942CA120B7F
:100A7C0020B4030D900001120B39FEF452C9EE4262
:100A8C00CAEF64067043120B20FE700B900001122B
:100A9C000B39F452CB52CCEEB4010B900001120B7B
:100AAC003942CBF452CC120B20B4020A9000011242
:100ABC000B3942CB42CC120B20B4030D9000011227
:100ACC000B39FEF452CBEE42CCEF64077043120BA1
:100ADC0020FF700B900001120B39F452E152E2EF3F
:100AEC00B4010B900001120B3942E1F452E2120BEB
:100AFC0020B4020A900001120B3942E142E2120BBF
:100B0C0020B4030D900001120B39FFF452E1EF42B7
:040B1C00E27F002252
:1011DE00EFD3940140037FFF22EDD3940340037FAE
:1011EE00FF22EF7004C2A98002D2A9ED700553B799
:1011FE00FDC2B9BD010553B7FDD2B9BD020543B756
:0E120E0002C2B9BD030543B702D2B97F002268
:10121C00EFD3940140037FFF22EDD3940340037F6F
:10122C00FF22EF7004C2AB8002D2ABED700553B756
:10123C00F7C2BBBD010553B7F7D2BBBD020543B71F
:0E124C0008C2BBBD030543B708D2BB7F00221A
:1016AD00EFD3940140037FFF22EDD3940340037FDA
:1016BD00FF22EF25E025E0FFE5AF54FB4FF5AFE44A
:0216CD00FF22FA
:1016CF00EFD3940140037FFF22EDD3940340037FB8
:1016DF00FF22EFC43354E0FFE5AF54DF4FF5AFE423
:0216EF00FF22D8
:10168A00EFD3940140037FFF22EDD3940340037FFD
:10169A00FF22EFC4333354C0FFE5AF54BF4FF5AF59
:0316AA00E4FF2238
:10125A00EFD3940140037FFF22EDD3940340037F31
:10126A00FF22EF7004C2A88002D2A8ED700553B71E
:10127A00FEC2B8BD010553B7FED2B8BD020543B7D9
:0E128A0001C2B8BD030543B701D2B87F0022F0
:10129800EFD3940140037FFF22EDD3940340037FF3
:1012A800FF22EF7004C2AA8002D2AAED700553B7DC
:1012B800FBC2BABD010553B7FBD2BABD020543B79D
:0E12C80004C2BABD030543B704D2BA7F0022A8
:10175F00EFD3940140037FFF22EFC454F0FFE58FD6
:08176F0054EF4FF58FE4FF2257
:10174600EFD3940140037FFF22EFC43354E0FFE55B
:091756008F54DF4FF58FE4FF22F0
:10172C00EFD3940140037FFF22EFC4333354C0FF47
:0A173C00E58F54BF4FF58FE4FF2244
:1012D600EFD3940140037FFF22EDD3940340037FB5
:1012E600FF22EF7004C2AD8002D2ADED700553B798
:1012F600DFC2BDBD010553B7DFD2BDBD020543B791
:0E13060020C2BDBD030543B720D2BD7F00222B
:10108800EDD3940340037FFF22EF30E10543E620D0
:10109800800353E6DFEF30E00543E610800353E6B4
:1010A800EFED700653B6DF53B5DFBD010653B6DF6B
:1010B80043B520BD020643B62053B5DFBD03064342
:0810C800B62043B5207F002291
:100EFF00EFD3940140037FFF22EBD3940340037F92
:100F0F00FF22BF0112ED90FE817006E0547FF0804A
:100F1F0011E04480F0800BEF700890FE83E054875F
:100F2F004DF0EB700653B6DF53B5DFBB010653B67A
:100F3F00DF43B520BB020643B62053B5DFBB030624
:090F4F0043B62043B5207F0022C7
:10131400EFD3940140037FFF22EDD3940340037F76
:10132400FF22EF7004C2AC8002D2ACED700553B75B
:10133400EFC2BCBD010553B7EFD2BCBD020543B734
:0E13440010C2BCBD030543B710D2BC7F00220F
:10119E00EFD3940140037FFF22EDD3940340037FEE
:1011AE00FF22E5AF54FE4FF5AFED700653B6FE537A
:1011BE00B5FEBD010653B6FE43B501BD020643B6EC
:1011CE000153B5FEBD030643B60143B5017F0022B0
:1010D000EFD3940140037FFF22EDD3940340037FBD
:1010E000FF22EF33333354F8FFE5AF54F74FF5AF3A
:1010F000ED700653EEFE53DFFEBD010653EEFE43D8
:10110000DF01BD020643EE0153DFFEBD030643EEE1
:071110000143DF017F002213
:10004600EFD3940140037FFF22EDD3940340037F57
:10005600FF22EFC454F0FFE5AF54EF4FF5AFED705C
:100066000653EEFD53DFFDBD010653EEFD43DF02F1
:10007600BD020643EE0253DFFDBD030643EE024317
:05008600DF027F0022F3
:10111700EFD3940140037FFF22EDD3940340037F75
:10112700FF22EF25E0FFE5AF54FD4FF5AFED700669
:1011370053B6FD53B5FDBD010653B6FD43B502BD1C
:10114700020643B60253B5FDBD030643B60243B5D7
:04115700027F0022F1
:100E1800EFD3948140037FFF22EBD3940340037FF9
:100E2800FF22EF247F603004705890FEC4EDF0EB91
:100E3800700653B6FB53B5FBBB010653B6FB43B56F
:100E480004BB020643B60453B5FBEB640370384396
:100E5800B60443B504803090FEE4EDF0EB70065321
:100E6800B6F753B5F7BB010653B6F743B508BB024F
:100E78000643B60853B5F7BB030D43B60843B50898
:0A0E8800800590FEE4EDF07F0022EB
:10135200EDD394035026ED700653EEFB53DFFBBD35
:10136200010653EEFB43DF04BD020643EE0453DFE6
:10137200FBBD030B43EE0443DF0480037FFF229097
:07138200FE62EFF07F002284
:1013890090FA10E054F0F0EDD39403500BE0FEED29
:1013990025E025E0FDEE4DF0EBD39403500690FADD
:1013A90010E04BF090FA10E0BF01054480F0800393
:0613B900547FF07F0022CA
:1013BF0090FA00E054F0F0EDD39403500BE0FEED03
:1013CF0025E025E0FDEE4DF0EBD39403500690FAA7
:1013DF0000E04BF090FA00E0BF01054480F080037D
:0613EF00547FF07F002294
:1013F50090FA20E054F0F0EDD39403500BE0FEEDAD
:1014050025E025E0FDEE4DF0EBD39403500690FA70
:1014150020E04BF090FA20E0BF01054480F0800306
:06142500547FF07F00225D
:10142B0090FA30E054F0F0EDD39403500BE0FEED66
:10143B0025E025E0FDEE4DF0EBD39403500690FA3A
:10144B0030E04BF090FA30E0BF01054480F08003B0
:06145B00547FF07F002227
:1014610090FA38E054F0F0EDD39403500BE0FEED28
:1014710025E025E0FDEE4DF0EBD39403500690FA04
:1014810038E04BF090FA38E0BF01054480F080036A
:06149100547FF07F0022F1
:1014970090FA40E054F0F0EDD39403500BE0FEEDEA
:1014A70025E025E0FDEE4DF0EBD39403500690FACE
:1014B70040E04BF090FA40E0BF01054480F0800324
:0614C700547FF07F0022BB
:1014CD0090FA48E054F0F0EDD39403500BE0FEEDAC
:1014DD0025E025E0FDEE4DF0EBD39403500690FA98
:1014ED0048E04BF090FA48E0BF01054480F08003DE
:0614FD00547FF07F002285
:1015030090FA50E054F0F0EDD39403500BE0FEED6D
:1015130025E025E0FDEE4DF0EBD39403500690FA61
:1015230050E04BF090FA50E0BF01054480F0800397
:06153300547FF07F00224E
:1015390090FA58E054F0F0EDD39403500BE0FEED2F
:1015490025E025E0FDEE4DF0EBD39403500690FA2B
:1015590058E04BF090FA58E0BF01054480F0800351
:06156900547FF07F002218
:10156F0090FA60E054F0F0EDD39403500BE0FEEDF1
:10157F0025E025E0FDEE4DF0EBD39403500690FAF5
:10158F0060E04BF090FA60E0BF01054480F080030B
:06159F00547FF07F0022E2
:1015A50090FA68E054F0F0EDD39403500BE0FEEDB3
:1015B50025E025E0FDEE4DF0EBD39403500690FABF
:1015C50068E04BF090FA68E0BF01054480F08003C5
:0615D500547FF07F0022AC
:1015DB0090FA70E054F0F0EDD39403500BE0FEED75
:1015EB0025E025E0FDEE4DF0EBD39403500690FA89
:1015FB0070E04BF090FA70E0BF01054480F080037F
:06160B00547FF07F002275
:10163E0090FE50E054CFF0EDD39403500AE0FEED4F
:10164E00C454F0FDEE4DF090FE50E0BF0105448015
:09165E00F08003547FF07F0022AC
:080096008F128B138A148915E7
:10009E00E5126401600302020CF522F523F524F546
:1000AE0025F526F516F51774402517F582740135DA
:1000BE0016F583E4F00517E5177002051664804502
:1000CE001670E4E4F516F51774002517F582740022
:1000DE003516F583E4F00517E517700205166480F2
:1000EE00451670E4AB13AA14A915120B20FFE59860
:1000FE00543F4FF598EF64C06008EF644060030210
:10010E0001C1900002120C587F807E8D7D5B7C00B9
:10011E00120BA28F1B8E1A8D198C18E4FFFE7D0117
:10012E00FCAB1BAA1AA919A818C3120C3440037FE2
:10013E00FF22C3E4951BF51BE4951AF51A7401957D
:10014E0019F519E49518F518AB13AA14A915900012
:10015E0001120B39FB6401702CC28E538EFE538933
:10016E00BF5389CF438E40AF1BAE1AAD19AC187872
:10017E0008120C458F8D851B8BC2AB5389BF538FD5
:10018E00FDD28E8062EB64027026538EEF438E0199
:10019E00538EF7438E04AF1BAE1AAD19AC18780808
:1001AE00120C458FD6851BD753AFFB438E1080376D
:1001BE007FFF22AB13AA14A915120B20FF70139008
:1001CE000008120B39B40105438E20801A538EDFBE
:1001DE008015EFB48011900008120B39B40105435D
:1001EE008780800353877FAB13AA14A9159000074D
:1001FE00120B397004C29C8002D29C7F0022E51241
:10020E0064026003020305F527F528F529F52AF5A2
:10021E002BF516F51774E02517F58274013516F5D2
:10022E0083E4F00517E51770020516648045167015
:10023E00E4E4F516F51774802517F582740035166B
:10024E00F583E4F00517E517700205166480451670
:10025E0070E4AB13AA14A915120B20FF64C060053D
:10026E00EF64407075EFB4C005439A808003539AD3
:10027E007F900002120C587F807E8D7D5B7C001279
:10028E000BA28F1B8E1A8D198C18E4FFFE7D01FCBC
:10029E00AB1BAA1AA919A818C3120C3440037FFF6E
:1002AE0022C3E4951BF51BE4951AF51A74019519F2
:1002BE00F519E49518F518538EEF538EF7438E0407
:1002CE00AF1BAE1AAD19AC187808120C458FD68537
:1002DE001BD753AFFB438E1080037FFF22AB13AAB5
:1002EE0014A915900007120B39C454F0FFE59A5467
:1002FE00EF4FF59A7F0022E5126403600302043982
:10030E00F52CF52DF52EF52FF530F516F517746045
:10031E002517F58274023516F583E4F00517E517F7
:10032E00700205166440451670E4E4F516F5177470
:10033E00002517F58274013516F583E4F00517E5EF
:10034E0017700205166440451670E4AB13AA14A983
:10035E0015120B20FF64C06008EF644060030204B6
:10036E001CEFB4C00543AC80800353AC7F900002F9
:10037E00120C587F807E8D7D5B7C00120BA28F1B32
:10038E008E1A8D198C18E4FFFE7D01FCAB1BAA1A88
:10039E00A919A818C3120C3440037FFF22C3E49599
:1003AE001BF51BE4951AF51A74019519F519E495C8
:1003BE0018F518AB13AA14A915900001120B39FBEE
:1003CE00B4031D43AC40AF1BAE1AAD19AC18780880
:1003DE00120C458FD4851BD553D1F043D10A8031F1
:1003EE00EB64027026538EEF53ACBF538EF7438EE1
:1003FE0004AF1BAE1AAD19AC187808120C458FD687
:10040E00851BD753AFFB438E1080067FFF227FFFE5
:10041E0022AB13AA14A915900007120B39C454F07D
:10042E00FFE5AC54EF4FF5AC7F0022E5126404609B
:10043E000302056DF531F532F533F534F535F51664
:10044E00F51774A02517F58274023516F583E4F0BE
:10045E000517E517700205166420451670E4E4F5DD
:10046E0016F51774C02517F58274013516F583E459
:10047E00F00517E517700205166420451670E4ABFB
:10048E0013AA14A915120B20FF64C06008EF644074
:10049E006003020550EFB4C005438480800353848B
:1004AE007F900002120C587F807E8D7D5B7C001247
:1004BE000BA28F1B8E1A8D198C18E4FFFE7D01FC8A
:1004CE00AB1BAA1AA919A818C3120C3440037FFF3C
:1004DE0022C3E4951BF51BE4951AF51A74019519C0
:1004EE00F519E49518F518AB13AA14A91590000187
:1004FE00120B39FBB4041D438440AF1BAE1AAD1969
:10050E00AC187808120C458FD2851BD353D10F43EC
:10051E00D1A08031EB64027026538EEF5384BF530B
:10052E008EF7438E04AF1BAE1AAD19AC18780812B5
:10053E000C458FD6851BD753AFFB438E1080067F9D
:10054E00FF227FFF22AB13AA14A915900007120BEE
:10055E0039C454F0FFE58454EF4FF5847F00227FB9
:01056E00FF8D
:01056F002269
:0A17CB008F99752401E52470FC22BB
:10002E00120B20FF600C1217CB740129F9E43AFA77
:03003E0080EE222F
:0A17D5008F9B752901E52970FC22A5
:10177700120B20FF600C1217D5740129F9E43AFA0D
:0317870080EE22CF
:0A17DF008FAD752E01E52E70FC227F
:10178A00120B20FF600C1217DF740129F9E43AFAF0
:03179A0080EE22BC
:0A17E9008F85753301E53370FC2293
:10179D00120B20FF600C1217E9740129F9E43AFAD3
:0317AD0080EE22A9
:05002600AE070217CB3C
:0300230002115B6C
:10115B00C0E0C083C082C0D075D000C007309820DB
:10116B00C298E525C394804003752500AF2505255E
:10117B0074002FF582E43400F583E599F0752605AC
:10118B00309905C299752400D007D0D0D082D08376
:03119B00D0E0326F
:03004300020FADFC
:100FAD00C0E0C083C082C0D075D000C007E59A30C4
:100FBD00E021539AFEE52AC394804003752A00AFC1
:100FCD002A052A74802FF582E43400F583E59BF021
:100FDD00752B05E59A30E106539AFD752900D0076A
:090FED00D0D0D082D083D0E032D4
:03008B00020FF66B
:100FF600C0E0C083C082C0D075D000C007E5AC3069
:10100600E02153ACFEE52FC394404003752F00AF9B
:101016002F052F74002FF582E43401F583E5ADF03A
:10102600753005E5AC30E10653ACFD752E00D007F2
:09103600D0D0D082D083D0E0328A
:0300930002103F19
:10103F00C0E0C083C082C0D075D000C007E5843047
:10104F00E0215384FEE534C394204003753400AF90
:10105F0034053474C02FF582E43401F583E585F04F
:10106F00753505E58430E1065384FD753300D007EF
:09107F00D0D0D082D083D0E03241
:100F5800900001120B39FFE5DE54F04FF5DE9000EA
:100F680002120B39C43354E0FFE5DE54DF4FF5DEDF
:100F7800120B20FFD3941F502B900003120B39FE45
:100F8800D39401501F900004120B39FDD3940350E1
:100F980013EDC43354E0FDEEC433333354804D4F66
:050FA80090FEA8F022FC
:0B17C000BF010443BC802253BC7F2209
:100E9200EFD3940F40028060E4F5BDF5BEE5BC548B
:100EA200F044404FF5BC00000000000000000000CC
:100EB200E4FDE5BC30E53D53BCDFE5DEAFBD30E52A
:100EC2000EEFFEACBEECFBEEF51DEBF51E802075C1
:100ED2001D008F1EE5BEC4540FFBE51EC4F8540F5F
:100EE200C868FFE51DC454F048F51DEF4BF51EAE72
:0C0EF2001DAF1E220DBDFABA7E107F005D
:010EFE0022D1
:03002B000217F3C6
:0417F30053BCDF32D2
:03000000020D06E8
:0C0D0600787FE4F6D8FD75813A020D4DAF
:100B2000BB010689828A83E0225002E722BBFE02D3
:090B3000E32289828A83E4932206
:100B3900BB010CE58229F582E5833AF583E0225071
:100B490006E92582F8E622BBFE06E92582F8E222BB
:0D0B5900E58229F582E5833AF583E49322D5
:100B660075F008758200EF2FFFEE33FECD33CDCC46
:100B760033CCC58233C5829BED9AEC99E5829840C9
:100B86000CF582EE9BFEED9AFDEC99FC0FD5F0D6A6
:100B9600E4CEFBE4CDFAE4CCF9A88222B800C1B9D0
:100BA6000059BA002DEC8BF084CFCECDFCE5F0CB0E
:100BB600F97818EF2FFFEE33FEED33FDEC33FCEB47
:100BC60033FB10D703994004EB99FB0FD8E5E4F902
:100BD600FA227818EF2FFFEE33FEED33FDEC33FCEF
:100BE600C933C910D7059BE99A4007EC9BFCE99AE3
:100BF600F90FD8E0E4C9FAE4CCFB2275F010EF2F28
:100C0600FFEE33FEED33FDCC33CCC833C810D70727
:100C16009BEC9AE899400AED9BFDEC9AFCE899F862
:0E0C26000FD5F0DAE4CDFBE4CCFAE4C8F922F5
:100C3400EB9FF5F0EA9E42F0E99D42F0E89C45F016
:010C4400228D
:100C4500E8600FECC313FCED13FDEE13FEEF13FF8D
:030C5500D8F122B1
:100C5800BB010DE58229F582E5833AF583020CA7ED
:100C68005007E92582F8020C9ABBFE07E92582F8AD
:100C7800020CB3E58229F582E5833AF583020CC0BC
:10057000E518240CF8E60518227809300702780CF3
:10058000E475F001120CD0020B202000EB7F2ED27C
:10059000008018EF540F2490D43440D4FF30040B63
:1005A000EF24BFB41A0050032461FFE5196002155F
:1005B00019051CE51C7002051B30070D7809E47550
:1005C000F001120CD0EF020C880200267403D2074F
:1005D0008003E4C207F5188B098A0A890BE4F51930
:1005E000F51BF51CE51960077F201205AB80F5753A
:1005F0001AFFC201C200C202C203C205C206C2087B
:10060000120579FF700D3007057F001205BCAF1C85
:10061000AE1B22B4255FC2D5C204120579FF24D0D7
:10062000B40A00501A75F00A781930D50508B6FFDB
:100630000106C6A426F620D5047002D20380D92470
:10064000CFB41A00EF5004C2E5D2040207BCD201B5
:1006500080C6D20080C0D20280BCD2D580BAD2057A
:1006600080B47F201205AB2002077401B519004049
:10067000F1120570FF1205AB0205E4D208D2068024
:1006800095120570FB120570FA120570F94A4B704D
:1006900006798D7A087BFF20022EE519602A7E00FC
:1006A0008E82758300120B3960060EEE651A70F0AB
:1006B000C2D5EBC0E0EAC0E0E9C0E0EE120803D02A
:1006C000E0F9D0E0FAD0E0FB120B20FF60AAEBC00B
:1006D000E0EAC0E0E9C0E01205ABD0E02401F9D0C7
:1006E000E03400FAD0E0FBE51A0460DCD51AD980CA
:1006F000877BFF7A0779FFD202809C79108002798C
:1007000008C206C2088008D2D5790A8004790AC2D4
:10071000D5E51A047002F51AE4FAFDFEFF12057021
:10072000FC7B08200113120570FD7B1030000A12BB
:100730000570FE120570FF7B20EC3382D592D550F8
:1007400013C3E43000069FFFE49EFEE42001039DF6
:10075000FDE49CFCE4CBF8C201EC700CCFCECDCC18
:10076000E824F8F870F38017C3EF33FFEE33FEEDA3
:1007700033FDEC33FCEB33FB994002FB0FD8E9EB84
:10078000300105F8D0E0C448B201C0E00AEC4D4E9B
:100790004F78207B0070C2EAB51A0040BCC0E0125E
:1007A0000805D0F0D0E0200104C4C0E0C4B201C00C
:1007B000F0120594D0F0D5F0EB0205E4120CE0063F
:1007C000815306FB5806524C064E4206FF4F070760
:0F07D00044070749066743070D5506F14606F132
:1007DF004506F14708AD5006562D065A2E067D2BBD
:1007EF00065E23067B2008962A061648000006752B
:1007FF003F3F3F00790AA2D5200314300509B910F5
:10080F00020404B9080104A2D520060250010420F5
:10081F0002689202B519005034C0E07F20300319EE
:10082F007F30A20272067205500F12085CC202C21C
:10083F0006C205C2087F30800F300503E9C0E01201
:10084F0005AB300503D0E0F9D0E0B519CC30051772
:10085F007F30B9100C1205AB7F583004077F7880BA
:10086F0003B908031205AB3002057F2D0205AB7FDC
:10087F00202008F87F2B2006F322920280CF286ECB
:10088F00756C6C2900D2011205703001F8C2017825
:10089F001930D50108F60206162D50434958120596
:1008AF00702403B405004001E49008A89312059C3E
:0D08BF00743A12059CD2037519040206FB61
:100D1200020D92E493A3F8E493A34003F68001F258
:100D220008DFF48029E493A3F85407240CC8C333E2
:100D3200C4540F4420C8834004F456800146F6DFB1
:100D4200E4800B010204081020408090008EE47EB3
:100D5200019360BCA3FF543F30E509541FFEE493A6
:100D6200A360010ECF54C025E060A840B8E493A36D
:100D7200FAE493A3F8E493A3C8C582C8CAC583CA98
:100D8200F0A3C8C582C8CAC583CADFE9DEE780BE50
:01009100006E
:100C8800BB010689828A83F0225002F722BBFE014B
:020C9800F32245
:0D0C9A00E6FB08E6F908E6FA08E6CBF822CA
:0C0CA700E0F8A3E0F9A3E0FAA3E0FB22D0
:0D0CB300E2FB08E2F908E2FA08E2CBF822C1
:100CC000E493F8740193F9740293FA740393FB228A
:100CD000FAE6FB0808E6F925F0F618E6CA3AF62225
:100CE000D083D082F8E4937012740193700DA3A3A3
:100CF00093F8740193F5828883E4737402936860B7
:060D0000EFA3A3A380DFB6
:00000001FF
