:06162100FEFDFBF7EFDF08
:0A15E7000831020002100012020495
:10157800750B03E4F50AFB7A00790A7F031207E783
:031588000200401E
:10149B00750A40750B01750F00750EC2750D017540
:1014AB000C00751101E4F512FB7A00790A7F011229
:0C14BB0000A67D017F0112116F53A23FBB
:0114C7002202
:10155700E4F539753A01F53B753CA2753D40753F99
:1015670001FB7A007939FF120580E4FD7F01021043
:01157700393A
:10146C00E4F508F50943BA8012157812149BD2AF33
:10147C00E4F509E50990162193FF7DFF120D707FAD
:0F148C00FA1215D70509E509C3940640E680E179
:0F15D7007D607C09ED1D70011C144C70F7DFF175
:0115E60022E2
:1007E700EFD3940740037FFF22120A3BFED3940303
:1007F70040037FFF22EF7041EE700B900001120A59
:1008070054F452935294120A3BB4010B9000011214
:100817000A544293F45294120A3BFEB4020A90001F
:1008270001120A5442934294EEB4030D9000011250
:100837000A54FEF45293EE4294EF64017043120A95
:100847003BFE700B900001120A54F452915292EE43
:10085700B4010B900001120A544291F45292120A09
:100867003BB4020A900001120A5442914292120AC2
:100877003BB4030D900001120A54FEF45291EE426C
:1008870092EF64027043120A3BFE700B9000011254
:100897000A54F452955296EEB4010B900001120AD5
:1008A700544295F45296120A3BB4020A9000011280
:1008B7000A5442954296120A3BB4030D9000011266
:1008C7000A54FEF45295EE4296EF64037043120AFF
:1008D7003BFE700B900001120A54F452B152B2EE73
:1008E700B4010B900001120A5442B1F452B2120A39
:1008F7003BB4020A900001120A5442B142B2120AF2
:100907003BB4030D900001120A54FEF452B1EE42BB
:10091700B2EF64047043120A3BFE700B90000112A1
:100927000A54F452B352B4EEB4010B900001120A08
:100937005442B3F452B4120A3BB4020A90000112B3
:100947000A5442B342B4120A3BB4030D9000011299
:100957000A54FEF452B3EE42B4EF64057043120A30
:100967003BFE700B900001120A54F452C952CAEEB2
:10097700B4010B900001120A5442C9F452CA120A78
:100987003BB4020A900001120A5442C942CA120A31
:100997003BB4030D900001120A54FEF452C9EE4213
:1009A700CAEF64067043120A3BFE700B90000112F7
:1009B7000A54F452CB52CCEEB4010B900001120A48
:1009C7005442CBF452CC120A3BB4020A90000112F3
:1009D7000A5442CB42CC120A3BB4030D90000112D9
:1009E7000A54FEF452CBEE42CCEF64077043120A6E
:1009F7003BFF700B900001120A54F452E152E2EFF0
:100A0700B4010B900001120A5442E1F452E2120AB7
:100A17003BB4020A900001120A5442E142E2120A70
:100A27003BB4030D900001120A54FFF452E1EF4268
:040A3700E27F002238
:10103900EFD3940140037FFF22EDD3940340037F54
:10104900FF22EF7004C2A98002D2A9ED700553B73F
:10105900FDC2B9BD010553B7FDD2B9BD020543B7FC
:0E10690002C2B9BD030543B702D2B97F00220F
:10107700EFD3940140037FFF22EDD3940340037F16
:10108700FF22EF7004C2AB8002D2ABED700553B7FD
:10109700F7C2BBBD010553B7F7D2BBBD020543B7C6
:0E10A70008C2BBBD030543B708D2BB7F0022C1
:1014F100EFD3940140037FFF22EDD3940340037F98
:10150100FF22EF25E025E0FFE5AF54FB4FF5AFE407
:02151100FF22B7
:10151300EFD3940140037FFF22EDD3940340037F75
:10152300FF22EFC43354E0FFE5AF54DF4FF5AFE4E0
:02153300FF2295
:10006600EFD3940140037FFF22EDD3940340037F37
:10007600FF22EFC4333354C0FFE5AF54BF4FF5AF93
:03008600E4FF2272
:1010B500EFD3940140037FFF22EDD3940340037FD8
:1010C500FF22EF7004C2A88002D2A8ED700553B7C5
:1010D500FEC2B8BD010553B7FED2B8BD020543B780
:0E10E50001C2B8BD030543B701D2B87F002297
:1010F300EFD3940140037FFF22EDD3940340037F9A
:10110300FF22EF7004C2AA8002D2AAED700553B782
:10111300FBC2BABD010553B7FBD2BABD020543B743
:0E11230004C2BABD030543B704D2BA7F00224E
:10000300EFD3940140037FFF22EFC454F0FFE58F49
:0800130054EF4FF58FE4FF22CA
:10004600EFD3940140037FFF22EFC43354E0FFE572
:090056008F54DF4FF58FE4FF2207
:10002600EFD3940140037FFF22EFC4333354C0FF64
:0A003600E58F54BF4FF58FE4FF2261
:10113100EFD3940140037FFF22EDD3940340037F5B
:10114100FF22EF7004C2AD8002D2ADED700553B73E
:10115100DFC2BDBD010553B7DFD2BDBD020543B737
:0E11610020C2BDBD030543B720D2BD7F0022D2
:100E9E00EDD3940340037FFF22EF30E10543E620BC
:100EAE00800353E6DFEF30E00543E610800353E6A0
:100EBE00EFED700653B6DF53B5DFBD010653B6DF57
:100ECE0043B520BD020643B62053B5DFBD0306432E
:080EDE00B62043B5207F00227D
:100D1700EFD3940140037FFF22EBD3940340037F7B
:100D2700FF22BF0112ED90FE817006E0547FF08034
:100D370011E04480F0800BEF700890FE83E0548749
:100D47004DF0EB700653B6DF53B5DFBB010653B664
:100D5700DF43B520BB020643B62053B5DFBB03060E
:090D670043B62043B5207F0022B1
:10116F00EFD3940140037FFF22EDD3940340037F1D
:10117F00FF22EF7004C2AC8002D2ACED700553B702
:10118F00EFC2BCBD010553B7EFD2BCBD020543B7DB
:0E119F0010C2BCBD030543B710D2BC7F0022B6
:100FF900EFD3940140037FFF22EDD3940340037F95
:10100900FF22E5AF54FE4FF5AFED700653B6FE5320
:10101900B5FEBD010653B6FE43B501BD020643B692
:101029000153B5FEBD030643B60143B5017F002256
:100EE600EFD3940140037FFF22EDD3940340037FA9
:100EF600FF22EF33333354F8FFE5AF54F74FF5AF26
:100F0600ED700653EEFE53DFFEBD010653EEFE43C3
:100F1600DF01BD020643EE0153DFFEBD030643EECD
:070F26000143DF017F0022FF
:100F2D00EFD3940140037FFF22EDD3940340037F61
:100F3D00FF22EFC454F0FFE5AF54EF4FF5AFED7066
:100F4D000653EEFD53DFFDBD010653EEFD43DF02FB
:100F5D00BD020643EE0253DFFDBD030643EE024321
:050F6D00DF027F0022FD
:100F7200EFD3940140037FFF22EDD3940340037F1C
:100F8200FF22EF25E0FFE5AF54FD4FF5AFED700610
:100F920053B6FD53B5FDBD010653B6FD43B502BDC3
:100FA200020643B60253B5FDBD030643B60243B57E
:040FB200027F002298
:100C9D00EFD3948140037FFF22EBD3940340037F76
:100CAD00FF22EF247F603004705890FEC4EDF0EB0E
:100CBD00700653B6FB53B5FBBB010653B6FB43B5EC
:100CCD0004BB020643B60453B5FBEB640370384313
:100CDD00B60443B504803090FEE4EDF0EB7006539E
:100CED00B6F753B5F7BB010653B6F743B508BB02CC
:100CFD000643B60853B5F7BB030D43B60843B50815
:0A0D0D00800590FEE4EDF07F002267
:1011AD00EDD394035026ED700653EEFB53DFFBBDDC
:1011BD00010653EEFB43DF04BD020643EE0453DF8D
:1011CD00FBBD030B43EE0443DF0480037FFF22903E
:0711DD00FE62EFF07F00222B
:1011E40090FA10E054F0F0EDD39403500BE0FEEDD0
:1011F40025E025E0FDEE4DF0EBD39403500690FA84
:1012040010E04BF090FA10E0BF01054480F0800339
:06121400547FF07F002270
:10121A0090FA00E054F0F0EDD39403500BE0FEEDA9
:10122A0025E025E0FDEE4DF0EBD39403500690FA4D
:10123A0000E04BF090FA00E0BF01054480F0800323
:06124A00547FF07F00223A
:1012500090FA20E054F0F0EDD39403500BE0FEED53
:1012600025E025E0FDEE4DF0EBD39403500690FA17
:1012700020E04BF090FA20E0BF01054480F08003AD
:06128000547FF07F002204
:1012860090FA30E054F0F0EDD39403500BE0FEED0D
:1012960025E025E0FDEE4DF0EBD39403500690FAE1
:1012A60030E04BF090FA30E0BF01054480F0800357
:0612B600547FF07F0022CE
:1012BC0090FA38E054F0F0EDD39403500BE0FEEDCF
:1012CC0025E025E0FDEE4DF0EBD39403500690FAAB
:1012DC0038E04BF090FA38E0BF01054480F0800311
:0612EC00547FF07F002298
:1012F20090FA40E054F0F0EDD39403500BE0FEED91
:1013020025E025E0FDEE4DF0EBD39403500690FA74
:1013120040E04BF090FA40E0BF01054480F08003CA
:06132200547FF07F002261
:1013280090FA48E054F0F0EDD39403500BE0FEED52
:1013380025E025E0FDEE4DF0EBD39403500690FA3E
:1013480048E04BF090FA48E0BF01054480F0800384
:06135800547FF07F00222B
:10135E0090FA50E054F0F0EDD39403500BE0FEED14
:10136E0025E025E0FDEE4DF0EBD39403500690FA08
:10137E0050E04BF090FA50E0BF01054480F080033E
:06138E00547FF07F0022F5
:1013940090FA58E054F0F0EDD39403500BE0FEEDD6
:1013A40025E025E0FDEE4DF0EBD39403500690FAD2
:1013B40058E04BF090FA58E0BF01054480F08003F8
:0613C400547FF07F0022BF
:1013CA0090FA60E054F0F0EDD39403500BE0FEED98
:1013DA0025E025E0FDEE4DF0EBD39403500690FA9C
:1013EA0060E04BF090FA60E0BF01054480F08003B2
:0613FA00547FF07F002289
:1014000090FA68E054F0F0EDD39403500BE0FEED59
:1014100025E025E0FDEE4DF0EBD39403500690FA65
:1014200068E04BF090FA68E0BF01054480F080036B
:06143000547FF07F002252
:1014360090FA70E054F0F0EDD39403500BE0FEED1B
:1014460025E025E0FDEE4DF0EBD39403500690FA2F
:1014560070E04BF090FA70E0BF01054480F0800325
:06146600547FF07F00221C
:1014C80090FE50E054CFF0EDD39403500AE0FEEDC7
:1014D800C454F0FDEE4DF090FE50E0BF010544808D
:0914E800F08003547FF07F002224
:0800A6008F138B148A158916D3
:1000AE00E5136401600302021CF51DF51EF51FF534
:1000BE0020F521F517F51874402518F582740135D1
:1000CE0017F583E4F00518E51870020517648045EE
:1000DE001770E4E4F517F51874002518F58274000E
:1000EE003517F583E4F00518E518700205176480DE
:1000FE00451770E4AB14AA15A916120A3BFFE59832
:10010E00543F4FF598EF64C06008EF6440600302FF
:10011E0001D1900002120BAB7F807E8D7D5B7C0047
:10012E00120AF58F1C8E1B8D1A8C19E4FFFE7D01B1
:10013E00FCAB1CAA1BA91AA819C3120B8740037F7C
:10014E00FF22C3E4951CF51CE4951BF51B74019569
:10015E001AF51AE49519F519AB14AA15A9169000FB
:10016E0001120A54FB6401702CC28E538EFE538909
:10017E00BF5389CF438E40AF1CAE1BAD1AAC19785E
:10018E0008120B988F8D851C8BC2AB5389BF538F72
:10019E00FDD28E8062EB64027026538EEF438E0189
:1001AE00538EF7438E04AF1CAE1BAD1AAC197808F4
:1001BE00120B988FD6851CD753AFFB438E1080370A
:1001CE007FFF22AB14AA15A916120A3BFF701390DB
:1001DE000008120A54B40105438E20801A538EDF94
:1001EE008015EFB48011900008120A54B401054333
:1001FE008780800353877FAB14AA15A9169000073A
:10020E00120A547004C29C8002D29C7F0022E51315
:10021E0064026003020315F522F523F524F525F596
:10022E0026F517F51874E02518F58274013517F5C3
:10023E0083E4F00518E51870020517648045177001
:10024E00E4E4F517F51874802518F5827400351757
:10025E00F583E4F00518E51870020517648045175C
:10026E0070E4AB14AA15A916120A3BFF64C0600510
:10027E00EF64407075EFB4C005439A808003539AC3
:10028E007F900002120BAB7F807E8D7D5B7C001217
:10029E000AF58F1C8E1B8D1A8C19E4FFFE7D01FC56
:1002AE00AB1CAA1BA91AA819C3120B8740037FFF08
:1002BE0022C3E4951CF51CE4951BF51B7401951ADD
:1002CE00F51AE49519F519538EEF538EF7438E04F4
:1002DE00AF1CAE1BAD1AAC197808120B988FD685D1
:1002EE001CD753AFFB438E1080037FFF22AB14AAA3
:1002FE0015A916900007120A54C454F0FFE59A543B
:10030E00EF4FF59A7F0022E5136403600302044960
:10031E00F527F528F529F52AF52BF517F51874604C
:10032E002518F58274023517F583E4F00518E518E3
:10033E00700205176440451770E4E4F517F518745C
:10034E00002518F58274013517F583E4F00518E5DC
:10035E0018700205176440451770E4AB14AA15A96E
:10036E0016120A3BFF64C06008EF6440600302048B
:10037E002CEFB4C00543AC80800353AC7F900002D9
:10038E00120BAB7F807E8D7D5B7C00120AF58F1C7D
:10039E008E1B8D1A8C19E4FFFE7D01FCAB1CAA1B73
:1003AE00A91AA819C3120B8740037FFF22C3E49535
:1003BE001CF51CE4951BF51B7401951AF51AE495B2
:1003CE0019F519AB14AA15A916900001120A54FBBF
:1003DE00B4031D43AC40AF1CAE1BAD1AAC1978086C
:1003EE00120B988FD4851CD553D1F043D10A80318E
:1003FE00EB64027026538EEF53ACBF538EF7438ED1
:10040E0004AF1CAE1BAD1AAC197808120B988FD620
:10041E00851CD753AFFB438E1080067FFF227FFFD4
:10042E0022AB14AA15A916900007120A54C454F050
:10043E00FFE5AC54EF4FF5AC7F0022E5136404608A
:10044E000302057DF52CF52DF52EF52FF530F5175C
:10045E00F51874A02518F58274023517F583E4F0AB
:10046E000518E518700205176420451770E4E4F5C9
:10047E0017F51874C02518F58274013517F583E445
:10048E00F00518E518700205176420451770E4ABE7
:10049E0014AA15A916120A3BFF64C06008EF644047
:1004AE006003020560EFB4C005438480800353846B
:1004BE007F900002120BAB7F807E8D7D5B7C0012E5
:1004CE000AF58F1C8E1B8D1A8C19E4FFFE7D01FC24
:1004DE00AB1CAA1BA91AA819C3120B8740037FFFD6
:1004EE0022C3E4951CF51CE4951BF51B7401951AAB
:1004FE00F51AE49519F519AB14AA15A91690000171
:10050E00120A54FBB4041D438440AF1CAE1BAD1A3B
:10051E00AC197808120B988FD2851CD353D10F4388
:10052E00D1A08031EB64027026538EEF5384BF53FB
:10053E008EF7438E04AF1CAE1BAD1AAC19780812A1
:10054E000B988FD6851CD753AFFB438E1080067F3A
:10055E00FF227FFF22AB14AA15A916900007120ADC
:10056E0054C454F0FFE58454EF4FF5847F00227F8E
:01057E00FF7D
:01057F002259
:0A15F2008F99751F01E51F70FC22A0
:10158B00120A3BFF600C1215F2740129F9E43AFAC6
:03159B0080EE22BD
:0A15FC008F9B752401E52470FC228A
:10159E00120A3BFF600C1215FC740129F9E43AFAA9
:0315AE0080EE22AA
:0A1606008FAD752901E52970FC2263
:1015B100120A3BFF600C121606740129F9E43AFA8B
:0315C10080EE2297
:0A1610008F85752E01E52E70FC2277
:1015C400120A3BFF600C121610740129F9E43AFA6E
:0315D40080EE2284
:05001E00AE070215F21F
:03002300020FB613
:100FB600C0E0C083C082C0D075D000C00730982082
:100FC600C298E520C394804003752000AF20052019
:100FD60074002FF582E43400F583E599F075210558
:100FE600309905C299751F00D007D0D0D082D08322
:030FF600D0E03216
:03004300020DC3E8
:100DC300C0E0C083C082C0D075D000C007E59A30B0
:100DD300E021539AFEE525C394804003752500AFB7
:100DE30025052574802FF582E43400F583E59BF017
:100DF300752605E59A30E106539AFD752400D00760
:090E0300D0D0D082D083D0E032BF
:03008B00020E0C56
:100E0C00C0E0C083C082C0D075D000C007E5AC3054
:100E1C00E02153ACFEE52AC394404003752A00AF91
:100E2C002A052A74002FF582E43401F583E5ADF030
:100E3C00752B05E5AC30E10653ACFD752900D007E8
:090E4C00D0D0D082D083D0E03276
:03009300020E5505
:100E5500C0E0C083C082C0D075D000C007E5843033
:100E6500E0215384FEE52FC394204003752F00AF86
:100E75002F052F74C02FF582E43401F583E585F045
:100E8500753005E58430E1065384FD752E00D007E5
:090E9500D0D0D082D083D0E0322D
:10153500C0F9A4B0999282F88090407924301912AC
:10154500027800107FBF8883C6A1868E89F1C78C7B
:0215550098C13B
:07161A0053B3E353B4E322D4
:0300400002161A8B
:100D7000750A07AE0AA806EF088002C313D8FC1351
:100D800092C4C2C20000D2C20000150AC3E50A64C0
:050D900080948050DE9C
:100D9500750A07AF0AA807ED088002C313D8FC132C
:100DA50092C4C2C20000D2C20000150AC3E50A649B
:050DB50080948050DE77
:090DBA00C2C30000D2C3000022F4
:03005F00020D701F
:10058000AD07ED7079C28C120A3BFED39403400391
:100590007FFF22E58954FC4EF589900001120A5430
:1005A000FED3940240037FFF22EE7006538E7F53EA
:1005B00089FB900001120A54B40106438E805389CE
:1005C000FB900001120A54B4020343890490000214
:1005D000120A54FFE58F54FE4FF58F900003120A64
:1005E00081E5F0F58C900003120A81F58A900006EF
:1005F000120A547004C28C8002D28C7F0022ED64F7
:10060000016003020686C28E120A3BFED3940340A9
:10061000037FFF22EEC454F0FFE58954CF4FF589E4
:10062000900001120A54FED3940240037FFF22EE91
:100630007006538EBF5389BF900001120A54B40153
:1006400006438E405389BF900001120A54B402033E
:10065000438940900002120A5425E0FFE58F54FDC3
:100660004FF58F900003120A81E5F0F58D9000039D
:10067000120A81F58B900006120A547004C28E8013
:1006800002D28E7F0022ED64027065538EEF9000DF
:1006900001120A54FF7006538EFB538EF7EFB4011C
:1006A00006438E04538EF7EFB40203438E08900086
:1006B00002120A5425E025E0FFE58F54FB4FF58F29
:1006C000900003120A81E5F0F5D6900003120A812A
:1006D000F5D7900005120A5490FEA2F09000061281
:1006E0000A54C454F0FFE58E54EF4FF58E7F00227C
:1006F000ED6403707253D1F7900001120A54FED3D7
:10070000940240037FFF22EE700653D1FD53D1FBCC
:10071000900001120A54B4010643D10253D1FB9058
:100720000001120A54B4020343D104900002120AD9
:1007300054FFE5D154FE4FF5D1900003120A81E534
:10074000F0F5D4900003120A81F5D5900005120A45
:100750005490FEA3F0900006120A5433333354F839
:10076000FFE5D154F78077ED6404707853D17F9022
:100770000001120A54FED3940240037FFF22EE7060
:100780000653D1DF53D1BF900001120A54B40106C1
:1007900043D12053D1BF900001120A54B402034345
:1007A000D140900002120A54C454F0FFE5D154EF36
:1007B0004FF5D1900003120A81FDACF0ECF5D2AFF9
:1007C000058FD3900005120A5490FEA4F090000605
:1007D000120A54C43333335480FFE5D1547F4FF5AC
:0707E000D17F00227FFF2200
:03001B0002008E52
:03008E00B2EE329D
:0300630002009602
:03009600B2ED3296
:03009B0002009EC2
:03009E00B2EC328F
:0300A3000216271B
:03162700B2EB32F1
:03000000020C11DE
:0C0C1100787FE4F6D8FD75813F020C5896
:100A3B00BB010689828A83E0225002E722BBFE02B9
:090A4B00E32289828A83E49322EC
:100A5400BB010CE58229F582E5833AF583E0225057
:100A640006E92582F8E622BBFE06E92582F8E222A1
:0D0A7400E58229F582E5833AF583E49322BB
:100A8100BB0110E58229F582E5833AF583E0F5F0B3
:100A9100A3E0225009E92582F886F008E622BBFE90
:100AA1000AE92582F8E2F5F008E222E5832AF583D6
:080AB100E993F5F0A3E993229B
:100AB90075F008758200EF2FFFEE33FECD33CDCCF4
:100AC90033CCC58233C5829BED9AEC99E582984077
:100AD9000CF582EE9BFEED9AFDEC99FC0FD5F0D654
:100AE900E4CEFBE4CDFAE4CCF9A88222B800C1B97E
:100AF9000059BA002DEC8BF084CFCECDFCE5F0CBBC
:100B0900F97818EF2FFFEE33FEED33FDEC33FCEBF4
:100B190033FB10D703994004EB99FB0FD8E5E4F9AF
:100B2900FA227818EF2FFFEE33FEED33FDEC33FC9C
:100B3900C933C910D7059BE99A4007EC9BFCE99A90
:100B4900F90FD8E0E4C9FAE4CCFB2275F010EF2FD5
:100B5900FFEE33FEED33FDCC33CCC833C810D707D5
:100B69009BEC9AE899400AED9BFDEC9AFCE899F810
:0E0B79000FD5F0DAE4CDFBE4CCFAE4C8F922A3
:100B8700EB9FF5F0EA9E42F0E99D42F0E89C45F0C4
:010B9700223B
:100B9800E8600FECC313FCED13FDEE13FEEF13FF3B
:030BA800D8F1225F
:100BAB00BB010DE58229F582E5833AF583020BE85B
:100BBB005007E92582F8020BDBBBFE07E92582F81B
:100BCB00020BF4E58229F582E5833AF583020C01E9
:100C1D0002146CE493A3F8E493A34003F68001F26D
:100C2D0008DFF48029E493A3F85407240CC8C333D8
:100C3D00C4540F4420C8834004F456800146F6DFA7
:100C4D00E4800B01020408102040809015E7E47E3B
:100C5D00019360BCA3FF543F30E509541FFEE4939C
:100C6D00A360010ECF54C025E060A840B8E493A363
:100C7D00FAE493A3F8E493A3C8C582C8CAC583CA8E
:100C8D00F0A3C8C582C8CAC583CADFE9DEE780BE46
:0115F10000F9
:0D0BDB00E6FB08E6F908E6FA08E6CBF8228A
:0C0BE800E0F8A3E0F9A3E0FAA3E0FB2290
:0D0BF400E2FB08E2F908E2FA08E2CBF82281
:100C0100E493F8740193F9740293FA740393FB2249
:00000001FF
