:101236005541525420427269646765205265616463
:0512460079210D0A00F2
:10000300751E03E4F51DFB7A00791D7F031205704D
:10001300751E0CE4F51DFB7A00791D7F0502057042
:100AB000751D40751E017522007521C275200175D6
:100AC0001F00752401E4F525FB7A00791D7F0112D2
:100AD00000967D017F01120E6153A23F751E047BBB
:100AE000007A00791D7F041200967D017F011200BB
:090AF00046E5BA54FB4404F5BAD2
:010AF90022DA
:10096200120003120AB0D2AF7BFF7A12793612124A
:100972004BE50CD394004024D50C21E4F51CE51C76
:10098200C3950B50147400251CF582E43400F583E2
:10099200E0FF1212CC051C80E5E4F50BE51BD394B5
:1009A2000040CED51BCB9001C0E0FFB44104D2CBB6
:1009B2008006EFB44202C2CBE4F51CE51CC3951AD3
:1009C200501474C0251CF582E43401F583E0FF1253
:0B09D20012AE051C80E5E4F51A8096CB
:07121F007FFA1212267FFA8C
:0F1226007D607C09ED1D70011C144C70F7DFF129
:011235002296
:0B12A300AE0712121F12121FDEF8220D
:10057000EFD3940740037FFF221207C4FED39403F6
:1005800040037FFF22EF7041EE700B9000011207D5
:10059000DDF4529352941207C4B4010B900001127F
:1005A00007DD4293F452941207C4FEB4020A90008D
:1005B000011207DD42934294EEB4030D9000011244
:1005C00007DDFEF45293EE4294EF6401704312078C
:1005D000C4FE700B9000011207DDF452915292EEAE
:1005E000B4010B9000011207DD4291F45292120700
:1005F000C4B4020A9000011207DD42914292120730
:10060000C4B4030D9000011207DDFEF45291EE42D6
:1006100092EF640270431207C4FE700B9000011247
:1006200007DDF452955296EEB4010B9000011207CB
:10063000DD4295F452961207C4B4020A90000112EA
:1006400007DD429542961207C4B4030D90000112D3
:1006500007DDFEF45295EE4296EF640370431207F5
:10066000C4FE700B9000011207DDF452B152B2EEDD
:10067000B4010B9000011207DD42B1F452B212072F
:10068000C4B4020A9000011207DD42B142B212075F
:10069000C4B4030D9000011207DDFEF452B1EE4226
:1006A000B2EF640470431207C4FE700B9000011295
:1006B00007DDF452B352B4EEB4010B9000011207FF
:1006C000DD42B3F452B41207C4B4020A900001121E
:1006D00007DD42B342B41207C4B4030D9000011207
:1006E00007DDFEF452B3EE42B4EF64057043120727
:1006F000C4FE700B9000011207DDF452C952CAEE1D
:10070000B4010B9000011207DD42C9F452CA12076E
:10071000C4B4020A9000011207DD42C942CA12079E
:10072000C4B4030D9000011207DDFEF452C9EE427D
:10073000CAEF640670431207C4FE700B90000112EA
:1007400007DDF452CB52CCEEB4010B90000112073E
:10075000DD42CBF452CC1207C4B4020A900001125D
:1007600007DD42CB42CC1207C4B4030D9000011246
:1007700007DDFEF452CBEE42CCEF64077043120764
:10078000C4FF700B9000011207DDF452E152E2EF5A
:10079000B4010B9000011207DD42E1F452E21207AE
:1007A000C4B4020A9000011207DD42E142E21207DE
:1007B000C4B4030D9000011207DDFFF452E1EF42D3
:0407C000E27F0022B2
:100D2B00EFD3940140037FFF22EDD3940340037F65
:100D3B00FF22EF7004C2A98002D2A9ED700553B750
:100D4B00FDC2B9BD010553B7FDD2B9BD020543B70D
:0E0D5B0002C2B9BD030543B702D2B97F002220
:100D6900EFD3940140037FFF22EDD3940340037F27
:100D7900FF22EF7004C2AB8002D2ABED700553B70E
:100D8900F7C2BBBD010553B7F7D2BBBD020543B7D7
:0E0D990008C2BBBD030543B708D2BB7F0022D2
:1011AA00EFD3940140037FFF22EDD3940340037FE2
:1011BA00FF22EF25E025E0FFE5AF54FB4FF5AFE452
:0211CA00FF2202
:1011CC00EFD3940140037FFF22EDD3940340037FC0
:1011DC00FF22EFC43354E0FFE5AF54DF4FF5AFE42B
:0211EC00FF22E0
:10118700EFD3940140037FFF22EDD3940340037F05
:10119700FF22EFC4333354C0FFE5AF54BF4FF5AF61
:0311A700E4FF2240
:100DA700EFD3940140037FFF22EDD3940340037FE9
:100DB700FF22EF7004C2A88002D2A8ED700553B7D6
:100DC700FEC2B8BD010553B7FED2B8BD020543B791
:0E0DD70001C2B8BD030543B701D2B87F0022A8
:100DE500EFD3940140037FFF22EDD3940340037FAB
:100DF500FF22EF7004C2AA8002D2AAED700553B794
:100E0500FBC2BABD010553B7FBD2BABD020543B754
:0E0E150004C2BABD030543B704D2BA7F00225F
:10120700EFD3940140037FFF22EFC454F0FFE58F33
:0812170054EF4FF58FE4FF22B4
:1011EE00EFD3940140037FFF22EFC43354E0FFE5B9
:0911FE008F54DF4FF58FE4FF224E
:10002600EFD3940140037FFF22EFC4333354C0FF64
:0A003600E58F54BF4FF58FE4FF2261
:100E2300EFD3940140037FFF22EDD3940340037F6C
:100E3300FF22EF7004C2AD8002D2ADED700553B74F
:100E4300DFC2BDBD010553B7DFD2BDBD020543B748
:0E0E530020C2BDBD030543B720D2BD7F0022E3
:100BD500EDD3940340037FFF22EF30E10543E62088
:100BE500800353E6DFEF30E00543E610800353E66C
:100BF500EFED700653B6DF53B5DFBD010653B6DF23
:100C050043B520BD020643B62053B5DFBD030643F9
:080C1500B62043B5207F002248
:100A5700EFD3940140037FFF22EBD3940340037F3E
:100A6700FF22BF0112ED90FE817006E0547FF080F7
:100A770011E04480F0800BEF700890FE83E054870C
:100A87004DF0EB700653B6DF53B5DFBB010653B627
:100A9700DF43B520BB020643B62053B5DFBB0306D1
:090AA70043B62043B5207F002274
:100E6100EFD3940140037FFF22EDD3940340037F2E
:100E7100FF22EF7004C2AC8002D2ACED700553B713
:100E8100EFC2BCBD010553B7EFD2BCBD020543B7EC
:0E0E910010C2BCBD030543B710D2BC7F0022C7
:100CEB00EFD3940140037FFF22EDD3940340037FA6
:100CFB00FF22E5AF54FE4FF5AFED700653B6FE5332
:100D0B00B5FEBD010653B6FE43B501BD020643B6A3
:100D1B000153B5FEBD030643B60143B5017F002267
:100C1D00EFD3940140037FFF22EDD3940340037F74
:100C2D00FF22EF33333354F8FFE5AF54F74FF5AFF1
:100C3D00ED700653EEFE53DFFEBD010653EEFE438F
:100C4D00DF01BD020643EE0153DFFEBD030643EE99
:070C5D000143DF017F0022CB
:10004600EFD3940140037FFF22EDD3940340037F57
:10005600FF22EFC454F0FFE5AF54EF4FF5AFED705C
:100066000653EEFD53DFFDBD010653EEFD43DF02F1
:10007600BD020643EE0253DFFDBD030643EE024317
:05008600DF027F0022F3
:100C6400EFD3940140037FFF22EDD3940340037F2D
:100C7400FF22EF25E0FFE5AF54FD4FF5AFED700621
:100C840053B6FD53B5FDBD010653B6FD43B502BDD4
:100C9400020643B60253B5FDBD030643B60243B58F
:040CA400027F0022A9
:1009DD00EFD3948140037FFF22EBD3940340037F39
:1009ED00FF22EF247F603004705890FEC4EDF0EBD1
:1009FD00700653B6FB53B5FBBB010653B6FB43B5AF
:100A0D0004BB020643B60453B5FBEB6403703843D5
:100A1D00B60443B504803090FEE4EDF0EB70065360
:100A2D00B6F753B5F7BB010653B6F743B508BB028E
:100A3D000643B60853B5F7BB030D43B60843B508D7
:0A0A4D00800590FEE4EDF07F00222A
:100E9F00EDD394035026ED700653EEFB53DFFBBDED
:100EAF00010653EEFB43DF04BD020643EE0453DF9E
:100EBF00FBBD030B43EE0443DF0480037FFF22904F
:070ECF00FE62EFF07F00223C
:100ED60090FA10E054F0F0EDD39403500BE0FEEDE1
:100EE60025E025E0FDEE4DF0EBD39403500690FA95
:100EF60010E04BF090FA10E0BF01054480F080034B
:060F0600547FF07F002281
:100F0C0090FA00E054F0F0EDD39403500BE0FEEDBA
:100F1C0025E025E0FDEE4DF0EBD39403500690FA5E
:100F2C0000E04BF090FA00E0BF01054480F0800334
:060F3C00547FF07F00224B
:100F420090FA20E054F0F0EDD39403500BE0FEED64
:100F520025E025E0FDEE4DF0EBD39403500690FA28
:100F620020E04BF090FA20E0BF01054480F08003BE
:060F7200547FF07F002215
:100F780090FA30E054F0F0EDD39403500BE0FEED1E
:100F880025E025E0FDEE4DF0EBD39403500690FAF2
:100F980030E04BF090FA30E0BF01054480F0800368
:060FA800547FF07F0022DF
:100FAE0090FA38E054F0F0EDD39403500BE0FEEDE0
:100FBE0025E025E0FDEE4DF0EBD39403500690FABC
:100FCE0038E04BF090FA38E0BF01054480F0800322
:060FDE00547FF07F0022A9
:100FE40090FA40E054F0F0EDD39403500BE0FEEDA2
:100FF40025E025E0FDEE4DF0EBD39403500690FA86
:1010040040E04BF090FA40E0BF01054480F08003DB
:06101400547FF07F002272
:10101A0090FA48E054F0F0EDD39403500BE0FEED63
:10102A0025E025E0FDEE4DF0EBD39403500690FA4F
:10103A0048E04BF090FA48E0BF01054480F0800395
:06104A00547FF07F00223C
:1010500090FA50E054F0F0EDD39403500BE0FEED25
:1010600025E025E0FDEE4DF0EBD39403500690FA19
:1010700050E04BF090FA50E0BF01054480F080034F
:06108000547FF07F002206
:1010860090FA58E054F0F0EDD39403500BE0FEEDE7
:1010960025E025E0FDEE4DF0EBD39403500690FAE3
:1010A60058E04BF090FA58E0BF01054480F0800309
:0610B600547FF07F0022D0
:1010BC0090FA60E054F0F0EDD39403500BE0FEEDA9
:1010CC0025E025E0FDEE4DF0EBD39403500690FAAD
:1010DC0060E04BF090FA60E0BF01054480F08003C3
:0610EC00547FF07F00229A
:1010F20090FA68E054F0F0EDD39403500BE0FEED6B
:1011020025E025E0FDEE4DF0EBD39403500690FA76
:1011120068E04BF090FA68E0BF01054480F080037C
:06112200547FF07F002263
:1011280090FA70E054F0F0EDD39403500BE0FEED2C
:1011380025E025E0FDEE4DF0EBD39403500690FA40
:1011480070E04BF090FA70E0BF01054480F0800336
:06115800547FF07F00222D
:10115E0090FE50E054CFF0EDD39403500AE0FEED34
:10116E00C454F0FDEE4DF090FE50E0BF01054480FA
:09117E00F08003547FF07F002291
:080096008F268B278A28892997
:10009E00E5266401600302020CF508F509F50AF580
:1000AE000BF50CF52AF52B7440252BF582740135D2
:1000BE002AF583E4F0052BE52B7002052A648045B2
:1000CE002A70E4E4F52AF52B7400252BF5827400D2
:1000DE00352AF583E4F0052BE52B7002052A6480A2
:1000EE00452A70E4AB27AA28A9291207C4FFE59870
:1000FE00543F4FF598EF64C06008EF644060030210
:10010E0001C19000021208FC7F807E8D7D5B7C0019
:10011E001208468F2F8E2E8D2D8C2CE4FFFE7D0126
:10012E00FCAB2FAA2EA92DA82CC31208D840037FF2
:10013E00FF22C3E4952FF52FE4952EF52E7401952D
:10014E002DF52DE4952CF52CAB27AA28A929900086
:10015E00011207DDFB6401702CC28E538EFE538993
:10016E00BF5389CF438E40AF2FAE2EAD2DAC2C7822
:10017E00081208E98F8D852F8BC2AB5389BF538F21
:10018E00FDD28E8062EB64027026538EEF438E0199
:10019E00538EF7438E04AF2FAE2EAD2DAC2C7808B8
:1001AE001208E98FD6852FD753AFFB438E108037B9
:1001BE007FFF22AB27AA28A9291207C4FF7013902C
:1001CE0000081207DDB40105438E20801A538EDF1E
:1001DE008015EFB480119000081207DDB4010543BD
:1001EE008780800353877FAB27AA28A92990000711
:1001FE001207DD7004C29C8002D29C7F0022E5268D
:10020E0064026003020305F50DF50EF50FF510F50A
:10021E0011F52AF52B74E0252BF5827401352AF59C
:10022E0083E4F0052BE52B7002052A6480452A70C5
:10023E00E4E4F52AF52B7480252BF5827400352A1B
:10024E00F583E4F0052BE52B7002052A6480452A20
:10025E0070E4AB27AA28A9291207C4FF64C0600561
:10026E00EF64407075EFB4C005439A808003539AD3
:10027E007F9000021208FC7F807E8D7D5B7C0012D9
:10028E0008468F2F8E2E8D2D8C2CE4FFFE7D01FCCB
:10029E00AB2FAA2EA92DA82CC31208D840037FFF7E
:1002AE0022C3E4952FF52FE4952EF52E7401952D8E
:1002BE00F52DE4952CF52C538EEF538EF7438E04CB
:1002CE00AF2FAE2EAD2DAC2C78081208E98FD68547
:1002DE002FD753AFFB438E1080037FFF22AB27AA8D
:1002EE0028A9299000071207DDC454F0FFE59A549F
:1002FE00EF4FF59A7F0022E526640360030204396E
:10030E00F512F513F514F515F516F52AF52B74609F
:10031E00252BF5827402352AF583E4F0052BE52BA7
:10032E007002052A6440452A70E4E4F52AF52B7420
:10033E0000252BF5827401352AF583E4F0052BE5B3
:10034E002B7002052A6440452A70E4AB27AA28A91F
:10035E00291207C4FF64C06008EF64406003020402
:10036E001CEFB4C00543AC80800353AC7F900002F9
:10037E001208FC7F807E8D7D5B7C001208468F2FDD
:10038E008E2E8D2D8C2CE4FFFE7D01FCAB2FAA2E24
:10039E00A92DA82CC31208D840037FFF22C3E495D1
:1003AE002FF52FE4952EF52E7401952DF52DE49550
:1003BE002CF52CAB27AA28A9299000011207DDFBEA
:1003CE00B4031D43AC40AF2FAE2EAD2DAC2C780830
:1003DE001208E98FD4852FD553D1F043D10A80313D
:1003EE00EB64027026538EEF53ACBF538EF7438EE1
:1003FE0004AF2FAE2EAD2DAC2C78081208E98FD697
:10040E00852FD753AFFB438E1080067FFF227FFFD1
:10041E0022AB27AA28A9299000071207DDC454F0A1
:10042E00FFE5AC54EF4FF5AC7F0022E52664046087
:10043E000302056DF517F518F519F51AF51BF52AD2
:10044E00F52B74A0252BF5827402352AF583E4F082
:10045E00052BE52B7002052A6420452A70E4E4F58D
:10046E002AF52B74C0252BF5827401352AF583E409
:10047E00F0052BE52B7002052A6420452A70E4ABAB
:10048E0027AA28A9291207C4FF64C06008EF644098
:10049E006003020550EFB4C005438480800353848B
:1004AE007F9000021208FC7F807E8D7D5B7C0012A7
:1004BE0008468F2F8E2E8D2D8C2CE4FFFE7D01FC99
:1004CE00AB2FAA2EA92DA82CC31208D840037FFF4C
:1004DE0022C3E4952FF52FE4952EF52E7401952D5C
:1004EE00F52DE4952CF52CAB27AA28A9299000010F
:1004FE001207DDFBB4041D438440AF2FAE2EAD2D8D
:10050E00AC2C78081208E98FD2852FD353D10F4324
:10051E00D1A08031EB64027026538EEF5384BF530B
:10052E008EF7438E04AF2FAE2EAD2DAC2C78081265
:10053E0008E98FD6852FD753AFFB438E1080067FE9
:10054E00FF227FFF22AB27AA28A9299000071207B6
:10055E00DDC454F0FFE58454EF4FF5847F00227F15
:01056E00FF8D
:01056F002269
:0A12AE008F99750A01E50A70FC2211
:10124B001207C4FF600C1212AE740129F9E43AFACA
:03125B0080EE2200
:0A12B8008F9B750F01E50F70FC22FB
:10125E001207C4FF600C1212B8740129F9E43AFAAD
:03126E0080EE22ED
:0A12C2008FAD751401E51470FC22D5
:101271001207C4FF600C1212C2740129F9E43AFA90
:0312810080EE22DA
:0A12CC008F85751901E51970FC22E9
:101284001207C4FF600C1212CC740129F9E43AFA73
:0312940080EE22C7
:05008E00AE070212AEF6
:03002300020CA824
:100CA800C0E0C083C082C0D075D000C00730982093
:100CB800C298E50BC394804003750B00AF0B050B7E
:100CC80074002FF582E43400F583E599F0750C057E
:100CD800309905C299750A00D007D0D0D082D08348
:030CE800D0E03227
:03004300020AFAB4
:100AFA00C0E0C083C082C0D075D000C007E59A307C
:100B0A00E021539AFEE510C394804003751000AFAC
:100B1A0010051074802FF582E43400F583E59BF00C
:100B2A00751105E59A30E106539AFD750F00D00755
:090B3A00D0D0D082D083D0E0328B
:03008B00020B4322
:100B4300C0E0C083C082C0D075D000C007E5AC3020
:100B5300E02153ACFEE515C394404003751500AF87
:100B630015051574002FF582E43401F583E5ADF026
:100B7300751605E5AC30E10653ACFD751400D007DE
:090B8300D0D0D082D083D0E03242
:03009300020B8CD1
:100B8C00C0E0C083C082C0D075D000C007E58430FF
:100B9C00E0215384FEE51AC394204003751A00AF7C
:100BAC001A051A74C02FF582E43401F583E585F03B
:100BBC00751B05E58430E1065384FD751900D007DB
:090BCC00D0D0D082D083D0E032F9
:0300000002129752
:0C129700787FE4F6D8FD75812F02096213
:1007C400BB010689828A83E0225002E722BBFE0233
:0907D400E32289828A83E4932266
:1007DD00BB010CE58229F582E5833AF583E02250D1
:1007ED0006E92582F8E622BBFE06E92582F8E2221B
:0D07FD00E58229F582E5833AF583E4932235
:10080A0075F008758200EF2FFFEE33FECD33CDCCA5
:10081A0033CCC58233C5829BED9AEC99E582984028
:10082A000CF582EE9BFEED9AFDEC99FC0FD5F0D605
:10083A00E4CEFBE4CDFAE4CCF9A88222B800C1B92F
:10084A000059BA002DEC8BF084CFCECDFCE5F0CB6D
:10085A00F97818EF2FFFEE33FEED33FDEC33FCEBA6
:10086A0033FB10D703994004EB99FB0FD8E5E4F961
:10087A00FA227818EF2FFFEE33FEED33FDEC33FC4E
:10088A00C933C910D7059BE99A4007EC9BFCE99A42
:10089A00F90FD8E0E4C9FAE4CCFB2275F010EF2F87
:1008AA00FFEE33FEED33FDCC33CCC833C810D70787
:1008BA009BEC9AE899400AED9BFDEC9AFCE899F8C2
:0E08CA000FD5F0DAE4CDFBE4CCFAE4C8F92255
:1008D800EB9FF5F0EA9E42F0E99D42F0E89C45F076
:0108E80022ED
:1008E900E8600FECC313FCED13FDEE13FEEF13FFED
:0308F900D8F12211
:1008FC00BB010DE58229F582E5833AF583020939BE
:10090C005007E92582F802092CBBFE07E92582F87D
:10091C00020945E58229F582E5833AF583020952FD
:0D092C00E6FB08E6F908E6FA08E6CBF8223B
:0C093900E0F8A3E0F9A3E0FAA3E0FB2241
:0D094500E2FB08E2F908E2FA08E2CBF82232
:10095200E493F8740193F9740293FA740393FB22FB
:00000001FF
