:101CBC0001310F1032002100250029002C003100C9
:051CCC0037003E00415D
:1016C100750B03E4F50AFB7A00790A7F03120BF923
:1016D100750B02750A037B007A00790AE4FF120B8D
:1016E100F9750B01750A037B007A00790AE4FF1290
:0E16F1000BF953C9E153CAE15393FD43940230
:0116FF0022C8
:101BAD00750A40750B01750F00750EC2750D017527
:101BBD000C00751101E4F512FB7A00790A7F011210
:0C1BCD0000A67D017F0112187553A23F95
:011BD90022E9
:101C6A0075421FE4F545754601F543754401FB7A53
:101C7A000079421213677F0112000EE4FDFF021879
:011C8A003722
:10006600EF14600E14600F14601024037012A2C9FE
:10007600800AA2CA8006A2CB8002A2CCE433FF2269
:030086007F0022D6
:10170000E4F50A750B01F50CAB07AA06F9F8FF7EA4
:10171000367D6E7C011215FAE47B02FAF9F8121597
:10172000FAC3E49FF50EE49EF50D7510017B007A77
:0F17300000790AE4FF120992E4FD7F0102173FDE
:03000800B28022A1
:1013BC00E4F50875090143BA801216C1121BADD2AF
:1013CC00AFC28120C904D281800530C902C28120FC
:1013DC00CA22E50825E02432F8E6FE08E6FF1217DB
:1013EC00000508E508C395094003E4F5087F64127D
:0B13FC001D0B80CF30CACCC28080C81F
:0F1D0B007D607C09ED1D70011C144C70F7DFF139
:011D1A0022A6
:100BF900EFD3940740037FFF22120E4DFED39403D7
:100C090040037FFF22EF7041EE700B900001120E3E
:100C190066F452935294120E4DB4010B90000112D6
:100C29000E664293F45294120E4DFEB4020A9000DD
:100C390001120E6642934294EEB4030D9000011224
:100C49000E66FEF45293EE4294EF64017043120E65
:100C59004DFE700B900001120E66F452915292EE05
:100C6900B4010B900001120E664291F45292120ED9
:100C79004DB4020A900001120E6642914292120E80
:100C89004DB4030D900001120E66FEF45291EE422E
:100C990092EF64027043120E4DFE700B9000011228
:100CA9000E66F452955296EEB4010B900001120EA5
:100CB900664295F45296120E4DB4020A9000011242
:100CC9000E6642954296120E4DB4030D9000011224
:100CD9000E66FEF45295EE4296EF64037043120ECF
:100CE9004DFE700B900001120E66F452B152B2EE35
:100CF900B4010B900001120E6642B1F452B2120E09
:100D09004DB4020A900001120E6642B142B2120EAF
:100D19004DB4030D900001120E66FEF452B1EE427D
:100D2900B2EF64047043120E4DFE700B9000011275
:100D39000E66F452B352B4EEB4010B900001120ED8
:100D49006642B3F452B4120E4DB4020A9000011275
:100D59000E6642B342B4120E4DB4030D9000011257
:100D69000E66FEF452B3EE42B4EF64057043120E00
:100D79004DFE700B900001120E66F452C952CAEE74
:100D8900B4010B900001120E6642C9F452CA120E48
:100D99004DB4020A900001120E6642C942CA120EEF
:100DA9004DB4030D900001120E66FEF452C9EE42D5
:100DB900CAEF64067043120E4DFE700B90000112CB
:100DC9000E66F452CB52CCEEB4010B900001120E18
:100DD9006642CBF452CC120E4DB4020A90000112B5
:100DE9000E6642CB42CC120E4DB4030D9000011297
:100DF9000E66FEF452CBEE42CCEF64077043120E3E
:100E09004DFF700B900001120E66F452E152E2EFB1
:100E1900B4010B900001120E6642E1F452E2120E87
:100E29004DB4020A900001120E6642E142E2120E2E
:100E39004DB4030D900001120E66FFF452E1EF422A
:040E4900E27F002222
:10173F00EFD3940140037FFF22EDD3940340037F47
:10174F00FF22EF7004C2A98002D2A9ED700553B732
:10175F00FDC2B9BD010553B7FDD2B9BD020543B7EF
:0E176F0002C2B9BD030543B702D2B97F002202
:10177D00EFD3940140037FFF22EDD3940340037F09
:10178D00FF22EF7004C2AB8002D2ABED700553B7F0
:10179D00F7C2BBBD010553B7F7D2BBBD020543B7B9
:0E17AD0008C2BBBD030543B708D2BB7F0022B4
:101C2600EFD3940140037FFF22EDD3940340037F5B
:101C3600FF22EF25E025E0FFE5AF54FB4FF5AFE4CB
:021C4600FF227B
:101C4800EFD3940140037FFF22EDD3940340037F39
:101C5800FF22EFC43354E0FFE5AF54DF4FF5AFE4A4
:021C6800FF2259
:101C0300EFD3940140037FFF22EDD3940340037F7E
:101C1300FF22EFC4333354C0FFE5AF54BF4FF5AFDA
:031C2300E4FF22B9
:1017BB00EFD3940140037FFF22EDD3940340037FCB
:1017CB00FF22EF7004C2A88002D2A8ED700553B7B8
:1017DB00FEC2B8BD010553B7FED2B8BD020543B773
:0E17EB0001C2B8BD030543B701D2B87F00228A
:1017F900EFD3940140037FFF22EDD3940340037F8D
:10180900FF22EF7004C2AA8002D2AAED700553B775
:10181900FBC2BABD010553B7FBD2BABD020543B736
:0E18290004C2BABD030543B704D2BA7F002241
:101CA400EFD3940140037FFF22EFC454F0FFE58F8C
:081CB40054EF4FF58FE4FF220D
:101C8B00EFD3940140037FFF22EFC43354E0FFE511
:091C9B008F54DF4FF58FE4FF22A6
:10004600EFD3940140037FFF22EFC4333354C0FF44
:0A005600E58F54BF4FF58FE4FF2241
:10183700EFD3940140037FFF22EDD3940340037F4E
:10184700FF22EF7004C2AD8002D2ADED700553B731
:10185700DFC2BDBD010553B7DFD2BDBD020543B72A
:0E18670020C2BDBD030543B720D2BD7F0022C5
:1014E200EDD3940340037FFF22EF30E10543E62072
:1014F200800353E6DFEF30E00543E610800353E656
:10150200EFED700653B6DF53B5DFBD010653B6DF0C
:1015120043B520BD020643B62053B5DFBD030643E3
:08152200B62043B5207F002232
:10130E00EFD3940140037FFF22EBD3940340037F7E
:10131E00FF22BF0112ED90FE817006E0547FF08037
:10132E0011E04480F0800BEF700890FE83E054874C
:10133E004DF0EB700653B6DF53B5DFBB010653B667
:10134E00DF43B520BB020643B62053B5DFBB030611
:09135E0043B62043B5207F0022B4
:10187500EFD3940140037FFF22EDD3940340037F10
:10188500FF22EF7004C2AC8002D2ACED700553B7F5
:10189500EFC2BCBD010553B7EFD2BCBD020543B7CE
:0E18A50010C2BCBD030543B710D2BC7F0022A9
:10168100EFD3940140037FFF22EDD3940340037F06
:10169100FF22E5AF54FE4FF5AFED700653B6FE5392
:1016A100B5FEBD010653B6FE43B501BD020643B604
:1016B1000153B5FEBD030643B60143B5017F0022C8
:10152A00EFD3940140037FFF22EDD3940340037F5E
:10153A00FF22EF33333354F8FFE5AF54F74FF5AFDB
:10154A00ED700653EEFE53DFFEBD010653EEFE4379
:10155A00DF01BD020643EE0153DFFEBD030643EE83
:07156A000143DF017F0022B5
:10157100EFD3940140037FFF22EDD3940340037F17
:10158100FF22EFC454F0FFE5AF54EF4FF5AFED701C
:101591000653EEFD53DFFDBD010653EEFD43DF02B1
:1015A100BD020643EE0253DFFDBD030643EE0243D7
:0515B100DF027F0022B3
:1015B600EFD3940140037FFF22EDD3940340037FD2
:1015C600FF22EF25E0FFE5AF54FD4FF5AFED7006C6
:1015D60053B6FD53B5FDBD010653B6FD43B502BD79
:1015E600020643B60253B5FDBD030643B60243B534
:0415F600027F00224E
:10122700EFD3948140037FFF22EBD3940340037FE6
:10123700FF22EF247F603004705890FEC4EDF0EB7E
:10124700700653B6FB53B5FBBB010653B6FB43B55C
:1012570004BB020643B60453B5FBEB640370384383
:10126700B60443B504803090FEE4EDF0EB7006530E
:10127700B6F753B5F7BB010653B6F743B508BB023C
:101287000643B60853B5F7BB030D43B60843B50885
:0A129700800590FEE4EDF07F0022D8
:1018EE00EDD394035026ED700653EEFB53DFFBBD94
:1018FE00010653EEFB43DF04BD020643EE0453DF45
:10190E00FBBD030B43EE0443DF0480037FFF2290F5
:07191E00FE62EFF07F0022E2
:1019250090FA10E054F0F0EDD39403500BE0FEED87
:1019350025E025E0FDEE4DF0EBD39403500690FA3B
:1019450010E04BF090FA10E0BF01054480F08003F1
:06195500547FF07F002228
:10195B0090FA00E054F0F0EDD39403500BE0FEED61
:10196B0025E025E0FDEE4DF0EBD39403500690FA05
:10197B0000E04BF090FA00E0BF01054480F08003DB
:06198B00547FF07F0022F2
:1019910090FA20E054F0F0EDD39403500BE0FEED0B
:1019A10025E025E0FDEE4DF0EBD39403500690FACF
:1019B10020E04BF090FA20E0BF01054480F0800365
:0619C100547FF07F0022BC
:1019C70090FA30E054F0F0EDD39403500BE0FEEDC5
:1019D70025E025E0FDEE4DF0EBD39403500690FA99
:1019E70030E04BF090FA30E0BF01054480F080030F
:0619F700547FF07F002286
:1019FD0090FA38E054F0F0EDD39403500BE0FEED87
:101A0D0025E025E0FDEE4DF0EBD39403500690FA62
:101A1D0038E04BF090FA38E0BF01054480F08003C8
:061A2D00547FF07F00224F
:101A330090FA40E054F0F0EDD39403500BE0FEED48
:101A430025E025E0FDEE4DF0EBD39403500690FA2C
:101A530040E04BF090FA40E0BF01054480F0800382
:061A6300547FF07F002219
:101A690090FA48E054F0F0EDD39403500BE0FEED0A
:101A790025E025E0FDEE4DF0EBD39403500690FAF6
:101A890048E04BF090FA48E0BF01054480F080033C
:061A9900547FF07F0022E3
:101A9F0090FA50E054F0F0EDD39403500BE0FEEDCC
:101AAF0025E025E0FDEE4DF0EBD39403500690FAC0
:101ABF0050E04BF090FA50E0BF01054480F08003F6
:061ACF00547FF07F0022AD
:101AD50090FA58E054F0F0EDD39403500BE0FEED8E
:101AE50025E025E0FDEE4DF0EBD39403500690FA8A
:101AF50058E04BF090FA58E0BF01054480F08003B0
:061B0500547FF07F002276
:101B0B0090FA60E054F0F0EDD39403500BE0FEED4F
:101B1B0025E025E0FDEE4DF0EBD39403500690FA53
:101B2B0060E04BF090FA60E0BF01054480F0800369
:061B3B00547FF07F002240
:101B410090FA68E054F0F0EDD39403500BE0FEED11
:101B510025E025E0FDEE4DF0EBD39403500690FA1D
:101B610068E04BF090FA68E0BF01054480F0800323
:061B7100547FF07F00220A
:101B770090FA70E054F0F0EDD39403500BE0FEEDD3
:101B870025E025E0FDEE4DF0EBD39403500690FAE7
:101B970070E04BF090FA70E0BF01054480F08003DD
:061BA700547FF07F0022D4
:101BDA0090FE50E054CFF0EDD39403500AE0FEEDAE
:101BEA00C454F0FDEE4DF090FE50E0BF0105448074
:091BFA00F08003547FF07F00220B
:0800A6008F138B148A158916D3
:1000AE00E5136401600302021CF51DF51EF51FF534
:1000BE0020F521F517F51874402518F582740135D1
:1000CE0017F583E4F00518E51870020517648045EE
:1000DE001770E4E4F517F51874002518F58274000E
:1000EE003517F583E4F00518E518700205176480DE
:1000FE00451770E4AB14AA15A916120E4DFFE5981C
:10010E00543F4FF598EF64C06008EF6440600302FF
:10011E0001D1900002120FE87F807E8D7D5B7C0006
:10012E00120F328F1C8E1B8D1A8C19E4FFFE7D016F
:10013E00FCAB1CAA1BA91AA819C3120FC440037F3B
:10014E00FF22C3E4951CF51CE4951BF51B74019569
:10015E001AF51AE49519F519AB14AA15A9169000FB
:10016E0001120E66FB6401702CC28E538EFE5389F3
:10017E00BF5389CF438E40AF1CAE1BAD1AAC19785E
:10018E0008120FD58F8D851C8BC2AB5389BF538F31
:10019E00FDD28E8062EB64027026538EEF438E0189
:1001AE00538EF7438E04AF1CAE1BAD1AAC197808F4
:1001BE00120FD58FD6851CD753AFFB438E108037C9
:1001CE007FFF22AB14AA15A916120E4DFF701390C5
:1001DE000008120E66B40105438E20801A538EDF7E
:1001EE008015EFB48011900008120E66B40105431D
:1001FE008780800353877FAB14AA15A9169000073A
:10020E00120E667004C29C8002D29C7F0022E513FF
:10021E0064026003020315F522F523F524F525F596
:10022E0026F517F51874E02518F58274013517F5C3
:10023E0083E4F00518E51870020517648045177001
:10024E00E4E4F517F51874802518F5827400351757
:10025E00F583E4F00518E51870020517648045175C
:10026E0070E4AB14AA15A916120E4DFF64C06005FA
:10027E00EF64407075EFB4C005439A808003539AC3
:10028E007F900002120FE87F807E8D7D5B7C0012D6
:10029E000F328F1C8E1B8D1A8C19E4FFFE7D01FC14
:1002AE00AB1CAA1BA91AA819C3120FC440037FFFC7
:1002BE0022C3E4951CF51CE4951BF51B7401951ADD
:1002CE00F51AE49519F519538EEF538EF7438E04F4
:1002DE00AF1CAE1BAD1AAC197808120FD58FD68590
:1002EE001CD753AFFB438E1080037FFF22AB14AAA3
:1002FE0015A916900007120E66C454F0FFE59A5425
:10030E00EF4FF59A7F0022E5136403600302044960
:10031E00F527F528F529F52AF52BF517F51874604C
:10032E002518F58274023517F583E4F00518E518E3
:10033E00700205176440451770E4E4F517F518745C
:10034E00002518F58274013517F583E4F00518E5DC
:10035E0018700205176440451770E4AB14AA15A96E
:10036E0016120E4DFF64C06008EF64406003020475
:10037E002CEFB4C00543AC80800353AC7F900002D9
:10038E00120FE87F807E8D7D5B7C00120F328F1CFA
:10039E008E1B8D1A8C19E4FFFE7D01FCAB1CAA1B73
:1003AE00A91AA819C3120FC440037FFF22C3E495F4
:1003BE001CF51CE4951BF51B7401951AF51AE495B2
:1003CE0019F519AB14AA15A916900001120E66FBA9
:1003DE00B4031D43AC40AF1CAE1BAD1AAC1978086C
:1003EE00120FD58FD4851CD553D1F043D10A80314D
:1003FE00EB64027026538EEF53ACBF538EF7438ED1
:10040E0004AF1CAE1BAD1AAC197808120FD58FD6DF
:10041E00851CD753AFFB438E1080067FFF227FFFD4
:10042E0022AB14AA15A916900007120E66C454F03A
:10043E00FFE5AC54EF4FF5AC7F0022E5136404608A
:10044E000302057DF52CF52DF52EF52FF530F5175C
:10045E00F51874A02518F58274023517F583E4F0AB
:10046E000518E518700205176420451770E4E4F5C9
:10047E0017F51874C02518F58274013517F583E445
:10048E00F00518E518700205176420451770E4ABE7
:10049E0014AA15A916120E4DFF64C06008EF644031
:1004AE006003020560EFB4C005438480800353846B
:1004BE007F900002120FE87F807E8D7D5B7C0012A4
:1004CE000F328F1C8E1B8D1A8C19E4FFFE7D01FCE2
:1004DE00AB1CAA1BA91AA819C3120FC440037FFF95
:1004EE0022C3E4951CF51CE4951BF51B7401951AAB
:1004FE00F51AE49519F519AB14AA15A91690000171
:10050E00120E66FBB4041D438440AF1CAE1BAD1A25
:10051E00AC197808120FD58FD2851CD353D10F4347
:10052E00D1A08031EB64027026538EEF5384BF53FB
:10053E008EF7438E04AF1CAE1BAD1AAC19780812A1
:10054E000FD58FD6851CD753AFFB438E1080067FF9
:10055E00FF227FFF22AB14AA15A916900007120ED8
:10056E0066C454F0FFE58454EF4FF5847F00227F7C
:01057E00FF7D
:01057F002259
:0A1D1B008F99751F01E51F70FC226F
:10002E00120E4DFF600C121D1B740129F9E43AFAF1
:03003E0080EE222F
:0A1D25008F9B752401E52470FC2259
:101CD200120E4DFF600C121D25740129F9E43AFA27
:031CE20080EE226F
:0A1D2F008FAD752901E52970FC2233
:101CE500120E4DFF600C121D2F740129F9E43AFA0A
:031CF50080EE225C
:0A1D39008F85752E01E52E70FC2247
:101CF800120E4DFF600C121D39740129F9E43AFAED
:031D080080EE2248
:05000300AE07021D1B09
:0300230002163E84
:10163E00C0E0C083C082C0D075D000C007309820F3
:10164E00C298E520C394804003752000AF2005208A
:10165E0074002FF582E43400F583E599F0752105C9
:10166E00309905C299751F00D007D0D0D082D08393
:03167E00D0E03287
:030043000214079D
:10140700C0E0C083C082C0D075D000C007E59A3065
:10141700E021539AFEE525C394804003752500AF6C
:1014270025052574802FF582E43400F583E59BF0CC
:10143700752605E59A30E106539AFD752400D00715
:09144700D0D0D082D083D0E03275
:03008B000214500C
:10145000C0E0C083C082C0D075D000C007E5AC300A
:10146000E02153ACFEE52AC394404003752A00AF47
:101470002A052A74002FF582E43401F583E5ADF0E6
:10148000752B05E5AC30E10653ACFD752900D0079E
:09149000D0D0D082D083D0E0322C
:03009300021499BB
:10149900C0E0C083C082C0D075D000C007E58430E9
:1014A900E0215384FEE52FC394204003752F00AF3C
:1014B9002F052F74C02FF582E43401F583E585F0FB
:1014C900753005E58430E1065384FD752E00D0079B
:0914D900D0D0D082D083D0E032E3
:10136700900001120E66FFE5DE54F04FF5DE9000A7
:1013770002120E66C43354E0FFE5DE54DF4FF5DE9C
:10138700120E4DFFD3941F502B900003120E66FED2
:10139700D39401501F900004120E66FDD39403509E
:1013A70013EDC43354E0FDEEC433333354804D4F53
:0513B70090FEA8F022E9
:0B000E00BF010443BC802253BC7F22D2
:1012A100EFD3940F40028060E4F5BDF5BEE5BC5478
:1012B100F044404FF5BC00000000000000000000B9
:1012C100E4FDE5BC30E53D53BCDFE5DEAFBD30E517
:1012D1000EEFFEACBEECFBEEF547EBF5488020755A
:1012E10047008F48E5BEC4540FFBE548C4F8540FCE
:1012F100C868FFE547C454F048F547EF4BF548AEE1
:0C13010047AF48220DBDFABA7E107F00F5
:01130D0022BD
:03002B0002001EB2
:04001E0053BCDF32BE
:10058000AD07ED6401707A90FECCE054FEF0E054CB
:10059000FBF090FEC8E054FCF0120E4DFF90FEC838
:1005A000E0548F4FF0900006120E66FF90FECC30A4
:1005B000E00DE04401F090FEB1E04401F0800BE07A
:1005C00054FEF090FEB1E054FEF0EF90FECC30E12E
:1005D0000DE04404F090FEB1E04402F0800BE054E2
:1005E000FBF090FEB1E054FDF0900003120EBEE56A
:1005F000F090FED5F0900003120EBE90FED60209D8
:100600003AED6402707A90FECCE054EFF0E054BF13
:10061000F090FEC9E054FCF0120E4DFF90FEC9E0D0
:10062000548F4FF0900006120E66FF90FECC30E221
:100630000DE04410F090FEB1E04404F0800BE05473
:10064000EFF090FEB1E054FBF0EF90FECC30E30D04
:10065000E04440F090FEB1E04408F0800BE054BF6D
:10066000F090FEB1E054F7F0900003120EBEE5F0FA
:1006700090FED7F0900003120EBE90FED802093A09
:10068000ED6403707A90FECDE054FEF0E054FBF090
:1006900090FECAE054FCF0120E4DFF90FECAE054EA
:1006A0008F4FF0900006120E66FF90FECD30E40DE5
:1006B000E04401F090FEB1E04410F0800BE054FE05
:1006C000F090FEB1E054EFF0EF90FECD30E50DE09C
:1006D0004404F090FEB1E04420F0800BE054FBF0C5
:1006E00090FEB1E054DFF0900003120EBEE5F090F2
:1006F000FED9F0900003120EBE90FEDA02093AED28
:100700006404707A90FECDE054EFF0E054BFF090B6
:10071000FECBE054FCF0120E4DFF90FECBE0548F68
:100720004FF0900006120E66FF90FECD30E60DE011
:100730004410F090FEB1E04440F0800BE054EFF044
:1007400090FEB1E054BFF0EF90FECD30E70DE044F5
:1007500040F090FEB1E04480F0800BE054BFF09098
:10076000FEB1E0547FF0900003120EBEE5F090FE63
:10077000DBF0900003120EBE90FEDC02093AED643D
:1007800080704F900005120E6690FEDEF090000122
:10079000120EBEE5F090FED2F0900001120EBE9057
:1007A000FED3F0900008120E6690FEDDB40106E064
:1007B0004480F08004E0547FF0900007120E6690B1
:1007C000FEC0B40106E04401F08004E054FEF07F76
:1007D0000022ED6405705690FEECE054FEF090FEB1
:1007E000E8E054FCF0120E4DFF90FEE8E0548F4F0D
:1007F000F0900006120E6690FEEC30E00DE0440131
:10080000F090FEB5E04401F0800BE054FEF090FE65
:10081000B5E054FEF0900003120EBEE5F090FEF538
:10082000F0900003120EBE90FEF602093AED640647
:10083000705690FEECE054EFF090FEE9E054FCF0CE
:10084000120E4DFF90FEE9E0548F4FF0900006121B
:100850000E6690FEEC30E20DE04410F090FEB5E044
:100860004404F0800BE054EFF090FEB5E054FBF050
:10087000900003120EBEE5F090FEF7F09000031218
:100880000EBE90FEF802093AED6407705590FEED39
:10089000E054FEF090FEEAE054FCF0120E4DFF90A2
:1008A000FEEAE0548F4FF0900006120E6690FEEDC7
:1008B00030E40DE04401F090FEB5E04410F0800B10
:1008C000E054FEF090FEB5E054EFF0900003120EFD
:1008D000BEE5F090FEF9F0900003120EBE90FEFA15
:1008E0008058ED6408705790FEEDE054EFF090FEF4
:1008F000EBE054FCF0120E4DFF90FEEBE0548F4FF6
:10090000F0900006120E6690FEED30E60DE0441009
:10091000F090FEB5E04440F0800BE054EFF090FE24
:10092000B5E054BFF0900003120EBEE5F090FEFB60
:10093000F0900003120EBE90FEFCF07F0022ED64EA
:1009400081704C900005120E6690FEFEF090000142
:10095000120EBEFDACF0EC90FEF2F0AF05A3EFF08E
:10096000900008120E6690FEFDB40106E04480F08F
:100970008004E0547FF0900007120E6690FEE0B411
:100980000106E04401F08004E054FEF07F00227F85
:02099000FF2244
:10104E00EF2480700302110914700302114E2480E4
:10105E00B40800400302119A90107475F003A4C5F1
:10106E008325F0C5837302108C0210990210A90219
:10107E0010B90210C90210D90210E90210F9120EAD
:10108E0093FDACF0EC90FED5021194900002120E7E
:10109E00BEFDACF0EC90FED7021194900004120E3F
:1010AE00BEFDACF0EC90FED9021194900006120E2B
:1010BE00BEFDACF0EC90FEDB021194900008120E17
:1010CE00BEFDACF0EC90FEF502119490000A120EEB
:1010DE00BEFDACF0EC90FEF702119490000C120ED7
:1010EE00BEFDACF0EC90FEF902119490000E120EC3
:1010FE00BEFDACF0EC90FEFB021194120E93FDAC13
:10110E00F0EC90FED5F0AF05A3EFF0900002120EBA
:10111E00BEFDACF0EC90FED7F0AF05A3EFF0900063
:10112E0004120EBEFDACF0EC90FED9F0AF05A3EFAD
:10113E00F0900006120EBEFDACF0EC90FEDB804689
:10114E00900008120EBEFDACF0EC90FEF5F0AF056F
:10115E00A3EFF090000A120EBEFDACF0EC90FEF77D
:10116E00F0AF05A3EFF090000C120EBEFDACF0EC4C
:10117E0090FEF9F0AF05A3EFF090000E120EBEFD3B
:0D118E00ACF0EC90FEFBF0AF05A3EFF022FB
:10099200AD07ED7079C28C120E4DFED39403400365
:1009A2007FFF22E58954FC4EF589900001120E6604
:1009B200FED3940240037FFF22EE7006538E7F53D4
:1009C20089FB900001120E66B40106438E805389A2
:1009D200FB900001120E66B40203438904900002E8
:1009E200120E66FFE58F54FE4FF58F900003120E34
:1009F200BEE5F0F58C900003120EBEF58A9000065B
:100A0200120E667004C28C8002D28C7F0022ED64CA
:100A1200016003020A98C28E120E4DFED394034067
:100A2200037FFF22EEC454F0FFE58954CF4FF589CE
:100A3200900001120E66FED3940240037FFF22EE65
:100A42007006538EBF5389BF900001120E66B40127
:100A520006438E405389BF900001120E66B4020312
:100A6200438940900002120E6625E0FFE58F54FD97
:100A72004FF58F900003120EBEE5F0F58D90000346
:100A8200120EBEF58B900006120E667004C28E80A6
:100A920002D28E7F0022ED64027065538EEF9000C9
:100AA20001120E66FF7006538EFB538EF7EFB401F0
:100AB20006438E04538EF7EFB40203438E08900070
:100AC20002120E6625E025E0FFE58F54FB4FF58FFD
:100AD200900003120EBEE5F0F5D6900003120EBE92
:100AE200F5D7900005120E6690FEA2F09000061255
:100AF2000E66C454F0FFE58E54EF4FF58E7F002250
:100B0200ED6403707253D1F7900001120E66FED3AA
:100B1200940240037FFF22EE700653D1FD53D1FBB6
:100B2200900001120E66B4010643D10253D1FB902C
:100B32000001120E66B4020343D104900002120EA9
:100B420066FFE5D154FE4FF5D1900003120EBEE5CB
:100B5200F0F5D4900003120EBEF5D5900005120EEA
:100B62006690FEA3F0900006120E6633333354F8FB
:100B7200FFE5D154F78077ED6404707853D17F900C
:100B82000001120E66FED3940240037FFF22EE7034
:100B92000653D1DF53D1BF900001120E66B4010695
:100BA20043D12053D1BF900001120E66B402034319
:100BB200D140900002120E66C454F0FFE5D154EF0A
:100BC2004FF5D1900003120EBEFDACF0ECF5D2AFA2
:100BD200058FD3900005120E6690FEA4F0900006D9
:100BE200120E66C43333335480FFE5D1547F4FF580
:070BF200D17F00227FFF22EA
:03000B000218B325
:1018B300C0E0C0F0C083C082C0D075D000C000C0FB
:1018C30001C002C003C004C005C006C0071200085F
:1018D300D007D006D005D004D003D002D001D00069
:0B18E300D0D0D082D083D0F0D0E03213
:03001B00020026BA
:03002600B2EE3205
:0300630002006038
:03006000B2ED32CC
:03009B0002008ED2
:03008E00B2EC329F
:0300A300020096C2
:03009600B2EB3298
:0300000002119B4F
:0C119B00787FE4F6D8FD7581480211E26F
:100E4D00BB010689828A83E0225002E722BBFE02A3
:090E5D00E32289828A83E49322D6
:100E6600BB010CE58229F582E5833AF583E0225041
:100E760006E92582F8E622BBFE06E92582F8E2228B
:0D0E8600E58229F582E5833AF583E49322A5
:100E9300BB010A89828A83E0F5F0A3E0225006872A
:100EA300F009E71922BBFE07E3F5F009E3192289EC
:0B0EB300828A83E493F5F0740193221F
:100EBE00BB0110E58229F582E5833AF583E0F5F072
:100ECE00A3E0225009E92582F886F008E622BBFE4F
:100EDE000AE92582F8E2F5F008E222E5832AF58395
:080EEE00E993F5F0A3E993225A
:100EF60075F008758200EF2FFFEE33FECD33CDCCB3
:100F060033CCC58233C5829BED9AEC99E582984035
:100F16000CF582EE9BFEED9AFDEC99FC0FD5F0D612
:100F2600E4CEFBE4CDFAE4CCF9A88222B800C1B93C
:100F36000059BA002DEC8BF084CFCECDFCE5F0CB7A
:100F4600F97818EF2FFFEE33FEED33FDEC33FCEBB3
:100F560033FB10D703994004EB99FB0FD8E5E4F96E
:100F6600FA227818EF2FFFEE33FEED33FDEC33FC5B
:100F7600C933C910D7059BE99A4007EC9BFCE99A4F
:100F8600F90FD8E0E4C9FAE4CCFB2275F010EF2F94
:100F9600FFEE33FEED33FDCC33CCC833C810D70794
:100FA6009BEC9AE899400AED9BFDEC9AFCE899F8CF
:0E0FB6000FD5F0DAE4CDFBE4CCFAE4C8F92262
:1015FA00C2D5E830E70FB2D5E4C39BFBE49AFAE41C
:10160A0099F9E498F8EC30E717B2D5121630120FB0
:10161A0032E4C39BFBE49AFAE499F9E498F880036C
:10162A00120F3230D50DE4C39FFFE49EFEE49DFD08
:04163A00E49CFC220E
:100FC400EB9FF5F0EA9E42F0E99D42F0E89C45F083
:010FD40022FA
:100FD500E8600FECC313FCED13FDEE13FEEF13FFFA
:030FE500D8F1221E
:100FE800BB010DE58229F582E5833AF583021025D8
:100FF8005007E92582F8021018BBFE07E92582F898
:10100800021031E58229F582E5833AF58302103E24
:1011A7000213BCE493A3F8E493A34003F68001F28F
:1011B70008DFF48029E493A3F85407240CC8C33349
:1011C700C4540F4420C8834004F456800146F6DF18
:1011D700E4800B0102040810204080901CBCE47ED0
:1011E700019360BCA3FF543F30E509541FFEE4930D
:1011F700A360010ECF54C025E060A840B8E493A3D4
:10120700FAE493A3F8E493A3C8C582C8CAC583CAFE
:10121700F0A3C8C582C8CAC583CADFE9DEE780BEB6
:011CD1000012
:0D101800E6FB08E6F908E6FA08E6CBF82248
:0C102500E0F8A3E0F9A3E0FAA3E0FB224E
:0D103100E2FB08E2F908E2FA08E2CBF8223F
:10103E00E493F8740193F9740293FA740393FB2208
:00000001FF
