:10210600B0B4CFC2202D3E2046616C6CCFC2BDB5A7
:04211600D1D80A0012
:101FD500752303E4F522FB7A0079227F03120F753E
:101FE500752384E4F522FB7A0079227F03120F75AD
:101FF500752308E4F522FB7A0079227F05020F7527
:102005007522407523017527007526C27525017552
:102015002400752901E4F52AFB7A0079227F011253
:0C20250000C67D017F01121BBF53A23FCB
:01203100228C
:10002E007522017B007A007922E4FF121F72E4FD33
:05003E007F010200A695
:0100120022CB
:01001A0022C3
:1020320043BA80121FD512200512002ED2AFE51F1F
:10204200B404FB20B7117F0A12216620B7097BFF77
:0C2052007A217906120A14E4F51F80E2DE
:1017BE009000011211E2FFE5DE54F04FF5DE9000CD
:1017CE00021211E2C43354E0FFE5DE54DF4FF5DEC2
:1017DE001211C9FFD3941F502B9000031211E2FE79
:1017EE00D39401501F9000041211E2FDD3940350C4
:1017FE0013EDC43354E0FDEEC433333354804D4FF8
:05180E0090FEA8F0228D
:0B21D700BF010443BC802253BC7F22E8
:1016F800EFD3940F40028060E4F5BDF5BEE5BC541D
:10170800F044404FF5BC000000000000000000005D
:10171800E4FDE5BC30E53D53BCDFE5DEAFBD30E5BB
:101728000EEFFEACBEECFBEEF542EBF54380207508
:1017380042008F43E5BEC4540FFBE543C4F8540F81
:10174800C868FFE542C454F048F542EF4BF543AE94
:0C17580042AF43220DBDFABA7E107F00A4
:011764002262
:03002B0002000EC2
:04000E0053BCDF32CE
:0F2166007D607C09ED1D70011C144C70F7DFF1DA
:012175002247
:100F7500EFD3940740037FFF221211C9FED39403D8
:100F850040037FFF22EF7041EE700B9000011211BC
:100F9500E2F4529352941211C9B4010B900001125C
:100FA50011E24293F452941211C9FEB4020A900060
:100FB500011211E242934294EEB4030D9000011226
:100FC50011E2FEF45293EE4294EF64017043121164
:100FD500C9FE700B9000011211E2F452915292EE8B
:100FE500B4010B9000011211E24291F452921211D8
:100FF500C9B4020A9000011211E242914292121103
:10100500C9B4030D9000011211E2FEF45291EE42B3
:1010150092EF640270431211C9FE700B9000011229
:1010250011E2F452955296EEB4010B9000011211A3
:10103500E24295F452961211C9B4020A90000112C7
:1010450011E2429542961211C9B4030D90000112A6
:1010550011E2FEF45295EE4296EF640370431211CD
:10106500C9FE700B9000011211E2F452B152B2EEBA
:10107500B4010B9000011211E242B1F452B2121107
:10108500C9B4020A9000011211E242B142B2121132
:10109500C9B4030D9000011211E2FEF452B1EE4203
:1010A500B2EF640470431211C9FE700B9000011277
:1010B50011E2F452B352B4EEB4010B9000011211D7
:1010C500E242B3F452B41211C9B4020A90000112FB
:1010D50011E242B342B41211C9B4030D90000112DA
:1010E50011E2FEF452B3EE42B4EF640570431211FF
:1010F500C9FE700B9000011211E2F452C952CAEEFA
:10110500B4010B9000011211E242C9F452CA121146
:10111500C9B4020A9000011211E242C942CA121171
:10112500C9B4030D9000011211E2FEF452C9EE425A
:10113500CAEF640670431211C9FE700B90000112CC
:1011450011E2F452CB52CCEEB4010B900001121116
:10115500E242CBF452CC1211C9B4020A900001123A
:1011650011E242CB42CC1211C9B4030D9000011219
:1011750011E2FEF452CBEE42CCEF6407704312113C
:10118500C9FF700B9000011211E2F452E152E2EF37
:10119500B4010B9000011211E242E1F452E2121186
:1011A500C9B4020A9000011211E242E142E21211B1
:1011B500C9B4030D9000011211E2FFF452E1EF42B0
:0411C500E27F0022A3
:101602009000021211E26401702A90FE80E04440D0
:10161200F090FE82E4F01211C9543FFF90FE80E088
:1016220054C04FF09000031211E290FE88B4010200
:101632008031802990FE80E054BFF090FE84E4F077
:101642009000041211E225E0FF90FE85E054014F64
:10165200F09000051211E290FE85B40106E054FEFE
:10166200F08004E04401F09000011211E290FE804B
:0C1672007005E0547FF022E04480F0227C
:08221C0090FE82E05480FF22D5
:0C21BF0090FE82E030E6F9E054BFF02210
:09220A0090FE817401F00221BF75
:0E21A30090FE86EFF090FE817402F00221BFE4
:0621760012220A1221A34F
:09217C0090FE817403F00221BF02
:0F21850090FE817404F01221BF90FE87E0FF22CC
:0E21B10090FE82E4F090FE817405F00221BFE2
:0F21940090FE827401F090FE817405F00221BF6D
:0922130090FE817406F00221BF67
:0D00460090FE86EDF090FE81EFF00221BFEC
:101FA4008B388A39893AAE05122176AF061221A3FD
:101FB40012217CAB38053AE53AAA39700205391486
:101FC400F91211C9FF1221A312217CD53BE502228B
:011FD40013F9
:101C7900AE07122176AF051221A312217C12220A86
:101C8900EE4401FF1221A312217C122185EF1212C9
:101C99000F740129F9E43AFAE5416401600312215C
:0A1CA900B1D541E612219402221386
:0300C30002155FC4
:10155F00C0E0C083C082C0D075D000C006C0079065
:10156F00FE84E030E606E054BFF0807A90FE84E01F
:10157F0030E535E054DFF0E51D6005751D00806630
:10158F00E51C600D751C0090FE87E0F51E24C080E1
:10159F003490FE87E0FFAE1E051E74C02EF582E468
:1015AF003402F583EFF0803E90FE84E030E424E0D7
:1015BF0054EFF0E030E10890FE8674FFF0802705CD
:1015CF001E74C0251EF582E43402F583E090FE867A
:1015DF00F0801390FE84E030E30CE054F7F0751DBB
:1015EF0001751C01D209D007D006D0D0D082D0838C
:0315FF00D0E03207
:101A8900EFD3940140037FFF22EDD3940340037FFA
:101A9900FF22EF7004C2A98002D2A9ED700553B7E5
:101AA900FDC2B9BD010553B7FDD2B9BD020543B7A2
:0E1AB90002C2B9BD030543B702D2B97F0022B5
:101AC700EFD3940140037FFF22EDD3940340037FBC
:101AD700FF22EF7004C2AB8002D2ABED700553B7A3
:101AE700F7C2BBBD010553B7F7D2BBBD020543B76C
:0E1AF70008C2BBBD030543B708D2BB7F002267
:1020AA00EFD3940140037FFF22EDD3940340037FD3
:1020BA00FF22EF25E025E0FFE5AF54FB4FF5AFE443
:0220CA00FF22F3
:1020CC00EFD3940140037FFF22EDD3940340037FB1
:1020DC00FF22EFC43354E0FFE5AF54DF4FF5AFE41C
:0220EC00FF22D1
:10208700EFD3940140037FFF22EDD3940340037FF6
:10209700FF22EFC4333354C0FFE5AF54BF4FF5AF52
:0320A700E4FF2231
:101B0500EFD3940140037FFF22EDD3940340037F7D
:101B1500FF22EF7004C2A88002D2A8ED700553B76A
:101B2500FEC2B8BD010553B7FED2B8BD020543B725
:0E1B350001C2B8BD030543B701D2B87F00223C
:101B4300EFD3940140037FFF22EDD3940340037F3F
:101B5300FF22EF7004C2AA8002D2AAED700553B728
:101B6300FBC2BABD010553B7FBD2BABD020543B7E9
:0E1B730004C2BABD030543B704D2BA7F0022F4
:1020EE00EFD3940140037FFF22EFC454F0FFE58F3E
:0820FE0054EF4FF58FE4FF22BF
:1000A600EFD3940140037FFF22EFC43354E0FFE512
:0900B6008F54DF4FF58FE4FF22A7
:10006600EFD3940140037FFF22EFC4333354C0FF24
:0A007600E58F54BF4FF58FE4FF2221
:101B8100EFD3940140037FFF22EDD3940340037F01
:101B9100FF22EF7004C2AD8002D2ADED700553B7E4
:101BA100DFC2BDBD010553B7DFD2BDBD020543B7DD
:0E1BB10020C2BDBD030543B720D2BD7F002278
:1018EE00EDD3940340037FFF22EF30E10543E62062
:1018FE00800353E6DFEF30E00543E610800353E646
:10190E00EFED700653B6DF53B5DFBD010653B6DFFC
:10191E0043B520BD020643B62053B5DFBD030643D3
:08192E00B62043B5207F002222
:10176500EFD3940140037FFF22EBD3940340037F23
:10177500FF22BF0112ED90FE817006E0547FF080DC
:1017850011E04480F0800BEF700890FE83E05487F1
:101795004DF0EB700653B6DF53B5DFBB010653B60C
:1017A500DF43B520BB020643B62053B5DFBB0306B6
:0917B50043B62043B5207F002259
:101BBF00EFD3940140037FFF22EDD3940340037FC3
:101BCF00FF22EF7004C2AC8002D2ACED700553B7A8
:101BDF00EFC2BCBD010553B7EFD2BCBD020543B781
:0E1BEF0010C2BCBD030543B710D2BC7F00225C
:101A4900EFD3940140037FFF22EDD3940340037F3A
:101A5900FF22E5AF54FE4FF5AFED700653B6FE53C6
:101A6900B5FEBD010653B6FE43B501BD020643B638
:101A79000153B5FEBD030643B60143B5017F0022FC
:10193600EFD3940140037FFF22EDD3940340037F4E
:10194600FF22EF33333354F8FFE5AF54F74FF5AFCB
:10195600ED700653EEFE53DFFEBD010653EEFE4369
:10196600DF01BD020643EE0153DFFEBD030643EE73
:071976000143DF017F0022A5
:10197D00EFD3940140037FFF22EDD3940340037F07
:10198D00FF22EFC454F0FFE5AF54EF4FF5AFED700C
:10199D000653EEFD53DFFDBD010653EEFD43DF02A1
:1019AD00BD020643EE0253DFFDBD030643EE0243C7
:0519BD00DF027F0022A3
:1019C200EFD3940140037FFF22EDD3940340037FC2
:1019D200FF22EF25E0FFE5AF54FD4FF5AFED7006B6
:1019E20053B6FD53B5FDBD010653B6FD43B502BD69
:1019F200020643B60253B5FDBD030643B60243B524
:041A0200027F00223D
:10167E00EFD3948140037FFF22EBD3940340037F8B
:10168E00FF22EF247F603004705890FEC4EDF0EB23
:10169E00700653B6FB53B5FBBB010653B6FB43B501
:1016AE0004BB020643B60453B5FBEB640370384328
:1016BE00B60443B504803090FEE4EDF0EB700653B3
:1016CE00B6F753B5F7BB010653B6F743B508BB02E1
:1016DE000643B60853B5F7BB030D43B60843B5082A
:0A16EE00800590FEE4EDF07F00227D
:101CB300EDD394035026ED700653EEFB53DFFBBDCB
:101CC300010653EEFB43DF04BD020643EE0453DF7C
:101CD300FBBD030B43EE0443DF0480037FFF22902D
:071CE300FE62EFF07F00221A
:101CEA0090FA10E054F0F0EDD39403500BE0FEEDBF
:101CFA0025E025E0FDEE4DF0EBD39403500690FA73
:101D0A0010E04BF090FA10E0BF01054480F0800328
:061D1A00547FF07F00225F
:101D200090FA00E054F0F0EDD39403500BE0FEED98
:101D300025E025E0FDEE4DF0EBD39403500690FA3C
:101D400000E04BF090FA00E0BF01054480F0800312
:061D5000547FF07F002229
:101D560090FA20E054F0F0EDD39403500BE0FEED42
:101D660025E025E0FDEE4DF0EBD39403500690FA06
:101D760020E04BF090FA20E0BF01054480F080039C
:061D8600547FF07F0022F3
:101D8C0090FA30E054F0F0EDD39403500BE0FEEDFC
:101D9C0025E025E0FDEE4DF0EBD39403500690FAD0
:101DAC0030E04BF090FA30E0BF01054480F0800346
:061DBC00547FF07F0022BD
:101DC20090FA38E054F0F0EDD39403500BE0FEEDBE
:101DD20025E025E0FDEE4DF0EBD39403500690FA9A
:101DE20038E04BF090FA38E0BF01054480F0800300
:061DF200547FF07F002287
:101DF80090FA40E054F0F0EDD39403500BE0FEED80
:101E080025E025E0FDEE4DF0EBD39403500690FA63
:101E180040E04BF090FA40E0BF01054480F08003B9
:061E2800547FF07F002250
:101E2E0090FA48E054F0F0EDD39403500BE0FEED41
:101E3E0025E025E0FDEE4DF0EBD39403500690FA2D
:101E4E0048E04BF090FA48E0BF01054480F0800373
:061E5E00547FF07F00221A
:101E640090FA50E054F0F0EDD39403500BE0FEED03
:101E740025E025E0FDEE4DF0EBD39403500690FAF7
:101E840050E04BF090FA50E0BF01054480F080032D
:061E9400547FF07F0022E4
:101E9A0090FA58E054F0F0EDD39403500BE0FEEDC5
:101EAA0025E025E0FDEE4DF0EBD39403500690FAC1
:101EBA0058E04BF090FA58E0BF01054480F08003E7
:061ECA00547FF07F0022AE
:101ED00090FA60E054F0F0EDD39403500BE0FEED87
:101EE00025E025E0FDEE4DF0EBD39403500690FA8B
:101EF00060E04BF090FA60E0BF01054480F08003A1
:061F0000547FF07F002277
:101F060090FA68E054F0F0EDD39403500BE0FEED48
:101F160025E025E0FDEE4DF0EBD39403500690FA54
:101F260068E04BF090FA68E0BF01054480F080035A
:061F3600547FF07F002241
:101F3C0090FA70E054F0F0EDD39403500BE0FEED0A
:101F4C0025E025E0FDEE4DF0EBD39403500690FA1E
:101F5C0070E04BF090FA70E0BF01054480F0800314
:061F6C00547FF07F00220B
:10205E0090FE50E054CFF0EDD39403500AE0FEED25
:10206E00C454F0FDEE4DF090FE50E0BF01054480EB
:09207E00F08003547FF07F002282
:1005A000AD07ED6401707A90FECCE054FEF0E054AB
:1005B000FBF090FEC8E054FCF01211C9FF90FEC899
:1005C000E0548F4FF09000061211E2FF90FECC3005
:1005D000E00DE04401F090FEB1E04401F0800BE05A
:1005E00054FEF090FEB1E054FEF0EF90FECC30E10E
:1005F0000DE04404F090FEB1E04402F0800BE054C2
:10060000FBF090FEB1E054FDF090000312124CE5B7
:10061000F090FED5F090000312124C90FED6020925
:100620005AED6402707A90FECCE054EFF0E054BFD3
:10063000F090FEC9E054FCF01211C9FF90FEC9E031
:10064000548F4FF09000061211E2FF90FECC30E282
:100650000DE04410F090FEB1E04404F0800BE05453
:10066000EFF090FEB1E054FBF0EF90FECC30E30DE4
:10067000E04440F090FEB1E04408F0800BE054BF4D
:10068000F090FEB1E054F7F090000312124CE5F048
:1006900090FED7F090000312124C90FED802095A37
:1006A000ED6403707A90FECDE054FEF0E054FBF070
:1006B00090FECAE054FCF01211C9FF90FECAE0544B
:1006C0008F4FF09000061211E2FF90FECD30E40D46
:1006D000E04401F090FEB1E04410F0800BE054FEE5
:1006E000F090FEB1E054EFF0EF90FECD30E50DE07C
:1006F0004404F090FEB1E04420F0800BE054FBF0A5
:1007000090FEB1E054DFF090000312124CE5F0903F
:10071000FED9F090000312124C90FEDA02095AED55
:100720006404707A90FECDE054EFF0E054BFF09096
:10073000FECBE054FCF01211C9FF90FECBE0548FC9
:100740004FF09000061211E2FF90FECD30E60DE072
:100750004410F090FEB1E04440F0800BE054EFF024
:1007600090FEB1E054BFF0EF90FECD30E70DE044D5
:1007700040F090FEB1E04480F0800BE054BFF09078
:10078000FEB1E0547FF090000312124CE5F090FEB1
:10079000DBF090000312124C90FEDC02095AED646B
:1007A00080704F9000051211E290FEDEF090000183
:1007B00012124CE5F090FED2F090000112124C9013
:1007C000FED3F09000081211E290FEDDB40106E0C5
:1007D0004480F08004E0547FF09000071211E29012
:1007E000FEC0B40106E04401F08004E054FEF07F56
:1007F0000022ED6405705690FEECE054FEF090FE91
:10080000E8E054FCF01211C9FF90FEE8E0548F4F6D
:10081000F09000061211E290FEEC30E00DE0440191
:10082000F090FEB5E04401F0800BE054FEF090FE45
:10083000B5E054FEF090000312124CE5F090FEF586
:10084000F090000312124C90FEF602095AED640675
:10085000705690FEECE054EFF090FEE9E054FCF0AE
:100860001211C9FF90FEE9E0548F4FF0900006127C
:1008700011E290FEEC30E20DE04410F090FEB5E0A5
:100880004404F0800BE054EFF090FEB5E054FBF030
:1008900090000312124CE5F090FEF7F09000031266
:1008A000124C90FEF802095AED6407705590FEED67
:1008B000E054FEF090FEEAE054FCF01211C9FF9003
:1008C000FEEAE0548F4FF09000061211E290FEED28
:1008D00030E40DE04401F090FEB5E04410F0800BF0
:1008E000E054FEF090FEB5E054EFF09000031212D9
:1008F0004CE5F090FEF9F090000312124C90FEFAD5
:100900008058ED6408705790FEEDE054EFF090FED3
:10091000EBE054FCF01211C9FF90FEEBE0548F4F56
:10092000F09000061211E290FEED30E60DE044106A
:10093000F090FEB5E04440F0800BE054EFF090FE04
:10094000B5E054BFF090000312124CE5F090FEFBAE
:10095000F090000312124C90FEFCF07F0022ED6438
:1009600081704C9000051211E290FEFEF0900001A3
:1009700012124CFDACF0EC90FEF2F0AF05A3EFF0DC
:100980009000081211E290FEFDB40106E04480F0F0
:100990008004E0547FF09000071211E290FEE0B472
:1009A0000106E04401F08004E054FEF07F00227F65
:0209B000FF2224
:10141200EF248070030214CD14700302151224808D
:10142200B40800400302155E90143875F003A4C599
:101432008325F0C5837302145002145D02146D02F9
:10144200147D02148D02149D0214AD0214BD1212F9
:1014520021FDACF0EC90FED502155890000212125C
:101462004CFDACF0EC90FED702155890000412121D
:101472004CFDACF0EC90FED9021558900006121209
:101482004CFDACF0EC90FEDB0215589000081212F5
:101492004CFDACF0EC90FEF502155890000A1212C9
:1014A2004CFDACF0EC90FEF702155890000C1212B5
:1014B2004CFDACF0EC90FEF902155890000E1212A1
:1014C2004CFDACF0EC90FEFB021558121221FDAC63
:1014D200F0EC90FED5F0AF05A3EFF09000021212EF
:1014E2004CFDACF0EC90FED7F0AF05A3EFF090000E
:1014F2000412124CFDACF0EC90FED9F0AF05A3EF54
:10150200F090000612124CFDACF0EC90FEDB80462F
:1015120090000812124CFDACF0EC90FEF5F0AF0515
:10152200A3EFF090000A12124CFDACF0EC90FEF723
:10153200F0AF05A3EFF090000C12124CFDACF0ECF2
:1015420090FEF9F0AF05A3EFF090000E12124CFDE1
:0D155200ACF0EC90FEFBF0AF05A3EFF02233
:100D0E00AD07ED7079C28C1211C9FED39403400366
:100D1E007FFF22E58954FC4EF5899000011211E205
:100D2E00FED3940240037FFF22EE7006538E7F5354
:100D3E0089FB9000011211E2B40106438E805389A3
:100D4E00FB9000011211E2B40203438904900002E9
:100D5E001211E2FFE58F54FE4FF58F900003121231
:100D6E004CE5F0F58C90000312124CF58A900006BB
:100D7E001211E27004C28C8002D28C7F0022ED64CC
:100D8E00016003020E14C28E1211C9FED3940340E9
:100D9E00037FFF22EEC454F0FFE58954CF4FF5894F
:100DAE009000011211E2FED3940240037FFF22EE67
:100DBE007006538EBF5389BF9000011211E2B40129
:100DCE0006438E405389BF9000011211E2B4020314
:100DDE004389409000021211E225E0FFE58F54FD99
:100DEE004FF58F90000312124CE5F0F58D90000335
:100DFE0012124CF58B9000061211E27004C28E8016
:100E0E0002D28E7F0022ED64027065538EEF900049
:100E1E00011211E2FF7006538EFB538EF7EFB401F1
:100E2E0006438E04538EF7EFB40203438E089000F0
:100E3E00021211E225E025E0FFE58F54FB4FF58FFE
:100E4E0090000312124CE5F0F5D690000312124CEE
:100E5E00F5D79000051211E290FEA2F09000061256
:100E6E0011E2C454F0FFE58E54EF4FF58E7F002251
:100E7E00ED6403707253D1F79000011211E2FED3AC
:100E8E00940240037FFF22EE700653D1FD53D1FB37
:100E9E009000011211E2B4010643D10253D1FB902E
:100EAE0000011211E2B4020343D1049000021211A8
:100EBE00E2FFE5D154FE4FF5D190000312124CE53E
:100ECE00F0F5D490000312124CF5D59000051211D6
:100EDE00E290FEA3F09000061211E233333354F881
:100EEE00FFE5D154F78077ED6404707853D17F908D
:100EFE0000011211E2FED3940240037FFF22EE7036
:100F0E000653D1DF53D1BF9000011211E2B4010696
:100F1E0043D12053D1BF9000011211E2B40203431A
:100F2E00D1409000021211E2C454F0FFE5D154EF0B
:100F3E004FF5D190000312124CFDACF0ECF5D2AF90
:100F4E00058FD39000051211E290FEA4F0900006DA
:100F5E001211E2C43333335480FFE5D1547F4FF581
:070F6E00D17F00227FFF226A
:03000B000200569A
:03005600B2EF32D4
:03001B0002005E82
:03005E00B2EE32CD
:0300630002008018
:03008000B2ED32AC
:03009B00020086DA
:03008600B2EC32A7
:0300A30002008ECA
:03008E00B2EB32A0
:0800C6008F2B8B2C8A2D892E53
:1000CE00E52B6401600302023CF508F509F50AF51B
:1000DE000BF50CF52FF53074402530F58274013593
:1000EE002FF583E4F00530E5307002052F6480456E
:1000FE002F70E4E4F52FF53074002530F58274008E
:10010E00352FF583E4F00530E5307002052F64805D
:10011E00452F70E4AB2CAA2DA92E1211C9FFE5981C
:10012E00543F4FF598EF64C06008EF6440600302DF
:10013E0001F19000021213767F807E8D7D5B7C0034
:10014E001212C08F348E338D328C31E4FFFE7D015E
:10015E00FCAB34AA33A932A831C312135240037F29
:10016E00FF22C3E49534F534E49533F533740195E9
:10017E0032F532E49531F531AB2CAA2DA92E900033
:10018E00011211E2FB6401702CC28E538EFE538954
:10019E00BF5389CF438E40AF34AE33AD32AC3178DE
:1001AE00081213638F8D85348BC2AB5389BF538F67
:1001BE00FDD28E8062EB64027026538EEF438E0169
:1001CE00538EF7438E04AF34AE33AD32AC31780874
:1001DE001213638FD68534D753AFFB438E108037FF
:1001EE007FFF22AB2CAA2DA92E1211C9FF701390DE
:1001FE0000081211E2B40105438E20801A538EDFDF
:10020E008015EFB480119000081211E2B40105437D
:10021E008780800353877FAB2CAA2DA92E900007D1
:10022E001211E27004C29C8002D29C7F0022E52B48
:10023E0064026003020335F50DF50EF50FF510F5AA
:10024E0011F52FF53074E02530F5827401352FF558
:10025E0083E4F00530E5307002052F6480452F7081
:10026E00E4E4F52FF53074802530F5827400352FD7
:10027E00F583E4F00530E5307002052F6480452FDC
:10028E0070E4AB2CAA2DA92E1211C9FF64C0600513
:10029E00EF64407075EFB4C005439A808003539AA3
:1002AE007F9000021213767F807E8D7D5B7C001224
:1002BE0012C08F348E338D328C31E4FFFE7D01FC03
:1002CE00AB34AA33A932A831C312135240037FFFB5
:1002DE0022C3E49534F534E49533F5337401953245
:1002EE00F532E49531F531538EEF538EF7438E048C
:1002FE00AF34AE33AD32AC3178081213638FD6857E
:10030E0034D753AFFB438E1080037FFF22AB2CAA52
:10031E002DA92E9000071211E2C454F0FFE59A5455
:10032E00EF4FF59A7F0022E52B6403600302046908
:10033E00F512F513F514F515F516F52FF530746065
:10034E002530F5827402352FF583E4F00530E53063
:10035E007002052F6440452F70E4E4F52FF53074DC
:10036E00002530F5827401352FF583E4F00530E574
:10037E00307002052F6440452F70E4AB2CAA2DA9D6
:10038E002E1211C9FF64C06008EF644060030204BE
:10039E004CEFB4C00543AC80800353AC7F90000299
:1003AE001213767F807E8D7D5B7C001212C08F349F
:1003BE008E338D328C31E4FFFE7D01FCAB34AA33DB
:1003CE00A932A831C312135240037FFF22C3E49512
:1003DE0034F534E49533F53374019532F532E49502
:1003EE0031F531AB2CAA2DA92E9000011211E2FB92
:1003FE00B4031D43AC40AF34AE33AD32AC317808EC
:10040E001213638FD48534D553D1F043D10A803182
:10041E00EB64027026538EEF53ACBF538EF7438EB0
:10042E0004AF34AE33AD32AC3178081213638FD6CD
:10043E008534D753AFFB438E1080067FFF227FFF9C
:10044E0022AB2CAA2DA92E9000071211E2C454F053
:10045E00FFE5AC54EF4FF5AC7F0022E52B64046052
:10046E000302059DF517F518F519F51AF51BF52F6D
:10047E00F53074A02530F5827402352FF583E4F043
:10048E000530E5307002052F6420452F70E4E4F549
:10049E002FF53074C02530F5827401352FF583E4C5
:1004AE00F00530E5307002052F6420452F70E4AB67
:1004BE002CAA2DA92E1211C9FF64C06008EF64404A
:1004CE006003020580EFB4C005438480800353842B
:1004DE007F9000021213767F807E8D7D5B7C0012F2
:1004EE0012C08F348E338D328C31E4FFFE7D01FCD1
:1004FE00AB34AA33A932A831C312135240037FFF83
:10050E0022C3E49534F534E49533F5337401953212
:10051E00F532E49531F531AB2CAA2DA92E900001C0
:10052E001211E2FBB4041D438440AF34AE33AD323E
:10053E00AC3178081213638FD28534D353D10F4365
:10054E00D1A08031EB64027026538EEF5384BF53DB
:10055E008EF7438E04AF34AE33AD32AC3178081221
:10056E0013638FD68534D753AFFB438E1080067F2F
:10057E00FF227FFF22AB2CAA2DA92E90000712116D
:10058E00E2C454F0FFE58454EF4FF5847F00227FE0
:01059E00FF5D
:01059F002239
:0A21E2008F99750A01E50A70FC22CE
:10211A001211C9FF600C1221E2740129F9E43AFA9A
:03212A0080EE2222
:0A21EC008F9B750F01E50F70FC22B8
:10212D001211C9FF600C1221EC740129F9E43AFA7D
:03213D0080EE220F
:0A21F6008FAD751401E51470FC2292
:102140001211C9FF600C1221F6740129F9E43AFA60
:0321500080EE22FC
:0A2200008F85751901E51970FC22A5
:102153001211C9FF600C122200740129F9E43AFA42
:0321630080EE22E9
:05000600AE070221E23B
:03002300021A06B8
:101A0600C0E0C083C082C0D075D000C00730982027
:101A1600C298E50BC394804003750B00AF0B050B12
:101A260074002FF582E43400F583E599F0750C0512
:101A3600309905C299750A00D007D0D0D082D083DC
:031A4600D0E032BB
:030043000218138D
:10181300C0E0C083C082C0D075D000C007E59A3055
:10182300E021539AFEE510C394804003751000AF86
:1018330010051074802FF582E43400F583E59BF0E6
:10184300751105E59A30E106539AFD750F00D0072F
:09185300D0D0D082D083D0E03265
:03008B0002185CFC
:10185C00C0E0C083C082C0D075D000C007E5AC30FA
:10186C00E02153ACFEE515C394404003751500AF61
:10187C0015051574002FF582E43401F583E5ADF000
:10188C00751605E5AC30E10653ACFD751400D007B8
:09189C00D0D0D082D083D0E0321C
:030093000218A5AB
:1018A500C0E0C083C082C0D075D000C007E58430D9
:1018B500E0215384FEE51AC394204003751A00AF56
:1018C5001A051A74C02FF582E43401F583E585F015
:1018D500751B05E58430E1065384FD751900D007B5
:0918E500D0D0D082D083D0E032D3
:101F7200EFD3940140037FFF22EF7010C289121148
:101F8200C97004C2888002D2887F0022BF0110C2B9
:101F92008B1211C97004C28A8002D28A7F00227F0A
:021FA200FF221C
:03000300021BFDE0
:101BFD00C0E0C0F0C083C082C0D075D000C000C0AE
:101C0D0001C002C003C004C005C006C007751F0196
:101C1D00120012D007D006D005D004D003D002D0C8
:0E1C2D0001D000D0D0D082D083D0F0D0E032F1
:03001300020016D2
:04001600751F02321E
:0300530002001E8A
:04001E00751F033215
:03005B00021C3B49
:101C3B00C0E0C0F0C083C082C0D075D000C000C06F
:101C4B0001C002C003C004C005C006C007751F0455
:101C5B0012001AD007D006D005D004D003D002D082
:0E1C6B0001D000D0D0D082D083D0F0D0E032B3
:0300830002002652
:04002600751F05320B
:030000000221CB0F
:0C21CB00787FE4F6D8FD758143022032D5
:1011C900BB010689828A83E0225002E722BBFE0224
:0911D900E32289828A83E4932257
:1011E200BB010CE58229F582E5833AF583E02250C2
:1011F20006E92582F8E622BBFE06E92582F8E2220C
:0D120200E58229F582E5833AF583E4932225
:10120F00BB010689828A83F0225002F722BBFE01BE
:02121F00F322B8
:10122100BB010A89828A83E0F5F0A3E02250068798
:10123100F009E71922BBFE07E3F5F009E31922895A
:0B124100828A83E493F5F0740193228D
:10124C00BB0110E58229F582E5833AF583E0F5F0E0
:10125C00A3E0225009E92582F886F008E622BBFEBD
:10126C000AE92582F8E2F5F008E222E5832AF58303
:08127C00E993F5F0A3E99322C8
:1012840075F008758200EF2FFFEE33FECD33CDCC21
:1012940033CCC58233C5829BED9AEC99E5829840A4
:1012A4000CF582EE9BFEED9AFDEC99FC0FD5F0D681
:1012B400E4CEFBE4CDFAE4CCF9A88222B800C1B9AB
:1012C4000059BA002DEC8BF084CFCECDFCE5F0CBE9
:1012D400F97818EF2FFFEE33FEED33FDEC33FCEB22
:1012E40033FB10D703994004EB99FB0FD8E5E4F9DD
:1012F400FA227818EF2FFFEE33FEED33FDEC33FCCA
:10130400C933C910D7059BE99A4007EC9BFCE99ABD
:10131400F90FD8E0E4C9FAE4CCFB2275F010EF2F02
:10132400FFEE33FEED33FDCC33CCC833C810D70702
:101334009BEC9AE899400AED9BFDEC9AFCE899F83D
:0E1344000FD5F0DAE4CDFBE4CCFAE4C8F922D0
:10135200EB9FF5F0EA9E42F0E99D42F0E89C45F0F1
:011362002268
:10136300E8600FECC313FCED13FDEE13FEEF13FF68
:03137300D8F1228C
:10137600BB010DE58229F582E5833AF5830213B3B5
:101386005007E92582F80213A6BBFE07E92582F875
:101396000213BFE58229F582E5833AF5830213CC71
:1009B200E5312425F8E60531227822300702782530
:1009C200E475F0011213DC0211C92000EB7F2ED274
:1009D200008018EF540F2490D43440D4FF30040B1D
:1009E200EF24BFB41A0050032461FFE53260021500
:1009F200320535E5357002053430070D7822E4758D
:100A0200F0011213DCEF02120F0200067403D20788
:100A12008003E4C207F5318B228A238924E4F5326C
:100A2200F534F535E53260077F201209ED80F57562
:100A320033FFC201C200C202C203C205C206C2081B
:100A42001209BBFF700D3007057F001209FEAF359A
:100A5200AE3422B4255FC2D5C2041209BBFF24D032
:100A6200B40A00501A75F00A783230D50508B6FF7C
:100A72000106C6A426F620D5047002D20380D9242A
:100A8200CFB41A00EF5004C2E5D204020BFED20129
:100A920080C6D20080C0D20280BCD2D580BAD20534
:100AA20080B47F201209ED2002077401B5320040A4
:100AB200F11209B2FF1209ED020A26D208D206800B
:100AC200951209B2FB1209B2FA1209B2F94A4B7035
:100AD2000679CF7A0C7BFF20022EE532602A7E0057
:100AE2008E827583001211E260060EEE653370F09D
:100AF200C2D5EBC0E0EAC0E0E9C0E0EE120C45D09E
:100B0200E0F9D0E0FAD0E0FB1211C9FF60AAEBC015
:100B1200E0EAC0E0E9C0E01209EDD0E02401F9D03A
:100B2200E03400FAD0E0FBE5330460DCD533D98051
:100B3200877BFF7A0C7941D202809C7910800279FE
:100B420008C206C2088008D2D5790A8004790AC28E
:100B5200D5E533047002F533E4FAFDFEFF1209B263
:100B6200FC7B082001131209B2FD7B1030000A122F
:100B720009B2FE1209B2FF7B20EC3382D592D55026
:100B820013C3E43000069FFFE49EFEE42001039DB0
:100B9200FDE49CFCE4CBF8C201EC700CCFCECDCCD2
:100BA200E824F8F870F38017C3EF33FFEE33FEED5D
:100BB20033FDEC33FCEB33FB994002FB0FD8E9EB3E
:100BC200300105F8D0E0C448B201C0E00AEC4D4E55
:100BD2004F78207B0070C2EAB5330040BCC0E012FF
:100BE2000C47D0F0D0E0200104C4C0E0C4B201C080
:100BF200F01209D6D0F0D5F0EB020A261213EC0A55
:100C0200C3530B3D580A944C0A90420B414F0B4977
:0F0C1200440B49490AA9430B4F550B33460B338B
:100C2100450B33470CEF500A982D0A9C2E0ABF2B17
:100C31000AA0230ABD200CD82A0A584800000AB786
:100C41003F3F3F00790AA2D5200314300509B910AE
:100C5100020404B9080104A2D520060250010420AF
:100C610002689202B532005034C0E07F203003198F
:100C71007F30A20272067205500F120C9EC202C290
:100C810006C205C2087F30800F300503E9C0E012BB
:100C910009ED300503D0E0F9D0E0B532CC300517CD
:100CA1007F30B9100C1209ED7F583004077F78802E
:100CB10003B908031209ED3002057F2D0209ED7F0A
:100CC100202008F87F2B2006F322920280CF286E85
:100CD100756C6C2900D2011209B23001F8C2017899
:100CE1003230D50108F6020A582D504349581209ED
:100CF100B22403B405004001E4900CEA931209DE2A
:0D0D0100743A1209DED203753204020B3D74
:0D13A600E6FB08E6F908E6FA08E6CBF822B7
:0C13B300E0F8A3E0F9A3E0FAA3E0FB22BD
:0D13BF00E2FB08E2F908E2FA08E2CBF822AE
:1013CC00E493F8740193F9740293FA740393FB2277
:1013DC00FAE6FB0808E6F925F0F618E6CA3AF62212
:1013EC00D083D082F8E4937012740193700DA3A390
:1013FC0093F8740193F5828883E4737402936860A4
:06140C00EFA3A3A380DFA3
:00000001FF
