:101C0D004C6569596946616ECAC8203A2025640A37
:101C1D0000E3F2D8A8CDDAC380B99BB029A7259EE1
:101C2D008D965C8E9087258017796373046CF867A9
:101C3D003B61CA5CA157BC53194EB44A8B469B42BB
:101C4D00E03F583C0138D735D9330530582DD02BCE
:101C5D006A2927270224FC231121411F8B1DEC1C0F
:101C6D00631AF019911844170A15E114C713BD1220
:101C7D00C111D210F0101A0F500E900DDA0D2E0C5E
:101C8D008B0BF10B5E0AD30A4F09D3095C08EC08E4
:101C9D0081081C07BA0761070A06B8066A062005FF
:101CAD00D905960556051A04E004A90475044404E3
:101CBD001403E803BD0394036D03480325030302D6
:101CCD00E302C502A7028C027102580240022802EB
:101CDD001201FD01E901D601C401B201A101910179
:101CED0082017301660158014B013E01320127014A
:101CFD001C0112010800FE00F500EC00E400DC0000
:101D0D00D400CD00C600BF00B800B200AC00A600E4
:101D1D00A0009B00960091008C00870083007E0040
:101D2D007A00760073006F006B006800650061003B
:101D3D005E005B0059005600530051004E004C00F0
:101D4D004A0047004500430041003F003D003C0074
:101D5D003A003800370035003400320031002F00D2
:101D6D002E002D002B002A00290028002700260018
:0B1D7D0025002400230022002100208C
:04000300021C0000DB
:1022A8007531107530017B007A007930E4FF12181F
:1022B800117531207530037B007A0079307F041264
:1022C80018117531CF7530037B007A0079307F02A1
:1022D8001218117531307530037B007A0079307F20
:1022E80001121811753103E4F530FB7A0079307F5B
:0422F80003021811B4
:1029A5007530407531017535007534C27533017563
:1029B5003200753701E4F538FB7A0079307F011272
:0C29C500084F7D017F011226A853A23F9D
:0129D10022E3
:1029FB0075301FE4F53375340175310F753201FBFA
:102A0B007A0079301222537F0112000EE4FDFF028F
:022A1B00266A29
:102A6100E4F530753101F5327533A27534407536B0
:102A710001FB7A007930FF1215AAE4FDFF022572ED
:03000B000221FED1
:0421FE00C0E0C0D0AD
:10220200D3E51D9464E51C648094805012C2A0C280
:10221200A1C2A2C2A3C294C295C2A6C2A78025D35C
:10222200E51D94C8E51C648094805012D2A0D2A10E
:10223200D2A2D2A3D294D295D2A6D2A78006751CDE
:0C22420000751D00051DE51D7002051C47
:05224E00D0D0D0E03209
:101A65001202A78F2B8E2A8D298C28E4FFFE7DC8B4
:0D1A75007C42AB2BAA2AA929A82812019EA9
:081A82008F338E328D318C3060
:101A8A00E4F534F535F536F537901C1E93FC7401F0
:101A9A0093FDE41203D3A804A905AA06AB07AF3342
:101AAA00AE32AD31AC301200A9E4FBFAF9F81203F8
:101ABA00445023901C1EE493FC740193FDE412032A
:101ACA00D3A804A905AA06AB07AF33AE32AD31AC31
:101ADA00301200A98024901C1EE493FC740193FD2B
:101AEA00E41203D3A804A905AA06AB07AF33AE32A2
:101AFA00AD31AC301200A91203BD8F3B8E3A8D393D
:101B0A008C38753C00753DB5753600753701C3E5EF
:101B1A0037953DE53C6480F8E536648098400302D9
:021B2A001C0895
:101B2C00E53725E0FFE53633FE741E2FF582741C75
:101B3C003EF583E493FC740193FDE41203D3A804F3
:101B4C00A905AA06AB07AF33AE32AD31AC301200EB
:101B5C00A9E4FBFAF9F81203445033E53725E0FF0A
:101B6C00E53633FE741E2FF582741C3EF583E49328
:101B7C00FC740193FDE41203D3A804A905AA06ABD7
:101B8C0007AF33AE32AD31AC301200A98034E5373B
:101B9C0025E0FFE53633FE741E2FF582741C3EF5EE
:101BAC0083E493FC740193FDE41203D3A804A90508
:101BBC00AA06AB07AF33AE32AD31AC301200A9126E
:101BCC0003BD8F418E408D3F8C3EAF3BAE3AAD395D
:101BDC00AC38AB41AA40A93FA83E12034450128531
:101BEC00413B85403A853F39853E388536348537CB
:011BFC0035B3
:0F1BFD000537E53770020536021B18AE34AF35D9
:011C0C0022B5
:101D880043BA801222A81229A51229FB122A61D26D
:101D9800AFC2C57F0F122AEB7F0C1221388E228F1B
:101DA80023AC22AD23E41203D3E4FBFA7920784074
:101DB80012019EE4FBFA798078451202A78F278EDC
:101DC800268D258C24AB27AA26A925A8247F337E17
:101DD800337D537C401200A9C004C005C006C0076B
:101DE800E4FFFE7D207C41AB27AA26A925A8241262
:101DF800019ED003D002D001D000121A65EF24C989
:101E0800F52FEE34FFF52E7F0C1221388E228F230A
:101E1800AC22AD23E41203D3E4FBFA792078401214
:101E2800019EE4FBFA798078451202A78F278E2657
:101E38008D258C24AB27AA26A925A8247F337E3399
:101E48007D537C401200A9C004C005C006C007E449
:101E5800FFFE7D207C41AB27AA26A925A8241201D4
:101E68009ED003D002D001D000121A65EF24C9F524
:101E78002DEE34FFF52C7BFF7A1C790DF533852D7B
:101E880034120D8BE52F2402FFE4352EFEC3E52D19
:101E98009FEE6480F8E52C6480984006E4FD7F019D
:101EA800802BE52F2402FFE4352EFEC3E52D9FEE9F
:101EB8006480F8E52C6480985016D2A0D2A1D2A2F2
:101EC800D2A3D294D295D2A6D2A7E4FDFF1225724E
:0D1ED8007FFA122AEB7FFA122AEB021E0F8E
:10225300900001120611FFE5DE54F04FF5DE900009
:1022630002120611C43354E0FFE5DE54DF4FF5DEFE
:102273001205F8FFD3941F502B900003120611FE92
:10228300D39401501F900004120611FDD394035000
:1022930013EDC43354E0FDEEC433333354804D4F58
:0522A30090FEA8F022EE
:0B000E00BF010443BC802253BC7F22D2
:10213800EFD3940F40028060E4F5BDF5BEE5BC54D2
:10214800F044404FF5BC0000000000000000000013
:10215800E4FDE5BC30E53D53BCDFE5DEAFBD30E571
:102168000EEFFEACBEECFBEEF530EBF531802075E2
:1021780030008F31E5BEC4540FFBE531C4F8540F6D
:10218800C868FFE530C454F048F530EF4BF531AE80
:0C21980030AF31220DBDFABA7E107F007E
:0121A4002218
:03002B00020026AA
:0400260053BCDF32B6
:0F2AEB007D607C09ED1D70011C144C70F7DFF14C
:012AFA0022B9
:10181100EFD3940740037FFF221205F8FED3940310
:1018210040037FFF22EF7041EE700B900001120622
:1018310011F4529352941205F8B4010B9000011265
:1018410006114293F452941205F8FEB4020A900074
:101851000112061142934294EEB4030D900001125D
:101861000611FEF45293EE4294EF640170431205A7
:10187100F8FE700B900001120611F452915292EE93
:10188100B4010B9000011206114291F4529212051B
:10189100F8B4020A90000112061142914292120517
:1018A100F8B4030D900001120611FEF45291EE42BC
:1018B10092EF640270431205F8FE700B9000011262
:1018C1000611F452955296EEB4010B9000011206E6
:1018D100114295F452961205F8B4020A90000112D1
:1018E1000611429542961205F8B4030D90000112BB
:1018F1000611FEF45295EE4296EF64037043120511
:10190100F8FE700B900001120611F452B152B2EEC2
:10191100B4010B90000112061142B1F452B212054A
:10192100F8B4020A90000112061142B142B2120546
:10193100F8B4030D900001120611FEF452B1EE420B
:10194100B2EF640470431205F8FE700B90000112AF
:101951000611F452B352B4EEB4010B900001120619
:101961001142B3F452B41205F8B4020A9000011204
:10197100061142B342B41205F8B4030D90000112EE
:101981000611FEF452B3EE42B4EF64057043120542
:10199100F8FE700B900001120611F452C952CAEE02
:1019A100B4010B90000112061142C9F452CA12058A
:1019B100F8B4020A90000112061142C942CA120586
:1019C100F8B4030D900001120611FEF452C9EE4263
:1019D100CAEF640670431205F8FE700B9000011205
:1019E1000611F452CB52CCEEB4010B900001120659
:1019F1001142CBF452CC1205F8B4020A9000011244
:101A0100061142CB42CC1205F8B4030D900001122D
:101A11000611FEF452CBEE42CCEF6407704312057F
:101A2100F8FF700B900001120611F452E152E2EF3F
:101A3100B4010B90000112061142E1F452E21205C9
:101A4100F8B4020A90000112061142E142E21205C5
:101A5100F8B4030D900001120611FFF452E1EF42B8
:041A6100E27F0022FE
:10257200EFD3940140037FFF22EDD3940340037F06
:10258200FF22EF7004C2A98002D2A9ED700553B7F1
:10259200FDC2B9BD010553B7FDD2B9BD020543B7AE
:0E25A20002C2B9BD030543B702D2B97F0022C1
:1025B000EFD3940140037FFF22EDD3940340037FC8
:1025C000FF22EF7004C2AB8002D2ABED700553B7AF
:1025D000F7C2BBBD010553B7F7D2BBBD020543B778
:0E25E00008C2BBBD030543B708D2BB7F002273
:102A1D00EFD3940140037FFF22EDD3940340037F56
:102A2D00FF22EF25E025E0FFE5AF54FB4FF5AFE4C6
:022A3D00FF2276
:102A3F00EFD3940140037FFF22EDD3940340037F34
:102A4F00FF22EFC43354E0FFE5AF54DF4FF5AFE49F
:022A5F00FF2254
:10006600EFD3940140037FFF22EDD3940340037F37
:10007600FF22EFC4333354C0FFE5AF54BF4FF5AF93
:03008600E4FF2272
:1025EE00EFD3940140037FFF22EDD3940340037F8A
:1025FE00FF22EF7004C2A88002D2A8ED700553B777
:10260E00FEC2B8BD010553B7FED2B8BD020543B731
:0E261E0001C2B8BD030543B701D2B87F002248
:10262C00EFD3940140037FFF22EDD3940340037F4B
:10263C00FF22EF7004C2AA8002D2AAED700553B734
:10264C00FBC2BABD010553B7FBD2BABD020543B7F5
:0E265C0004C2BABD030543B704D2BA7F002200
:102A9A00EFD3940140037FFF22EFC454F0FFE58F88
:082AAA0054EF4FF58FE4FF2209
:102A8100EFD3940140037FFF22EFC43354E0FFE50D
:092A91008F54DF4FF58FE4FF22A2
:10004600EFD3940140037FFF22EFC4333354C0FF44
:0A005600E58F54BF4FF58FE4FF2241
:10266A00EFD3940140037FFF22EDD3940340037F0D
:10267A00FF22EF7004C2AD8002D2ADED700553B7F0
:10268A00DFC2BDBD010553B7DFD2BDBD020543B7E9
:0E269A0020C2BDBD030543B720D2BD7F002284
:1023D700EDD3940340037FFF22EF30E10543E6206E
:1023E700800353E6DFEF30E00543E610800353E652
:1023F700EFED700653B6DF53B5DFBD010653B6DF09
:1024070043B520BD020643B62053B5DFBD030643DF
:08241700B62043B5207F00222E
:1021A500EFD3940140037FFF22EBD3940340037FD9
:1021B500FF22BF0112ED90FE817006E0547FF08092
:1021C50011E04480F0800BEF700890FE83E05487A7
:1021D5004DF0EB700653B6DF53B5DFBB010653B6C2
:1021E500DF43B520BB020643B62053B5DFBB03066C
:0921F50043B62043B5207F00220F
:1026A800EFD3940140037FFF22EDD3940340037FCF
:1026B800FF22EF7004C2AC8002D2ACED700553B7B4
:1026C800EFC2BCBD010553B7EFD2BCBD020543B78D
:0E26D80010C2BCBD030543B710D2BC7F002268
:10253200EFD3940140037FFF22EDD3940340037F46
:10254200FF22E5AF54FE4FF5AFED700653B6FE53D2
:10255200B5FEBD010653B6FE43B501BD020643B644
:102562000153B5FEBD030643B60143B5017F002208
:10241F00EFD3940140037FFF22EDD3940340037F5A
:10242F00FF22EF33333354F8FFE5AF54F74FF5AFD7
:10243F00ED700653EEFE53DFFEBD010653EEFE4375
:10244F00DF01BD020643EE0153DFFEBD030643EE7F
:07245F000143DF017F0022B1
:10246600EFD3940140037FFF22EDD3940340037F13
:10247600FF22EFC454F0FFE5AF54EF4FF5AFED7018
:102486000653EEFD53DFFDBD010653EEFD43DF02AD
:10249600BD020643EE0253DFFDBD030643EE0243D3
:0524A600DF027F0022AF
:1024AB00EFD3940140037FFF22EDD3940340037FCE
:1024BB00FF22EF25E0FFE5AF54FD4FF5AFED7006C2
:1024CB0053B6FD53B5FDBD010653B6FD43B502BD75
:1024DB00020643B60253B5FDBD030643B60243B530
:0424EB00027F00224A
:1020BE00EFD3948140037FFF22EBD3940340037F41
:1020CE00FF22EF247F603004705890FEC4EDF0EBD9
:1020DE00700653B6FB53B5FBBB010653B6FB43B5B7
:1020EE0004BB020643B60453B5FBEB6403703843DE
:1020FE00B60443B504803090FEE4EDF0EB70065369
:10210E00B6F753B5F7BB010653B6F743B508BB0296
:10211E000643B60853B5F7BB030D43B60843B508DF
:0A212E00800590FEE4EDF07F002232
:1026E600EDD394035026ED700653EEFB53DFFBBD8E
:1026F600010653EEFB43DF04BD020643EE0453DF3F
:10270600FBBD030B43EE0443DF0480037FFF2290EF
:07271600FE62EFF07F0022DC
:10271D0090FA10E054F0F0EDD39403500BE0FEED81
:10272D0025E025E0FDEE4DF0EBD39403500690FA35
:10273D0010E04BF090FA10E0BF01054480F08003EB
:06274D00547FF07F002222
:1027530090FA00E054F0F0EDD39403500BE0FEED5B
:1027630025E025E0FDEE4DF0EBD39403500690FAFF
:1027730000E04BF090FA00E0BF01054480F08003D5
:06278300547FF07F0022EC
:1027890090FA20E054F0F0EDD39403500BE0FEED05
:1027990025E025E0FDEE4DF0EBD39403500690FAC9
:1027A90020E04BF090FA20E0BF01054480F080035F
:0627B900547FF07F0022B6
:1027BF0090FA30E054F0F0EDD39403500BE0FEEDBF
:1027CF0025E025E0FDEE4DF0EBD39403500690FA93
:1027DF0030E04BF090FA30E0BF01054480F0800309
:0627EF00547FF07F002280
:1027F50090FA38E054F0F0EDD39403500BE0FEED81
:1028050025E025E0FDEE4DF0EBD39403500690FA5C
:1028150038E04BF090FA38E0BF01054480F08003C2
:06282500547FF07F002249
:10282B0090FA40E054F0F0EDD39403500BE0FEED42
:10283B0025E025E0FDEE4DF0EBD39403500690FA26
:10284B0040E04BF090FA40E0BF01054480F080037C
:06285B00547FF07F002213
:1028610090FA48E054F0F0EDD39403500BE0FEED04
:1028710025E025E0FDEE4DF0EBD39403500690FAF0
:1028810048E04BF090FA48E0BF01054480F0800336
:06289100547FF07F0022DD
:1028970090FA50E054F0F0EDD39403500BE0FEEDC6
:1028A70025E025E0FDEE4DF0EBD39403500690FABA
:1028B70050E04BF090FA50E0BF01054480F08003F0
:0628C700547FF07F0022A7
:1028CD0090FA58E054F0F0EDD39403500BE0FEED88
:1028DD0025E025E0FDEE4DF0EBD39403500690FA84
:1028ED0058E04BF090FA58E0BF01054480F08003AA
:0628FD00547FF07F002271
:1029030090FA60E054F0F0EDD39403500BE0FEED49
:1029130025E025E0FDEE4DF0EBD39403500690FA4D
:1029230060E04BF090FA60E0BF01054480F0800363
:06293300547FF07F00223A
:1029390090FA68E054F0F0EDD39403500BE0FEED0B
:1029490025E025E0FDEE4DF0EBD39403500690FA17
:1029590068E04BF090FA68E0BF01054480F080031D
:06296900547FF07F002204
:10296F0090FA70E054F0F0EDD39403500BE0FEEDCD
:10297F0025E025E0FDEE4DF0EBD39403500690FAE1
:10298F0070E04BF090FA70E0BF01054480F08003D7
:06299F00547FF07F0022CE
:1029D20090FE50E054CFF0EDD39403500AE0FEEDA8
:1029E200C454F0FDEE4DF090FE50E0BF010544806E
:0929F200F08003547FF07F002205
:08084F008F398B3A8A3B893C8A
:10085700E539640160030209C5F508F509F50AF5EC
:100867000BF50CF53DF53E7440253EF582740135D8
:100877003DF583E4F0053EE53E7002053D648045A5
:100887003D70E4E4F53DF53E7400253EF5827400C5
:10089700353DF583E4F0053EE53E7002053D648095
:1008A700453D70E4AB3AAA3BA93C1205F8FFE59831
:1008B700543F4FF598EF64C06008EF64406003024F
:1008C700097A9000021207B37F807E8D7D5B7C00E2
:1008D7001206EF8F428E418D408C3FE4FFFE7D0173
:1008E700FCAB42AA41A940A83FC312078F40037F30
:1008F700FF22C3E49542F542E49541F54174019521
:1009070040F540E4953FF53FAB3AAA3BA93C900040
:1009170001120611FB6401702CC28E538EFE53899F
:10092700BF5389CF438E40AF42AE41AD40AC3F7815
:10093700081207A08F8D85428BC2AB5389BF538F97
:10094700FDD28E8062EB64027026538EEF438E01D8
:10095700538EF7438E04AF42AE41AD40AC3F7808AB
:100967001207A08FD68542D753AFFB438E1080372F
:100977007FFF22AB3AAA3BA93C1205F8FF70139000
:100987000008120611B40105438E20801A538EDF2A
:100997008015EFB48011900008120611B4010543C9
:1009A7008780800353877FAB3AAA3BA93C90000717
:1009B7001206117004C29C8002D29C7F0022E53986
:1009C70064026003020ABEF50DF50EF50FF510F58A
:1009D70011F53DF53E74E0253EF5827401353DF590
:1009E70083E4F0053EE53E7002053D6480453D70B9
:1009F700E4E4F53DF53E7480253EF5827400353D0F
:100A0700F583E4F0053EE53E7002053D6480453D13
:100A170070E4AB3AAA3BA93C1205F8FF64C0600535
:100A2700EF64407075EFB4C005439A808003539A12
:100A37007F9000021207B37F807E8D7D5B7C001262
:100A470006EF8F428E418D408C3FE4FFFE7D01FC17
:100A5700AB42AA41A940A83FC312078F40037FFFBB
:100A670022C3E49542F542E49541F541740195406E
:100A7700F540E4953FF53F538EEF538EF7438E04D1
:100A8700AF42AE41AD40AC3F78081207A08FD68584
:100A970042D753AFFB438E1080037FFF22AB3AAAA6
:100AA7003BA93C900007120611C454F0FFE59A5485
:100AB700EF4FF59A7F0022E53964036003020BF2DA
:100AC700F512F513F514F515F516F53DF53E7460B9
:100AD700253EF5827402353DF583E4F0053EE53E9B
:100AE7007002053D6440453D70E4E4F53DF53E7414
:100AF70000253EF5827401353DF583E4F0053EE5BA
:100B07003E7002053D6440453D70E4AB3AAA3BA9FF
:100B17003C1205F8FF64C06008EF64406003020BF5
:100B2700D5EFB4C00543AC80800353AC7F9000027F
:100B37001207B37F807E8D7D5B7C001206EF8F42AC
:100B47008E418D408C3FE4FFFE7D01FCAB42AA4104
:100B5700A940A83FC312078F40037FFF22C3E49534
:100B670042F542E49541F54174019540F540E4951D
:100B77003FF53FAB3AAA3BA93C900001120611FB97
:100B8700B4031D43AC40AF42AE41AD40AC3F780823
:100B97001207A08FD48542D553D1F043D10A8031B3
:100BA700EB64027026538EEF53ACBF538EF7438E20
:100BB70004AF42AE41AD40AC3F78081207A08FD6D4
:100BC7008542D753AFFB438E1080067FFF227FFFFE
:100BD70022AB3AAA3BA93C900007120611C454F075
:100BE700FFE5AC54EF4FF5AC7F0022E539640460B4
:100BF70003020D26F517F518F519F51AF51BF53D3E
:100C0700F53E74A0253EF5827402353DF583E4F088
:100C1700053EE53E7002053D6420453D70E4E4F580
:100C27003DF53E74C0253EF5827401353DF583E4FC
:100C3700F0053EE53E7002053D6420453D70E4AB9E
:100C47003AAA3BA93C1205F8FF64C06008EF64406C
:100C57006003020D09EFB4C0054384808003538409
:100C67007F9000021207B37F807E8D7D5B7C001230
:100C770006EF8F428E418D408C3FE4FFFE7D01FCE5
:100C8700AB42AA41A940A83FC312078F40037FFF89
:100C970022C3E49542F542E49541F541740195403C
:100CA700F540E4953FF53FAB3AAA3BA93C900001DC
:100CB700120611FBB4041D438440AF42AE41AD4060
:100CC700AC3F78081207A08FD28542D353D10F4388
:100CD700D1A08031EB64027026538EEF5384BF534B
:100CE7008EF7438E04AF42AE41AD40AC3F78081259
:100CF70007A08FD68542D753AFFB438E1080067F60
:100D0700FF227FFF22AB3AAA3BA93C9000071206BD
:100D170011C454F0FFE58454EF4FF5847F00227F20
:010D2700FFCC
:010D280022A8
:0A2AFB008F99750A01E50A70FC22AC
:10002E001205F8FF600C122AFB740129F9E43AFA62
:03003E0080EE222F
:0A2B05008F9B750F01E50F70FC2295
:102AB2001205F8FF600C122B05740129F9E43AFAA9
:032AC20080EE2281
:0A2B0F008FAD751401E51470FC226F
:102AC5001205F8FF600C122B0F740129F9E43AFA8C
:032AD50080EE226E
:0A2B19008F85751901E51970FC2283
:102AD8001205F8FF600C122B19740129F9E43AFA6F
:032AE80080EE225B
:05001E00AE07022AFB01
:030023000224EFC5
:1024EF00C0E0C083C082C0D075D000C00730982034
:1024FF00C298E50BC394804003750B00AF0B050B1F
:10250F0074002FF582E43400F583E599F0750C051E
:10251F00309905C299750A00D007D0D0D082D083E8
:03252F00D0E032C7
:030043000222FC9A
:1022FC00C0E0C083C082C0D075D000C007E59A3062
:10230C00E021539AFEE510C394804003751000AF92
:10231C0010051074802FF582E43400F583E59BF0F2
:10232C00751105E59A30E106539AFD750F00D0073B
:09233C00D0D0D082D083D0E03271
:03008B0002234508
:10234500C0E0C083C082C0D075D000C007E5AC3006
:10235500E02153ACFEE515C394404003751500AF6D
:1023650015051574002FF582E43401F583E5ADF00C
:10237500751605E5AC30E10653ACFD751400D007C4
:09238500D0D0D082D083D0E03228
:0300930002238EB7
:10238E00C0E0C083C082C0D075D000C007E58430E5
:10239E00E0215384FEE51AC394204003751A00AF62
:1023AE001A051A74C02FF582E43401F583E585F021
:1023BE00751B05E58430E1065384FD751900D007C1
:0923CE00D0D0D082D083D0E032DF
:10119800AD07ED6401707A90FECCE054FEF0E054A7
:1011A800FBF090FEC8E054FCF01205F8FF90FEC872
:1011B800E0548F4FF0900006120611FF90FECC30DD
:1011C800E00DE04401F090FEB1E04401F0800BE056
:1011D80054FEF090FEB1E054FEF0EF90FECC30E10A
:1011E8000DE04404F090FEB1E04402F0800BE054BE
:1011F800FBF090FEB1E054FDF090000312067BE591
:10120800F090FED5F090000312067B90FED60215F2
:1012180052ED6402707A90FECCE054EFF0E054BFD7
:10122800F090FEC9E054FCF01205F8FF90FEC9E00A
:10123800548F4FF0900006120611FF90FECC30E25A
:101248000DE04410F090FEB1E04404F0800BE0544F
:10125800EFF090FEB1E054FBF0EF90FECC30E30DE0
:10126800E04440F090FEB1E04408F0800BE054BF49
:10127800F090FEB1E054F7F090000312067BE5F021
:1012880090FED7F090000312067B90FED80215520C
:10129800ED6403707A90FECDE054FEF0E054FBF06C
:1012A80090FECAE054FCF01205F8FF90FECAE05424
:1012B8008F4FF0900006120611FF90FECD30E40D1E
:1012C800E04401F090FEB1E04410F0800BE054FEE1
:1012D800F090FEB1E054EFF0EF90FECD30E50DE078
:1012E8004404F090FEB1E04420F0800BE054FBF0A1
:1012F80090FEB1E054DFF090000312067BE5F09019
:10130800FED9F090000312067B90FEDA021552ED2A
:101318006404707A90FECDE054EFF0E054BFF09092
:10132800FECBE054FCF01205F8FF90FECBE0548FA2
:101338004FF0900006120611FF90FECD30E60DE04A
:101348004410F090FEB1E04440F0800BE054EFF020
:1013580090FEB1E054BFF0EF90FECD30E70DE044D1
:1013680040F090FEB1E04480F0800BE054BFF09074
:10137800FEB1E0547FF090000312067BE5F090FE8A
:10138800DBF090000312067B90FEDC021552ED6440
:1013980080704F90000512061190FEDEF09000015B
:1013A80012067BE5F090FED2F090000112067B90C9
:1013B800FED3F090000812061190FEDDB40106E09D
:1013C8004480F08004E0547FF090000712061190EA
:1013D800FEC0B40106E04401F08004E054FEF07F52
:1013E8000022ED6405705690FEECE054FEF090FE8D
:1013F800E8E054FCF01205F8FF90FEE8E0548F4F47
:10140800F090000612061190FEEC30E00DE0440169
:10141800F090FEB5E04401F0800BE054FEF090FE41
:10142800B5E054FEF090000312067BE5F090FEF55F
:10143800F090000312067B90FEF6021552ED64064A
:10144800705690FEECE054EFF090FEE9E054FCF0AA
:101458001205F8FF90FEE9E0548F4FF09000061255
:10146800061190FEEC30E20DE04410F090FEB5E07D
:101478004404F0800BE054EFF090FEB5E054FBF02C
:1014880090000312067BE5F090FEF7F0900003123F
:10149800067B90FEF8021552ED6407705590FEED3C
:1014A800E054FEF090FEEAE054FCF01205F8FF90DC
:1014B800FEEAE0548F4FF090000612061190FEED00
:1014C80030E40DE04401F090FEB5E04410F0800BEC
:1014D800E054FEF090FEB5E054EFF09000031206E1
:1014E8007BE5F090FEF9F090000312067B90FEFA7F
:1014F8008058ED6408705790FEEDE054EFF090FED0
:10150800EBE054FCF01205F8FF90FEEBE0548F4F2F
:10151800F090000612061190FEED30E60DE0441042
:10152800F090FEB5E04440F0800BE054EFF090FE00
:10153800B5E054BFF090000312067BE5F090FEFB87
:10154800F090000312067B90FEFCF07F0022ED6411
:1015580081704C90000512061190FEFEF09000017B
:1015680012067BFDACF0EC90FEF2F0AF05A3EFF0B5
:1015780090000812061190FEFDB40106E04480F0C8
:101588008004E0547FF090000712061190FEE0B44A
:101598000106E04401F08004E054FEF07F00227F61
:0215A800FF2220
:101EE500EF24807003021FA0147003021FE52480F5
:101EF500B408004003022031901F0B75F003A4C500
:101F05008325F0C58373021F23021F30021F400281
:101F15001F50021F60021F70021F80021F901206D1
:101F250050FDACF0EC90FED502202B90000212067D
:101F35007BFDACF0EC90FED702202B90000412063E
:101F45007BFDACF0EC90FED902202B90000612062A
:101F55007BFDACF0EC90FEDB02202B900008120616
:101F65007BFDACF0EC90FEF502202B90000A1206EA
:101F75007BFDACF0EC90FEF702202B90000C1206D6
:101F85007BFDACF0EC90FEF902202B90000E1206C2
:101F95007BFDACF0EC90FEFB02202B120650FDAC55
:101FA500F0EC90FED5F0AF05A3EFF090000212061D
:101FB5007BFDACF0EC90FED7F0AF05A3EFF0900001
:101FC5000412067BFDACF0EC90FED9F0AF05A3EF53
:101FD500F090000612067BFDACF0EC90FEDB80462F
:101FE50090000812067BFDACF0EC90FEF5F0AF0515
:101FF500A3EFF090000A12067BFDACF0EC90FEF723
:10200500F0AF05A3EFF090000C12067BFDACF0ECF1
:1020150090FEF9F0AF05A3EFF090000E12067BFDE0
:0D202500ACF0EC90FEFBF0AF05A3EFF02255
:1015AA00AD07ED7079C28C1205F8FED3940340039F
:1015BA007FFF22E58954FC4EF5899000011206113D
:1015CA00FED3940240037FFF22EE7006538E7F53B0
:1015DA0089FB900001120611B40106438E805389DB
:1015EA00FB900001120611B4020343890490000221
:1015FA00120611FFE58F54FE4FF58F900003120675
:10160A007BE5F0F58C90000312067BF58A900006C4
:10161A001206117004C28C8002D28C7F0022ED6403
:10162A000160030216B0C28E1205F8FED39403407D
:10163A00037FFF22EEC454F0FFE58954CF4FF589AA
:10164A00900001120611FED3940240037FFF22EE9E
:10165A007006538EBF5389BF900001120611B40160
:10166A0006438E405389BF900001120611B402034B
:10167A0043894090000212061125E0FFE58F54FDD0
:10168A004FF58F90000312067BE5F0F58D9000036D
:10169A0012067BF58B9000061206117004C28E802A
:1016AA0002D28E7F0022ED64027065538EEF9000A5
:1016BA0001120611FF7006538EFB538EF7EFB40129
:1016CA0006438E04538EF7EFB40203438E0890004C
:1016DA000212061125E025E0FFE58F54FB4FF58F36
:1016EA0090000312067BE5F0F5D690000312067B04
:1016FA00F5D790000512061190FEA2F0900006128E
:10170A000611C454F0FFE58E54EF4FF58E7F002288
:10171A00ED6403707253D1F7900001120611FED3E3
:10172A00940240037FFF22EE700653D1FD53D1FB92
:10173A00900001120611B4010643D10253D1FB9065
:10174A000001120611B4020343D1049000021206EA
:10175A0011FFE5D154FE4FF5D190000312067BE547
:10176A00F0F5D490000312067BF5D5900005120619
:10177A001190FEA3F090000612061133333354F889
:10178A00FFE5D154F78077ED6404707853D17F90E8
:10179A000001120611FED3940240037FFF22EE706D
:1017AA000653D1DF53D1BF900001120611B40106CE
:1017BA0043D12053D1BF900001120611B402034352
:1017CA00D140900002120611C454F0FFE5D154EF43
:1017DA004FF5D190000312067BFDACF0ECF5D2AFC9
:1017EA00058FD390000512061190FEA4F090000612
:1017FA00120611C43333335480FFE5D1547F4FF5B9
:07180A00D17F00227FFF22C5
:03001B00020008D8
:03000800B2EE3223
:0300630002006038
:03006000B2ED32CC
:03009B0002008ED2
:03008E00B2EC329F
:0300A300020096C2
:03009600B2EB3298
:1000A600020441E86480F8E933E83360110460F043
:1000B600ED33EC337009E8FCE9FDEAFEEBFF2204C0
:1000C60060DED3EB9FEA9EE99DE8C2E78CF0C2F7BB
:1000D60095F0400CE8CCF8E9CDF9EACEFAEBCFFB87
:1000E60012040C85D0F05804700320D5B3E80470D0
:1000F600075002B2D502044B92D5EC0460F7E4CC6B
:10010600C0E0C398F8603B94186008400DD0E0FB4F
:10011600020423E4FBFAC9FC8028E830E406E4C9BB
:10012600FBE4CAFCE830E305E4C9CACBFCE85407A3
:100136006010F8C3E913F9EA13FAEB13FBEC13FCAE
:10014600D8F130F52FC3E49CFCEF9BFFEE9AFEED51
:1001560099FDD0E0FBEF4E4D4C701222DB030204FA
:1001660048EC2CFCEF33FFEE33FEED33FDED30E7CC
:10017600EB020423EF2BFFEE3AFEED39FDD0E0FB58
:1001860050130BBB000302044BED13FDEE13FEEF01
:0801960013FFEC13FC0204232B
:10019E00EC4D6011E8497017ED33EC3304600DE45B
:1001AE00FCFFFEFD22E933E8330470F8020441122D
:1001BE00040C58046009E4CC24815006285009022E
:1001CE00044B284003020448C0E0EB4A7044B98057
:1001DE0006D0E0FB020437EF4E701CBD8008EBFF2B
:1001EE00EAFEE9FD80EBE98DF0A4FEE5F002028760
:1001FE00E9CDF9EAFEEBFFEF89F0A4FCE5F0CE893C
:10020E00F0A42EFFE435F0CD89F0A42DFEE435F0F8
:10021E008067EF4E7005BD80D780C3EF8BF0A4AC26
:10022E00F0EE8BF0A42CFCE435F0F8EF8AF0A42C61
:10023E00E5F038FCE433CB8DF0A42CFCE5F03BF874
:10024E00EE8AF0A42CFCE5F038F8E433CF89F0A464
:10025E002CFCE5F038CF3400CE89F0A42FFFE5F06A
:10026E003EFEE433C98DF0A42EFEE5F039CD8AF0C2
:10027E00A42FFFE5F03EFEE43DFD33D0E0FB50073A
:10028E000BBB000F02044BEC2CFCEF33FFEE33FEE6
:06029E00ED33FD02042314
:1002A40002044BEC5D046005E85904700302044148
:1002B40012040C580460F6EC4860F2EC7004FDFE85
:1002C400FF22C860DB2481C85009C398600250062D
:1002D4000204489850CAF582E9294B4A7005AB825A
:1002E40002043775F0007C1A7880C3EF9BEE9AED18
:1002F40099400DC3EF9BFFEE9AFEED99FDE842F0A5
:10030400DC23ACF0D0E0FFD0E0FED0E0FDAB8220F7
:10031400E7101BEB60BAEC2CFCEF33FFEE33FEED81
:1003240033FD020423E803F830E705C0F075F0005C
:10033400EF2FFFEE33FEED33FD40B830E7C280AA65
:1003440074F8CC6480CCC86480C8F58204604FC360
:10035400EB9FF5F0EA9E42F0E99D42F0E89C45F0FF
:10036400603C501DE5825FFFE582D313CB5BCBF489
:100374002B5582FB50280ABA002409B900200880B2
:100384001DE5825BFBE582D313CF5FCFF4C3132F4C
:100394005582FF50090EBE00050DBD00010CC3EBD4
:1003A4009FF5F0EA9E42F0E99D42F0E89C45F0603A
:0903B40007CC4820E701B3EC225C
:1003BD00ED33EC33600A047003BD8004ECB2E7FC4E
:0103CD00220D
:1003CE0075F020800E75F010800575F0087D007EAA
:1003DE00007F003392D530D503120781EC334010E5
:1003EE00EF33FFEE33FEED33FDEC33FCD5F0ED22B3
:0E03FE00E5F0247EA2D513CC92E7CDCEFF22EF
:100D2900E5472433F8E6054722783030070278335F
:100D3900E475F0011207E30205F82000EB7F2ED2DB
:100D4900008018EF540F2490D43440D4FF30040BA2
:100D5900EF24BFB41A0050032461FFE5486002156F
:100D690048054BE54B7002054A30070D7830E475AC
:100D7900F0011207E3EF02063E02001E7403D207D8
:100D89008003E4C207F5478B308A318932E4F5489C
:100D9900F54AF54BE54860077F20120D6480F5752B
:100DA90049FFC201C200C202C203C205C206C2088B
:100DB900120D32FF700D3007057F00120D75AF4B14
:100DC900AE4A22B4255FC2D5C204120D32FF24D027
:100DD900B40A00501A75F00A784830D50508B6FFEC
:100DE9000106C6A426F620D5047002D20380D924B0
:100DF900CFB41A00EF5004C2E5D204021062D20146
:100E090080C6D20080C0D20280BCD2D580BAD205B9
:100E190080B47F20120D642002077401B548004098
:100E2900F1120D29FF120D64020D9DD208D2068020
:100E390095120D29FB120D29FA120D29F94A4B7049
:100E49000679597A117BFF20022EE548602A7E0037
:100E59008E8275830012061160060EEE654970F0E8
:100E6900C2D5EBC0E0EAC0E0E9C0E0EE1210C2D0A2
:100E7900E0F9D0E0FAD0E0FB1205F8FF60AAEBC078
:100E8900E0EAC0E0E9C0E0120D64D0E02401F9D045
:100E9900E03400FAD0E0FBE5490460DCD549D980AB
:100EA90087D20280A21210A560F7E54970010412E9
:100EB9000456A949600DE549600914F54912114C18
:100EC900EF60F3EA30E702F404C3995077EAF425B6
:100ED900490430E701E404F549800D1210A560C109
:100EE900EA05492549120456EA7846F630E701E44D
:100EF900254904D54904200501141210C2E4C0E0B3
:100F090012114C7846E6601320E70714F6120D4CCF
:100F1900802204F6D0E014C0E07F00120D4CE549B0
:100F29006007120D431549800B300503120D43D09C
:100F3900E0020D9DD0E00480C51210A560A0E5492E
:100F4900041204567846EAF6E549200502600104D0
:050F590024041210C287
:100F5E0074FF04C0E012114C120D4CE5492005023D
:100F6E006003120D43D0E0B549E87F45120D567867
:100F7E0046E67F2B30E7047F2DF404C0E0120D64AB
:100F8E00D0E075F00A84C0F0120D4DD0E0120D4D78
:100F9E00020D9D791080027908C206C2088008D21F
:100FAE00D5790A8004790AC2D5E549047002F5495B
:100FBE00E4FAFDFEFF120D29FC7B08200113120D31
:100FCE0029FD7B1030000A120D29FE120D29FF7B20
:100FDE0020EC3382D592D55013C3E43000069FFF28
:100FEE00E49EFEE42001039DFDE49CFCE4CBF8C2EC
:100FFE0001EC700CCFCECDCCE824F8F870F380174E
:10100E00C3EF33FFEE33FEED33FDEC33FCEB33FB7E
:10101E00994002FB0FD8E9EB300105F8D0E0C44847
:10102E00B201C0E00AEC4D4E4F78207B0070C2EA50
:10103E00B5490040BCC0E01210C4D0F0D0E0200191
:10104E0004C4C0E0C4B201C0F0120D4DD0F0D5F012
:10105E00EB020D9D1207F30E3A530FA1580E0B4CD7
:10106E000E07420FA54F0FAD440FAD490E20430F93
:10107E00B3550EE4460F42450EAE471179500E0F92
:10108E002D0E132E0E362B0E17230E342011622A20
:10109E000DCF4800000E2EE549B4FF037549061228
:1010AE000D29FC120D29FD120D29FE120D29FF78B6
:1010BE003F020485790AA2D5200314300509B91020
:1010CE00020404B9080104A2D5200602500104202E
:1010DE0002689202B548005034C0E07F20300319F8
:1010EE007F30A20272067205500F12111BC202C28D
:1010FE0006C205C2087F30800F300503E9C0E0123A
:10110E000D64300503D0E0F9D0E0B548CC300517BA
:10111E007F30B9100C120D647F583004077F788031
:10112E0003B90803120D643002057F2D020D647F92
:10113E00202008F87F2B2006F322920280CF7F001A
:10114E00B407005005243FF8E6FF22286E756C6C3C
:10115E002900D201120D293001F8C201784830D58C
:10116E000108F6020DCF2D50434958120D292403C4
:10117E00B405004001E490117493120D55743A12A7
:0A118E000D55D203754804020FA1AD
:10040C00E9D2E7C933E833F892D5EDD2E7CD33EC36
:07041C0033FC5002B2D522AF
:10042300EC30E7100FBF000C0EBE00080DBD00043A
:100433000BEB6014A2D5EB13FCED92E7FD2274FFE6
:10044300FCFDFEFF22E480F8A2D574FF13FC7D803F
:03045300E480EF53
:10045600F920E72824F950037907E4F42402FB186D
:10046600DBFDE624FB5014E9600DE4F618E604F61D
:0F047600B40A08E4F6D9F57401F60A22C2D522B9
:10048500ED33EC3392D5FA602AB4FF33EDC2E77B46
:10049500FF60067A0479AAE4227A0479B320D504A8
:1004A5007A0479AE224E614E002B494E46002D4905
:1004B5004E4600E47A08F608DAFC7B00740722E869
:1004C500C0E0ECC0E0EDC0E0EEC0E0EFC0E0EA75F2
:1004D500F010A4CAABF075F04DA42BFBE435F0FC8D
:1004E500EA2410FAEB34C5FBEC34D9FCEDC2E7FF86
:1004F50075F056A4F42411C5F0F434C58FF0A42A80
:10050500E5F03BE43CF620E7141205B8D0E0FFD057
:10051500E0FED0E0FDD0E0FC1202A78014F4041246
:1005250005B8D0E0FFD0E0FED0E0FDD0E0FC120140
:100535009ED0E0F8E6FAEDD2E7CD33EC332482FB2A
:10054500E4C3CF33CFCE33CECD33CD33DBF37B070F
:1005550075F00A846004F6081B0AE5F0F6088FF0CA
:10056500740AA4FFACF08EF0740AA42CFEACF05013
:10057500010C8DF0740AA42CFDE435F0F608DBDEE1
:03058500740722D6
:100588003F8000004120000042C80000447A00007B
:10059800461C400047C35000497424004B189680FD
:1005A8004CBEBC205A0E1BCA6753C21C749DC5AEF4
:1005B800FB60065407601C23231205E6EB543860E1
:1005C800091205D21205E112019EECF8EDF9EEFAD6
:1005D800EFCB22EB1205E180F1543803241C90057F
:1005E80088FE93FC0EEE93FD0EEE930ECE93FF2243
:03000000022032A9
:0C203200787FE4F6D8FD75814B02207920
:1005F800BB010689828A83E0225002E722BBFE0201
:09060800E32289828A83E4932233
:10061100BB010CE58229F582E5833AF583E022509E
:1006210006E92582F8E622BBFE06E92582F8E222E8
:0D063100E58229F582E5833AF583E4932202
:10063E00BB010689828A83F0225002F722BBFE019B
:02064E00F32295
:10065000BB010A89828A83E0F5F0A3E02250068775
:10066000F009E71922BBFE07E3F5F009E319228937
:0B067000828A83E493F5F0740193226A
:10067B00BB0110E58229F582E5833AF583E0F5F0BD
:10068B00A3E0225009E92582F886F008E622BBFE9A
:10069B000AE92582F8E2F5F008E222E5832AF583E0
:0806AB00E993F5F0A3E99322A5
:1006B30075F008758200EF2FFFEE33FECD33CDCCFE
:1006C30033CCC58233C5829BED9AEC99E582984081
:1006D3000CF582EE9BFEED9AFDEC99FC0FD5F0D65E
:1006E300E4CEFBE4CDFAE4CCF9A88222B800C1B988
:1006F3000059BA002DEC8BF084CFCECDFCE5F0CBC6
:10070300F97818EF2FFFEE33FEED33FDEC33FCEBFE
:1007130033FB10D703994004EB99FB0FD8E5E4F9B9
:10072300FA227818EF2FFFEE33FEED33FDEC33FCA6
:10073300C933C910D7059BE99A4007EC9BFCE99A9A
:10074300F90FD8E0E4C9FAE4CCFB2275F010EF2FDF
:10075300FFEE33FEED33FDCC33CCC833C810D707DF
:100763009BEC9AE899400AED9BFDEC9AFCE899F81A
:0E0773000FD5F0DAE4CDFBE4CCFAE4C8F922AD
:0E078100C3E49FFFE49EFEE49DFDE49CFC2289
:10078F00EB9FF5F0EA9E42F0E99D42F0E89C45F0C0
:01079F002237
:1007A000E8600FECC313FCED13FDEE13FEEF13FF37
:0307B000D8F1225B
:1007B300BB010DE58229F582E5833AF5830208261C
:1007C3005007E92582F8020819BBFE07E92582F8DC
:1007D300020832E58229F582E5833AF58302083F70
:1007E300FAE6FB0808E6F925F0F618E6CA3AF62217
:1007F300D083D082F8E4937012740193700DA3A395
:1008030093F8740193F5828883E4737402936860A8
:06081300EFA3A3A380DFA8
:10203E00021D88E493A3F8E493A34003F68001F213
:10204E0008DFF48029E493A3F85407240CC8C333A3
:10205E00C4540F4420C8834004F456800146F6DF72
:10206E00E4800B0102040810204080900003E47EFF
:10207E00019360BCA3FF543F30E509541FFEE49367
:10208E00A360010ECF54C025E060A840B8E493A32E
:10209E00FAE493A3F8E493A3C8C582C8CAC583CA59
:1020AE00F0A3C8C582C8CAC583CADFE9DEE780BE11
:0100070000F8
:0D081900E6FB08E6F908E6FA08E6CBF8224F
:0C082600E0F8A3E0F9A3E0FAA3E0FB2255
:0D083200E2FB08E2F908E2FA08E2CBF82246
:10083F00E493F8740193F9740293FA740393FB220F
:00000001FF
