:10243C00416C61726D21212100253034642D2530D1
:10244C0032642D253032640A00253032643A25304E
:10245C0032643A253032640A007765656B2D3E256F
:03246C00640A00FF
:10261200754803E4F547FB7A0079477F031213BA42
:10262200754880E4F547FB7A0079477F030213BAC5
:10250300754740754801754C00754BC2754A017596
:102513004900754E01E4F54FFB7A0079477F0112BC
:0C25230000C67D017F011220C753A23FBB
:01252F002289
:10002E007547017B007A0079477F0312246FE4FD48
:05003E007F010200A695
:102530007BFF7A24793C120E59752301E4F524754A
:10254000251C75260478477C00FDFB7A007923FE64
:0D2550007F04120670121A6F7F010224D260
:1019060043BA8012261212250312276F12002ED216
:10191600AF753B07753CEA753D08753F1B753E0381
:1019260075401775413B75423778477C007D007BD3
:10193600007A00793B7E007F08120670121831E4A7
:10194600F543F54475451C75460478477C00FDFB58
:101956007A007943FE7F04120670121A6F7F011215
:1019660024D27B007A00793B12175B7BFF7A2479BD
:1019760045853B4A853C4B754C00853D4D754E0073
:10198600853F4F120E597BFF7A247955754A00859B
:10199600404B754C0085414D754E0085424F120EE9
:1019A600597BFF7A247965754A00853E4B120E599C
:1019B6007FFA1226B97FFA1226B97FFA1226B97F64
:0619C600FA1226B9809C14
:101CC6009000011206D1FFE5DE54F04FF5DE9000DC
:101CD600021206D1C43354E0FFE5DE54DF4FF5DED1
:101CE6001206B8FFD3941F502B9000031206D1FEA4
:101CF600D39401501F9000041206D1FDD3940350D3
:101D060013EDC43354E0FDEEC433333354804D4FEA
:051D160090FEA8F02280
:0B272A00BF010443BC802253BC7F228F
:101C0000EFD3940F40028060E4F5BDF5BEE5BC540F
:101C1000F044404FF5BC0000000000000000000050
:101C2000E4FDE5BC30E53D53BCDFE5DEAFBD30E5AE
:101C30000EEFFEACBEECFBEEF55CEBF55D802075C7
:101C40005C008F5DE5BEC4540FFBE55DC4F8540F26
:101C5000C868FFE55CC454F048F55CEF4BF55DAE39
:0C1C60005CAF5D220DBDFABA7E107F0063
:011C6C002255
:03002B0002000EC2
:04000E0053BCDF32CE
:0F26B9007D607C09ED1D70011C144C70F7DFF182
:0126C80022EF
:1013BA00EFD3940740037FFF221206B8FED39403AB
:1013CA0040037FFF22EF7041EE700B90000112067E
:1013DA00D1F4529352941206B8B4010B9000011240
:1013EA0006D14293F452941206B8FEB4020A90004F
:1013FA00011206D142934294EEB4030D90000112F9
:10140A0006D1FEF45293EE4294EF64017043120641
:10141A00B8FE700B9000011206D1F452915292EE6E
:10142A00B4010B9000011206D14291F452921206B5
:10143A00B8B4020A9000011206D1429142921206F1
:10144A00B8B4030D9000011206D1FEF45291EE4297
:10145A0092EF640270431206B8FE700B90000112FC
:10146A0006D1F452955296EEB4010B900001120681
:10147A00D14295F452961206B8B4020A90000112AB
:10148A0006D1429542961206B8B4030D9000011295
:10149A0006D1FEF45295EE4296EF640370431206AB
:1014AA00B8FE700B9000011206D1F452B152B2EE9E
:1014BA00B4010B9000011206D142B1F452B21206E5
:1014CA00B8B4020A9000011206D142B142B2120621
:1014DA00B8B4030D9000011206D1FEF452B1EE42E7
:1014EA00B2EF640470431206B8FE700B900001124A
:1014FA0006D1F452B352B4EEB4010B9000011206B5
:10150A00D142B3F452B41206B8B4020A90000112DE
:10151A0006D142B342B41206B8B4030D90000112C8
:10152A0006D1FEF452B3EE42B4EF640570431206DC
:10153A00B8FE700B9000011206D1F452C952CAEEDD
:10154A00B4010B9000011206D142C9F452CA120624
:10155A00B8B4020A9000011206D142C942CA120660
:10156A00B8B4030D9000011206D1FEF452C9EE423E
:10157A00CAEF640670431206B8FE700B900001129F
:10158A0006D1F452CB52CCEEB4010B9000011206F4
:10159A00D142CBF452CC1206B8B4020A900001121E
:1015AA0006D142CB42CC1206B8B4030D9000011208
:1015BA0006D1FEF452CBEE42CCEF6407704312061A
:1015CA00B8FF700B9000011206D1F452E152E2EF1B
:1015DA00B4010B9000011206D142E1F452E2120664
:1015EA00B8B4020A9000011206D142E142E21206A0
:1015FA00B8B4030D9000011206D1FFF452E1EF4294
:04160A00E27F002259
:101B0A009000021206D16401702A90FE80E04440DF
:101B1A00F090FE82E4F01206B8543FFF90FE80E097
:101B2A0054C04FF09000031206D190FE88B401020F
:101B3A008031802990FE80E054BFF090FE84E4F06A
:101B4A009000041206D125E0FF90FE85E054014F73
:101B5A00F09000051206D190FE85B40106E054FE0D
:101B6A00F08004E04401F09000011206D190FE805A
:0C1B7A007005E0547FF022E04480F0226F
:0827780090FE82E05480FF2274
:0C27120090FE82E030E6F9E054BFF022B7
:09275D0090FE817401F0022712C4
:0E26F60090FE86EFF090FE817402F002271233
:0626C90012275D1226F647
:0926CF0090FE817403F002271251
:0F26D80090FE817404F012271290FE87E0FF221B
:0E27040090FE82E4F090FE817405F002271230
:0F26E70090FE827401F090FE817405F0022712BC
:0927660090FE817406F0022712B6
:0D00460090FE86EDF090FE81EFF002271293
:1024A1008B588A59895AAE051226C9AF061226F6EB
:1024B1001226CFAB58055AE55AAA5970020559148C
:1024C100F91206B8FF1226F61226CFD55BE50227D0
:0124D10066A4
:10214300AE071226C9AF051226F61226CF12275D57
:10215300EE4401FF1226F61226CF1226D8EF1206FE
:10216300FE740129F9E43AFAE55664016003122783
:0A21730004D556E61226E70227669F
:0300C3000219CC53
:1019CC00C0E0C083C082C0D075D000C006C00790F4
:1019DC00FE84E030E606E054BFF0807A90FE84E0AE
:1019EC0030E535E054DFF0E51D6005751D008066BF
:1019FC00E51C600D751C0090FE87E0F51E24C08070
:101A0C003490FE87E0FFAE1E051E74C02EF582E4F6
:101A1C003402F583EFF0803E90FE84E030E424E065
:101A2C0054EFF0E030E10890FE8674FFF08027055B
:101A3C001E74C0251EF582E43402F583E090FE8608
:101A4C00F0801390FE84E030E30CE054F7F0751D49
:101A5C0001751C01D212D007D006D0D0D082D08311
:031A6C00D0E03295
:101F9100EFD3940140037FFF22EDD3940340037FED
:101FA100FF22EF7004C2A98002D2A9ED700553B7D8
:101FB100FDC2B9BD010553B7FDD2B9BD020543B795
:0E1FC10002C2B9BD030543B702D2B97F0022A8
:101FCF00EFD3940140037FFF22EDD3940340037FAF
:101FDF00FF22EF7004C2AB8002D2ABED700553B796
:101FEF00F7C2BBBD010553B7F7D2BBBD020543B75F
:0E1FFF0008C2BBBD030543B708D2BB7F00225A
:1025CE00EFD3940140037FFF22EDD3940340037FAA
:1025DE00FF22EF25E025E0FFE5AF54FB4FF5AFE41A
:0225EE00FF22CA
:1025F000EFD3940140037FFF22EDD3940340037F88
:10260000FF22EFC43354E0FFE5AF54DF4FF5AFE4F2
:02261000FF22A7
:1025AB00EFD3940140037FFF22EDD3940340037FCD
:1025BB00FF22EFC4333354C0FFE5AF54BF4FF5AF29
:0325CB00E4FF2208
:10200D00EFD3940140037FFF22EDD3940340037F70
:10201D00FF22EF7004C2A88002D2A8ED700553B75D
:10202D00FEC2B8BD010553B7FED2B8BD020543B718
:0E203D0001C2B8BD030543B701D2B87F00222F
:10204B00EFD3940140037FFF22EDD3940340037F32
:10205B00FF22EF7004C2AA8002D2AAED700553B71B
:10206B00FBC2BABD010553B7FBD2BABD020543B7DC
:0E207B0004C2BABD030543B704D2BA7F0022E7
:10263200EFD3940140037FFF22EFC454F0FFE58FF4
:0826420054EF4FF58FE4FF2275
:1000A600EFD3940140037FFF22EFC43354E0FFE512
:0900B6008F54DF4FF58FE4FF22A7
:10006600EFD3940140037FFF22EFC4333354C0FF24
:0A007600E58F54BF4FF58FE4FF2221
:10208900EFD3940140037FFF22EDD3940340037FF4
:10209900FF22EF7004C2AD8002D2ADED700553B7D7
:1020A900DFC2BDBD010553B7DFD2BDBD020543B7D0
:0E20B90020C2BDBD030543B720D2BD7F00226B
:101DF600EDD3940340037FFF22EF30E10543E62055
:101E0600800353E6DFEF30E00543E610800353E638
:101E1600EFED700653B6DF53B5DFBD010653B6DFEF
:101E260043B520BD020643B62053B5DFBD030643C6
:081E3600B62043B5207F002215
:101C6D00EFD3940140037FFF22EBD3940340037F16
:101C7D00FF22BF0112ED90FE817006E0547FF080CF
:101C8D0011E04480F0800BEF700890FE83E05487E4
:101C9D004DF0EB700653B6DF53B5DFBB010653B6FF
:101CAD00DF43B520BB020643B62053B5DFBB0306A9
:091CBD0043B62043B5207F00224C
:1020C700EFD3940140037FFF22EDD3940340037FB6
:1020D700FF22EF7004C2AC8002D2ACED700553B79B
:1020E700EFC2BCBD010553B7EFD2BCBD020543B774
:0E20F70010C2BCBD030543B710D2BC7F00224F
:101F5100EFD3940140037FFF22EDD3940340037F2D
:101F6100FF22E5AF54FE4FF5AFED700653B6FE53B9
:101F7100B5FEBD010653B6FE43B501BD020643B62B
:101F81000153B5FEBD030643B60143B5017F0022EF
:101E3E00EFD3940140037FFF22EDD3940340037F41
:101E4E00FF22EF33333354F8FFE5AF54F74FF5AFBE
:101E5E00ED700653EEFE53DFFEBD010653EEFE435C
:101E6E00DF01BD020643EE0153DFFEBD030643EE66
:071E7E000143DF017F002298
:101E8500EFD3940140037FFF22EDD3940340037FFA
:101E9500FF22EFC454F0FFE5AF54EF4FF5AFED70FF
:101EA5000653EEFD53DFFDBD010653EEFD43DF0294
:101EB500BD020643EE0253DFFDBD030643EE0243BA
:051EC500DF027F002296
:101ECA00EFD3940140037FFF22EDD3940340037FB5
:101EDA00FF22EF25E0FFE5AF54FD4FF5AFED7006A9
:101EEA0053B6FD53B5FDBD010653B6FD43B502BD5C
:101EFA00020643B60253B5FDBD030643B60243B517
:041F0A00027F002230
:101B8600EFD3948140037FFF22EBD3940340037F7E
:101B9600FF22EF247F603004705890FEC4EDF0EB16
:101BA600700653B6FB53B5FBBB010653B6FB43B5F4
:101BB60004BB020643B60453B5FBEB64037038431B
:101BC600B60443B504803090FEE4EDF0EB700653A6
:101BD600B6F753B5F7BB010653B6F743B508BB02D4
:101BE6000643B60853B5F7BB030D43B60843B5081D
:0A1BF600800590FEE4EDF07F002270
:10217D00EDD394035026ED700653EEFB53DFFBBDFC
:10218D00010653EEFB43DF04BD020643EE0453DFAD
:10219D00FBBD030B43EE0443DF0480037FFF22905E
:0721AD00FE62EFF07F00224B
:1021B40090FA10E054F0F0EDD39403500BE0FEEDF0
:1021C40025E025E0FDEE4DF0EBD39403500690FAA4
:1021D40010E04BF090FA10E0BF01054480F080035A
:0621E400547FF07F002291
:1021EA0090FA00E054F0F0EDD39403500BE0FEEDCA
:1021FA0025E025E0FDEE4DF0EBD39403500690FA6E
:10220A0000E04BF090FA00E0BF01054480F0800343
:06221A00547FF07F00225A
:1022200090FA20E054F0F0EDD39403500BE0FEED73
:1022300025E025E0FDEE4DF0EBD39403500690FA37
:1022400020E04BF090FA20E0BF01054480F08003CD
:06225000547FF07F002224
:1022560090FA30E054F0F0EDD39403500BE0FEED2D
:1022660025E025E0FDEE4DF0EBD39403500690FA01
:1022760030E04BF090FA30E0BF01054480F0800377
:06228600547FF07F0022EE
:10228C0090FA38E054F0F0EDD39403500BE0FEEDEF
:10229C0025E025E0FDEE4DF0EBD39403500690FACB
:1022AC0038E04BF090FA38E0BF01054480F0800331
:0622BC00547FF07F0022B8
:1022C20090FA40E054F0F0EDD39403500BE0FEEDB1
:1022D20025E025E0FDEE4DF0EBD39403500690FA95
:1022E20040E04BF090FA40E0BF01054480F08003EB
:0622F200547FF07F002282
:1022F80090FA48E054F0F0EDD39403500BE0FEED73
:1023080025E025E0FDEE4DF0EBD39403500690FA5E
:1023180048E04BF090FA48E0BF01054480F08003A4
:06232800547FF07F00224B
:10232E0090FA50E054F0F0EDD39403500BE0FEED34
:10233E0025E025E0FDEE4DF0EBD39403500690FA28
:10234E0050E04BF090FA50E0BF01054480F080035E
:06235E00547FF07F002215
:1023640090FA58E054F0F0EDD39403500BE0FEEDF6
:1023740025E025E0FDEE4DF0EBD39403500690FAF2
:1023840058E04BF090FA58E0BF01054480F0800318
:06239400547FF07F0022DF
:10239A0090FA60E054F0F0EDD39403500BE0FEEDB8
:1023AA0025E025E0FDEE4DF0EBD39403500690FABC
:1023BA0060E04BF090FA60E0BF01054480F08003D2
:0623CA00547FF07F0022A9
:1023D00090FA68E054F0F0EDD39403500BE0FEED7A
:1023E00025E025E0FDEE4DF0EBD39403500690FA86
:1023F00068E04BF090FA68E0BF01054480F080038C
:06240000547FF07F002272
:1024060090FA70E054F0F0EDD39403500BE0FEED3B
:1024160025E025E0FDEE4DF0EBD39403500690FA4F
:1024260070E04BF090FA70E0BF01054480F0800345
:06243600547FF07F00223C
:10255D0090FE50E054CFF0EDD39403500AE0FEED21
:10256D00C454F0FDEE4DF090FE50E0BF01054480E7
:09257D00F08003547FF07F00227E
:1009E500AD07ED6401707A90FECCE054FEF0E05462
:1009F500FBF090FEC8E054FCF01206B8FF90FEC86C
:100A0500E0548F4FF09000061206D1FF90FECC30D7
:100A1500E00DE04401F090FEB1E04401F0800BE010
:100A250054FEF090FEB1E054FEF0EF90FECC30E1C4
:100A35000DE04404F090FEB1E04402F0800BE05478
:100A4500FBF090FEB1E054FDF09000031207B2E513
:100A5500F090FED5F09000031207B290FED6020D7D
:100A65009FED6402707A90FECCE054EFF0E054BF45
:100A7500F090FEC9E054FCF01206B8FF90FEC9E004
:100A8500548F4FF09000061206D1FF90FECC30E255
:100A95000DE04410F090FEB1E04404F0800BE0540A
:100AA500EFF090FEB1E054FBF0EF90FECC30E30D9B
:100AB500E04440F090FEB1E04408F0800BE054BF04
:100AC500F090FEB1E054F7F09000031207B2E5F0A4
:100AD50090FED7F09000031207B290FED8020D9F4A
:100AE500ED6403707A90FECDE054FEF0E054FBF027
:100AF50090FECAE054FCF01206B8FF90FECAE0541E
:100B05008F4FF09000061206D1FF90FECD30E40D18
:100B1500E04401F090FEB1E04410F0800BE054FE9B
:100B2500F090FEB1E054EFF0EF90FECD30E50DE032
:100B35004404F090FEB1E04420F0800BE054FBF05B
:100B450090FEB1E054DFF09000031207B2E5F0909B
:100B5500FED9F09000031207B290FEDA020D9FED68
:100B65006404707A90FECDE054EFF0E054BFF0904D
:100B7500FECBE054FCF01206B8FF90FECBE0548F9C
:100B85004FF09000061206D1FF90FECD30E60DE045
:100B95004410F090FEB1E04440F0800BE054EFF0DB
:100BA50090FEB1E054BFF0EF90FECD30E70DE0448C
:100BB50040F090FEB1E04480F0800BE054BFF0902F
:100BC500FEB1E0547FF09000031207B2E5F090FE0D
:100BD500DBF09000031207B290FEDC020D9FED647E
:100BE50080704F9000051206D190FEDEF090000156
:100BF5001207B2E5F090FED2F09000011207B29014
:100C0500FED3F09000081206D190FEDDB40106E097
:100C15004480F08004E0547FF09000071206D190E4
:100C2500FEC0B40106E04401F08004E054FEF07F0C
:100C35000022ED6405705690FEECE054FEF090FE47
:100C4500E8E054FCF01206B8FF90FEE8E0548F4F40
:100C5500F09000061206D190FEEC30E00DE0440164
:100C6500F090FEB5E04401F0800BE054FEF090FEFC
:100C7500B5E054FEF09000031207B2E5F090FEF5E2
:100C8500F09000031207B290FEF6020D9FED640688
:100C9500705690FEECE054EFF090FEE9E054FCF065
:100CA5001206B8FF90FEE9E0548F4FF0900006124F
:100CB50006D190FEEC30E20DE04410F090FEB5E078
:100CC5004404F0800BE054EFF090FEB5E054FBF0E7
:100CD5009000031207B2E5F090FEF7F090000312C2
:100CE50007B290FEF8020D9FED6407705590FEED7A
:100CF500E054FEF090FEEAE054FCF01206B8FF90D6
:100D0500FEEAE0548F4FF09000061206D190FEEDFA
:100D150030E40DE04401F090FEB5E04410F0800BA6
:100D2500E054FEF090FEB5E054EFF090000312079A
:100D3500B2E5F090FEF9F09000031207B290FEFACA
:100D45008058ED6408705790FEEDE054EFF090FE8A
:100D5500EBE054FCF01206B8FF90FEEBE0548F4F29
:100D6500F09000061206D190FEED30E60DE044103D
:100D7500F090FEB5E04440F0800BE054EFF090FEBB
:100D8500B5E054BFF09000031207B2E5F090FEFB0A
:100D9500F09000031207B290FEFCF07F0022ED6494
:100DA50081704C9000051206D190FEFEF090000176
:100DB5001207B2FDACF0EC90FEF2F0AF05A3EFF038
:100DC5009000081206D190FEFDB40106E04480F0C3
:100DD5008004E0547FF09000071206D190FEE0B445
:100DE5000106E04401F08004E054FEF07F00227F1C
:020DF500FF22DB
:10160E00EF248070030216C914700302170E248093
:10161E00B40800400302175A90163475F003A4C59F
:10162E008325F0C5837302164C0216590216690201
:10163E0016790216890216990216A90216B9120710
:10164E0087FDACF0EC90FED5021754900002120705
:10165E00B2FDACF0EC90FED70217549000041207C6
:10166E00B2FDACF0EC90FED90217549000061207B2
:10167E00B2FDACF0EC90FEDB02175490000812079E
:10168E00B2FDACF0EC90FEF502175490000A120772
:10169E00B2FDACF0EC90FEF702175490000C12075E
:1016AE00B2FDACF0EC90FEF902175490000E12074A
:1016BE00B2FDACF0EC90FEFB021754120787FDACA6
:1016CE00F0EC90FED5F0AF05A3EFF09000021207FC
:1016DE00B2FDACF0EC90FED7F0AF05A3EFF09000AA
:1016EE00041207B2FDACF0EC90FED9F0AF05A3EFFB
:1016FE00F09000061207B2FDACF0EC90FEDB8046D7
:10170E009000081207B2FDACF0EC90FEF5F0AF05BC
:10171E00A3EFF090000A1207B2FDACF0EC90FEF7CA
:10172E00F0AF05A3EFF090000C1207B2FDACF0EC99
:10173E0090FEF9F0AF05A3EFF090000E1207B2FD88
:0D174E00ACF0EC90FEFBF0AF05A3EFF02235
:10115300AD07ED7079C28C1206B8FED39403400339
:101163007FFF22E58954FC4EF5899000011206D1D8
:10117300FED3940240037FFF22EE7006538E7F530B
:1011830089FB9000011206D1B40106438E80538976
:10119300FB9000011206D1B40203438904900002BC
:1011A3001206D1FFE58F54FE4FF58F90000312070F
:1011B300B2E5F0F58C9000031207B2F58A900006B1
:1011C3001206D17004C28C8002D28C7F0022ED649F
:1011D300016003021259C28E1206B8FED394034073
:1011E300037FFF22EEC454F0FFE58954CF4FF58906
:1011F3009000011206D1FED3940240037FFF22EE3A
:101203007006538EBF5389BF9000011206D1B401FB
:1012130006438E405389BF9000011206D1B40203E6
:101223004389409000021206D125E0FFE58F54FD6B
:101233004FF58F9000031207B2E5F0F58D90000390
:101243001207B2F58B9000061206D17004C28E808D
:1012530002D28E7F0022ED64027065538EEF900000
:10126300011206D1FF7006538EFB538EF7EFB401C4
:1012730006438E04538EF7EFB40203438E089000A7
:10128300021206D125E025E0FFE58F54FB4FF58FD1
:101293009000031207B2E5F0F5D69000031207B2EF
:1012A300F5D79000051206D190FEA2F09000061229
:1012B30006D1C454F0FFE58E54EF4FF58E7F002224
:1012C300ED6403707253D1F79000011206D1FED37F
:1012D300940240037FFF22EE700653D1FD53D1FBEE
:1012E3009000011206D1B4010643D10253D1FB9001
:1012F30000011206D1B4020343D104900002120686
:10130300D1FFE5D154FE4FF5D19000031207B2E5AA
:10131300F0F5D49000031207B2F5D590000512063C
:10132300D190FEA3F09000061206D133333354F864
:10133300FFE5D154F78077ED6404707853D17F9043
:1013430000011206D1FED3940240037FFF22EE7008
:101353000653D1DF53D1BF9000011206D1B4010669
:1013630043D12053D1BF9000011206D1B4020343ED
:10137300D1409000021206D1C454F0FFE5D154EFDE
:101383004FF5D19000031207B2FDACF0ECF5D2AFEC
:10139300058FD39000051206D190FEA4F0900006AD
:1013A3001206D1C43333335480FFE5D1547F4FF554
:0713B300D17F00227FFF2221
:03000B0002005E92
:03005E00B2EF32CC
:03001B0002008060
:03008000B2EE32AB
:0300630002008612
:03008600B2ED32A6
:03009B0002008ED2
:03008E00B2EC329F
:0300A300020096C2
:03009600B2EB3298
:0800C6008F508B518A528953BF
:1000CE00E5506401600302023CF508F509F50AF5F6
:1000DE000BF50CF554F55574402555F58274013524
:1000EE0054F583E4F00555E55570020554648045DA
:1000FE005470E4E4F554F55574002555F5827400FA
:10010E003554F583E4F00555E555700205546480C9
:10011E00455470E4AB51AA52A9531206B8FFE598A4
:10012E00543F4FF598EF64C06008EF6440600302DF
:10013E0001F19000021209337F807E8D7D5B7C0081
:10014E0012087D8F598E588D578C56E4FFFE7D0117
:10015E00FCAB59AA58A957A856C312090F40037FE2
:10016E00FF22C3E49559F559E49558F55874019555
:10017E0057F557E49556F556AB51AA52A953900030
:10018E00011206D1FB6401702CC28E538EFE538970
:10019E00BF5389CF438E40AF59AE58AD57AC56784A
:1001AE00081209208F8D85598BC2AB5389BF538F8F
:1001BE00FDD28E8062EB64027026538EEF438E0169
:1001CE00538EF7438E04AF59AE58AD57AC567808E0
:1001DE001209208FD68559D753AFFB438E10803727
:1001EE007FFF22AB51AA52A9531206B8FF7013908B
:1001FE0000081206D1B40105438E20801A538EDFFB
:10020E008015EFB480119000081206D1B401054399
:10021E008780800353877FAB51AA52A95390000762
:10022E001206D17004C29C8002D29C7F0022E5503F
:10023E0064026003020335F50DF50EF50FF510F5AA
:10024E0011F554F55574E02555F58274013554F5C4
:10025E0083E4F00555E555700205546480455470ED
:10026E00E4E4F554F55574802555F5827400355443
:10027E00F583E4F00555E555700205546480455448
:10028E0070E4AB51AA52A9531206B8FF64C06005C0
:10029E00EF64407075EFB4C005439A808003539AA3
:1002AE007F9000021209337F807E8D7D5B7C001271
:1002BE00087D8F598E588D578C56E4FFFE7D01FCBC
:1002CE00AB59AA58A957A856C312090F40037FFF6E
:1002DE0022C3E49559F559E49558F558740195578C
:1002EE00F557E49556F556538EEF538EF7438E041D
:1002FE00AF59AE58AD57AC5678081209208FD68537
:10030E0059D753AFFB438E1080037FFF22AB51AA08
:10031E0052A9539000071206D1C454F0FFE59A5427
:10032E00EF4FF59A7F0022E55064036003020469E3
:10033E00F512F513F514F515F516F554F55574601B
:10034E002555F58274023554F583E4F00555E555CF
:10035E00700205546440455470E4E4F554F5557448
:10036E00002555F58274013554F583E4F00555E505
:10037E0055700205546440455470E4AB51AA52A91D
:10038E00531206B8FF64C06008EF644060030204B5
:10039E004CEFB4C00543AC80800353AC7F90000299
:1003AE001209337F807E8D7D5B7C0012087D8F5914
:1003BE008E588D578C56E4FFFE7D01FCAB59AA5822
:1003CE00A957A856C312090F40037FFF22C3E49515
:1003DE0059F559E49558F55874019557F557E49524
:1003EE0056F556AB51AA52A9539000011206D1FBF5
:1003FE00B4031D43AC40AF59AE58AD57AC56780858
:10040E001209208FD48559D553D1F043D10A8031AA
:10041E00EB64027026538EEF53ACBF538EF7438EB0
:10042E0004AF59AE58AD57AC5678081209208FD686
:10043E008559D753AFFB438E1080067FFF227FFF77
:10044E0022AB51AA52A9539000071206D1C454F000
:10045E00FFE5AC54EF4FF5AC7F0022E5506404602D
:10046E000302059DF517F518F519F51AF51BF55448
:10047E00F55574A02555F58274023554F583E4F0D4
:10048E000555E555700205546420455470E4E4F5B5
:10049E0054F55574C02555F58274013554F583E431
:1004AE00F00555E555700205546420455470E4ABD3
:1004BE0051AA52A9531206B8FF64C06008EF6440F7
:1004CE006003020580EFB4C005438480800353842B
:1004DE007F9000021209337F807E8D7D5B7C00123F
:1004EE00087D8F598E588D578C56E4FFFE7D01FC8A
:1004FE00AB59AA58A957A856C312090F40037FFF3C
:10050E0022C3E49559F559E49558F5587401955759
:10051E00F557E49556F556AB51AA52A953900001E2
:10052E001206D1FBB4041D438440AF59AE58AD57EB
:10053E00AC5678081209208FD28559D353D10F4368
:10054E00D1A08031EB64027026538EEF5384BF53DB
:10055E008EF7438E04AF59AE58AD57AC567808128D
:10056E0009208FD68559D753AFFB438E1080067F57
:10057E00FF227FFF22AB51AA52A953900007120609
:10058E00D1C454F0FFE58454EF4FF5847F00227FF1
:01059E00FF5D
:01059F002239
:0A2735008F99750A01E50A70FC2275
:10264A001206B8FF600C122735740129F9E43AFA28
:03265A0080EE22ED
:0A273F008F9B750F01E50F70FC225F
:10265D001206B8FF600C12273F740129F9E43AFA0B
:03266D0080EE22DA
:0A2749008FAD751401E51470FC2239
:102670001206B8FF600C122749740129F9E43AFAEE
:0326800080EE22C7
:0A2753008F85751901E51970FC224D
:102683001206B8FF600C122753740129F9E43AFAD1
:0326930080EE22B4
:05000600AE07022735E2
:03002300021F0EAB
:101F0E00C0E0C083C082C0D075D000C0073098201A
:101F1E00C298E50BC394804003750B00AF0B050B05
:101F2E0074002FF582E43400F583E599F0750C0505
:101F3E00309905C299750A00D007D0D0D082D083CF
:031F4E00D0E032AE
:03004300021D1B80
:101D1B00C0E0C083C082C0D075D000C007E59A3048
:101D2B00E021539AFEE510C394804003751000AF79
:101D3B0010051074802FF582E43400F583E59BF0D9
:101D4B00751105E59A30E106539AFD750F00D00722
:091D5B00D0D0D082D083D0E03258
:03008B00021D64EF
:101D6400C0E0C083C082C0D075D000C007E5AC30ED
:101D7400E02153ACFEE515C394404003751500AF54
:101D840015051574002FF582E43401F583E5ADF0F3
:101D9400751605E5AC30E10653ACFD751400D007AB
:091DA400D0D0D082D083D0E0320F
:03009300021DAD9E
:101DAD00C0E0C083C082C0D075D000C007E58430CC
:101DBD00E0215384FEE51AC394204003751A00AF49
:101DCD001A051A74C02FF582E43401F583E585F008
:101DDD00751B05E58430E1065384FD751900D007A8
:091DED00D0D0D082D083D0E032C6
:102696000000000000000000000000000000808034
:0226A600808032
:1026A80075480C7547027B007A0079477F0302134F
:0126B800BA67
:10258600754901754801E4F54A75470DFB7A0079EE
:1025960047121B0AE4FBFD7F01121C6DE5BA54CFFE
:0425A6004430F5BA0E
:0125AA00220E
:09276F0043BA801226A802258657
:10183100784F7C007D007BFF7A2679967E007F07BA
:10184100120670E54E75F00A84C454F0FFE54E753A
:10185100F00A84E5F04FF54FE54D75F00A84C45464
:10186100F0FFE54D75F00A84E5F04FF550E54C7554
:10187100F00A84C454F0FFE54C75F00A84E5F04F9A
:10188100F551E54B75F00A84C454F0FFE54B75F052
:101891000A84E5F04FF552854A53C3E5489434E58F
:1018A10047940840047F0180027F00E54975F00AF2
:1018B10084C454F0FEEFC433333354804EFFE54902
:1018C10075F00A84E5F04FF554AE47AF487C007DD2
:1018D100641207327E007F0ACFCDCFCECCCE120765
:1018E10032EFC454F0FBAE47AF487C007D0A1207CB
:1018F10032EB4DF5557B007A00794F755B077D0220
:051901007FA20224A1F9
:06175B008B478A48894912
:10176100784A7C007D007BFF7A26799D7E007F0789
:101771001206707B007A00794A7556077D027FA2B6
:10178100122143E54AC4540775F00AA4FFE54A54FF
:101791000F2FAB47AA48A949900007120710E54B44
:1017A100C4540775F00AA4FFE54B540F2F900006AF
:1017B100120710E54CC4540375F00AA4FFE54C541C
:1017C1000F2F900005120710E54DC4540375F00A60
:1017D100A4FFE54D540F2F90000412071090000351
:1017E100E54E120710E54FC4540175F00AA4FFE558
:1017F1004F540F2F900002120710E550C4540F757B
:10180100F00AA4FFE550540F7C002FFFEC35F08F58
:10181100F0120822E54F548070067E077FD08004C5
:101821007E087F34AB47AA48A949EE8FF00207EA48
:101A6F00784B7C007D007BFF7A2679A47E007F0473
:101A7F00120670C3E54764809480401AE54775F0FD
:101A8F000A120696C454E0FFE54775F00A1206964F
:101A9F00AEF0EE4FF54BC3E54864809480401AE5F5
:101AAF004875F00A120696C454E0FFE54875F00A2F
:101ABF00120696AEF0EE4FF54CC3E5496480948064
:101ACF00401AE54975F00A120696C454E0FFE5493D
:101ADF0075F00A120696AEF0EE4FF54DC3E54A6467
:101AEF008094804006E54A54EFF54E7B007A0079EA
:0B1AFF004B755B047D097FA20224A14F
:0224D2008F4732
:1024D4007B007A0079487556017D017FA212214361
:1024E4005348F7E547600543480280035348FD7BA2
:0F24F400007A007948755B017D017FA20224A167
:10246F00EFD3940140037FFF22EF7010C289120651
:10247F00B87004C2888002D2887F0022BF0110C2C8
:10248F008B1206B87004C28A8002D28A7F00227F24
:02249F00FF221A
:03000300020016E2
:04001600751F01321F
:0300130002001ECA
:04001E00751F023216
:0300530002002682
:04002600751F03320D
:03005B000221057A
:10210500C0E0C0F0C083C082C0D075D000C000C0A0
:1021150001C002C003C004C005C006C007751F0486
:10212500122530D007D006D005D004D003D002D078
:0E21350001D000D0D0D082D083D0F0D0E032E4
:0300830002005622
:04005600751F0532DB
:0300000002271EB6
:0C271E00787FE4F6D8FD75815D02190695
:1005A000E709F608DFFA8046E709F208DFFA803E3D
:1005B00088828C83E709F0A3DFFA8032E309F6082A
:1005C000DFFA8078E309F208DFFA807088828C8392
:1005D000E309F0A3DFFA806489828A83E0A3F60846
:1005E000DFFA805889828A83E0A3F208DFFA804C20
:1005F00080D280FA80C680D4806980F280338010F7
:1006000080A680EA809A80A880DA80E280CA80335F
:1006100089828A83ECFAE493A3C8C582C8CCC583D7
:10062000CCF0A3C8C582C8CCC583CCDFE9DEE780A7
:100630000D89828A83E493A3F608DFF9ECFAA9F026
:10064000EDFB2289828A83ECFAE0A3C8C582C8CC7C
:10065000C583CCF0A3C8C582C8CCC583CCDFEADE95
:10066000E880DB89828A83E493A3F208DFF980CCF7
:1006700088F0EF60010E4E60C388F0ED2402B404F0
:100680000050B9F582EB2402B4040050AF23234597
:0606900082239005F073C7
:10069600C2D530F707B2D563F0FF05F030E70CB2EC
:1006A600D5F4048463F0FF05F080018430D502F4AC
:0206B60004221C
:1006B800BB010689828A83E0225002E722BBFE0240
:0906C800E32289828A83E4932273
:1006D100BB010CE58229F582E5833AF583E02250DE
:1006E10006E92582F8E622BBFE06E92582F8E22228
:0D06F100E58229F582E5833AF583E4932242
:1006FE00BB010689828A83F0225002F722BBFE01DB
:02070E00F322D4
:10071000F8BB010DE58229F582E5833AF583E8F01F
:10072000225006E92582C8F622BBFE05E92582C8CB
:02073000F222B3
:10073200BC000BBE0029EF8DF084FFADF022E4CCAB
:10074200F875F008EF2FFFEE33FEEC33FCEE9DEC74
:10075200984005FCEE9DFE0FD5F0E9E4CEFD22EDBA
:10076200F8F5F0EE8420D21CFEADF075F008EF2F04
:10077200FFED33FD4007985006D5F0F222C398FDF5
:050782000FD5F0EA2292
:10078700BB010A89828A83E0F5F0A3E0225006873D
:10079700F009E71922BBFE07E3F5F009E3192289FF
:0B07A700828A83E493F5F07401932232
:1007B200BB0110E58229F582E5833AF583E0F5F085
:1007C200A3E0225009E92582F886F008E622BBFE62
:1007D2000AE92582F8E2F5F008E222E5832AF583A8
:0807E200E993F5F0A3E993226D
:1007EA00BB010789828A83020963500B09C5F02776
:1007FA00F7C5F01937F722BBFE0D09F8E325F0F328
:10080A00C5F019E338F322F889828A8374019325A3
:08081A00F0C5F0F8E493382268
:10082200BB010A89828A83F0E5F0A3F0225006F721
:0F08320009A7F01922BBFE06F3E5F009F319221E
:1008410075F008758200EF2FFFEE33FECD33CDCC6E
:1008510033CCC58233C5829BED9AEC99E5829840F1
:100861000CF582EE9BFEED9AFDEC99FC0FD5F0D6CE
:10087100E4CEFBE4CDFAE4CCF9A88222B800C1B9F8
:100881000059BA002DEC8BF084CFCECDFCE5F0CB36
:10089100F97818EF2FFFEE33FEED33FDEC33FCEB6F
:1008A10033FB10D703994004EB99FB0FD8E5E4F92A
:1008B100FA227818EF2FFFEE33FEED33FDEC33FC17
:1008C100C933C910D7059BE99A4007EC9BFCE99A0B
:1008D100F90FD8E0E4C9FAE4CCFB2275F010EF2F50
:1008E100FFEE33FEED33FDCC33CCC833C810D70750
:1008F1009BEC9AE899400AED9BFDEC9AFCE899F88B
:0E0901000FD5F0DAE4CDFBE4CCFAE4C8F9221D
:10090F00EB9FF5F0EA9E42F0E99D42F0E89C45F03E
:01091F0022B5
:10092000E8600FECC313FCED13FDEE13FEEF13FFB5
:03093000D8F122D9
:10093300BB010DE58229F582E5833AF58302098639
:100943005007E92582F8020979BBFE07E92582F8F9
:10095300020992E58229F582E5833AF58302099F2C
:100DF700E556244AF8E60556227847301002784A25
:100E0700E475F0011209AF0206B82009EB7F2ED274
:100E1700098018EF540F2490D43440D4FF300D0BC1
:100E2700EF24BFB41A0050032461FFE55760021591
:100E370057055AE55A7002055930100D7847E47581
:100E4700F0011209AFEF0206FE0200067403D2108A
:100E57008003E4C210F5568B478A488949E4F55761
:100E6700F559F55AE55760077F20120E3280F57560
:100E770058FFC20AC209C20BC20CC20EC20FC2116E
:100E8700120E00FF700D3010057F00120E43AF5A8F
:100E9700AE5922B4255FC2D5C20D120E00FF24D071
:100EA700B40A00501A75F00A785730D50508B6FF0E
:100EB7000106C6A426F620D5047002D20C80D924D8
:100EC700CFB41A00EF5004C2E5D20D021043D20A84
:100ED70080C6D20980C0D20B80BCD2D580BAD20ED0
:100EE70080B47F20120E32200B077401B5570040E3
:100EF700F1120DF7FF120E32020E6BD211D20F80D4
:100F070095120DF7FB120DF7FA120DF7F94A4B7010
:100F17000679147A117BFF200B2EE557602A7E0095
:100F27008E827583001206D160060EEE655870F04A
:100F3700C2D5EBC0E0EAC0E0E9C0E0EE12108AD00B
:100F4700E0F9D0E0FAD0E0FB1206B8FF60AAEBC0E8
:100F5700E0EAC0E0E9C0E0120E32D0E02401F9D0A7
:100F6700E03400FAD0E0FBE5580460DCD558D980BE
:100F7700877BFF7A107986D20B809C791080027963
:100F870008C20FC2118008D2D5790A8004790AC233
:100F9700D5E558047002F558E4FAFDFEFF120DF787
:100FA700FC7B08200A13120DF7FD7B1030090A128B
:100FB7000DF7FE120DF7FF7B20EC3382D592D5504B
:100FC70013C3E43009069FFFE49EFEE4200A039D55
:100FD700FDE49CFCE4CBF8C20AEC700CCFCECDCC80
:100FE700E824F8F870F38017C3EF33FFEE33FEED14
:100FF70033FDEC33FCEB33FB994002FB0FD8E9EBF5
:10100700300A05F8D0E0C448B20AC0E00AEC4D4EF9
:101017004F78207B0070C2EAB5580040BCC0E01290
:10102700108CD0F0D0E0200A04C4C0E0C4B20AC0DB
:10103700F0120E1BD0F0D5F0EB020E6B1209BF0FAA
:1010470008530F82580ED94C0ED5420F864F0F8E7C
:0F105700440F8E490EEE430F94550F78460F78D5
:10106600450F78471134500EDD2D0EE12E0F042B5F
:101076000EE5230F0220111D2A0E9D4800000EFCCE
:101086003F3F3F00790AA2D5200C14300E09B91053
:10109600020404B9080104A2D5200F02500104205D
:1010A6000B68920BB557005034C0E07F20300C1906
:1010B6007F30A20B720F720E500F1210E3C20BC2DA
:1010C6000FC20EC2117F30800F300E03E9C0E0124E
:1010D6000E32300E03D0E0F9D0E0B557CC300E1703
:1010E6007F30B9100C120E327F58300D077F788092
:1010F60003B90803120E32300B057F2D020E327F24
:10110600202011F87F2B200FF322920B80CF286E20
:10111600756C6C2900D20A120DF7300AF8C20A78EB
:101126005730D50108F6020E9D2D50434958120D31
:10113600F72403B405004001E490112F93120E2307
:0D114600743A120E23D20C755704020F826A
:10096300C5F0F8A3E028F0C5F0F8E582158270021F
:060973001583E038F022BC
:0D097900E6FB08E6F908E6FA08E6CBF822EE
:0C098600E0F8A3E0F9A3E0FAA3E0FB22F4
:0D099200E2FB08E2F908E2FA08E2CBF822E5
:10099F00E493F8740193F9740293FA740393FB22AE
:1009AF00FAE6FB0808E6F925F0F618E6CA3AF62249
:1009BF00D083D082F8E4937012740193700DA3A3C7
:1009CF0093F8740193F5828883E4737402936860DB
:0609DF00EFA3A3A380DFDB
:00000001FF
