:1020DB00253034582D253032582D253032580A00F2
:1020EB00253032583A253032583A253032580A00CA
:1020FB007765656B2D3E25640A000000000000002B
:01210B0000D3
:1021FA00753403E4F533FB7A0079337F031212B4A2
:10220A0075340C7533027B007A0079337F0302122E
:01221A00B40F
:10213D007533407534017538007537C275360175C4
:10214D003500753A01E4F53BFB7A0079337F0112D6
:0C215D0000C67D017F01121DA453A23FAB
:012169002253
:10006600753501753401E4F53675330DFB7A007983
:10007600331217E7E4FBFD7F0112194AE5BA54CFA4
:040086004430F5BA53
:01008A002253
:101655007522A2752302782C7C007D007BFF7A2100
:1016650079057E007F07120DDE43BA801221FA123A
:10167500213D120066D2AF752C55752D59752E2357
:10168500752F317530037531127532997B007A00EB
:10169500792C7538077D02AF2212210C7B007A0068
:1016A500792C7538077D02AF22121DE2E52C547F97
:1016B500F524852D25852E26852F27853028E5318E
:1016C500547FF529752A0085322BE5315480700841
:1016D500252BF52B74208007E4252BF52B7421355C
:1016E5002AF52A7BFF7A2079DB852A36852B377503
:1016F5003800852939753A0085273B120A147BFF86
:101705007A2079EB753600852637753800852539B9
:10171500753A0085243B120A147BFF7A2079FB7504
:101725003600852837120A147FFA12226C7FFA12C6
:0F173500226C7FFA12226C7FFA12226C0216A12C
:1019A300900001120E1DFFE5DE54F04FF5DE9000AE
:1019B30002120E1DC43354E0FFE5DE54DF4FF5DEA3
:1019C300120E04FFD3941F502B900003120E1DFE22
:1019D300D39401501F900004120E1DFDD3940350A5
:1019E30013EDC43354E0FDEEC433333354804D4F11
:0519F30090FEA8F022A7
:0B22DD00BF010443BC802253BC7F22E1
:1018DD00EFD3940F40028060E4F5BDF5BEE5BC5436
:1018ED00F044404FF5BC0000000000000000000077
:1018FD00E4FDE5BC30E53D53BCDFE5DEAFBD30E5D5
:10190D000EEFFEACBEECFBEEF547EBF54880207517
:10191D0047008F48E5BEC4540FFBE548C4F8540F8B
:10192D00C868FFE547C454F048F547EF4BF548AE9E
:0C193D0047AF48220DBDFABA7E107F00B3
:01194900227B
:03002B00020026AA
:0400260053BCDF32B6
:0F226C007D607C09ED1D70011C144C70F7DFF1D3
:01227B002240
:1012B400EFD3940740037FFF22120E04FED394035E
:1012C40040037FFF22EF7041EE700B900001120E7D
:1012D4001DF452935294120E04B4010B90000112A7
:1012E4000E1D4293F45294120E04FEB4020A9000AE
:1012F40001120E1D42934294EEB4030D90000112AC
:101304000E1DFEF45293EE4294EF64017043120EEC
:1013140004FE700B900001120E1DF452915292EED5
:10132400B4010B900001120E1D4291F45292120E60
:1013340004B4020A900001120E1D42914292120E50
:1013440004B4030D900001120E1DFEF45291EE42FE
:1013540092EF64027043120E04FE700B90000112AF
:101364000E1DF452955296EEB4010B900001120E2C
:101374001D4295F45296120E04B4020A9000011212
:101384000E1D42954296120E04B4030D90000112F4
:101394000E1DFEF45295EE4296EF64037043120E56
:1013A40004FE700B900001120E1DF452B152B2EE05
:1013B400B4010B900001120E1D42B1F452B2120E90
:1013C40004B4020A900001120E1D42B142B2120E80
:1013D40004B4030D900001120E1DFEF452B1EE424E
:1013E400B2EF64047043120E04FE700B90000112FD
:1013F4000E1DF452B352B4EEB4010B900001120E60
:101404001D42B3F452B4120E04B4020A9000011245
:101414000E1D42B342B4120E04B4030D9000011227
:101424000E1DFEF452B3EE42B4EF64057043120E87
:1014340004FE700B900001120E1DF452C952CAEE44
:10144400B4010B900001120E1D42C9F452CA120ECF
:1014540004B4020A900001120E1D42C942CA120EBF
:1014640004B4030D900001120E1DFEF452C9EE42A5
:10147400CAEF64067043120E04FE700B9000011252
:101484000E1DF452CB52CCEEB4010B900001120E9F
:101494001D42CBF452CC120E04B4020A9000011285
:1014A4000E1D42CB42CC120E04B4030D9000011267
:1014B4000E1DFEF452CBEE42CCEF64077043120EC5
:1014C40004FF700B900001120E1DF452E152E2EF82
:1014D400B4010B900001120E1D42E1F452E2120E0F
:1014E40004B4020A900001120E1D42E142E2120EFF
:1014F40004B4030D900001120E1DFFF452E1EF42FB
:04150400E27F002260
:1017E700900002120E1D6401702A90FE80E04440B2
:1017F700F090FE82E4F0120E04543FFF90FE80E06A
:1018070054C04FF0900003120E1D90FE88B40102E1
:101817008031802990FE80E054BFF090FE84E4F090
:10182700900004120E1D25E0FF90FE85E054014F45
:10183700F0900005120E1D90FE85B40106E054FEDF
:10184700F08004E04401F0900001120E1D90FE802C
:0C1857007005E0547FF022E04480F02295
:0800030090FE82E05480FF2210
:0C22C50090FE82E030E6F9E054BFF02209
:0923100090FE817401F00222C567
:0E22A90090FE86EFF090FE817402F00222C5D6
:06227C001223101222A93A
:0922820090FE817403F00222C5F4
:0F228B0090FE817404F01222C590FE87E0FF22BE
:0E22B70090FE82E4F090FE817405F00222C5D4
:0F229A0090FE827401F090FE817405F00222C55F
:0923190090FE817406F00222C559
:0D000E0090FE86EDF090FE81EFF00222C51D
:10210C008B358A368937AE0512227CAF061222A98E
:10211C00122282AB350537E537AA36700205361424
:10212C00F9120E04FF1222A9122282D538E50223DD
:01213C001989
:101DE200AE0712227CAF051222A912228212231000
:101DF200EE4401FF1222A912228212228BEF120E4E
:101E02004A740129F9E43AFAE538640160031222BE
:0A1E1200B7D538E612229A02231910
:0300C300021744DD
:10174400C0E0C083C082C0D075D000C006C007907E
:10175400FE84E030E606E054BFF0807A90FE84E038
:1017640030E535E054DFF0E51D6005751D00806649
:10177400E51C600D751C0090FE87E0F51E24C080FA
:101784003490FE87E0FFAE1E051E74C02EF582E481
:101794003402F583EFF0803E90FE84E030E424E0F0
:1017A40054EFF0E030E10890FE8674FFF0802705E6
:1017B4001E74C0251EF582E43402F583E090FE8693
:1017C400F0801390FE84E030E30CE054F7F0751DD4
:1017D40001751C01D209D007D006D0D0D082D083A5
:0317E400D0E03220
:101C6E00EFD3940140037FFF22EDD3940340037F13
:101C7E00FF22EF7004C2A98002D2A9ED700553B7FE
:101C8E00FDC2B9BD010553B7FDD2B9BD020543B7BB
:0E1C9E0002C2B9BD030543B702D2B97F0022CE
:101CAC00EFD3940140037FFF22EDD3940340037FD5
:101CBC00FF22EF7004C2AB8002D2ABED700553B7BC
:101CCC00F7C2BBBD010553B7F7D2BBBD020543B785
:0E1CDC0008C2BBBD030543B708D2BB7F002280
:1021B600EFD3940140037FFF22EDD3940340037FC6
:1021C600FF22EF25E025E0FFE5AF54FB4FF5AFE436
:0221D600FF22E6
:1021D800EFD3940140037FFF22EDD3940340037FA4
:1021E800FF22EFC43354E0FFE5AF54DF4FF5AFE40F
:0221F800FF22C4
:10219300EFD3940140037FFF22EDD3940340037FE9
:1021A300FF22EFC4333354C0FFE5AF54BF4FF5AF45
:0321B300E4FF2224
:101CEA00EFD3940140037FFF22EDD3940340037F97
:101CFA00FF22EF7004C2A88002D2A8ED700553B784
:101D0A00FEC2B8BD010553B7FED2B8BD020543B73E
:0E1D1A0001C2B8BD030543B701D2B87F002255
:101D2800EFD3940140037FFF22EDD3940340037F58
:101D3800FF22EF7004C2AA8002D2AAED700553B741
:101D4800FBC2BABD010553B7FBD2BABD020543B702
:0E1D580004C2BABD030543B704D2BA7F00220D
:10221B00EFD3940140037FFF22EFC454F0FFE58F0F
:08222B0054EF4FF58FE4FF2290
:1000A600EFD3940140037FFF22EFC43354E0FFE512
:0900B6008F54DF4FF58FE4FF22A7
:10004600EFD3940140037FFF22EFC4333354C0FF44
:0A005600E58F54BF4FF58FE4FF2241
:101D6600EFD3940140037FFF22EDD3940340037F1A
:101D7600FF22EF7004C2AD8002D2ADED700553B7FD
:101D8600DFC2BDBD010553B7DFD2BDBD020543B7F6
:0E1D960020C2BDBD030543B720D2BD7F002291
:101AD300EDD3940340037FFF22EF30E10543E6207B
:101AE300800353E6DFEF30E00543E610800353E65F
:101AF300EFED700653B6DF53B5DFBD010653B6DF16
:101B030043B520BD020643B62053B5DFBD030643EC
:081B1300B62043B5207F00223B
:10194A00EFD3940140037FFF22EBD3940340037F3C
:10195A00FF22BF0112ED90FE817006E0547FF080F5
:10196A0011E04480F0800BEF700890FE83E054870A
:10197A004DF0EB700653B6DF53B5DFBB010653B625
:10198A00DF43B520BB020643B62053B5DFBB0306CF
:09199A0043B62043B5207F002272
:101DA400EFD3940140037FFF22EDD3940340037FDC
:101DB400FF22EF7004C2AC8002D2ACED700553B7C1
:101DC400EFC2BCBD010553B7EFD2BCBD020543B79A
:0E1DD40010C2BCBD030543B710D2BC7F002275
:101C2E00EFD3940140037FFF22EDD3940340037F53
:101C3E00FF22E5AF54FE4FF5AFED700653B6FE53DF
:101C4E00B5FEBD010653B6FE43B501BD020643B651
:101C5E000153B5FEBD030643B60143B5017F002215
:101B1B00EFD3940140037FFF22EDD3940340037F67
:101B2B00FF22EF33333354F8FFE5AF54F74FF5AFE4
:101B3B00ED700653EEFE53DFFEBD010653EEFE4382
:101B4B00DF01BD020643EE0153DFFEBD030643EE8C
:071B5B000143DF017F0022BE
:101B6200EFD3940140037FFF22EDD3940340037F20
:101B7200FF22EFC454F0FFE5AF54EF4FF5AFED7025
:101B82000653EEFD53DFFDBD010653EEFD43DF02BA
:101B9200BD020643EE0253DFFDBD030643EE0243E0
:051BA200DF027F0022BC
:101BA700EFD3940140037FFF22EDD3940340037FDB
:101BB700FF22EF25E0FFE5AF54FD4FF5AFED7006CF
:101BC70053B6FD53B5FDBD010653B6FD43B502BD82
:101BD700020643B60253B5FDBD030643B60243B53D
:041BE700027F002257
:10186300EFD3948140037FFF22EBD3940340037FA4
:10187300FF22EF247F603004705890FEC4EDF0EB3C
:10188300700653B6FB53B5FBBB010653B6FB43B51A
:1018930004BB020643B60453B5FBEB640370384341
:1018A300B60443B504803090FEE4EDF0EB700653CC
:1018B300B6F753B5F7BB010653B6F743B508BB02FA
:1018C3000643B60853B5F7BB030D43B60843B50843
:0A18D300800590FEE4EDF07F002296
:101E1C00EDD394035026ED700653EEFB53DFFBBD60
:101E2C00010653EEFB43DF04BD020643EE0453DF11
:101E3C00FBBD030B43EE0443DF0480037FFF2290C2
:071E4C00FE62EFF07F0022AF
:101E530090FA10E054F0F0EDD39403500BE0FEED54
:101E630025E025E0FDEE4DF0EBD39403500690FA08
:101E730010E04BF090FA10E0BF01054480F08003BE
:061E8300547FF07F0022F5
:101E890090FA00E054F0F0EDD39403500BE0FEED2E
:101E990025E025E0FDEE4DF0EBD39403500690FAD2
:101EA90000E04BF090FA00E0BF01054480F08003A8
:061EB900547FF07F0022BF
:101EBF0090FA20E054F0F0EDD39403500BE0FEEDD8
:101ECF0025E025E0FDEE4DF0EBD39403500690FA9C
:101EDF0020E04BF090FA20E0BF01054480F0800332
:061EEF00547FF07F002289
:101EF50090FA30E054F0F0EDD39403500BE0FEED92
:101F050025E025E0FDEE4DF0EBD39403500690FA65
:101F150030E04BF090FA30E0BF01054480F08003DB
:061F2500547FF07F002252
:101F2B0090FA38E054F0F0EDD39403500BE0FEED53
:101F3B0025E025E0FDEE4DF0EBD39403500690FA2F
:101F4B0038E04BF090FA38E0BF01054480F0800395
:061F5B00547FF07F00221C
:101F610090FA40E054F0F0EDD39403500BE0FEED15
:101F710025E025E0FDEE4DF0EBD39403500690FAF9
:101F810040E04BF090FA40E0BF01054480F080034F
:061F9100547FF07F0022E6
:101F970090FA48E054F0F0EDD39403500BE0FEEDD7
:101FA70025E025E0FDEE4DF0EBD39403500690FAC3
:101FB70048E04BF090FA48E0BF01054480F0800309
:061FC700547FF07F0022B0
:101FCD0090FA50E054F0F0EDD39403500BE0FEED99
:101FDD0025E025E0FDEE4DF0EBD39403500690FA8D
:101FED0050E04BF090FA50E0BF01054480F08003C3
:061FFD00547FF07F00227A
:1020030090FA58E054F0F0EDD39403500BE0FEED5A
:1020130025E025E0FDEE4DF0EBD39403500690FA56
:1020230058E04BF090FA58E0BF01054480F080037C
:06203300547FF07F002243
:1020390090FA60E054F0F0EDD39403500BE0FEED1C
:1020490025E025E0FDEE4DF0EBD39403500690FA20
:1020590060E04BF090FA60E0BF01054480F0800336
:06206900547FF07F00220D
:10206F0090FA68E054F0F0EDD39403500BE0FEEDDE
:10207F0025E025E0FDEE4DF0EBD39403500690FAEA
:10208F0068E04BF090FA68E0BF01054480F08003F0
:06209F00547FF07F0022D7
:1020A50090FA70E054F0F0EDD39403500BE0FEEDA0
:1020B50025E025E0FDEE4DF0EBD39403500690FAB4
:1020C50070E04BF090FA70E0BF01054480F08003AA
:0620D500547FF07F0022A1
:10216A0090FE50E054CFF0EDD39403500AE0FEED18
:10217A00C454F0FDEE4DF090FE50E0BF01054480DE
:09218A00F08003547FF07F002275
:1005A000AD07ED6401707A90FECCE054FEF0E054AB
:1005B000FBF090FEC8E054FCF0120E04FF90FEC861
:1005C000E0548F4FF0900006120E1DFF90FECC30CD
:1005D000E00DE04401F090FEB1E04401F0800BE05A
:1005E00054FEF090FEB1E054FEF0EF90FECC30E10E
:1005F0000DE04404F090FEB1E04402F0800BE054C2
:10060000FBF090FEB1E054FDF0900003120E87E580
:10061000F090FED5F0900003120E8790FED60209EE
:100620005AED6402707A90FECCE054EFF0E054BFD3
:10063000F090FEC9E054FCF0120E04FF90FEC9E0F9
:10064000548F4FF0900006120E1DFF90FECC30E24A
:100650000DE04410F090FEB1E04404F0800BE05453
:10066000EFF090FEB1E054FBF0EF90FECC30E30DE4
:10067000E04440F090FEB1E04408F0800BE054BF4D
:10068000F090FEB1E054F7F0900003120E87E5F011
:1006900090FED7F0900003120E8790FED802095A00
:1006A000ED6403707A90FECDE054FEF0E054FBF070
:1006B00090FECAE054FCF0120E04FF90FECAE05413
:1006C0008F4FF0900006120E1DFF90FECD30E40D0E
:1006D000E04401F090FEB1E04410F0800BE054FEE5
:1006E000F090FEB1E054EFF0EF90FECD30E50DE07C
:1006F0004404F090FEB1E04420F0800BE054FBF0A5
:1007000090FEB1E054DFF0900003120E87E5F09008
:10071000FED9F0900003120E8790FEDA02095AED1E
:100720006404707A90FECDE054EFF0E054BFF09096
:10073000FECBE054FCF0120E04FF90FECBE0548F91
:100740004FF0900006120E1DFF90FECD30E60DE03A
:100750004410F090FEB1E04440F0800BE054EFF024
:1007600090FEB1E054BFF0EF90FECD30E70DE044D5
:1007700040F090FEB1E04480F0800BE054BFF09078
:10078000FEB1E0547FF0900003120E87E5F090FE7A
:10079000DBF0900003120E8790FEDC02095AED6434
:1007A00080704F900005120E1D90FEDEF09000014B
:1007B000120E87E5F090FED2F0900001120E8790A5
:1007C000FED3F0900008120E1D90FEDDB40106E08D
:1007D0004480F08004E0547FF0900007120E1D90DA
:1007E000FEC0B40106E04401F08004E054FEF07F56
:1007F0000022ED6405705690FEECE054FEF090FE91
:10080000E8E054FCF0120E04FF90FEE8E0548F4F35
:10081000F0900006120E1D90FEEC30E00DE0440159
:10082000F090FEB5E04401F0800BE054FEF090FE45
:10083000B5E054FEF0900003120E87E5F090FEF54F
:10084000F0900003120E8790FEF602095AED64063E
:10085000705690FEECE054EFF090FEE9E054FCF0AE
:10086000120E04FF90FEE9E0548F4FF09000061244
:100870000E1D90FEEC30E20DE04410F090FEB5E06D
:100880004404F0800BE054EFF090FEB5E054FBF030
:10089000900003120E87E5F090FEF7F0900003122F
:1008A0000E8790FEF802095AED6407705590FEED30
:1008B000E054FEF090FEEAE054FCF0120E04FF90CB
:1008C000FEEAE0548F4FF0900006120E1D90FEEDF0
:1008D00030E40DE04401F090FEB5E04410F0800BF0
:1008E000E054FEF090FEB5E054EFF0900003120EDD
:1008F00087E5F090FEF9F0900003120E8790FEFA63
:100900008058ED6408705790FEEDE054EFF090FED3
:10091000EBE054FCF0120E04FF90FEEBE0548F4F1E
:10092000F0900006120E1D90FEED30E60DE0441032
:10093000F090FEB5E04440F0800BE054EFF090FE04
:10094000B5E054BFF0900003120E87E5F090FEFB77
:10095000F0900003120E8790FEFCF07F0022ED6401
:1009600081704C900005120E1D90FEFEF09000016B
:10097000120E87FDACF0EC90FEF2F0AF05A3EFF0A5
:10098000900008120E1D90FEFDB40106E04480F0B8
:100990008004E0547FF0900007120E1D90FEE0B43A
:1009A0000106E04401F08004E054FEF07F00227F65
:0209B000FF2224
:10150800EF248070030215C31470030216082480A8
:10151800B40800400302165490152E75F003A4C5B4
:101528008325F0C58373021546021553021563021D
:1015380015730215830215930215A30215B3120E33
:101548005CFDACF0EC90FED502164E900002120E37
:1015580087FDACF0EC90FED702164E900004120EF8
:1015680087FDACF0EC90FED902164E900006120EE4
:1015780087FDACF0EC90FEDB02164E900008120ED0
:1015880087FDACF0EC90FEF502164E90000A120EA4
:1015980087FDACF0EC90FEF702164E90000C120E90
:1015A80087FDACF0EC90FEF902164E90000E120E7C
:1015B80087FDACF0EC90FEFB02164E120E5CFDAC03
:1015C800F0EC90FED5F0AF05A3EFF0900002120EFC
:1015D80087FDACF0EC90FED7F0AF05A3EFF09000DC
:1015E80004120E87FDACF0EC90FED9F0AF05A3EF26
:1015F800F0900006120E87FDACF0EC90FEDB804602
:10160800900008120E87FDACF0EC90FEF5F0AF05E7
:10161800A3EFF090000A120E87FDACF0EC90FEF7F5
:10162800F0AF05A3EFF090000C120E87FDACF0ECC4
:1016380090FEF9F0AF05A3EFF090000E120E87FDB3
:0D164800ACF0EC90FEFBF0AF05A3EFF0223C
:10104D00AD07ED7079C28C120E04FED394034003EC
:10105D007FFF22E58954FC4EF589900001120E1D8B
:10106D00FED3940240037FFF22EE7006538E7F5312
:10107D0089FB900001120E1DB40106438E80538929
:10108D00FB900001120E1DB402034389049000026F
:10109D00120E1DFFE58F54FE4FF58F900003120EBB
:1010AD0087E5F0F58C900003120E87F58A90000607
:1010BD00120E1D7004C28C8002D28C7F0022ED6452
:1010CD00016003021153C28E120E04FED39403402D
:1010DD00037FFF22EEC454F0FFE58954CF4FF5890D
:1010ED00900001120E1DFED3940240037FFF22EEED
:1010FD007006538EBF5389BF900001120E1DB401AF
:10110D0006438E405389BF900001120E1DB4020399
:10111D00438940900002120E1D25E0FFE58F54FD1E
:10112D004FF58F900003120E87E5F0F58D900003BB
:10113D00120E87F58B900006120E1D7004C28E8064
:10114D0002D28E7F0022ED64027065538EEF900007
:10115D0001120E1DFF7006538EFB538EF7EFB40177
:10116D0006438E04538EF7EFB40203438E089000AE
:10117D0002120E1D25E025E0FFE58F54FB4FF58F84
:10118D00900003120E87E5F0F5D6900003120E873E
:10119D00F5D7900005120E1D90FEA2F090000612DC
:1011AD000E1DC454F0FFE58E54EF4FF58E7F0022D7
:1011BD00ED6403707253D1F7900001120E1DFED332
:1011CD00940240037FFF22EE700653D1FD53D1FBF5
:1011DD00900001120E1DB4010643D10253D1FB90B4
:1011ED000001120E1DB4020343D104900002120E31
:1011FD001DFFE5D154FE4FF5D1900003120E87E58A
:10120D00F0F5D4900003120E87F5D5900005120E5F
:10121D001D90FEA3F0900006120E1D33333354F8CB
:10122D00FFE5D154F78077ED6404707853D17F904A
:10123D000001120E1DFED3940240037FFF22EE70BB
:10124D000653D1DF53D1BF900001120E1DB401061C
:10125D0043D12053D1BF900001120E1DB4020343A0
:10126D00D140900002120E1DC454F0FFE5D154EF91
:10127D004FF5D1900003120E87FDACF0ECF5D2AF17
:10128D00058FD3900005120E1D90FEA4F090000660
:10129D00120E1DC43333335480FFE5D1547F4FF507
:0712AD00D17F00227FFF2228
:03000B0002006090
:03006000B2EF32CA
:03001B0002008E52
:03008E00B2EE329D
:0300630002009602
:03009600B2ED3296
:03009B0002009EC2
:03009E00B2EC328F
:0300A3000200BF99
:0300BF00B2EB326F
:0800C6008F3C8B3D8A3E893F0F
:1000CE00E53C6401600302023CF508F509F50AF50A
:1000DE000BF50CF540F54174402541F58274013560
:1000EE0040F583E4F00541E541700205406480452A
:1000FE004070E4E4F540F54174002541F58274004A
:10010E003540F583E4F00541E54170020540648019
:10011E00454070E4AB3DAA3EA93F120E04FFE598A0
:10012E00543F4FF598EF64C06008EF6440600302DF
:10013E0001F1900002120FB17F807E8D7D5B7C00FD
:10014E00120EFB8F458E448D438C42E4FFFE7D01E3
:10015E00FCAB45AA44A943A842C3120F8D40037FAE
:10016E00FF22C3E49545F545E49544F544740195A5
:10017E0043F543E49542F542AB3DAA3EA93F9000BC
:10018E0001120E1DFB6401702CC28E538EFE53891C
:10019E00BF5389CF438E40AF45AE44AD43AC42789A
:1001AE0008120F9E8F8D85458BC2AB5389BF538F1F
:1001BE00FDD28E8062EB64027026538EEF438E0169
:1001CE00538EF7438E04AF45AE44AD43AC42780830
:1001DE00120F9E8FD68545D753AFFB438E108037B7
:1001EE007FFF22AB3DAA3EA93F120E04FF70139073
:1001FE000008120E1DB40105438E20801A538EDFA7
:10020E008015EFB48011900008120E1DB401054345
:10021E008780800353877FAB3DAA3EA93F9000079E
:10022E00120E1D7004C29C8002D29C7F0022E53CFF
:10023E0064026003020335F50DF50EF50FF510F5AA
:10024E0011F540F54174E02541F58274013540F514
:10025E0083E4F00541E5417002054064804540703D
:10026E00E4E4F540F54174802541F5827400354093
:10027E00F583E4F00541E541700205406480454098
:10028E0070E4AB3DAA3EA93F120E04FF64C06005A8
:10029E00EF64407075EFB4C005439A808003539AA3
:1002AE007F900002120FB17F807E8D7D5B7C0012ED
:1002BE000EFB8F458E448D438C42E4FFFE7D01FC88
:1002CE00AB45AA44A943A842C3120F8D40037FFF3A
:1002DE0022C3E49545F545E49544F54474019543F0
:1002EE00F543E49542F542538EEF538EF7438E0459
:1002FE00AF45AE44AD43AC427808120F9E8FD68503
:10030E0045D753AFFB438E1080037FFF22AB3DAA30
:10031E003EA93F900007120E1DC454F0FFE59A54FB
:10032E00EF4FF59A7F0022E53C64036003020469F7
:10033E00F512F513F514F515F516F540F541746043
:10034E002541F58274023540F583E4F00541E5411F
:10035E00700205406440454070E4E4F540F5417498
:10036E00002541F58274013540F583E4F00541E541
:10037E0041700205406440454070E4AB3DAA3EA981
:10038E003F120E04FF64C06008EF64406003020475
:10039E004CEFB4C00543AC80800353AC7F90000299
:1003AE00120FB17F807E8D7D5B7C00120EFB8F4520
:1003BE008E448D438C42E4FFFE7D01FCAB45AA4486
:1003CE00A943A842C3120F8D40037FFF22C3E495B9
:1003DE0045F545E49544F54474019543F543E4959C
:1003EE0042F542AB3DAA3EA93F900001120E1DFB05
:1003FE00B4031D43AC40AF45AE44AD43AC427808A8
:10040E00120F9E8FD48545D553D1F043D10A80313A
:10041E00EB64027026538EEF53ACBF538EF7438EB0
:10042E0004AF45AE44AD43AC427808120F9E8FD652
:10043E008545D753AFFB438E1080067FFF227FFF8B
:10044E0022AB3DAA3EA93F900007120E1DC454F0E8
:10045E00FFE5AC54EF4FF5AC7F0022E53C64046041
:10046E000302059DF517F518F519F51AF51BF5405C
:10047E00F54174A02541F58274023540F583E4F010
:10048E000541E541700205406420454070E4E4F505
:10049E0040F54174C02541F58274013540F583E481
:1004AE00F00541E541700205406420454070E4AB23
:1004BE003DAA3EA93F120E04FF64C06008EF6440DF
:1004CE006003020580EFB4C005438480800353842B
:1004DE007F900002120FB17F807E8D7D5B7C0012BB
:1004EE000EFB8F458E448D438C42E4FFFE7D01FC56
:1004FE00AB45AA44A943A842C3120F8D40037FFF08
:10050E0022C3E49545F545E49544F54474019543BD
:10051E00F543E49542F542AB3DAA3EA93F9000015A
:10052E00120E1DFBB4041D438440AF45AE44AD43D3
:10053E00AC427808120F9E8FD28545D353D10F430C
:10054E00D1A08031EB64027026538EEF5384BF53DB
:10055E008EF7438E04AF45AE44AD43AC42780812DD
:10056E000F9E8FD68545D753AFFB438E1080067FE7
:10057E00FF227FFF22AB3DAA3EA93F900007120E3D
:10058E001DC454F0FFE58454EF4FF5847F00227FA5
:01059E00FF5D
:01059F002239
:0A22E8008F99750A01E50A70FC22C7
:10002E00120E04FF600C1222E8740129F9E43AFA68
:03003E0080EE222F
:0A22F2008F9B750F01E50F70FC22B1
:10223300120E04FF600C1222F2740129F9E43AFA37
:0322430080EE2208
:0A22FC008FAD751401E51470FC228B
:10224600120E04FF600C1222FC740129F9E43AFA1A
:0322560080EE22F5
:0A2306008F85751901E51970FC229E
:10225900120E04FF600C122306740129F9E43AFAFC
:0322690080EE22E2
:05001E00AE070222E81C
:03002300021BEBD2
:101BEB00C0E0C083C082C0D075D000C00730982041
:101BFB00C298E50BC394804003750B00AF0B050B2C
:101C0B0074002FF582E43400F583E599F0750C052B
:101C1B00309905C299750A00D007D0D0D082D083F5
:031C2B00D0E032D4
:030043000219F8A7
:1019F800C0E0C083C082C0D075D000C007E59A306F
:101A0800E021539AFEE510C394804003751000AF9F
:101A180010051074802FF582E43400F583E59BF0FF
:101A2800751105E59A30E106539AFD750F00D00748
:091A3800D0D0D082D083D0E0327E
:03008B00021A4115
:101A4100C0E0C083C082C0D075D000C007E5AC3013
:101A5100E02153ACFEE515C394404003751500AF7A
:101A610015051574002FF582E43401F583E5ADF019
:101A7100751605E5AC30E10653ACFD751400D007D1
:091A8100D0D0D082D083D0E03235
:03009300021A8AC4
:101A8A00C0E0C083C082C0D075D000C007E58430F2
:101A9A00E0215384FEE51AC394204003751A00AF6F
:101AAA001A051A74C02FF582E43401F583E585F02E
:101ABA00751B05E58430E1065384FD751900D007CE
:091ACA00D0D0D082D083D0E032EC
:030000000222D108
:0C22D100787FE4F6D8FD758148021655B0
:100D0E00E709F608DFFA8046E709F208DFFA803EC7
:100D1E0088828C83E709F0A3DFFA8032E309F608B4
:100D2E00DFFA8078E309F208DFFA807088828C831C
:100D3E00E309F0A3DFFA806489828A83E0A3F608D0
:100D4E00DFFA805889828A83E0A3F208DFFA804CAA
:100D5E0080D280FA80C680D4806980F28033801081
:100D6E0080A680EA809A80A880DA80E280CA8033EA
:100D7E0089828A83ECFAE493A3C8C582C8CCC58362
:100D8E00CCF0A3C8C582C8CCC583CCDFE9DEE78032
:100D9E000D89828A83E493A3F608DFF9ECFAA9F0B1
:100DAE00EDFB2289828A83ECFAE0A3C8C582C8CC07
:100DBE00C583CCF0A3C8C582C8CCC583CCDFEADE20
:100DCE00E880DB89828A83E493A3F208DFF980CC82
:100DDE0088F0EF60010E4E60C388F0ED2402B4047B
:100DEE000050B9F582EB2402B4040050AF23234522
:060DFE008223900D5E73DC
:100E0400BB010689828A83E0225002E722BBFE02EC
:090E1400E32289828A83E493221F
:100E1D00BB010CE58229F582E5833AF583E022508A
:100E2D0006E92582F8E622BBFE06E92582F8E222D4
:0D0E3D00E58229F582E5833AF583E49322EE
:100E4A00BB010689828A83F0225002F722BBFE0187
:020E5A00F32281
:100E5C00BB010A89828A83E0F5F0A3E02250068761
:100E6C00F009E71922BBFE07E3F5F009E319228923
:0B0E7C00828A83E493F5F07401932256
:100E8700BB0110E58229F582E5833AF583E0F5F0A9
:100E9700A3E0225009E92582F886F008E622BBFE86
:100EA7000AE92582F8E2F5F008E222E5832AF583CC
:080EB700E993F5F0A3E9932291
:100EBF0075F008758200EF2FFFEE33FECD33CDCCEA
:100ECF0033CCC58233C5829BED9AEC99E58298406D
:100EDF000CF582EE9BFEED9AFDEC99FC0FD5F0D64A
:100EEF00E4CEFBE4CDFAE4CCF9A88222B800C1B974
:100EFF000059BA002DEC8BF084CFCECDFCE5F0CBB2
:100F0F00F97818EF2FFFEE33FEED33FDEC33FCEBEA
:100F1F0033FB10D703994004EB99FB0FD8E5E4F9A5
:100F2F00FA227818EF2FFFEE33FEED33FDEC33FC92
:100F3F00C933C910D7059BE99A4007EC9BFCE99A86
:100F4F00F90FD8E0E4C9FAE4CCFB2275F010EF2FCB
:100F5F00FFEE33FEED33FDCC33CCC833C810D707CB
:100F6F009BEC9AE899400AED9BFDEC9AFCE899F806
:0E0F7F000FD5F0DAE4CDFBE4CCFAE4C8F92299
:100F8D00EB9FF5F0EA9E42F0E99D42F0E89C45F0BA
:010F9D002231
:100F9E00E8600FECC313FCED13FDEE13FEEF13FF31
:030FAE00D8F12255
:100FB100BB010DE58229F582E5833AF583020FEE47
:100FC1005007E92582F8020FE1BBFE07E92582F807
:100FD100020FFAE58229F582E5833AF583021007CB
:1009B200E5422436F8E605422278333007027836DB
:1009C200E475F001121017020E042000EB7F2ED204
:1009D200008018EF540F2490D43440D4FF30040B1D
:1009E200EF24BFB41A0050032461FFE543600215EF
:1009F200430546E5467002054530070D7833E47538
:100A0200F001121017EF020E4A02001E7403D20701
:100A12008003E4C207F5428B338A348935E4F54317
:100A2200F545F546E54360077F201209ED80F5752F
:100A320044FFC201C200C202C203C205C206C2080A
:100A42001209BBFF700D3007057F001209FEAF4689
:100A5200AE4522B4255FC2D5C2041209BBFF24D021
:100A6200B40A00501A75F00A784330D50508B6FF6B
:100A72000106C6A426F620D5047002D20380D9242A
:100A8200CFB41A00EF5004C2E5D204020BFED20129
:100A920080C6D20080C0D20280BCD2D580BAD20534
:100AA20080B47F201209ED2002077401B543004093
:100AB200F11209B2FF1209ED020A26D208D206800B
:100AC200951209B2FB1209B2FA1209B2F94A4B7035
:100AD2000679CF7A0C7BFF20022EE543602A7E0046
:100AE2008E82758300120E1D60060EEE654470F054
:100AF200C2D5EBC0E0EAC0E0E9C0E0EE120C45D09E
:100B0200E0F9D0E0FAD0E0FB120E04FF60AAEBC0DD
:100B1200E0EAC0E0E9C0E01209EDD0E02401F9D03A
:100B2200E03400FAD0E0FBE5440460DCD544D9802F
:100B3200877BFF7A0C7941D202809C7910800279FE
:100B420008C206C2088008D2D5790A8004790AC28E
:100B5200D5E544047002F544E4FAFDFEFF1209B241
:100B6200FC7B082001131209B2FD7B1030000A122F
:100B720009B2FE1209B2FF7B20EC3382D592D55026
:100B820013C3E43000069FFFE49EFEE42001039DB0
:100B9200FDE49CFCE4CBF8C201EC700CCFCECDCCD2
:100BA200E824F8F870F38017C3EF33FFEE33FEED5D
:100BB20033FDEC33FCEB33FB994002FB0FD8E9EB3E
:100BC200300105F8D0E0C448B201C0E00AEC4D4E55
:100BD2004F78207B0070C2EAB5440040BCC0E012EE
:100BE2000C47D0F0D0E0200104C4C0E0C4B201C080
:100BF200F01209D6D0F0D5F0EB020A261210270A1D
:100C0200C3530B3D580A944C0A90420B414F0B4977
:0F0C1200440B49490AA9430B4F550B33460B338B
:100C2100450B33470CEF500A982D0A9C2E0ABF2B17
:100C31000AA0230ABD200CD82A0A584800000AB786
:100C41003F3F3F00790AA2D5200314300509B910AE
:100C5100020404B9080104A2D520060250010420AF
:100C610002689202B543005034C0E07F203003197E
:100C71007F30A20272067205500F120C9EC202C290
:100C810006C205C2087F30800F300503E9C0E012BB
:100C910009ED300503D0E0F9D0E0B543CC300517BC
:100CA1007F30B9100C1209ED7F583004077F78802E
:100CB10003B908031209ED3002057F2D0209ED7F0A
:100CC100202008F87F2B2006F322920280CF286E85
:100CD100756C6C2900D2011209B23001F8C2017899
:100CE1004330D50108F6020A582D504349581209DC
:100CF100B22403B405004001E4900CEA931209DE2A
:0D0D0100743A1209DED203754304020B3D63
:0D0FE100E6FB08E6F908E6FA08E6CBF82280
:0C0FEE00E0F8A3E0F9A3E0FAA3E0FB2286
:0D0FFA00E2FB08E2F908E2FA08E2CBF82277
:10100700E493F8740193F9740293FA740393FB223F
:10101700FAE6FB0808E6F925F0F618E6CA3AF622DA
:10102700D083D082F8E4937012740193700DA3A358
:1010370093F8740193F5828883E47374029368606C
:06104700EFA3A3A380DF6C
:00000001FF
