:1016D60041444331333A2025642C207273745F569B
:1016E6003A20252E32660A0041444331353A2025F8
:1016F600642C207273745F563A20252E32660A00D7
:1017060056726566CDE2BDD3B5E7D1B93A20252E2E
:06171600326620560A00B5
:0D1D6D004393205394DF53B1FC53B2FC228A
:101C8D00752C1FE4F52F753001752D0F752E01FB89
:101C9D007A00792C1215177F01121D86E4FDFF02C3
:021CAD0018DB42
:101C1600752C40752D017531007530C2752F017513
:101C26002E007533017B007A00792C7F0112075252
:0A1C36007D017F0112191953A23F2E
:011C40002281
:1012EF00E4F525F524F523F522F529F528F527F55D
:1012FF002643BA80121D6D121C16121C8DD2AF7FA1
:10130F000D1214518E2A8F2BAC2AAD2BE4120241F1
:10131F00E4FBFA79207840120096E4FBFA798078A2
:10132F004512019F8F258E248D238C227BFF7A16E9
:10133F0079D6852A2F852B308F348E338D328C3191
:10134F00120C8E7F0F1214518E2A8F2BAC2AAD2BBD
:10135F00E4120241E4FBFA79207840120096E4FB94
:10136F00FA7980784512019F8F258E248D238C2248
:10137F007BFF7A1679EE852A2F852B308F348E33AB
:10138F008D328C31120C8EAC2AAD2BE4120241A897
:10139F0004A905AA06AB077F3D7E0A7D977C4512FF
:1013AF00019F8F298E288D278C267BFF7A17790630
:1013BF008F328E318D308C2F120C8E7FFA121D5D75
:0813CF007FFA121D5D02130EEE
:10151700900001120577FFE5DE54F04FF5DE9000ED
:1015270002120577C43354E0FFE5DE54DF4FF5DEE2
:1015370012055EFFD3941F502B900003120577FE10
:10154700D39401501F900004120577FDD3940350E4
:1015570013EDC43354E0FDEEC433333354804D4FA1
:0515670090FEA8F02237
:0B1D8600BF010443BC802253BC7F223D
:10145100EFD3940F40028060E4F5BDF5BEE5BC54C6
:10146100F044404FF5BC0000000000000000000007
:10147100E4FDE5BC30E53D53BCDFE5DEAFBD30E565
:101481000EEFFEACBEECFBEEF52CEBF52D802075DE
:101491002C008F2DE5BEC4540FFBE52DC4F8540F6D
:1014A100C868FFE52CC454F048F52CEF4BF52DAE80
:0C14B1002CAF2D220DBDFABA7E107F007A
:0114BD00220C
:03002B00020026AA
:0400260053BCDF32B6
:0F1D5D007D607C09ED1D70011C144C70F7DFF1E7
:011D6C002254
:10109B00EFD3940740037FFF2212055EFED3940328
:1010AB0040037FFF22EF7041EE700B9000011205A1
:1010BB0077F45293529412055EB4010B9000011217
:1010CB0005774293F4529412055EFEB4020A900027
:1010DB000112057742934294EEB4030D9000011276
:1010EB000577FEF45293EE4294EF640170431205C0
:1010FB005EFE700B900001120577F452915292EE46
:10110B00B4010B9000011205774291F45292120533
:10111B005EB4020A900001120577429142921205C9
:10112B005EB4030D900001120577FEF45291EE426E
:10113B0092EF6402704312055EFE700B9000011279
:10114B000577F452955296EEB4010B9000011205FF
:10115B00774295F4529612055EB4020A9000011282
:10116B0005774295429612055EB4030D900001126D
:10117B000577FEF45295EE4296EF64037043120529
:10118B005EFE700B900001120577F452B152B2EE75
:10119B00B4010B90000112057742B1F452B2120563
:1011AB005EB4020A90000112057742B142B21205F9
:1011BB005EB4030D900001120577FEF452B1EE42BE
:1011CB00B2EF6404704312055EFE700B90000112C7
:1011DB000577F452B352B4EEB4010B900001120533
:1011EB007742B3F452B412055EB4020A90000112B6
:1011FB00057742B342B412055EB4030D90000112A1
:10120B000577FEF452B3EE42B4EF6405704312055A
:10121B005EFE700B900001120577F452C952CAEEB4
:10122B00B4010B90000112057742C9F452CA1205A2
:10123B005EB4020A90000112057742C942CA120538
:10124B005EB4030D900001120577FEF452C9EE4215
:10125B00CAEF6406704312055EFE700B900001121C
:10126B000577F452CB52CCEEB4010B900001120572
:10127B007742CBF452CC12055EB4020A90000112F5
:10128B00057742CB42CC12055EB4030D90000112E0
:10129B000577FEF452CBEE42CCEF64077043120598
:1012AB005EFF700B900001120577F452E152E2EFF2
:1012BB00B4010B90000112057742E1F452E21205E2
:1012CB005EB4020A90000112057742E142E2120578
:1012DB005EB4030D900001120577FFF452E1EF426B
:0412EB00E27F00227C
:1017E300EFD3940140037FFF22EDD3940340037FA3
:1017F300FF22EF7004C2A98002D2A9ED700553B78E
:10180300FDC2B9BD010553B7FDD2B9BD020543B74A
:0E18130002C2B9BD030543B702D2B97F00225D
:10182100EFD3940140037FFF22EDD3940340037F64
:10183100FF22EF7004C2AB8002D2ABED700553B74B
:10184100F7C2BBBD010553B7F7D2BBBD020543B714
:0E18510008C2BBBD030543B708D2BB7F00220F
:101CAF00EFD3940140037FFF22EDD3940340037FD2
:101CBF00FF22EF25E025E0FFE5AF54FB4FF5AFE442
:021CCF00FF22F2
:101CD100EFD3940140037FFF22EDD3940340037FB0
:101CE100FF22EFC43354E0FFE5AF54DF4FF5AFE41B
:021CF100FF22D0
:101C6A00EFD3940140037FFF22EDD3940340037F17
:101C7A00FF22EFC4333354C0FFE5AF54BF4FF5AF73
:031C8A00E4FF2252
:10185F00EFD3940140037FFF22EDD3940340037F26
:10186F00FF22EF7004C2A88002D2A8ED700553B713
:10187F00FEC2B8BD010553B7FED2B8BD020543B7CE
:0E188F0001C2B8BD030543B701D2B87F0022E5
:10189D00EFD3940140037FFF22EDD3940340037FE8
:1018AD00FF22EF7004C2AA8002D2AAED700553B7D1
:1018BD00FBC2BABD010553B7FBD2BABD020543B792
:0E18CD0004C2BABD030543B704D2BA7F00229D
:101D0C00EFD3940140037FFF22EFC454F0FFE58F23
:081D1C0054EF4FF58FE4FF22A4
:101CF300EFD3940140037FFF22EFC43354E0FFE5A9
:091D03008F54DF4FF58FE4FF223D
:10000300EFD3940140037FFF22EFC4333354C0FF87
:0A001300E58F54BF4FF58FE4FF2284
:1018DB00EFD3940140037FFF22EDD3940340037FAA
:1018EB00FF22EF7004C2AD8002D2ADED700553B78D
:1018FB00DFC2BDBD010553B7DFD2BDBD020543B786
:0E190B0020C2BDBD030543B720D2BD7F002220
:10164700EDD3940340037FFF22EF30E10543E6200B
:10165700800353E6DFEF30E00543E610800353E6EF
:10166700EFED700653B6DF53B5DFBD010653B6DFA6
:1016770043B520BD020643B62053B5DFBD0306437D
:08168700B62043B5207F0022CC
:1014BE00EFD3940140037FFF22EBD3940340037FCD
:1014CE00FF22BF0112ED90FE817006E0547FF08086
:1014DE0011E04480F0800BEF700890FE83E054879B
:1014EE004DF0EB700653B6DF53B5DFBB010653B6B6
:1014FE00DF43B520BB020643B62053B5DFBB030660
:09150E0043B62043B5207F002202
:10191900EFD3940140037FFF22EDD3940340037F6B
:10192900FF22EF7004C2AC8002D2ACED700553B750
:10193900EFC2BCBD010553B7EFD2BCBD020543B729
:0E19490010C2BCBD030543B710D2BC7F002204
:1017A300EFD3940140037FFF22EDD3940340037FE3
:1017B300FF22E5AF54FE4FF5AFED700653B6FE536F
:1017C300B5FEBD010653B6FE43B501BD020643B6E1
:1017D3000153B5FEBD030643B60143B5017F0022A5
:10168F00EFD3940140037FFF22EDD3940340037FF8
:10169F00FF22EF33333354F8FFE5AF54F74FF5AF75
:1016AF00ED700653EEFE53DFFEBD010653EEFE4313
:1016BF00DF01BD020643EE0153DFFEBD030643EE1D
:0716CF000143DF017F00224F
:10004600EFD3940140037FFF22EDD3940340037F57
:10005600FF22EFC454F0FFE5AF54EF4FF5AFED705C
:100066000653EEFD53DFFDBD010653EEFD43DF02F1
:10007600BD020643EE0253DFFDBD030643EE024317
:05008600DF027F0022F3
:10171C00EFD3940140037FFF22EDD3940340037F6A
:10172C00FF22EF25E0FFE5AF54FD4FF5AFED70065E
:10173C0053B6FD53B5FDBD010653B6FD43B502BD11
:10174C00020643B60253B5FDBD030643B60243B5CC
:04175C00027F0022E6
:1013D700EFD3948140037FFF22EBD3940340037F35
:1013E700FF22EF247F603004705890FEC4EDF0EBCD
:1013F700700653B6FB53B5FBBB010653B6FB43B5AB
:1014070004BB020643B60453B5FBEB6403703843D1
:10141700B60443B504803090FEE4EDF0EB7006535C
:10142700B6F753B5F7BB010653B6F743B508BB028A
:101437000643B60853B5F7BB030D43B60843B508D3
:0A144700800590FEE4EDF07F002226
:10195700EDD394035026ED700653EEFB53DFFBBD2A
:10196700010653EEFB43DF04BD020643EE0453DFDB
:10197700FBBD030B43EE0443DF0480037FFF22908C
:07198700FE62EFF07F002279
:10198E0090FA10E054F0F0EDD39403500BE0FEED1E
:10199E0025E025E0FDEE4DF0EBD39403500690FAD2
:1019AE0010E04BF090FA10E0BF01054480F0800388
:0619BE00547FF07F0022BF
:1019C40090FA00E054F0F0EDD39403500BE0FEEDF8
:1019D40025E025E0FDEE4DF0EBD39403500690FA9C
:1019E40000E04BF090FA00E0BF01054480F0800372
:0619F400547FF07F002289
:1019FA0090FA20E054F0F0EDD39403500BE0FEEDA2
:101A0A0025E025E0FDEE4DF0EBD39403500690FA65
:101A1A0020E04BF090FA20E0BF01054480F08003FB
:061A2A00547FF07F002252
:101A300090FA30E054F0F0EDD39403500BE0FEED5B
:101A400025E025E0FDEE4DF0EBD39403500690FA2F
:101A500030E04BF090FA30E0BF01054480F08003A5
:061A6000547FF07F00221C
:101A660090FA38E054F0F0EDD39403500BE0FEED1D
:101A760025E025E0FDEE4DF0EBD39403500690FAF9
:101A860038E04BF090FA38E0BF01054480F080035F
:061A9600547FF07F0022E6
:101A9C0090FA40E054F0F0EDD39403500BE0FEEDDF
:101AAC0025E025E0FDEE4DF0EBD39403500690FAC3
:101ABC0040E04BF090FA40E0BF01054480F0800319
:061ACC00547FF07F0022B0
:101AD20090FA48E054F0F0EDD39403500BE0FEEDA1
:101AE20025E025E0FDEE4DF0EBD39403500690FA8D
:101AF20048E04BF090FA48E0BF01054480F08003D3
:061B0200547FF07F002279
:101B080090FA50E054F0F0EDD39403500BE0FEED62
:101B180025E025E0FDEE4DF0EBD39403500690FA56
:101B280050E04BF090FA50E0BF01054480F080038C
:061B3800547FF07F002243
:101B3E0090FA58E054F0F0EDD39403500BE0FEED24
:101B4E0025E025E0FDEE4DF0EBD39403500690FA20
:101B5E0058E04BF090FA58E0BF01054480F0800346
:061B6E00547FF07F00220D
:101B740090FA60E054F0F0EDD39403500BE0FEEDE6
:101B840025E025E0FDEE4DF0EBD39403500690FAEA
:101B940060E04BF090FA60E0BF01054480F0800300
:061BA400547FF07F0022D7
:101BAA0090FA68E054F0F0EDD39403500BE0FEEDA8
:101BBA0025E025E0FDEE4DF0EBD39403500690FAB4
:101BCA0068E04BF090FA68E0BF01054480F08003BA
:061BDA00547FF07F0022A1
:101BE00090FA70E054F0F0EDD39403500BE0FEED6A
:101BF00025E025E0FDEE4DF0EBD39403500690FA7E
:101C000070E04BF090FA70E0BF01054480F0800373
:061C1000547FF07F00226A
:101C410090FE50E054CFF0EDD39403500AE0FEED46
:101C5100C454F0FDEE4DF090FE50E0BF010544800C
:091C6100F08003547FF07F0022A3
:080752008F358B368A37893898
:10075A00E535640160030208C8F508F509F50AF5EC
:10076A000BF50CF539F53A7440253AF582740135E2
:10077A0039F583E4F0053AE53A70020539648045B3
:10078A003970E4E4F539F53A7400253AF5827400D3
:10079A003539F583E4F0053AE53A700205396480A3
:1007AA00453970E4AB36AA37A93812055EFFE598D9
:1007BA00543F4FF598EF64C06008EF64406003024D
:1007CA00087D9000021206B67F807E8D7D5B7C00DC
:1007DA001205F28F3E8E3D8D3C8C3BE4FFFE7D017F
:1007EA00FCAB3EAA3DA93CA83BC312069240037F3C
:1007FA00FF22C3E4953EF53EE4953DF53D7401952F
:10080A003CF53CE4953BF53BAB36AA37A93890005A
:10081A0001120577FB6401702CC28E538EFE538938
:10082A00BF5389CF438E40AF3EAE3DAD3CAC3B7823
:10083A00081206A38F8D853E8BC2AB5389BF538F97
:10084A00FDD28E8062EB64027026538EEF438E01D6
:10085A00538EF7438E04AF3EAE3DAD3CAC3B7808B9
:10086A001206A38FD6853ED753AFFB438E1080372F
:10087A007FFF22AB36AA37A93812055EFF701390A4
:10088A000008120577B40105438E20801A538EDFC3
:10089A008015EFB48011900008120577B401054362
:1008AA008780800353877FAB36AA37A93890000721
:1008BA001205777004C29C8002D29C7F0022E53523
:1008CA00640260030209C1F50DF50EF50FF510F586
:1008DA0011F539F53A74E0253AF58274013539F59E
:1008EA0083E4F0053AE53A700205396480453970C7
:1008FA00E4E4F539F53A7480253AF582740035391D
:10090A00F583E4F0053AE53A700205396480453921
:10091A0070E4AB36AA37A93812055EFF64C06005D9
:10092A00EF64407075EFB4C005439A808003539A10
:10093A007F9000021206B67F807E8D7D5B7C00125E
:10094A0005F28F3E8E3D8D3C8C3BE4FFFE7D01FC23
:10095A00AB3EAA3DA93CA83BC312069240037FFFC7
:10096A0022C3E4953EF53EE4953DF53D7401953C80
:10097A00F53CE4953BF53B538EEF538EF7438E04DB
:10098A00AF3EAE3DAD3CAC3B78081206A38FD68590
:10099A003ED753AFFB438E1080037FFF22AB36AAAC
:1009AA0037A938900007120577C454F0FFE59A5426
:1009BA00EF4FF59A7F0022E53564036003020AF5DA
:1009CA00F512F513F514F515F516F539F53A7460BF
:1009DA00253AF58274023539F583E4F0053AE53AA9
:1009EA00700205396440453970E4E4F539F53A7422
:1009FA0000253AF58274013539F583E4F0053AE5C4
:100A0A003A700205396440453970E4AB36AA37A911
:100A1A003812055EFF64C06008EF64406003020A92
:100A2A00D8EFB4C00543AC80800353AC7F9000027A
:100A3A001206B67F807E8D7D5B7C001205F28F3EAA
:100A4A008E3D8D3C8C3BE4FFFE7D01FCAB3EAA3D16
:100A5A00A93CA83BC312069240037FFF22C3E49538
:100A6A003EF53EE4953DF53D7401953CF53CE49533
:100A7A003BF53BAB36AA37A938900001120577FB44
:100A8A00B4031D43AC40AF3EAE3DAD3CAC3B780831
:100A9A001206A38FD4853ED553D1F043D10A8031B3
:100AAA00EB64027026538EEF53ACBF538EF7438E1E
:100ABA0004AF3EAE3DAD3CAC3B78081206A38FD6E0
:100ACA00853ED753AFFB438E1080067FFF227FFF00
:100ADA0022AB36AA37A938900007120577C454F01A
:100AEA00FFE5AC54EF4FF5AC7F0022E535640460B6
:100AFA0003020C29F517F518F519F51AF51BF5393E
:100B0A00F53A74A0253AF58274023539F583E4F092
:100B1A00053AE53A700205396420453970E4E4F58E
:100B2A0039F53A74C0253AF58274013539F583E40A
:100B3A00F0053AE53A700205396420453970E4ABAC
:100B4A0036AA37A93812055EFF64C06008EF644010
:100B5A006003020C0CEFB4C0054384808003538405
:100B6A007F9000021206B67F807E8D7D5B7C00122C
:100B7A0005F28F3E8E3D8D3C8C3BE4FFFE7D01FCF1
:100B8A00AB3EAA3DA93CA83BC312069240037FFF95
:100B9A0022C3E4953EF53EE4953DF53D7401953C4E
:100BAA00F53CE4953BF53BAB36AA37A938900001F2
:100BBA00120577FBB4041D438440AF3EAE3DAD3C05
:100BCA00AC3B78081206A38FD2853ED353D10F438C
:100BDA00D1A08031EB64027026538EEF5384BF5349
:100BEA008EF7438E04AF3EAE3DAD3CAC3B78081267
:100BFA0006A38FD6853ED753AFFB438E1080067F60
:100C0A00FF227FFF22AB36AA37A9389000071205C8
:100C1A0077C454F0FFE58454EF4FF5847F00227FB8
:010C2A00FFCA
:010C2B0022A6
:0A1D91008F99750A01E50A70FC2223
:10002E0012055EFF600C121D91740129F9E43AFA73
:03003E0080EE222F
:0A1D9B008F9B750F01E50F70FC220D
:101D240012055EFF600C121D9B740129F9E43AFA56
:031D340080EE221C
:0A1DA5008FAD751401E51470FC22E7
:101D370012055EFF600C121DA5740129F9E43AFA39
:031D470080EE2209
:0A1DAF008F85751901E51970FC22FB
:101D4A0012055EFF600C121DAF740129F9E43AFA1C
:031D5A0080EE22F6
:05001D00AE07021D9179
:0300230002176061
:10176000C0E0C083C082C0D075D000C007309820D0
:10177000C298E50BC394804003750B00AF0B050BBB
:1017800074002FF582E43400F583E599F0750C05BB
:10179000309905C299750A00D007D0D0D082D08385
:0317A000D0E03264
:0300430002156C37
:10156C00C0E0C083C082C0D075D000C007E59A30FF
:10157C00E021539AFEE510C394804003751000AF30
:10158C0010051074802FF582E43400F583E59BF090
:10159C00751105E59A30E106539AFD750F00D007D9
:0915AC00D0D0D082D083D0E0320F
:03008B000215B5A6
:1015B500C0E0C083C082C0D075D000C007E5AC30A4
:1015C500E02153ACFEE515C394404003751500AF0B
:1015D50015051574002FF582E43401F583E5ADF0AA
:1015E500751605E5AC30E10653ACFD751400D00762
:0915F500D0D0D082D083D0E032C6
:030093000215FE55
:1015FE00C0E0C083C082C0D075D000C007E5843083
:10160E00E0215384FEE51AC394204003751A00AFFF
:10161E001A051A74C02FF582E43401F583E585F0BE
:10162E00751B05E58430E1065384FD751900D0075E
:09163E00D0D0D082D083D0E0327C
:10009600EC4D6011E8497017ED33EC3304600DE464
:1000A600FCFFFEFD22E933E8330470F80202AF12CA
:1000B600027A58046009E4CC2481500628500902CB
:1000C60002B92840030202B6C0E0EB4A7044B98088
:1000D60006D0E0FB0202A5EF4E701CBD8008EBFFC8
:1000E600EAFEE9FD80EBE98DF0A4FEE5F002017F72
:1000F600E9CDF9EAFEEBFFEF89F0A4FCE5F0CE8945
:10010600F0A42EFFE435F0CD89F0A42DFEE435F001
:100116008067EF4E7005BD80D780C3EF8BF0A4AC2F
:10012600F0EE8BF0A42CFCE435F0F8EF8AF0A42C6A
:10013600E5F038FCE433CB8DF0A42CFCE5F03BF87D
:10014600EE8AF0A42CFCE5F038F8E433CF89F0A46D
:100156002CFCE5F038CF3400CE89F0A42FFFE5F073
:100166003EFEE433C98DF0A42EFEE5F039CD8AF0CB
:10017600A42FFFE5F03EFEE43DFD33D0E0FB500743
:100186000BBB000F0202B9EC2CFCEF33FFEE33FE83
:06019600ED33FD020291B1
:10019C000202B9EC5D046005E8590470030202AF79
:1001AC0012027A580460F6EC4860F2EC7004FDFE22
:1001BC00FF22C860DB2481C85009C3986002500636
:1001CC000202B69850CAF582E9294B4A7005AB82F7
:1001DC000202A575F0007C1A7880C3EF9BEE9AEDB5
:1001EC0099400DC3EF9BFFEE9AFEED99FDE842F0AE
:1001FC00DC23ACF0D0E0FFD0E0FED0E0FDAB822001
:10020C00E7101BEB60BAEC2CFCEF33FFEE33FEED8A
:10021C0033FD020291E803F830E705C0F075F000F9
:10022C00EF2FFFEE33FEED33FD40B830E7C280AA6E
:10023C0075F020800E75F010800575F0087D007E3D
:10024C00007F003392D530D503120684EC33401076
:10025C00EF33FFEE33FEED33FDEC33FCD5F0ED2246
:0E026C00E5F0247EA2D513CC92E7CDCEFF2282
:100C2C00E543242FF8E6054322782C300702782F71
:100C3C00E475F0011206E602055E2000EB7F2ED271
:100C4C00008018EF540F2490D43440D4FF30040BA0
:100C5C00EF24BFB41A0050032461FFE54460021571
:100C6C00440547E5477002054630070D782CE475BE
:100C7C00F0011206E6EF0205A402001D7403D20770
:100C8C008003E4C207F5438B2C8A2D892EE4F544AE
:100C9C00F546F547E54460077F20120C6780F57533
:100CAC0045FFC201C200C202C203C205C206C2088D
:100CBC00120C35FF700D3007057F00120C78AF4712
:100CCC00AE4622B4255FC2D5C204120C35FF24D027
:100CDC00B40A00501A75F00A784430D50508B6FFEE
:100CEC000106C6A426F620D5047002D20380D924AE
:100CFC00CFB41A00EF5004C2E5D204020F65D20142
:100D0C0080C6D20080C0D20280BCD2D580BAD205B7
:100D1C0080B47F20120C672002077401B544004098
:100D2C00F1120C2CFF120C67020CA0D208D2068018
:100D3C0095120C2CFB120C2CFA120C2CF94A4B7041
:100D4C0006795C7A107BFF20022EE544602A7E0037
:100D5C008E8275830012057760060EEE654570F085
:100D6C00C2D5EBC0E0EAC0E0E9C0E0EE120FC5D09E
:100D7C00E0F9D0E0FAD0E0FB12055EFF60AAEBC010
:100D8C00E0EAC0E0E9C0E0120C67D0E02401F9D041
:100D9C00E03400FAD0E0FBE5450460DCD545D980B1
:100DAC0087D20280A2120FA860F7E54570010412E9
:100DBC0002C4A945600DE545600914F54512104FB4
:100DCC00EF60F3EA30E702F404C3995077EAF425B4
:100DDC00450430E701E404F545800D120FA860C10D
:100DEC00EA054525451202C4EA7842F630E701E4EB
:100DFC00254504D5450420050114120FC5E4C0E0B7
:100E0C0012104F7842E6601320E70714F6120C4FCD
:100E1C00802204F6D0E014C0E07F00120C4FE545B0
:100E2C006007120C461545800B300503120C46D09A
:100E3C00E0020CA0D0E00480C5120FA860A0E5452C
:100E4C00041202C47842EAF6E5452005026001046A
:050E5C002404120FC583
:100E610074FF04C0E012104F120C4FE5452005023B
:100E71006003120C46D0E0B545E87F45120C597865
:100E810042E67F2B30E7047F2DF404C0E0120C67AB
:100E9100D0E075F00A84C0F0120C50D0E0120C5072
:100EA100020CA0791080027908C206C2088008D21B
:100EB100D5790A8004790AC2D5E545047002F54561
:100EC100E4FAFDFEFF120C2CFC7B08200113120C2E
:100ED1002CFD7B1030000A120C2CFE120C2CFF7B17
:100EE10020EC3382D592D55013C3E43000069FFF26
:100EF100E49EFEE42001039DFDE49CFCE4CBF8C2EA
:100F010001EC700CCFCECDCCE824F8F870F380174B
:100F1100C3EF33FFEE33FEED33FDEC33FCEB33FB7C
:100F2100994002FB0FD8E9EB300105F8D0E0C44845
:100F3100B201C0E00AEC4D4E4F78207B0070C2EA4E
:100F4100B5450040BCC0E0120FC7D0F0D0E0200191
:100F510004C4C0E0C4B201C0F0120C50D0F0D5F00E
:100F6100EB020CA01206F60D3D530EA4580D0E4CCB
:100F71000D0A420EA84F0EB0440EB0490D23430E88
:100F8100B6550DE7460E45450DB147107C500D1283
:100F91002D0D162E0D392B0D1A230D372010652A14
:100FA1000CD24800000D31E545B4FF03754506122A
:100FB1000C2CFC120C2CFD120C2CFE120C2CFF78AC
:100FC1003B0202F3790AA2D5200314300509B910B6
:100FD100020404B9080104A2D5200602500104202C
:100FE10002689202B544005034C0E07F20300319FA
:100FF1007F30A20272067205500F12101EC202C289
:1010010006C205C2087F30800F300503E9C0E01237
:101011000C67300503D0E0F9D0E0B544CC300517BA
:101021007F30B9100C120C677F583004077F78802D
:1010310003B90803120C673002057F2D020C677F8C
:10104100202008F87F2B2006F322920280CF7F0018
:10105100B407005005243BF8E6FF22286E756C6C3E
:101061002900D201120C2C3001F8C201784430D58C
:101071000108F6020CD22D50434958120C2C2403BE
:10108100B405004001E490107793120C58743A12A1
:0A1091000C58D203754404020EA4AB
:10027A00E9D2E7C933E833F892D5EDD2E7CD33ECCA
:07028A0033FC5002B2D52243
:10029100EC30E7100FBF000C0EBE00080DBD0004CE
:1002A1000BEB6014A2D5EB13FCED92E7FD2274FF7A
:1002B100FCFDFEFF22E480F8A2D574FF13FC7D80D3
:0302C100E480EFE7
:1002C400F920E72824F950037907E4F42402FB1801
:1002D400DBFDE624FB5014E9600DE4F618E604F6B1
:0F02E400B40A08E4F6D9F57401F60A22C2D5224D
:1002F300ED33EC3392D5FA602AB4FF33EDC2E77BDA
:10030300FF60067A037918E4227A03792120D50461
:100313007A03791C224E614E002B494E46002D492B
:100323004E4600E47A08F608DAFC7B00740722E8FC
:10033300C0E0ECC0E0EDC0E0EEC0E0EFC0E0EA7585
:10034300F010A4CAABF075F04DA42BFBE435F0FC20
:10035300EA2410FAEB34C5FBEC34D9FCEDC2E7FF19
:1003630075F056A4F42411C5F0F434C58FF0A42A13
:10037300E5F03BE43CF620E71412051ED0E0FFD085
:10038300E0FED0E0FDD0E0FC12019F8014F40412E3
:10039300051ED0E0FFD0E0FED0E0FDD0E0FC12006F
:1003A30096D0E0F8E6FAEDD2E7CD33EC332482FBC6
:1003B300E4C3CF33CFCE33CECD33CD33DBF37B07A3
:1003C30075F00A846004F6081B0AE5F0F6088FF05E
:1003D300740AA4FFACF08EF0740AA42CFEACF050A7
:1003E300010C8DF0740AA42CFDE435F0F608DBDE75
:0303F3007407226A
:1003F6000202AFE86480F8E933E83360110460F084
:10040600ED33EC337009E8FCE9FDEAFEEBFF22046C
:1004160060DED3EB9FEA9EE99DE8C2E78CF0C2F767
:1004260095F0400CE8CCF8E9CDF9EACEFAEBCFFB33
:1004360012027A85D0F05804700320D5B3E8047010
:10044600075002B2D50202B992D5EC0460F7E4CCAB
:10045600C0E0C398F8603B94186008400DD0E0FBFC
:10046600020291E4FBFAC9FC8028E830E406E4C9FC
:10047600FBE4CAFCE830E305E4C9CACBFCE8540750
:100486006010F8C3E913F9EA13FAEB13FBEC13FC5B
:10049600D8F130F52FC3E49CFCEF9BFFEE9AFEEDFE
:1004A60099FDD0E0FBEF4E4D4C701222DB030202A9
:1004B600B6EC2CFCEF33FFEE33FEED33FDED30E70B
:1004C600EB020291EF2BFFEE3AFEED39FDD0E0FB99
:1004D60050130BBB00030202B9ED13FDEE13FEEF42
:0804E60013FFEC13FC0202916C
:1004EE003F8000004120000042C80000447A000016
:1004FE00461C400047C35000497424004B18968098
:10050E004CBEBC205A0E1BCA6753C21C749DC5AE8E
:10051E00FB60065407601C232312054CEB54386015
:10052E0009120538120547120096ECF8EDF9EEFAAD
:10053E00EFCB22EB12054780F1543803241C9004B4
:10054E00EEFE93FC0EEE93FD0EEE930ECE93FF2277
:03000000021D7A64
:0C1D7A00787FE4F6D8FD7581470212EF77
:10055E00BB010689828A83E0225002E722BBFE029B
:09056E00E32289828A83E49322CE
:10057700BB010CE58229F582E5833AF583E0225039
:1005870006E92582F8E622BBFE06E92582F8E22283
:0D059700E58229F582E5833AF583E493229D
:1005A400BB010689828A83F0225002F722BBFE0136
:0205B400F32230
:1005B60075F008758200EF2FFFEE33FECD33CDCCFC
:1005C60033CCC58233C5829BED9AEC99E58298407F
:1005D6000CF582EE9BFEED9AFDEC99FC0FD5F0D65C
:1005E600E4CEFBE4CDFAE4CCF9A88222B800C1B986
:1005F6000059BA002DEC8BF084CFCECDFCE5F0CBC4
:10060600F97818EF2FFFEE33FEED33FDEC33FCEBFC
:1006160033FB10D703994004EB99FB0FD8E5E4F9B7
:10062600FA227818EF2FFFEE33FEED33FDEC33FCA4
:10063600C933C910D7059BE99A4007EC9BFCE99A98
:10064600F90FD8E0E4C9FAE4CCFB2275F010EF2FDD
:10065600FFEE33FEED33FDCC33CCC833C810D707DD
:100666009BEC9AE899400AED9BFDEC9AFCE899F818
:0E0676000FD5F0DAE4CDFBE4CCFAE4C8F922AB
:0E068400C3E49FFFE49EFEE49DFDE49CFC2287
:10069200EB9FF5F0EA9E42F0E99D42F0E89C45F0BE
:0106A2002235
:1006A300E8600FECC313FCED13FDEE13FEEF13FF35
:0306B300D8F12259
:1006B600BB010DE58229F582E5833AF58302072918
:1006C6005007E92582F802071CBBFE07E92582F8D8
:1006D600020735E58229F582E5833AF5830207426A
:1006E600FAE6FB0808E6F925F0F618E6CA3AF62215
:1006F600D083D082F8E4937012740193700DA3A393
:1007060093F8740193F5828883E4737402936860A6
:06071600EFA3A3A380DFA6
:0D071C00E6FB08E6F908E6FA08E6CBF8224D
:0C072900E0F8A3E0F9A3E0FAA3E0FB2253
:0D073500E2FB08E2F908E2FA08E2CBF82244
:10074200E493F8740193F9740293FA740393FB220D
:00000001FF
