:10002E004144433A2025752C20647574793A202575
:04003E00750D0A0032
:101C05007537207536017B007A007936E4FF120FAF
:101C150076753703E4F536FB7A0079367F03120FC4
:101C2500767537027536037B007A007936E4FF0254
:021C35000F7628
:101C3700753640753701753B00753AC275390175C0
:101C47003800753D01E4F53EFB7A0079367F0112D5
:0C1C570000967D017F0112190853A23F86
:011C6300225E
:101CB00075361FE4F539753A0175370F753801FB34
:101CC0007A0079361214C77F01121DAFE4FDFF02BE
:021CD00018CA30
:1017510075366075395D753AC0753C047B007A0059
:1017610079367F0612057075375D7538BFE4F53B34
:10177100753E01753D01FB7A0079367F8112057056
:1017810090FEB6E054F34408F0E4FBFD7F810213C0
:011791001740
:1013910043BA80121C05121751121C37121CB0D20D
:1013A100AFE4F530F531FB7A0079267F061211CAD8
:1013B1007F0D1214018E228F23E4FCFD7BC07A5D28
:1013C100F9F8120D87E47BB47A0AF9F81216CA8E7D
:1013D100248F258524308525317B007A0079267F6D
:1013E100061211CA7BFF7A00792E85223985233AAC
:1013F10085243B85253C1209E47F32121D9380B080
:1014C700900001120CF7FFE5DE54F04FF5DE9000B7
:1014D70002120CF7C43354E0FFE5DE54DF4FF5DEAC
:1014E700120CDEFFD3941F502B900003120CF7FE53
:1014F700D39401501F900004120CF7FDD3940350AE
:1015070013EDC43354E0FDEEC433333354804D4FF1
:0515170090FEA8F02287
:0B1DAF00BF010443BC802253BC7F2214
:10140100EFD3940F40028060E4F5BDF5BEE5BC5416
:10141100F044404FF5BC0000000000000000000057
:10142100E4FDE5BC30E53D53BCDFE5DEAFBD30E5B5
:101431000EEFFEACBEECFBEEF536EBF5378020751A
:1014410036008F37E5BEC4540FFBE537C4F8540F9F
:10145100C868FFE536C454F048F536EF4BF537AEB2
:0C14610036AF37220DBDFABA7E107F00B6
:01146D00225C
:03002B00020026AA
:0400260053BCDF32B6
:0F1D93007D607C09ED1D70011C144C70F7DFF1B1
:011DA200221E
:100F7600EFD3940740037FFF22120CDEFED39403C7
:100F860040037FFF22EF7041EE700B900001120CC0
:100F9600F7F452935294120CDEB4010B9000011236
:100FA6000CF74293F45294120CDEFEB4020A90003F
:100FB60001120CF742934294EEB4030D9000011215
:100FC6000CF7FEF45293EE4294EF64017043120C58
:100FD600DEFE700B900001120CF7F452915292EE65
:100FE600B4010B900001120CF74291F45292120CCC
:100FF600DEB4020A900001120CF742914292120CE2
:10100600DEB4030D900001120CF7FEF45291EE428D
:1010160092EF64027043120CDEFE700B9000011218
:101026000CF7F452955296EEB4010B900001120C97
:10103600F74295F45296120CDEB4020A90000112A1
:101046000CF742954296120CDEB4030D9000011285
:101056000CF7FEF45295EE4296EF64037043120CC1
:10106600DEFE700B900001120CF7F452B152B2EE94
:10107600B4010B900001120CF742B1F452B2120CFB
:10108600DEB4020A900001120CF742B142B2120C11
:10109600DEB4030D900001120CF7FEF452B1EE42DD
:1010A600B2EF64047043120CDEFE700B9000011266
:1010B6000CF7F452B352B4EEB4010B900001120CCB
:1010C600F742B3F452B4120CDEB4020A90000112D5
:1010D6000CF742B342B4120CDEB4030D90000112B9
:1010E6000CF7FEF452B3EE42B4EF64057043120CF3
:1010F600DEFE700B900001120CF7F452C952CAEED4
:10110600B4010B900001120CF742C9F452CA120C3A
:10111600DEB4020A900001120CF742C942CA120C50
:10112600DEB4030D900001120CF7FEF452C9EE4234
:10113600CAEF64067043120CDEFE700B90000112BB
:101146000CF7F452CB52CCEEB4010B900001120C0A
:10115600F742CBF452CC120CDEB4020A9000011214
:101166000CF742CB42CC120CDEB4030D90000112F8
:101176000CF7FEF452CBEE42CCEF64077043120C30
:10118600DEFF700B900001120CF7F452E152E2EF11
:10119600B4010B900001120CF742E1F452E2120C7A
:1011A600DEB4020A900001120CF742E142E2120C90
:1011B600DEB4030D900001120CF7FFF452E1EF428A
:0411C600E27F0022A2
:1017D200EFD3940140037FFF22EDD3940340037FB4
:1017E200FF22EF7004C2A98002D2A9ED700553B79F
:1017F200FDC2B9BD010553B7FDD2B9BD020543B75C
:0E18020002C2B9BD030543B702D2B97F00226E
:10181000EFD3940140037FFF22EDD3940340037F75
:10182000FF22EF7004C2AB8002D2ABED700553B75C
:10183000F7C2BBBD010553B7F7D2BBBD020543B725
:0E18400008C2BBBD030543B708D2BB7F002220
:101CD200EFD3940140037FFF22EDD3940340037FAF
:101CE200FF22EF25E025E0FFE5AF54FB4FF5AFE41F
:021CF200FF22CF
:101CF400EFD3940140037FFF22EDD3940340037F8D
:101D0400FF22EFC43354E0FFE5AF54DF4FF5AFE4F7
:021D1400FF22AC
:101C8D00EFD3940140037FFF22EDD3940340037FF4
:101C9D00FF22EFC4333354C0FFE5AF54BF4FF5AF50
:031CAD00E4FF222F
:10184E00EFD3940140037FFF22EDD3940340037F37
:10185E00FF22EF7004C2A88002D2A8ED700553B724
:10186E00FEC2B8BD010553B7FED2B8BD020543B7DF
:0E187E0001C2B8BD030543B701D2B87F0022F6
:10188C00EFD3940140037FFF22EDD3940340037FF9
:10189C00FF22EF7004C2AA8002D2AAED700553B7E2
:1018AC00FBC2BABD010553B7FBD2BABD020543B7A3
:0E18BC0004C2BABD030543B704D2BA7F0022AE
:101D2F00EFD3940140037FFF22EFC454F0FFE58F00
:081D3F0054EF4FF58FE4FF2281
:101D1600EFD3940140037FFF22EFC43354E0FFE585
:091D26008F54DF4FF58FE4FF221A
:10000300EFD3940140037FFF22EFC4333354C0FF87
:0A001300E58F54BF4FF58FE4FF2284
:1018CA00EFD3940140037FFF22EDD3940340037FBB
:1018DA00FF22EF7004C2AD8002D2ADED700553B79E
:1018EA00DFC2BDBD010553B7DFD2BDBD020543B797
:0E18FA0020C2BDBD030543B720D2BD7F002232
:1015F700EDD3940340037FFF22EF30E10543E6205C
:10160700800353E6DFEF30E00543E610800353E63F
:10161700EFED700653B6DF53B5DFBD010653B6DFF6
:1016270043B520BD020643B62053B5DFBD030643CD
:08163700B62043B5207F00221C
:10146E00EFD3940140037FFF22EBD3940340037F1D
:10147E00FF22BF0112ED90FE817006E0547FF080D6
:10148E0011E04480F0800BEF700890FE83E05487EB
:10149E004DF0EB700653B6DF53B5DFBB010653B606
:1014AE00DF43B520BB020643B62053B5DFBB0306B0
:0914BE0043B62043B5207F002253
:10190800EFD3940140037FFF22EDD3940340037F7C
:10191800FF22EF7004C2AC8002D2ACED700553B761
:10192800EFC2BCBD010553B7EFD2BCBD020543B73A
:0E19380010C2BCBD030543B710D2BC7F002215
:10179200EFD3940140037FFF22EDD3940340037FF4
:1017A200FF22E5AF54FE4FF5AFED700653B6FE5380
:1017B200B5FEBD010653B6FE43B501BD020643B6F2
:1017C2000153B5FEBD030643B60143B5017F0022B6
:10163F00EFD3940140037FFF22EDD3940340037F48
:10164F00FF22EF33333354F8FFE5AF54F74FF5AFC5
:10165F00ED700653EEFE53DFFEBD010653EEFE4363
:10166F00DF01BD020643EE0153DFFEBD030643EE6D
:07167F000143DF017F00229F
:10004600EFD3940140037FFF22EDD3940340037F57
:10005600FF22EFC454F0FFE5AF54EF4FF5AFED705C
:100066000653EEFD53DFFDBD010653EEFD43DF02F1
:10007600BD020643EE0253DFFDBD030643EE024317
:05008600DF027F0022F3
:10168600EFD3940140037FFF22EDD3940340037F01
:10169600FF22EF25E0FFE5AF54FD4FF5AFED7006F5
:1016A60053B6FD53B5FDBD010653B6FD43B502BDA8
:1016B600020643B60253B5FDBD030643B60243B563
:0416C600027F00227D
:10131700EFD3948140037FFF22EBD3940340037FF5
:10132700FF22EF247F603004705890FEC4EDF0EB8D
:10133700700653B6FB53B5FBBB010653B6FB43B56B
:1013470004BB020643B60453B5FBEB640370384392
:10135700B60443B504803090FEE4EDF0EB7006531D
:10136700B6F753B5F7BB010653B6F743B508BB024B
:101377000643B60853B5F7BB030D43B60843B50894
:0A138700800590FEE4EDF07F0022E7
:10194600EDD394035026ED700653EEFB53DFFBBD3B
:10195600010653EEFB43DF04BD020643EE0453DFEC
:10196600FBBD030B43EE0443DF0480037FFF22909D
:07197600FE62EFF07F00228A
:10197D0090FA10E054F0F0EDD39403500BE0FEED2F
:10198D0025E025E0FDEE4DF0EBD39403500690FAE3
:10199D0010E04BF090FA10E0BF01054480F0800399
:0619AD00547FF07F0022D0
:1019B30090FA00E054F0F0EDD39403500BE0FEED09
:1019C30025E025E0FDEE4DF0EBD39403500690FAAD
:1019D30000E04BF090FA00E0BF01054480F0800383
:0619E300547FF07F00229A
:1019E90090FA20E054F0F0EDD39403500BE0FEEDB3
:1019F90025E025E0FDEE4DF0EBD39403500690FA77
:101A090020E04BF090FA20E0BF01054480F080030C
:061A1900547FF07F002263
:101A1F0090FA30E054F0F0EDD39403500BE0FEED6C
:101A2F0025E025E0FDEE4DF0EBD39403500690FA40
:101A3F0030E04BF090FA30E0BF01054480F08003B6
:061A4F00547FF07F00222D
:101A550090FA38E054F0F0EDD39403500BE0FEED2E
:101A650025E025E0FDEE4DF0EBD39403500690FA0A
:101A750038E04BF090FA38E0BF01054480F0800370
:061A8500547FF07F0022F7
:101A8B0090FA40E054F0F0EDD39403500BE0FEEDF0
:101A9B0025E025E0FDEE4DF0EBD39403500690FAD4
:101AAB0040E04BF090FA40E0BF01054480F080032A
:061ABB00547FF07F0022C1
:101AC10090FA48E054F0F0EDD39403500BE0FEEDB2
:101AD10025E025E0FDEE4DF0EBD39403500690FA9E
:101AE10048E04BF090FA48E0BF01054480F08003E4
:061AF100547FF07F00228B
:101AF70090FA50E054F0F0EDD39403500BE0FEED74
:101B070025E025E0FDEE4DF0EBD39403500690FA67
:101B170050E04BF090FA50E0BF01054480F080039D
:061B2700547FF07F002254
:101B2D0090FA58E054F0F0EDD39403500BE0FEED35
:101B3D0025E025E0FDEE4DF0EBD39403500690FA31
:101B4D0058E04BF090FA58E0BF01054480F0800357
:061B5D00547FF07F00221E
:101B630090FA60E054F0F0EDD39403500BE0FEEDF7
:101B730025E025E0FDEE4DF0EBD39403500690FAFB
:101B830060E04BF090FA60E0BF01054480F0800311
:061B9300547FF07F0022E8
:101B990090FA68E054F0F0EDD39403500BE0FEEDB9
:101BA90025E025E0FDEE4DF0EBD39403500690FAC5
:101BB90068E04BF090FA68E0BF01054480F08003CB
:061BC900547FF07F0022B2
:101BCF0090FA70E054F0F0EDD39403500BE0FEED7B
:101BDF0025E025E0FDEE4DF0EBD39403500690FA8F
:101BEF0070E04BF090FA70E0BF01054480F0800385
:061BFF00547FF07F00227C
:101C640090FE50E054CFF0EDD39403500AE0FEED23
:101C7400C454F0FDEE4DF090FE50E0BF01054480E9
:091C8400F08003547FF07F002280
:080096008F3F8B408A41894233
:10009E00E53F6401600302020CF508F509F50AF567
:1000AE000BF50CF543F54474402544F58274013587
:1000BE0043F583E4F00544E544700205436480454E
:1000CE004370E4E4F543F54474002544F58274006E
:1000DE003543F583E4F00544E5447002054364803E
:1000EE00454370E4AB40AA41A942120CDEFFE598ED
:1000FE00543F4FF598EF64C06008EF644060030210
:10010E0001C1900002120EC87F807E8D7D5B7C0047
:10011E00120E128F488E478D468C45E4FFFE7D01F0
:10012E00FCAB48AA47A946A845C3120EA440037FBC
:10013E00FF22C3E49548F548E49547F547740195C9
:10014E0046F546E49545F545AB40AA41A9429000D7
:10015E0001120CF7FB6401702CC28E538EFE538974
:10016E00BF5389CF438E40AF48AE47AD46AC4578BE
:10017E0008120EB58F8D85488BC2AB5389BF538F36
:10018E00FDD28E8062EB64027026538EEF438E0199
:10019E00538EF7438E04AF48AE47AD46AC45780854
:1001AE00120EB58FD68548D753AFFB438E108037CE
:1001BE007FFF22AB40AA41A942120CDEFF701390C2
:1001CE000008120CF7B40105438E20801A538EDFFF
:1001DE008015EFB48011900008120CF7B40105439E
:1001EE008780800353877FAB40AA41A942900007C6
:1001FE00120CF77004C29C8002D29C7F0022E53F55
:10020E0064026003020305F50DF50EF50FF510F50A
:10021E0011F543F54474E02544F58274013543F538
:10022E0083E4F00544E54470020543648045437061
:10023E00E4E4F543F54474802544F58274003543B7
:10024E00F583E4F00544E5447002054364804543BC
:10025E0070E4AB40AA41A942120CDEFF64C06005F7
:10026E00EF64407075EFB4C005439A808003539AD3
:10027E007F900002120EC87F807E8D7D5B7C001207
:10028E000E128F488E478D468C45E4FFFE7D01FC95
:10029E00AB48AA47A946A845C3120EA440037FFF48
:1002AE0022C3E49548F548E49547F5477401954611
:1002BE00F546E49545F545538EEF538EF7438E0480
:1002CE00AF48AE47AD46AC457808120EB58FD68511
:1002DE0048D753AFFB438E1080037FFF22AB40AA5B
:1002EE0041A942900007120CF7C454F0FFE59A544E
:1002FE00EF4FF59A7F0022E53F6403600302043955
:10030E00F512F513F514F515F516F543F54474606D
:10031E002544F58274023543F583E4F00544E54443
:10032E00700205436440454370E4E4F543F54474BC
:10033E00002544F58274013543F583E4F00544E568
:10034E0044700205436440454370E4AB40AA41A9A2
:10035E0042120CDEFF64C06008EF644060030204CA
:10036E001CEFB4C00543AC80800353AC7F900002F9
:10037E00120EC87F807E8D7D5B7C00120E128F4820
:10038E008E478D468C45E4FFFE7D01FCAB48AA47A7
:10039E00A946A845C3120EA440037FFF22C3E495CD
:1003AE0048F548E49547F54774019546F546E495BA
:1003BE0045F545AB40AA41A942900001120CF7FB4E
:1003CE00B4031D43AC40AF48AE47AD46AC457808CC
:1003DE00120EB58FD48548D553D1F043D10A803152
:1003EE00EB64027026538EEF53ACBF538EF7438EE1
:1003FE0004AF48AE47AD46AC457808120EB58FD661
:10040E008548D753AFFB438E1080067FFF227FFFB8
:10041E0022AB40AA41A942900007120CF7C454F037
:10042E00FFE5AC54EF4FF5AC7F0022E53F6404606E
:10043E000302056DF517F518F519F51AF51BF543B9
:10044E00F54474A02544F58274023543F583E4F037
:10045E000544E544700205436420454370E4E4F529
:10046E0043F54474C02544F58274013543F583E4A5
:10047E00F00544E544700205436420454370E4AB47
:10048E0040AA41A942120CDEFF64C06008EF64402E
:10049E006003020550EFB4C005438480800353848B
:1004AE007F900002120EC87F807E8D7D5B7C0012D5
:1004BE000E128F488E478D468C45E4FFFE7D01FC63
:1004CE00AB48AA47A946A845C3120EA440037FFF16
:1004DE0022C3E49548F548E49547F54774019546DF
:1004EE00F546E49545F545AB40AA41A94290000179
:1004FE00120CF7FBB4041D438440AF48AE47AD4623
:10050E00AC457808120EB58FD28548D353D10F4320
:10051E00D1A08031EB64027026538EEF5384BF530B
:10052E008EF7438E04AF48AE47AD46AC4578081201
:10053E000EB58FD68548D753AFFB438E1080067FFE
:10054E00FF227FFF22AB40AA41A942900007120C66
:10055E00F7C454F0FFE58454EF4FF5847F00227FFB
:01056E00FF8D
:01056F002269
:0A1DBA008F99750A01E50A70FC22FA
:101D4700120CDEFF600C121DBA740129F9E43AFA8D
:031D570080EE22F9
:0A1DC4008F9B750F01E50F70FC22E4
:101D5A00120CDEFF600C121DC4740129F9E43AFA70
:031D6A0080EE22E6
:0A1DCE008FAD751401E51470FC22BE
:101D6D00120CDEFF600C121DCE740129F9E43AFA53
:031D7D0080EE22D3
:0A1DD8008F85751901E51970FC22D2
:101D8000120CDEFF600C121DD8740129F9E43AFA36
:031D900080EE22C0
:05001D00AE07021DBA50
:0300230002170EB3
:10170E00C0E0C083C082C0D075D000C00730982022
:10171E00C298E50BC394804003750B00AF0B050B0D
:10172E0074002FF582E43400F583E599F0750C050D
:10173E00309905C299750A00D007D0D0D082D083D7
:03174E00D0E032B6
:0300430002151C87
:10151C00C0E0C083C082C0D075D000C007E59A304F
:10152C00E021539AFEE510C394804003751000AF80
:10153C0010051074802FF582E43400F583E59BF0E0
:10154C00751105E59A30E106539AFD750F00D00729
:09155C00D0D0D082D083D0E0325F
:03008B00021565F6
:10156500C0E0C083C082C0D075D000C007E5AC30F4
:10157500E02153ACFEE515C394404003751500AF5B
:1015850015051574002FF582E43401F583E5ADF0FA
:10159500751605E5AC30E10653ACFD751400D007B2
:0915A500D0D0D082D083D0E03216
:030093000215AEA5
:1015AE00C0E0C083C082C0D075D000C007E58430D3
:1015BE00E0215384FEE51AC394204003751A00AF50
:1015CE001A051A74C02FF582E43401F583E585F00F
:1015DE00751B05E58430E1065384FD751900D007AF
:0915EE00D0D0D082D083D0E032CD
:10057000AD07ED6401707A90FECCE054FEF0E054DB
:10058000FBF090FEC8E054FCF0120CDEFF90FEC8B9
:10059000E0548F4FF0900006120CF7FF90FECC3025
:1005A000E00DE04401F090FEB1E04401F0800BE08A
:1005B00054FEF090FEB1E054FEF0EF90FECC30E13E
:1005C0000DE04404F090FEB1E04402F0800BE054F2
:1005D000FBF090FEB1E054FDF0900003120D4FE5EA
:1005E000F090FED5F0900003120D4F90FED6020958
:1005F0002AED6402707A90FECCE054EFF0E054BF34
:10060000F090FEC9E054FCF0120CDEFF90FEC9E051
:10061000548F4FF0900006120CF7FF90FECC30E2A2
:100620000DE04410F090FEB1E04404F0800BE05483
:10063000EFF090FEB1E054FBF0EF90FECC30E30D14
:10064000E04440F090FEB1E04408F0800BE054BF7D
:10065000F090FEB1E054F7F0900003120D4FE5F07A
:1006600090FED7F0900003120D4F90FED802092A99
:10067000ED6403707A90FECDE054FEF0E054FBF0A0
:1006800090FECAE054FCF0120CDEFF90FECAE0546B
:100690008F4FF0900006120CF7FF90FECD30E40D66
:1006A000E04401F090FEB1E04410F0800BE054FE15
:1006B000F090FEB1E054EFF0EF90FECD30E50DE0AC
:1006C0004404F090FEB1E04420F0800BE054FBF0D5
:1006D00090FEB1E054DFF0900003120D4FE5F09072
:1006E000FED9F0900003120D4F90FEDA02092AEDB8
:1006F0006404707A90FECDE054EFF0E054BFF090C7
:10070000FECBE054FCF0120CDEFF90FECBE0548FE9
:100710004FF0900006120CF7FF90FECD30E60DE092
:100720004410F090FEB1E04440F0800BE054EFF054
:1007300090FEB1E054BFF0EF90FECD30E70DE04405
:1007400040F090FEB1E04480F0800BE054BFF090A8
:10075000FEB1E0547FF0900003120D4FE5F090FEE3
:10076000DBF0900003120D4F90FEDC02092AED64CD
:1007700080704F900005120CF790FEDEF0900001A3
:10078000120D4FE5F090FED2F0900001120D4F9047
:10079000FED3F0900008120CF790FEDDB40106E0E5
:1007A0004480F08004E0547FF0900007120CF79032
:1007B000FEC0B40106E04401F08004E054FEF07F86
:1007C0000022ED6405705690FEECE054FEF090FEC1
:1007D000E8E054FCF0120CDEFF90FEE8E0548F4F8E
:1007E000F0900006120CF790FEEC30E00DE04401B2
:1007F000F090FEB5E04401F0800BE054FEF090FE76
:10080000B5E054FEF0900003120D4FE5F090FEF5B8
:10081000F0900003120D4F90FEF602092AED6406D7
:10082000705690FEECE054EFF090FEE9E054FCF0DE
:10083000120CDEFF90FEE9E0548F4FF0900006129C
:100840000CF790FEEC30E20DE04410F090FEB5E0C5
:100850004404F0800BE054EFF090FEB5E054FBF060
:10086000900003120D4FE5F090FEF7F09000031298
:100870000D4F90FEF802092AED6407705590FEEDC9
:10088000E054FEF090FEEAE054FCF0120CDEFF9023
:10089000FEEAE0548F4FF0900006120CF790FEED48
:1008A00030E40DE04401F090FEB5E04410F0800B20
:1008B000E054FEF090FEB5E054EFF0900003120D0E
:1008C0004FE5F090FEF9F0900003120D4F90FEFA04
:1008D0008058ED6408705790FEEDE054EFF090FE04
:1008E000EBE054FCF0120CDEFF90FEEBE0548F4F77
:1008F000F0900006120CF790FEED30E60DE044108B
:10090000F090FEB5E04440F0800BE054EFF090FE34
:10091000B5E054BFF0900003120D4FE5F090FEFBE0
:10092000F0900003120D4F90FEFCF07F0022ED646A
:1009300081704C900005120CF790FEFEF0900001C3
:10094000120D4FFDACF0EC90FEF2F0AF05A3EFF00E
:10095000900008120CF790FEFDB40106E04480F010
:100960008004E0547FF0900007120CF790FEE0B492
:100970000106E04401F08004E054FEF07F00227F95
:02098000FF2254
:1011CA00EF248070030212851470030212CA24806D
:1011DA00B4080040030213169011F075F003A4C579
:1011EA008325F0C583730212080212150212250222
:1011FA001235021245021255021265021275120DBB
:10120A0024FDACF0EC90FED5021310900002120DF2
:10121A004FFDACF0EC90FED7021310900004120DB3
:10122A004FFDACF0EC90FED9021310900006120D9F
:10123A004FFDACF0EC90FEDB021310900008120D8B
:10124A004FFDACF0EC90FEF502131090000A120D5F
:10125A004FFDACF0EC90FEF702131090000C120D4B
:10126A004FFDACF0EC90FEF902131090000E120D37
:10127A004FFDACF0EC90FEFB021310120D24FDACF6
:10128A00F0EC90FED5F0AF05A3EFF0900002120D3E
:10129A004FFDACF0EC90FED7F0AF05A3EFF0900055
:1012AA0004120D4FFDACF0EC90FED9F0AF05A3EFA0
:1012BA00F0900006120D4FFDACF0EC90FEDB80467C
:1012CA00900008120D4FFDACF0EC90FEF5F0AF0562
:1012DA00A3EFF090000A120D4FFDACF0EC90FEF770
:1012EA00F0AF05A3EFF090000C120D4FFDACF0EC3F
:1012FA0090FEF9F0AF05A3EFF090000E120D4FFD2E
:0D130A00ACF0EC90FEFBF0AF05A3EFF0227D
:03000000021DA33B
:0C1DA300787FE4F6D8FD758149021391A9
:100CDE00BB010689828A83E0225002E722BBFE0214
:090CEE00E32289828A83E4932247
:100CF700BB010CE58229F582E5833AF583E02250B2
:100D070006E92582F8E622BBFE06E92582F8E222FB
:0D0D1700E58229F582E5833AF583E4932215
:100D2400BB010A89828A83E0F5F0A3E0225006879A
:100D3400F009E71922BBFE07E3F5F009E31922895C
:0B0D4400828A83E493F5F0740193228F
:100D4F00BB0110E58229F582E5833AF583E0F5F0E2
:100D5F00A3E0225009E92582F886F008E622BBFEBF
:100D6F000AE92582F8E2F5F008E222E5832AF58305
:080D7F00E993F5F0A3E99322CA
:100D8700E88FF0A4CC8BF0A42CFCE98EF0A42CFC0B
:100D97008AF0EDA42CFCEA8EF0A4CDA8F08BF0A489
:100DA7002DCC3825F0FDE98FF0A42CCD35F0FCEBE8
:100DB7008EF0A4FEA9F0EB8FF0A4CFC5F02ECD39AD
:0F0DC700FEE43CFCEAA42DCE35F0FDE43CFC221A
:100DD60075F008758200EF2FFFEE33FECD33CDCCD4
:100DE60033CCC58233C5829BED9AEC99E582984057
:100DF6000CF582EE9BFEED9AFDEC99FC0FD5F0D634
:100E0600E4CEFBE4CDFAE4CCF9A88222B800C1B95D
:100E16000059BA002DEC8BF084CFCECDFCE5F0CB9B
:100E2600F97818EF2FFFEE33FEED33FDEC33FCEBD4
:100E360033FB10D703994004EB99FB0FD8E5E4F98F
:100E4600FA227818EF2FFFEE33FEED33FDEC33FC7C
:100E5600C933C910D7059BE99A4007EC9BFCE99A70
:100E6600F90FD8E0E4C9FAE4CCFB2275F010EF2FB5
:100E7600FFEE33FEED33FDCC33CCC833C810D707B5
:100E86009BEC9AE899400AED9BFDEC9AFCE899F8F0
:0E0E96000FD5F0DAE4CDFBE4CCFAE4C8F92283
:1016CA00C2D5E830E70FB2D5E4C39BFBE49AFAE44B
:1016DA0099F9E498F8EC30E717B2D5121700120E10
:1016EA0012E4C39BFBE49AFAE499F9E498F88003BC
:1016FA00120E1230D50DE4C39FFFE49EFEE49DFD59
:04170A00E49CFC223D
:100EA400EB9FF5F0EA9E42F0E99D42F0E89C45F0A4
:010EB400221B
:100EB500E8600FECC313FCED13FDEE13FEEF13FF1B
:030EC500D8F1223F
:100EC800BB010DE58229F582E5833AF583020F1708
:100ED8005007E92582F8020F0ABBFE07E92582F8C8
:100EE800020F23E58229F582E5833AF583020F3064
:10098200E5452439F8E605452278363007027839FC
:10099200E475F001120F40020CDE2000EB7F2ED234
:1009A200008018EF540F2490D43440D4FF30040B4D
:1009B200EF24BFB41A0050032461FFE5466002151C
:1009C200460549E5497002054830070D7836E47559
:1009D200F001120F40EF020EF802001D7403D2075D
:1009E2008003E4C207F5458B368A378938E4F54639
:1009F200F548F549E54660077F201209BD80F57587
:100A020047FFC201C200C202C203C205C206C20837
:100A120012098BFF700D3007057F001209CEAF4916
:100A2200AE4822B4255FC2D5C20412098BFF24D07E
:100A3200B40A00501A75F00A784630D50508B6FF98
:100A42000106C6A426F620D5047002D20380D9245A
:100A5200CFB41A00EF5004C2E5D204020BCED20189
:100A620080C6D20080C0D20280BCD2D580BAD20564
:100A720080B47F201209BD2002077401B5460040F0
:100A8200F1120982FF1209BD0209F6D208D20680CC
:100A920095120982FB120982FA120982F94A4B70F5
:100AA20006799F7A0C7BFF20022EE546602A7E00A3
:100AB2008E82758300120CF760060EEE654770F0A9
:100AC200C2D5EBC0E0EAC0E0E9C0E0EE120C15D0FE
:100AD200E0F9D0E0FAD0E0FB120CDEFF60AAEBC036
:100AE200E0EAC0E0E9C0E01209BDD0E02401F9D09B
:100AF200E03400FAD0E0FBE5470460DCD547D9805A
:100B0200877BFF7A0C7911D202809C79108002795E
:100B120008C206C2088008D2D5790A8004790AC2BE
:100B2200D5E547047002F547E4FAFDFEFF1209829B
:100B3200FC7B08200113120982FD7B1030000A128F
:100B42000982FE120982FF7B20EC3382D592D550B6
:100B520013C3E43000069FFFE49EFEE42001039DE0
:100B6200FDE49CFCE4CBF8C201EC700CCFCECDCC02
:100B7200E824F8F870F38017C3EF33FFEE33FEED8D
:100B820033FDEC33FCEB33FB994002FB0FD8E9EB6E
:100B9200300105F8D0E0C448B201C0E00AEC4D4E85
:100BA2004F78207B0070C2EAB5470040BCC0E0121B
:100BB2000C17D0F0D0E0200104C4C0E0C4B201C0E0
:100BC200F01209A6D0F0D5F0EB0209F6120F500A86
:100BD20093530B0D580A644C0A60420B114F0B19C8
:0F0BE200440B19490A79430B1F550B03460B03AC
:100BF100450B03470CBF500A682D0A6C2E0A8F2B38
:100C01000A70230A8D200CA82A0A284800000A87A6
:100C11003F3F3F00790AA2D5200314300509B910DE
:100C2100020404B9080104A2D520060250010420DF
:100C310002689202B546005034C0E07F20300319AB
:100C41007F30A20272067205500F120C6EC202C2F0
:100C510006C205C2087F30800F300503E9C0E012EB
:100C610009BD300503D0E0F9D0E0B546CC30051719
:100C71007F30B9100C1209BD7F583004077F78808E
:100C810003B908031209BD3002057F2D0209BD7F9A
:100C9100202008F87F2B2006F322920280CF286EB5
:100CA100756C6C2900D2011209823001F8C20178F9
:100CB1004630D50108F6020A282D50434958120939
:100CC100822403B405004001E4900CBA931209AEEA
:0D0CD100743A1209AED203754604020B0DF1
:100EF800BB010689828A83F0225002F722BBFE01D9
:020F0800F322D2
:0D0F0A00E6FB08E6F908E6FA08E6CBF82257
:0C0F1700E0F8A3E0F9A3E0FAA3E0FB225D
:0D0F2300E2FB08E2F908E2FA08E2CBF8224E
:100F3000E493F8740193F9740293FA740393FB2217
:100F4000FAE6FB0808E6F925F0F618E6CA3AF622B2
:100F5000D083D082F8E4937012740193700DA3A330
:100F600093F8740193F5828883E473740293686044
:060F7000EFA3A3A380DF44
:00000001FF
