:10237900253034642D253032642D253032640A002D
:10238900253032643A253032643A253032640A0005
:0A2399007765656B2D3E25640A0090
:10249500752B03E4F52AFB7A00792A7F030213984A
:10234C00752A40752B01752F00752EC2752D0175E0
:10235C002C00753101E4F532FB7A00792A7F0112E9
:0C236C0000C67D017F01121FE453A23F58
:012378002242
:1019870043BA8012249512234C122569D2AF7522CF
:101997000875233375240C75261F752504752717BD
:1019A70075283B752937782A7C007D007B007A00F3
:1019B70079227E007F0812067012180F7B007A00CA
:1019C70079221217397BFF7A23797985222D85238E
:1019D7002E752F00852430753100852632120E377B
:1019E7007BFF7A237989752D0085272E752F008532
:1019F7002830753100852932120E377BFF7A23791B
:101A070099752D0085252E120E377FFA1224A57F92
:101A1700FA1224A57FFA1224A57FFA1224A5809C26
:101BE3009000011206AFFFE5DE54F04FF5DE9000E2
:101BF300021206AFC43354E0FFE5DE54DF4FF5DED7
:101C0300120696FFD3941F502B9000031206AFFECB
:101C1300D39401501F9000041206AFFDD3940350D8
:101C230013EDC43354E0FDEEC433333354804D4FCE
:051C330090FEA8F02264
:0B252400BF010443BC802253BC7F2297
:101B1D00EFD3940F40028060E4F5BDF5BEE5BC54F3
:101B2D00F044404FF5BC0000000000000000000034
:101B3D00E4FDE5BC30E53D53BCDFE5DEAFBD30E592
:101B4D000EEFFEACBEECFBEEF53FEBF540802075E5
:101B5D003F008F40E5BEC4540FFBE540C4F8540F61
:101B6D00C868FFE53FC454F048F53FEF4BF540AE74
:0C1B7D003FAF40220DBDFABA7E107F0081
:011B89002239
:03002B00020026AA
:0400260053BCDF32B6
:0F24A5007D607C09ED1D70011C144C70F7DFF198
:0124B4002205
:10139800EFD3940740037FFF22120696FED39403EF
:1013A80040037FFF22EF7041EE700B9000011206A0
:1013B800AFF452935294120696B4010B90000112A6
:1013C80006AF4293F45294120696FEB4020A9000B5
:1013D800011206AF42934294EEB4030D900001123D
:1013E80006AFFEF45293EE4294EF64017043120686
:1013F80096FE700B9000011206AFF452915292EED5
:10140800B4010B9000011206AF4291F452921206F9
:1014180096B4020A9000011206AF42914292120657
:1014280096B4030D9000011206AFFEF45291EE42FD
:1014380092EF64027043120696FE700B9000011240
:1014480006AFF452955296EEB4010B9000011206C5
:10145800AF4295F45296120696B4020A9000011211
:1014680006AF42954296120696B4030D90000112FB
:1014780006AFFEF45295EE4296EF640370431206EF
:1014880096FE700B9000011206AFF452B152B2EE04
:10149800B4010B9000011206AF42B1F452B2120629
:1014A80096B4020A9000011206AF42B142B2120687
:1014B80096B4030D9000011206AFFEF452B1EE424D
:1014C800B2EF64047043120696FE700B900001128E
:1014D80006AFF452B352B4EEB4010B9000011206F9
:1014E800AF42B3F452B4120696B4020A9000011245
:1014F80006AF42B342B4120696B4030D900001122F
:1015080006AFFEF452B3EE42B4EF64057043120620
:1015180096FE700B9000011206AFF452C952CAEE43
:10152800B4010B9000011206AF42C9F452CA120668
:1015380096B4020A9000011206AF42C942CA1206C6
:1015480096B4030D9000011206AFFEF452C9EE42A4
:10155800CAEF64067043120696FE700B90000112E3
:1015680006AFF452CB52CCEEB4010B900001120638
:10157800AF42CBF452CC120696B4020A9000011284
:1015880006AF42CB42CC120696B4030D900001126E
:1015980006AFFEF452CBEE42CCEF6407704312065E
:1015A80096FF700B9000011206AFF452E152E2EF81
:1015B800B4010B9000011206AF42E1F452E21206A8
:1015C80096B4020A9000011206AF42E142E2120606
:1015D80096B4030D9000011206AFFFF452E1EF42FA
:0415E800E27F00227C
:101A27009000021206AF6401702A90FE80E04440E5
:101A3700F090FE82E4F0120696543FFF90FE80E09D
:101A470054C04FF09000031206AF90FE88B4010215
:101A57008031802990FE80E054BFF090FE84E4F04E
:101A67009000041206AF25E0FF90FE85E054014F79
:101A7700F09000051206AF90FE85B40106E054FE13
:101A8700F08004E04401F09000011206AF90FE8060
:0C1A97007005E0547FF022E04480F02253
:0800030090FE82E05480FF2210
:0C250C0090FE82E030E6F9E054BFF022BF
:0925570090FE817401F002250CD4
:0E24E20090FE86EFF090FE817402F002250C51
:0624B5001225571224E27B
:0924BB0090FE817403F002250C6F
:0F24C40090FE817404F012250C90FE87E0FF2239
:0E24F00090FE82E4F090FE817405F002250C4F
:0F24D30090FE827401F090FE817405F002250CDA
:0925600090FE817406F002250CC6
:0D000E0090FE86EDF090FE81EFF002250CD3
:10231B008B3B8A3C893DAE051224B5AF061224E2F5
:10232B001224BBAB3B053DE53DAA3C7002053C14BA
:10233B00F9120696FF1224E21224BBD53EE50225C4
:01234B006031
:10202200AE071224B5AF051224E21224BB122557C3
:10203200EE4401FF1224E21224BB1224C4EF120662
:10204200DC740129F9E43AFAE539640160031224E7
:0A205200F0D539E61224D302256010
:0300C3000218E43C
:1018E400C0E0C083C082C0D075D000C006C00790DD
:1018F400FE84E030E606E054BFF0807A90FE84E097
:1019040030E535E054DFF0E51D6005751D008066A7
:10191400E51C600D751C0090FE87E0F51E24C08058
:101924003490FE87E0FFAE1E051E74C02EF582E4DF
:101934003402F583EFF0803E90FE84E030E424E04E
:1019440054EFF0E030E10890FE8674FFF080270544
:101954001E74C0251EF582E43402F583E090FE86F1
:10196400F0801390FE84E030E30CE054F7F0751D32
:1019740001751C01D209D007D006D0D0D082D08303
:03198400D0E0327E
:101EAE00EFD3940140037FFF22EDD3940340037FD1
:101EBE00FF22EF7004C2A98002D2A9ED700553B7BC
:101ECE00FDC2B9BD010553B7FDD2B9BD020543B779
:0E1EDE0002C2B9BD030543B702D2B97F00228C
:101EEC00EFD3940140037FFF22EDD3940340037F93
:101EFC00FF22EF7004C2AB8002D2ABED700553B77A
:101F0C00F7C2BBBD010553B7F7D2BBBD020543B742
:0E1F1C0008C2BBBD030543B708D2BB7F00223D
:1023EF00EFD3940140037FFF22EDD3940340037F8B
:1023FF00FF22EF25E025E0FFE5AF54FB4FF5AFE4FB
:02240F00FF22AA
:10241100EFD3940140037FFF22EDD3940340037F68
:10242100FF22EFC43354E0FFE5AF54DF4FF5AFE4D3
:02243100FF2288
:1023CC00EFD3940140037FFF22EDD3940340037FAE
:1023DC00FF22EFC4333354C0FFE5AF54BF4FF5AF0A
:0323EC00E4FF22E9
:101F2A00EFD3940140037FFF22EDD3940340037F54
:101F3A00FF22EF7004C2A88002D2A8ED700553B741
:101F4A00FEC2B8BD010553B7FED2B8BD020543B7FC
:0E1F5A0001C2B8BD030543B701D2B87F002213
:101F6800EFD3940140037FFF22EDD3940340037F16
:101F7800FF22EF7004C2AA8002D2AAED700553B7FF
:101F8800FBC2BABD010553B7FBD2BABD020543B7C0
:0E1F980004C2BABD030543B704D2BA7F0022CB
:10243300EFD3940140037FFF22EFC454F0FFE58FF5
:0824430054EF4FF58FE4FF2276
:1000A600EFD3940140037FFF22EFC43354E0FFE512
:0900B6008F54DF4FF58FE4FF22A7
:10004600EFD3940140037FFF22EFC4333354C0FF44
:0A005600E58F54BF4FF58FE4FF2241
:101FA600EFD3940140037FFF22EDD3940340037FD8
:101FB600FF22EF7004C2AD8002D2ADED700553B7BB
:101FC600DFC2BDBD010553B7DFD2BDBD020543B7B4
:0E1FD60020C2BDBD030543B720D2BD7F00224F
:101D1300EDD3940340037FFF22EF30E10543E62038
:101D2300800353E6DFEF30E00543E610800353E61C
:101D3300EFED700653B6DF53B5DFBD010653B6DFD3
:101D430043B520BD020643B62053B5DFBD030643AA
:081D5300B62043B5207F0022F9
:101B8A00EFD3940140037FFF22EBD3940340037FFA
:101B9A00FF22BF0112ED90FE817006E0547FF080B3
:101BAA0011E04480F0800BEF700890FE83E05487C8
:101BBA004DF0EB700653B6DF53B5DFBB010653B6E3
:101BCA00DF43B520BB020643B62053B5DFBB03068D
:091BDA0043B62043B5207F002230
:101FE400EFD3940140037FFF22EDD3940340037F9A
:101FF400FF22EF7004C2AC8002D2ACED700553B77F
:10200400EFC2BCBD010553B7EFD2BCBD020543B757
:0E20140010C2BCBD030543B710D2BC7F002232
:101E6E00EFD3940140037FFF22EDD3940340037F11
:101E7E00FF22E5AF54FE4FF5AFED700653B6FE539D
:101E8E00B5FEBD010653B6FE43B501BD020643B60F
:101E9E000153B5FEBD030643B60143B5017F0022D3
:101D5B00EFD3940140037FFF22EDD3940340037F25
:101D6B00FF22EF33333354F8FFE5AF54F74FF5AFA2
:101D7B00ED700653EEFE53DFFEBD010653EEFE4340
:101D8B00DF01BD020643EE0153DFFEBD030643EE4A
:071D9B000143DF017F00227C
:101DA200EFD3940140037FFF22EDD3940340037FDE
:101DB200FF22EFC454F0FFE5AF54EF4FF5AFED70E3
:101DC2000653EEFD53DFFDBD010653EEFD43DF0278
:101DD200BD020643EE0253DFFDBD030643EE02439E
:051DE200DF027F00227A
:101DE700EFD3940140037FFF22EDD3940340037F99
:101DF700FF22EF25E0FFE5AF54FD4FF5AFED70068D
:101E070053B6FD53B5FDBD010653B6FD43B502BD3F
:101E1700020643B60253B5FDBD030643B60243B5FA
:041E2700027F002214
:101AA300EFD3948140037FFF22EBD3940340037F62
:101AB300FF22EF247F603004705890FEC4EDF0EBFA
:101AC300700653B6FB53B5FBBB010653B6FB43B5D8
:101AD30004BB020643B60453B5FBEB6403703843FF
:101AE300B60443B504803090FEE4EDF0EB7006538A
:101AF300B6F753B5F7BB010653B6F743B508BB02B8
:101B03000643B60853B5F7BB030D43B60843B50800
:0A1B1300800590FEE4EDF07F002253
:10205C00EDD394035026ED700653EEFB53DFFBBD1E
:10206C00010653EEFB43DF04BD020643EE0453DFCF
:10207C00FBBD030B43EE0443DF0480037FFF229080
:07208C00FE62EFF07F00226D
:1020930090FA10E054F0F0EDD39403500BE0FEED12
:1020A30025E025E0FDEE4DF0EBD39403500690FAC6
:1020B30010E04BF090FA10E0BF01054480F080037C
:0620C300547FF07F0022B3
:1020C90090FA00E054F0F0EDD39403500BE0FEEDEC
:1020D90025E025E0FDEE4DF0EBD39403500690FA90
:1020E90000E04BF090FA00E0BF01054480F0800366
:0620F900547FF07F00227D
:1020FF0090FA20E054F0F0EDD39403500BE0FEED96
:10210F0025E025E0FDEE4DF0EBD39403500690FA59
:10211F0020E04BF090FA20E0BF01054480F08003EF
:06212F00547FF07F002246
:1021350090FA30E054F0F0EDD39403500BE0FEED4F
:1021450025E025E0FDEE4DF0EBD39403500690FA23
:1021550030E04BF090FA30E0BF01054480F0800399
:06216500547FF07F002210
:10216B0090FA38E054F0F0EDD39403500BE0FEED11
:10217B0025E025E0FDEE4DF0EBD39403500690FAED
:10218B0038E04BF090FA38E0BF01054480F0800353
:06219B00547FF07F0022DA
:1021A10090FA40E054F0F0EDD39403500BE0FEEDD3
:1021B10025E025E0FDEE4DF0EBD39403500690FAB7
:1021C10040E04BF090FA40E0BF01054480F080030D
:0621D100547FF07F0022A4
:1021D70090FA48E054F0F0EDD39403500BE0FEED95
:1021E70025E025E0FDEE4DF0EBD39403500690FA81
:1021F70048E04BF090FA48E0BF01054480F08003C7
:06220700547FF07F00226D
:10220D0090FA50E054F0F0EDD39403500BE0FEED56
:10221D0025E025E0FDEE4DF0EBD39403500690FA4A
:10222D0050E04BF090FA50E0BF01054480F0800380
:06223D00547FF07F002237
:1022430090FA58E054F0F0EDD39403500BE0FEED18
:1022530025E025E0FDEE4DF0EBD39403500690FA14
:1022630058E04BF090FA58E0BF01054480F080033A
:06227300547FF07F002201
:1022790090FA60E054F0F0EDD39403500BE0FEEDDA
:1022890025E025E0FDEE4DF0EBD39403500690FADE
:1022990060E04BF090FA60E0BF01054480F08003F4
:0622A900547FF07F0022CB
:1022AF0090FA68E054F0F0EDD39403500BE0FEED9C
:1022BF0025E025E0FDEE4DF0EBD39403500690FAA8
:1022CF0068E04BF090FA68E0BF01054480F08003AE
:0622DF00547FF07F002295
:1022E50090FA70E054F0F0EDD39403500BE0FEED5E
:1022F50025E025E0FDEE4DF0EBD39403500690FA72
:1023050070E04BF090FA70E0BF01054480F0800367
:06231500547FF07F00225E
:1023A30090FE50E054CFF0EDD39403500AE0FEEDDD
:1023B300C454F0FDEE4DF090FE50E0BF01054480A3
:0923C300F08003547FF07F00223A
:1009C300AD07ED6401707A90FECCE054FEF0E05484
:1009D300FBF090FEC8E054FCF0120696FF90FEC8B0
:1009E300E0548F4FF09000061206AFFF90FECC301C
:1009F300E00DE04401F090FEB1E04401F0800BE033
:100A030054FEF090FEB1E054FEF0EF90FECC30E1E6
:100A13000DE04404F090FEB1E04402F0800BE0549A
:100A2300FBF090FEB1E054FDF0900003120790E557
:100A3300F090FED5F090000312079090FED6020DC1
:100A43007DED6402707A90FECCE054EFF0E054BF89
:100A5300F090FEC9E054FCF0120696FF90FEC9E048
:100A6300548F4FF09000061206AFFF90FECC30E299
:100A73000DE04410F090FEB1E04404F0800BE0542C
:100A8300EFF090FEB1E054FBF0EF90FECC30E30DBD
:100A9300E04440F090FEB1E04408F0800BE054BF26
:100AA300F090FEB1E054F7F0900003120790E5F0E8
:100AB30090FED7F090000312079090FED8020D7DB0
:100AC300ED6403707A90FECDE054FEF0E054FBF049
:100AD30090FECAE054FCF0120696FF90FECAE05462
:100AE3008F4FF09000061206AFFF90FECD30E40D5D
:100AF300E04401F090FEB1E04410F0800BE054FEBE
:100B0300F090FEB1E054EFF0EF90FECD30E50DE054
:100B13004404F090FEB1E04420F0800BE054FBF07D
:100B230090FEB1E054DFF0900003120790E5F090DF
:100B3300FED9F090000312079090FEDA020D7DEDCE
:100B43006404707A90FECDE054EFF0E054BFF0906F
:100B5300FECBE054FCF0120696FF90FECBE0548FE0
:100B63004FF09000061206AFFF90FECD30E60DE089
:100B73004410F090FEB1E04440F0800BE054EFF0FD
:100B830090FEB1E054BFF0EF90FECD30E70DE044AE
:100B930040F090FEB1E04480F0800BE054BFF09051
:100BA300FEB1E0547FF0900003120790E5F090FE51
:100BB300DBF090000312079090FEDC020D7DED64E4
:100BC30080704F9000051206AF90FEDEF09000019A
:100BD300120790E5F090FED2F0900001120790907A
:100BE300FED3F09000081206AF90FEDDB40106E0DC
:100BF3004480F08004E0547FF09000071206AF9029
:100C0300FEC0B40106E04401F08004E054FEF07F2E
:100C13000022ED6405705690FEECE054FEF090FE69
:100C2300E8E054FCF0120696FF90FEE8E0548F4F84
:100C3300F09000061206AF90FEEC30E00DE04401A8
:100C4300F090FEB5E04401F0800BE054FEF090FE1E
:100C5300B5E054FEF0900003120790E5F090FEF526
:100C6300F090000312079090FEF6020D7DED6406EE
:100C7300705690FEECE054EFF090FEE9E054FCF087
:100C8300120696FF90FEE9E0548F4FF09000061293
:100C930006AF90FEEC30E20DE04410F090FEB5E0BC
:100CA3004404F0800BE054EFF090FEB5E054FBF009
:100CB300900003120790E5F090FEF7F09000031206
:100CC300079090FEF8020D7DED6407705590FEEDE0
:100CD300E054FEF090FEEAE054FCF0120696FF901A
:100CE300FEEAE0548F4FF09000061206AF90FEED3F
:100CF30030E40DE04401F090FEB5E04410F0800BC9
:100D0300E054FEF090FEB5E054EFF09000031207BC
:100D130090E5F090FEF9F090000312079090FEFA30
:100D23008058ED6408705790FEEDE054EFF090FEAC
:100D3300EBE054FCF0120696FF90FEEBE0548F4F6D
:100D4300F09000061206AF90FEED30E60DE0441081
:100D5300F090FEB5E04440F0800BE054EFF090FEDD
:100D6300B5E054BFF0900003120790E5F090FEFB4E
:100D7300F090000312079090FEFCF07F0022ED64D8
:100D830081704C9000051206AF90FEFEF0900001BA
:100D9300120790FDACF0EC90FEF2F0AF05A3EFF07C
:100DA3009000081206AF90FEFDB40106E04480F007
:100DB3008004E0547FF09000071206AF90FEE0B489
:100DC3000106E04401F08004E054FEF07F00227F3E
:020DD300FF22FD
:1015EC00EF248070030216A71470030216EC2480FB
:1015FC00B40800400302173890161275F003A4C506
:10160C008325F0C5837302162A0216370216470289
:10161C0016570216670216770216870216971207DC
:10162C0065FDACF0EC90FED502173290000212076B
:10163C0090FDACF0EC90FED702173290000412072C
:10164C0090FDACF0EC90FED9021732900006120718
:10165C0090FDACF0EC90FEDB021732900008120704
:10166C0090FDACF0EC90FEF502173290000A1207D8
:10167C0090FDACF0EC90FEF702173290000C1207C4
:10168C0090FDACF0EC90FEF902173290000E1207B0
:10169C0090FDACF0EC90FEFB021732120765FDAC2E
:1016AC00F0EC90FED5F0AF05A3EFF090000212071E
:1016BC0090FDACF0EC90FED7F0AF05A3EFF09000EE
:1016CC0004120790FDACF0EC90FED9F0AF05A3EF3F
:1016DC00F0900006120790FDACF0EC90FEDB80461B
:1016EC00900008120790FDACF0EC90FEF5F0AF0501
:1016FC00A3EFF090000A120790FDACF0EC90FEF70F
:10170C00F0AF05A3EFF090000C120790FDACF0ECDD
:10171C0090FEF9F0AF05A3EFF090000E120790FDCC
:0D172C00ACF0EC90FEFBF0AF05A3EFF02257
:10113100AD07ED7079C28C120696FED3940340037D
:101141007FFF22E58954FC4EF5899000011206AF1C
:10115100FED3940240037FFF22EE7006538E7F532D
:1011610089FB9000011206AFB40106438E805389BA
:10117100FB9000011206AFB4020343890490000200
:101181001206AFFFE58F54FE4FF58F900003120753
:1011910090E5F0F58C900003120790F58A90000617
:1011A1001206AF7004C28C8002D28C7F0022ED64E3
:1011B100016003021237C28E120696FED3940340D9
:1011C100037FFF22EEC454F0FFE58954CF4FF58928
:1011D1009000011206AFFED3940240037FFF22EE7E
:1011E1007006538EBF5389BF9000011206AFB40140
:1011F10006438E405389BF9000011206AFB402032B
:101201004389409000021206AF25E0FFE58F54FDAF
:101211004FF58F900003120790E5F0F58D900003D4
:10122100120790F58B9000061206AF7004C28E80F3
:1012310002D28E7F0022ED64027065538EEF900022
:10124100011206AFFF7006538EFB538EF7EFB40108
:1012510006438E04538EF7EFB40203438E089000C9
:10126100021206AF25E025E0FFE58F54FB4FF58F15
:10127100900003120790E5F0F5D690000312079055
:10128100F5D79000051206AF90FEA2F0900006126D
:1012910006AFC454F0FFE58E54EF4FF58E7F002268
:1012A100ED6403707253D1F79000011206AFFED3C3
:1012B100940240037FFF22EE700653D1FD53D1FB10
:1012C1009000011206AFB4010643D10253D1FB9045
:1012D10000011206AFB4020343D1049000021206CA
:1012E100AFFFE5D154FE4FF5D1900003120790E511
:1012F100F0F5D4900003120790F5D5900005120681
:10130100AF90FEA3F09000061206AF33333354F8CA
:10131100FFE5D154F78077ED6404707853D17F9065
:1013210000011206AFFED3940240037FFF22EE704C
:101331000653D1DF53D1BF9000011206AFB40106AD
:1013410043D12053D1BF9000011206AFB402034331
:10135100D1409000021206AFC454F0FFE5D154EF22
:101361004FF5D1900003120790FDACF0ECF5D2AF30
:10137100058FD39000051206AF90FEA4F0900006F1
:101381001206AFC43333335480FFE5D1547F4FF598
:07139100D17F00227FFF2243
:03000B0002006090
:03006000B2EF32CA
:03001B0002008E52
:03008E00B2EE329D
:0300630002009602
:03009600B2ED3296
:03009B0002009EC2
:03009E00B2EC328F
:0300A3000200BF99
:0300BF00B2EB326F
:0800C6008F338B348A35893633
:1000CE00E5336401600302023CF508F509F50AF513
:1000DE000BF50CF537F53874402538F5827401357B
:1000EE0037F583E4F00538E538700205376480454E
:1000FE003770E4E4F537F53874002538F58274006E
:10010E003537F583E4F00538E5387002053764803D
:10011E00453770E4AB34AA35A936120696FFE5983A
:10012E00543F4FF598EF64C06008EF6440600302DF
:10013E0001F19000021209117F807E8D7D5B7C00A3
:10014E0012085B8F3C8E3B8D3A8C39E4FFFE7D01AD
:10015E00FCAB3CAA3BA93AA839C31208ED40037F79
:10016E00FF22C3E4953CF53CE4953BF53B740195C9
:10017E003AF53AE49539F539AB34AA35A9369000FB
:10018E00011206AFFB6401702CC28E538EFE538992
:10019E00BF5389CF438E40AF3CAE3BAD3AAC3978BE
:1001AE00081208FE8F8D853C8BC2AB5389BF538FCF
:1001BE00FDD28E8062EB64027026538EEF438E0169
:1001CE00538EF7438E04AF3CAE3BAD3AAC39780854
:1001DE001208FE8FD6853CD753AFFB438E10803767
:1001EE007FFF22AB34AA35A936120696FF70139004
:1001FE0000081206AFB40105438E20801A538EDF1D
:10020E008015EFB480119000081206AFB4010543BB
:10021E008780800353877FAB34AA35A936900007B9
:10022E001206AF7004C29C8002D29C7F0022E5337E
:10023E0064026003020335F50DF50EF50FF510F5AA
:10024E0011F537F53874E02538F58274013537F538
:10025E0083E4F00538E53870020537648045377061
:10026E00E4E4F537F53874802538F58274003537B7
:10027E00F583E4F00538E5387002053764804537BC
:10028E0070E4AB34AA35A936120696FF64C0600539
:10029E00EF64407075EFB4C005439A808003539AA3
:1002AE007F9000021209117F807E8D7D5B7C001293
:1002BE00085B8F3C8E3B8D3A8C39E4FFFE7D01FC52
:1002CE00AB3CAA3BA93AA839C31208ED40037FFF05
:1002DE0022C3E4953CF53CE4953BF53B7401953A1D
:1002EE00F53AE49539F539538EEF538EF7438E0474
:1002FE00AF3CAE3BAD3AAC3978081208FE8FD685CE
:10030E003CD753AFFB438E1080037FFF22AB34AA42
:10031E0035A9369000071206AFC454F0FFE59A5483
:10032E00EF4FF59A7F0022E5336403600302046900
:10033E00F512F513F514F515F516F537F538746055
:10034E002538F58274023537F583E4F00538E53843
:10035E00700205376440453770E4E4F537F53874BC
:10036E00002538F58274013537F583E4F00538E55C
:10037E0038700205376440453770E4AB34AA35A9AE
:10038E0036120696FF64C06008EF644060030204F4
:10039E004CEFB4C00543AC80800353AC7F90000299
:1003AE001209117F807E8D7D5B7C0012085B8F3C75
:1003BE008E3B8D3A8C39E4FFFE7D01FCAB3CAA3BB3
:1003CE00A93AA839C31208ED40037FFF22C3E49572
:1003DE003CF53CE4953BF53B7401953AF53AE495D2
:1003EE0039F539AB34AA35A9369000011206AFFBA8
:1003FE00B4031D43AC40AF3CAE3BAD3AAC397808CC
:10040E001208FE8FD4853CD553D1F043D10A8031EA
:10041E00EB64027026538EEF53ACBF538EF7438EB0
:10042E0004AF3CAE3BAD3AAC3978081208FE8FD61D
:10043E00853CD753AFFB438E1080067FFF227FFF94
:10044E0022AB34AA35A9369000071206AFC454F079
:10045E00FFE5AC54EF4FF5AC7F0022E5336404604A
:10046E000302059DF517F518F519F51AF51BF53765
:10047E00F53874A02538F58274023537F583E4F02B
:10048E000538E538700205376420453770E4E4F529
:10049E0037F53874C02538F58274013537F583E4A5
:1004AE00F00538E538700205376420453770E4AB47
:1004BE0034AA35A936120696FF64C06008EF644070
:1004CE006003020580EFB4C005438480800353842B
:1004DE007F9000021209117F807E8D7D5B7C001261
:1004EE00085B8F3C8E3B8D3A8C39E4FFFE7D01FC20
:1004FE00AB3CAA3BA93AA839C31208ED40037FFFD3
:10050E0022C3E4953CF53CE4953BF53B7401953AEA
:10051E00F53AE49539F539AB34AA35A93690000190
:10052E001206AFFBB4041D438440AF3CAE3BAD3A64
:10053E00AC3978081208FE8FD2853CD353D10F43C5
:10054E00D1A08031EB64027026538EEF5384BF53DB
:10055E008EF7438E04AF3CAE3BAD3AAC3978081201
:10056E0008FE8FD6853CD753AFFB438E1080067F97
:10057E00FF227FFF22AB34AA35A936900007120660
:10058E00AFC454F0FFE58454EF4FF5847F00227F13
:01059E00FF5D
:01059F002239
:0A252F008F99750A01E50A70FC227D
:10002E00120696FF600C12252F740129F9E43AFA94
:03003E0080EE222F
:0A2539008F9B750F01E50F70FC2267
:10244B00120696FF600C122539740129F9E43AFA49
:03245B0080EE22EE
:0A2543008FAD751401E51470FC2241
:10245E00120696FF600C122543740129F9E43AFA2C
:03246E0080EE22DB
:0A254D008F85751901E51970FC2255
:10247100120696FF600C12254D740129F9E43AFA0F
:0324810080EE22C8
:05001E00AE0702252FD2
:03002300021E2B8F
:101E2B00C0E0C083C082C0D075D000C007309820FE
:101E3B00C298E50BC394804003750B00AF0B050BE9
:101E4B0074002FF582E43400F583E599F0750C05E9
:101E5B00309905C299750A00D007D0D0D082D083B3
:031E6B00D0E03292
:03004300021C3864
:101C3800C0E0C083C082C0D075D000C007E59A302C
:101C4800E021539AFEE510C394804003751000AF5D
:101C580010051074802FF582E43400F583E59BF0BD
:101C6800751105E59A30E106539AFD750F00D00706
:091C7800D0D0D082D083D0E0323C
:03008B00021C81D3
:101C8100C0E0C083C082C0D075D000C007E5AC30D1
:101C9100E02153ACFEE515C394404003751500AF38
:101CA10015051574002FF582E43401F583E5ADF0D7
:101CB100751605E5AC30E10653ACFD751400D0078F
:091CC100D0D0D082D083D0E032F3
:03009300021CCA82
:101CCA00C0E0C083C082C0D075D000C007E58430B0
:101CDA00E0215384FEE51AC394204003751A00AF2D
:101CEA001A051A74C02FF582E43401F583E585F0EC
:101CFA00751B05E58430E1065384FD751900D0078C
:091D0A00D0D0D082D083D0E032A9
:0E24FE000000000000000000000000000000D0
:10248400752B0C752A027B007A00792A7F030213CC
:0124940098AF
:10006600752C01752B01E4F52D752A0DFB7A0079A7
:100076002A121A27E4FBFD7F01121B8AE5BA54CF28
:040086004430F5BA53
:01008A002253
:0925690043BA80122484020066CA
:10180F0078327C007D007BFF7A2479FE7E007F0793
:10181F00120670E53175F00A84C454F0FFE5317596
:10182F00F00A84E5F04FF532E53075F00A84C454C0
:10183F00F0FFE53075F00A84E5F04FF533E52F75CD
:10184F00F00A84C454F0FFE52F75F00A84E5F04FD9
:10185F00F534E52E75F00A84C454F0FFE52E75F0CB
:10186F000A84E5F04FF535852D36C3E52B9434E525
:10187F002A940840047F0180027F00E52C75F00A4E
:10188F0084C454F0FEEFC433333354804EFFE52C41
:10189F0075F00A84E5F04FF537AE2AAF2B7C007D4B
:1018AF00641207107E007F0ACFCDCFCECCCE1207A9
:1018BF0010EFC454F0FBAE2AAF2B7C007D0A120749
:1018CF0010EB4DF5387B007A007932753E077D02BB
:0518DF007FA202231BA3
:061739008B2A8A2B892C8B
:10173F00782D7C007D007BFF7A2579057E007F0761
:10174F001206707B007A00792D7539077D027FA212
:10175F00122022E52DC4540775F00AA4FFE52D547D
:10176F000F2FAB2AAA2BA92C9000071206EEE52EFD
:10177F00C4540775F00AA4FFE52E540F2F900006EE
:10178F001206EEE52FC4540375F00AA4FFE52F549B
:10179F000F2F9000051206EEE530C4540375F00AC2
:1017AF00A4FFE530540F2F9000041206EE900003B3
:1017BF00E5311206EEE532C4540175F00AA4FFE5D7
:1017CF0032540F2F9000021206EEE533C4540F75FA
:1017DF00F00AA4FFE533540F7C002FFFEC35F08F98
:1017EF00F0120800E532548070067E077FD0800427
:1017FF007E087F34AB2AAA2BA92CEE8FF00207C8E4
:03000000022518BE
:0C251800787FE4F6D8FD75814002198739
:1005A000E709F608DFFA8046E709F208DFFA803E3D
:1005B00088828C83E709F0A3DFFA8032E309F6082A
:1005C000DFFA8078E309F208DFFA807088828C8392
:1005D000E309F0A3DFFA806489828A83E0A3F60846
:1005E000DFFA805889828A83E0A3F208DFFA804C20
:1005F00080D280FA80C680D4806980F280338010F7
:1006000080A680EA809A80A880DA80E280CA80335F
:1006100089828A83ECFAE493A3C8C582C8CCC583D7
:10062000CCF0A3C8C582C8CCC583CCDFE9DEE780A7
:100630000D89828A83E493A3F608DFF9ECFAA9F026
:10064000EDFB2289828A83ECFAE0A3C8C582C8CC7C
:10065000C583CCF0A3C8C582C8CCC583CCDFEADE95
:10066000E880DB89828A83E493A3F208DFF980CCF7
:1006700088F0EF60010E4E60C388F0ED2402B404F0
:100680000050B9F582EB2402B4040050AF23234597
:0606900082239005F073C7
:10069600BB010689828A83E0225002E722BBFE0262
:0906A600E32289828A83E4932295
:1006AF00BB010CE58229F582E5833AF583E0225000
:1006BF0006E92582F8E622BBFE06E92582F8E2224A
:0D06CF00E58229F582E5833AF583E4932264
:1006DC00BB010689828A83F0225002F722BBFE01FD
:0206EC00F322F7
:1006EE00F8BB010DE58229F582E5833AF583E8F042
:1006FE00225006E92582C8F622BBFE05E92582C8EE
:02070E00F222D5
:10071000BC000BBE0029EF8DF084FFADF022E4CCCD
:10072000F875F008EF2FFFEE33FEEC33FCEE9DEC96
:10073000984005FCEE9DFE0FD5F0E9E4CEFD22EDDC
:10074000F8F5F0EE8420D21CFEADF075F008EF2F26
:10075000FFED33FD4007985006D5F0F222C398FD17
:050760000FD5F0EA22B4
:10076500BB010A89828A83E0F5F0A3E0225006875F
:10077500F009E71922BBFE07E3F5F009E319228921
:0B078500828A83E493F5F07401932254
:10079000BB0110E58229F582E5833AF583E0F5F0A7
:1007A000A3E0225009E92582F886F008E622BBFE84
:1007B0000AE92582F8E2F5F008E222E5832AF583CA
:0807C000E993F5F0A3E993228F
:1007C800BB010789828A83020941500B09C5F027BA
:1007D800F7C5F01937F722BBFE0D09F8E325F0F34A
:1007E800C5F019E338F322F889828A8374019325C6
:0807F800F0C5F0F8E49338228B
:10080000BB010A89828A83F0E5F0A3F0225006F743
:0F08100009A7F01922BBFE06F3E5F009F3192240
:10081F0075F008758200EF2FFFEE33FECD33CDCC90
:10082F0033CCC58233C5829BED9AEC99E582984013
:10083F000CF582EE9BFEED9AFDEC99FC0FD5F0D6F0
:10084F00E4CEFBE4CDFAE4CCF9A88222B800C1B91A
:10085F000059BA002DEC8BF084CFCECDFCE5F0CB58
:10086F00F97818EF2FFFEE33FEED33FDEC33FCEB91
:10087F0033FB10D703994004EB99FB0FD8E5E4F94C
:10088F00FA227818EF2FFFEE33FEED33FDEC33FC39
:10089F00C933C910D7059BE99A4007EC9BFCE99A2D
:1008AF00F90FD8E0E4C9FAE4CCFB2275F010EF2F72
:1008BF00FFEE33FEED33FDCC33CCC833C810D70772
:1008CF009BEC9AE899400AED9BFDEC9AFCE899F8AD
:0E08DF000FD5F0DAE4CDFBE4CCFAE4C8F92240
:1008ED00EB9FF5F0EA9E42F0E99D42F0E89C45F061
:0108FD0022D8
:1008FE00E8600FECC313FCED13FDEE13FEEF13FFD8
:03090E00D8F122FB
:10091100BB010DE58229F582E5833AF5830209647D
:100921005007E92582F8020957BBFE07E92582F83D
:10093100020970E58229F582E5833AF58302097D92
:100DD500E539242DF8E6053922782A300702782DE1
:100DE500E475F00112098D0206962000EB7F2ED2E4
:100DF500008018EF540F2490D43440D4FF30040BF6
:100E0500EF24BFB41A0050032461FFE53A600215D0
:100E15003A053DE53D7002053C30070D782AE4753D
:100E2500F00112098DEF0206DC02001E7403D207E1
:100E35008003E4C207F5398B2A8A2B892CE4F53A1D
:100E4500F53CF53DE53A60077F20120E1080F575FB
:100E55003BFFC201C200C202C203C205C206C208EC
:100E6500120DDEFF700D3007057F00120E21AF3D1C
:100E7500AE3C22B4255FC2D5C204120DDEFF24D0DC
:100E8500B40A00501A75F00A783A30D50508B6FF4D
:100E95000106C6A426F620D5047002D20380D92403
:100EA500CFB41A00EF5004C2E5D204021021D201DA
:100EB50080C6D20080C0D20280BCD2D580BAD2050D
:100EC50080B47F20120E102002077401B53A00404D
:100ED500F1120DD5FF120E10020E49D208D206806E
:100EE50095120DD5FB120DD5FA120DD5F94A4B7099
:100EF5000679F27A107BFF20022EE53A602A7E0001
:100F05008E827583001206AF60060EEE653B70F0AB
:100F1500C2D5EBC0E0EAC0E0E9C0E0EE121068D04F
:100F2500E0F9D0E0FAD0E0FB120696FF60AAEBC02C
:100F3500E0EAC0E0E9C0E0120E10D0E02401F9D0EB
:100F4500E03400FAD0E0FBE53B0460DCD53BD9801A
:100F5500877BFF7A107964D202809C7910800279B0
:100F650008C206C2088008D2D5790A8004790AC267
:100F7500D5E53B047002F53BE4FAFDFEFF120DD505
:100F8500FC7B08200113120DD5FD7B1030000A12E1
:100F95000DD5FE120DD5FF7B20EC3382D592D550B1
:100FA50013C3E43000069FFFE49EFEE42001039D89
:100FB500FDE49CFCE4CBF8C201EC700CCFCECDCCAB
:100FC500E824F8F870F38017C3EF33FFEE33FEED36
:100FD50033FDEC33FCEB33FB994002FB0FD8E9EB17
:100FE500300105F8D0E0C448B201C0E00AEC4D4E2E
:100FF5004F78207B0070C2EAB53B0040BCC0E012D0
:10100500106AD0F0D0E0200104C4C0E0C4B201C031
:10101500F0120DF9D0F0D5F0EB020E4912099D0E34
:10102500E6530F60580EB74C0EB3420F644F0F6C6A
:0F103500440F6C490ECC430F72550F56460F56A1
:10104400450F56471112500EBB2D0EBF2E0EE22B2C
:101054000EC3230EE02010FB2A0E7B4800000EDA9C
:101064003F3F3F00790AA2D5200314300509B91087
:10107400020404B9080104A2D52006025001042088
:1010840002689202B53A005034C0E07F2030031960
:101094007F30A20272067205500F1210C1C202C242
:1010A40006C205C2087F30800F300503E9C0E01294
:1010B4000E10300503D0E0F9D0E0B53ACC30051776
:1010C4007F30B9100C120E107F583004077F7880DF
:1010D40003B90803120E103002057F2D020E107F93
:1010E400202008F87F2B2006F322920280CF286E5E
:1010F400756C6C2900D201120DD53001F8C201784B
:101104003A30D50108F6020E7B2D50434958120D92
:10111400D52403B405004001E490110D93120E018F
:0D112400743A120E01D203753A04020F60F6
:10094100C5F0F8A3E028F0C5F0F8E5821582700241
:060951001583E038F022DE
:0D095700E6FB08E6F908E6FA08E6CBF82210
:0C096400E0F8A3E0F9A3E0FAA3E0FB2216
:0D097000E2FB08E2F908E2FA08E2CBF82207
:10097D00E493F8740193F9740293FA740393FB22D0
:10098D00FAE6FB0808E6F925F0F618E6CA3AF6226B
:10099D00D083D082F8E4937012740193700DA3A3E9
:1009AD0093F8740193F5828883E4737402936860FD
:0609BD00EFA3A3A380DFFD
:00000001FF
