:10153A00751E20751D037B007A00791D7F04120B2E
:10154A00F9751ECF751D037B007A00791D7F021283
:10155A000BF9751E30751D037B007A00791D7F011A
:10156A00120BF9751E03E4F51DFB7A00791D7F0342
:03157A00020BF968
:10002E00751D40751E017522007521C27520017562
:10003E001F00752401E4F525FB7A00791D7F01125E
:0C004E0000A67D017F011216F353A23FB3
:01005A002283
:10119B007540608530438531447546037B007A008A
:1011AB0079407F0112058075406085324385334459
:1011BB0075460C7B007A0079407F021205807540E2
:1011CB00608534438535447546307B007A00794021
:1011DB007F0312058075406085364385374475461D
:1011EB00C07B007A0079407F0412058075415D75E4
:1011FB0042BFE4F545754701754801FB7A0079401C
:10120B007F8012058090FEB2E054FC4401F0E05464
:10121B00F34404F0E054CFF0E0543F4440F0E4FBDF
:06122B00FD7F800212317C
:10131800E4F51C12153A12002ED2AFC2C5D2A0D2E3
:10132800A1D2A2D2A3D294D295D2A6D2A7E4F51C78
:10133800E51C14600E14600F14601024037013C2AF
:10134800A6800AC2948006C2A28002C2A07FFA12B6
:101358001AEE051CC3E51C6480948440D3D2A0D245
:0C136800A2D294D2A67FFA121AEE80C125
:1013CD00900001120E66FFE5DE54F04FF5DE900041
:1013DD0002120E66C43354E0FFE5DE54DF4FF5DE36
:1013ED00120E4DFFD3941F502B900003120E66FE6C
:1013FD00D39401501F900004120E66FDD394035038
:10140D0013EDC43354E0FDEEC433333354804D4FEC
:05141D0090FEA8F02282
:0B001E00BF010443BC802253BC7F22C2
:1012AB00EFD3940F40028060E4F5BDF5BEE5BC546E
:1012BB00F044404FF5BC00000000000000000000AF
:1012CB00E4FDE5BC30E53D53BCDFE5DEAFBD30E50D
:1012DB000EEFFEACBEECFBEEF549EBF54A8020754C
:1012EB0049008F4AE5BEC4540FFBE54AC4F8540FBE
:1012FB00C868FFE549C454F048F549EF4BF54AAED1
:0C130B0049AF4A220DBDFABA7E107F00E7
:0113170022B3
:03002B0002005B75
:04005B0053BCDF3281
:0F1AEE007D607C09ED1D70011C144C70F7DFF159
:011AFD0022C6
:100BF900EFD3940740037FFF22120E4DFED39403D7
:100C090040037FFF22EF7041EE700B900001120E3E
:100C190066F452935294120E4DB4010B90000112D6
:100C29000E664293F45294120E4DFEB4020A9000DD
:100C390001120E6642934294EEB4030D9000011224
:100C49000E66FEF45293EE4294EF64017043120E65
:100C59004DFE700B900001120E66F452915292EE05
:100C6900B4010B900001120E664291F45292120ED9
:100C79004DB4020A900001120E6642914292120E80
:100C89004DB4030D900001120E66FEF45291EE422E
:100C990092EF64027043120E4DFE700B9000011228
:100CA9000E66F452955296EEB4010B900001120EA5
:100CB900664295F45296120E4DB4020A9000011242
:100CC9000E6642954296120E4DB4030D9000011224
:100CD9000E66FEF45295EE4296EF64037043120ECF
:100CE9004DFE700B900001120E66F452B152B2EE35
:100CF900B4010B900001120E6642B1F452B2120E09
:100D09004DB4020A900001120E6642B142B2120EAF
:100D19004DB4030D900001120E66FEF452B1EE427D
:100D2900B2EF64047043120E4DFE700B9000011275
:100D39000E66F452B352B4EEB4010B900001120ED8
:100D49006642B3F452B4120E4DB4020A9000011275
:100D59000E6642B342B4120E4DB4030D9000011257
:100D69000E66FEF452B3EE42B4EF64057043120E00
:100D79004DFE700B900001120E66F452C952CAEE74
:100D8900B4010B900001120E6642C9F452CA120E48
:100D99004DB4020A900001120E6642C942CA120EEF
:100DA9004DB4030D900001120E66FEF452C9EE42D5
:100DB900CAEF64067043120E4DFE700B90000112CB
:100DC9000E66F452CB52CCEEB4010B900001120E18
:100DD9006642CBF452CC120E4DB4020A90000112B5
:100DE9000E6642CB42CC120E4DB4030D9000011297
:100DF9000E66FEF452CBEE42CCEF64077043120E3E
:100E09004DFF700B900001120E66F452E152E2EFB1
:100E1900B4010B900001120E6642E1F452E2120E87
:100E29004DB4020A900001120E6642E142E2120E2E
:100E39004DB4030D900001120E66FFF452E1EF422A
:040E4900E27F002222
:1015BD00EFD3940140037FFF22EDD3940340037FCB
:1015CD00FF22EF7004C2A98002D2A9ED700553B7B6
:1015DD00FDC2B9BD010553B7FDD2B9BD020543B773
:0E15ED0002C2B9BD030543B702D2B97F002286
:1015FB00EFD3940140037FFF22EDD3940340037F8D
:10160B00FF22EF7004C2AB8002D2ABED700553B773
:10161B00F7C2BBBD010553B7F7D2BBBD020543B73C
:0E162B0008C2BBBD030543B708D2BB7F002237
:101A1300EFD3940140037FFF22EDD3940340037F70
:101A2300FF22EF25E025E0FFE5AF54FB4FF5AFE4E0
:021A3300FF2290
:101A3500EFD3940140037FFF22EDD3940340037F4E
:101A4500FF22EFC43354E0FFE5AF54DF4FF5AFE4B9
:021A5500FF226E
:1019F000EFD3940140037FFF22EDD3940340037F94
:101A0000FF22EFC4333354C0FFE5AF54BF4FF5AFEF
:031A1000E4FF22CE
:10163900EFD3940140037FFF22EDD3940340037F4E
:10164900FF22EF7004C2A88002D2A8ED700553B73B
:10165900FEC2B8BD010553B7FED2B8BD020543B7F6
:0E16690001C2B8BD030543B701D2B87F00220D
:10167700EFD3940140037FFF22EDD3940340037F10
:10168700FF22EF7004C2AA8002D2AAED700553B7F9
:10169700FBC2BABD010553B7FBD2BABD020543B7BA
:0E16A70004C2BABD030543B704D2BA7F0022C5
:101A8A00EFD3940140037FFF22EFC454F0FFE58FA8
:081A9A0054EF4FF58FE4FF2229
:101A7100EFD3940140037FFF22EFC43354E0FFE52D
:091A81008F54DF4FF58FE4FF22C2
:101A5700EFD3940140037FFF22EFC4333354C0FF19
:0A1A6700E58F54BF4FF58FE4FF2216
:1016B500EFD3940140037FFF22EDD3940340037FD2
:1016C500FF22EF7004C2AD8002D2ADED700553B7B5
:1016D500DFC2BDBD010553B7DFD2BDBD020543B7AE
:0E16E50020C2BDBD030543B720D2BD7F002249
:10142200EDD3940340037FFF22EF30E10543E62032
:10143200800353E6DFEF30E00543E610800353E616
:10144200EFED700653B6DF53B5DFBD010653B6DFCD
:1014520043B520BD020643B62053B5DFBD030643A4
:08146200B62043B5207F0022F3
:10137400EFD3940140037FFF22EBD3940340037F18
:10138400FF22BF0112ED90FE817006E0547FF080D1
:1013940011E04480F0800BEF700890FE83E05487E6
:1013A4004DF0EB700653B6DF53B5DFBB010653B601
:1013B400DF43B520BB020643B62053B5DFBB0306AB
:0913C40043B62043B5207F00224E
:1016F300EFD3940140037FFF22EDD3940340037F94
:10170300FF22EF7004C2AC8002D2ACED700553B778
:10171300EFC2BCBD010553B7EFD2BCBD020543B751
:0E17230010C2BCBD030543B710D2BC7F00222C
:10157D00EFD3940140037FFF22EDD3940340037F0B
:10158D00FF22E5AF54FE4FF5AFED700653B6FE5397
:10159D00B5FEBD010653B6FE43B501BD020643B609
:1015AD000153B5FEBD030643B60143B5017F0022CD
:10146A00EFD3940140037FFF22EDD3940340037F1F
:10147A00FF22EF33333354F8FFE5AF54F74FF5AF9C
:10148A00ED700653EEFE53DFFEBD010653EEFE433A
:10149A00DF01BD020643EE0153DFFEBD030643EE44
:0714AA000143DF017F002276
:1014B100EFD3940140037FFF22EDD3940340037FD8
:1014C100FF22EFC454F0FFE5AF54EF4FF5AFED70DD
:1014D1000653EEFD53DFFDBD010653EEFD43DF0272
:1014E100BD020643EE0253DFFDBD030643EE024398
:0514F100DF027F002274
:1014F600EFD3940140037FFF22EDD3940340037F93
:10150600FF22EF25E0FFE5AF54FD4FF5AFED700686
:1015160053B6FD53B5FDBD010653B6FD43B502BD39
:10152600020643B60253B5FDBD030643B60243B5F4
:04153600027F00220E
:10123100EFD3948140037FFF22EBD3940340037FDC
:10124100FF22EF247F603004705890FEC4EDF0EB74
:10125100700653B6FB53B5FBBB010653B6FB43B552
:1012610004BB020643B60453B5FBEB640370384379
:10127100B60443B504803090FEE4EDF0EB70065304
:10128100B6F753B5F7BB010653B6F743B508BB0232
:101291000643B60853B5F7BB030D43B60843B5087B
:0A12A100800590FEE4EDF07F0022CE
:10173100EDD394035026ED700653EEFB53DFFBBD52
:10174100010653EEFB43DF04BD020643EE0453DF03
:10175100FBBD030B43EE0443DF0480037FFF2290B4
:07176100FE62EFF07F0022A1
:1017680090FA10E054F0F0EDD39403500BE0FEED46
:1017780025E025E0FDEE4DF0EBD39403500690FAFA
:1017880010E04BF090FA10E0BF01054480F08003B0
:06179800547FF07F0022E7
:10179E0090FA00E054F0F0EDD39403500BE0FEED20
:1017AE0025E025E0FDEE4DF0EBD39403500690FAC4
:1017BE0000E04BF090FA00E0BF01054480F080039A
:0617CE00547FF07F0022B1
:1017D40090FA20E054F0F0EDD39403500BE0FEEDCA
:1017E40025E025E0FDEE4DF0EBD39403500690FA8E
:1017F40020E04BF090FA20E0BF01054480F0800324
:06180400547FF07F00227A
:10180A0090FA30E054F0F0EDD39403500BE0FEED83
:10181A0025E025E0FDEE4DF0EBD39403500690FA57
:10182A0030E04BF090FA30E0BF01054480F08003CD
:06183A00547FF07F002244
:1018400090FA38E054F0F0EDD39403500BE0FEED45
:1018500025E025E0FDEE4DF0EBD39403500690FA21
:1018600038E04BF090FA38E0BF01054480F0800387
:06187000547FF07F00220E
:1018760090FA40E054F0F0EDD39403500BE0FEED07
:1018860025E025E0FDEE4DF0EBD39403500690FAEB
:1018960040E04BF090FA40E0BF01054480F0800341
:0618A600547FF07F0022D8
:1018AC0090FA48E054F0F0EDD39403500BE0FEEDC9
:1018BC0025E025E0FDEE4DF0EBD39403500690FAB5
:1018CC0048E04BF090FA48E0BF01054480F08003FB
:0618DC00547FF07F0022A2
:1018E20090FA50E054F0F0EDD39403500BE0FEED8B
:1018F20025E025E0FDEE4DF0EBD39403500690FA7F
:1019020050E04BF090FA50E0BF01054480F08003B4
:06191200547FF07F00226B
:1019180090FA58E054F0F0EDD39403500BE0FEED4C
:1019280025E025E0FDEE4DF0EBD39403500690FA48
:1019380058E04BF090FA58E0BF01054480F080036E
:06194800547FF07F002235
:10194E0090FA60E054F0F0EDD39403500BE0FEED0E
:10195E0025E025E0FDEE4DF0EBD39403500690FA12
:10196E0060E04BF090FA60E0BF01054480F0800328
:06197E00547FF07F0022FF
:1019840090FA68E054F0F0EDD39403500BE0FEEDD0
:1019940025E025E0FDEE4DF0EBD39403500690FADC
:1019A40068E04BF090FA68E0BF01054480F08003E2
:0619B400547FF07F0022C9
:1019BA0090FA70E054F0F0EDD39403500BE0FEED92
:1019CA0025E025E0FDEE4DF0EBD39403500690FAA6
:1019DA0070E04BF090FA70E0BF01054480F080039C
:0619EA00547FF07F002293
:1000660090FE50E054CFF0EDD39403500AE0FEED3D
:10007600C454F0FDEE4DF090FE50E0BF0105448003
:09008600F08003547FF07F00229A
:10058000AD07ED6401707A90FECCE054FEF0E054CB
:10059000FBF090FEC8E054FCF0120E4DFF90FEC838
:1005A000E0548F4FF0900006120E66FF90FECC30A4
:1005B000E00DE04401F090FEB1E04401F0800BE07A
:1005C00054FEF090FEB1E054FEF0EF90FECC30E12E
:1005D0000DE04404F090FEB1E04402F0800BE054E2
:1005E000FBF090FEB1E054FDF0900003120EBEE56A
:1005F000F090FED5F0900003120EBE90FED60209D8
:100600003AED6402707A90FECCE054EFF0E054BF13
:10061000F090FEC9E054FCF0120E4DFF90FEC9E0D0
:10062000548F4FF0900006120E66FF90FECC30E221
:100630000DE04410F090FEB1E04404F0800BE05473
:10064000EFF090FEB1E054FBF0EF90FECC30E30D04
:10065000E04440F090FEB1E04408F0800BE054BF6D
:10066000F090FEB1E054F7F0900003120EBEE5F0FA
:1006700090FED7F0900003120EBE90FED802093A09
:10068000ED6403707A90FECDE054FEF0E054FBF090
:1006900090FECAE054FCF0120E4DFF90FECAE054EA
:1006A0008F4FF0900006120E66FF90FECD30E40DE5
:1006B000E04401F090FEB1E04410F0800BE054FE05
:1006C000F090FEB1E054EFF0EF90FECD30E50DE09C
:1006D0004404F090FEB1E04420F0800BE054FBF0C5
:1006E00090FEB1E054DFF0900003120EBEE5F090F2
:1006F000FED9F0900003120EBE90FEDA02093AED28
:100700006404707A90FECDE054EFF0E054BFF090B6
:10071000FECBE054FCF0120E4DFF90FECBE0548F68
:100720004FF0900006120E66FF90FECD30E60DE011
:100730004410F090FEB1E04440F0800BE054EFF044
:1007400090FEB1E054BFF0EF90FECD30E70DE044F5
:1007500040F090FEB1E04480F0800BE054BFF09098
:10076000FEB1E0547FF0900003120EBEE5F090FE63
:10077000DBF0900003120EBE90FEDC02093AED643D
:1007800080704F900005120E6690FEDEF090000122
:10079000120EBEE5F090FED2F0900001120EBE9057
:1007A000FED3F0900008120E6690FEDDB40106E064
:1007B0004480F08004E0547FF0900007120E6690B1
:1007C000FEC0B40106E04401F08004E054FEF07F76
:1007D0000022ED6405705690FEECE054FEF090FEB1
:1007E000E8E054FCF0120E4DFF90FEE8E0548F4F0D
:1007F000F0900006120E6690FEEC30E00DE0440131
:10080000F090FEB5E04401F0800BE054FEF090FE65
:10081000B5E054FEF0900003120EBEE5F090FEF538
:10082000F0900003120EBE90FEF602093AED640647
:10083000705690FEECE054EFF090FEE9E054FCF0CE
:10084000120E4DFF90FEE9E0548F4FF0900006121B
:100850000E6690FEEC30E20DE04410F090FEB5E044
:100860004404F0800BE054EFF090FEB5E054FBF050
:10087000900003120EBEE5F090FEF7F09000031218
:100880000EBE90FEF802093AED6407705590FEED39
:10089000E054FEF090FEEAE054FCF0120E4DFF90A2
:1008A000FEEAE0548F4FF0900006120E6690FEEDC7
:1008B00030E40DE04401F090FEB5E04410F0800B10
:1008C000E054FEF090FEB5E054EFF0900003120EFD
:1008D000BEE5F090FEF9F0900003120EBE90FEFA15
:1008E0008058ED6408705790FEEDE054EFF090FEF4
:1008F000EBE054FCF0120E4DFF90FEEBE0548F4FF6
:10090000F0900006120E6690FEED30E60DE0441009
:10091000F090FEB5E04440F0800BE054EFF090FE24
:10092000B5E054BFF0900003120EBEE5F090FEFB60
:10093000F0900003120EBE90FEFCF07F0022ED64EA
:1009400081704C900005120E6690FEFEF090000142
:10095000120EBEFDACF0EC90FEF2F0AF05A3EFF08E
:10096000900008120E6690FEFDB40106E04480F08F
:100970008004E0547FF0900007120E6690FEE0B411
:100980000106E04401F08004E054FEF07F00227F85
:02099000FF2244
:10104E00EF2480700302110914700302114E2480E4
:10105E00B40800400302119A90107475F003A4C5F1
:10106E008325F0C5837302108C0210990210A90219
:10107E0010B90210C90210D90210E90210F9120EAD
:10108E0093FDACF0EC90FED5021194900002120E7E
:10109E00BEFDACF0EC90FED7021194900004120E3F
:1010AE00BEFDACF0EC90FED9021194900006120E2B
:1010BE00BEFDACF0EC90FEDB021194900008120E17
:1010CE00BEFDACF0EC90FEF502119490000A120EEB
:1010DE00BEFDACF0EC90FEF702119490000C120ED7
:1010EE00BEFDACF0EC90FEF902119490000E120EC3
:1010FE00BEFDACF0EC90FEFB021194120E93FDAC13
:10110E00F0EC90FED5F0AF05A3EFF0900002120EBA
:10111E00BEFDACF0EC90FED7F0AF05A3EFF0900063
:10112E0004120EBEFDACF0EC90FED9F0AF05A3EFAD
:10113E00F0900006120EBEFDACF0EC90FEDB804689
:10114E00900008120EBEFDACF0EC90FEF5F0AF056F
:10115E00A3EFF090000A120EBEFDACF0EC90FEF77D
:10116E00F0AF05A3EFF090000C120EBEFDACF0EC4C
:10117E0090FEF9F0AF05A3EFF090000E120EBEFD3B
:0D118E00ACF0EC90FEFBF0AF05A3EFF022FB
:10099200AD07ED7079C28C120E4DFED39403400365
:1009A2007FFF22E58954FC4EF589900001120E6604
:1009B200FED3940240037FFF22EE7006538E7F53D4
:1009C20089FB900001120E66B40106438E805389A2
:1009D200FB900001120E66B40203438904900002E8
:1009E200120E66FFE58F54FE4FF58F900003120E34
:1009F200BEE5F0F58C900003120EBEF58A9000065B
:100A0200120E667004C28C8002D28C7F0022ED64CA
:100A1200016003020A98C28E120E4DFED394034067
:100A2200037FFF22EEC454F0FFE58954CF4FF589CE
:100A3200900001120E66FED3940240037FFF22EE65
:100A42007006538EBF5389BF900001120E66B40127
:100A520006438E405389BF900001120E66B4020312
:100A6200438940900002120E6625E0FFE58F54FD97
:100A72004FF58F900003120EBEE5F0F58D90000346
:100A8200120EBEF58B900006120E667004C28E80A6
:100A920002D28E7F0022ED64027065538EEF9000C9
:100AA20001120E66FF7006538EFB538EF7EFB401F0
:100AB20006438E04538EF7EFB40203438E08900070
:100AC20002120E6625E025E0FFE58F54FB4FF58FFD
:100AD200900003120EBEE5F0F5D6900003120EBE92
:100AE200F5D7900005120E6690FEA2F09000061255
:100AF2000E66C454F0FFE58E54EF4FF58E7F002250
:100B0200ED6403707253D1F7900001120E66FED3AA
:100B1200940240037FFF22EE700653D1FD53D1FBB6
:100B2200900001120E66B4010643D10253D1FB902C
:100B32000001120E66B4020343D104900002120EA9
:100B420066FFE5D154FE4FF5D1900003120EBEE5CB
:100B5200F0F5D4900003120EBEF5D5900005120EEA
:100B62006690FEA3F0900006120E6633333354F8FB
:100B7200FFE5D154F78077ED6404707853D17F900C
:100B82000001120E66FED3940240037FFF22EE7034
:100B92000653D1DF53D1BF900001120E66B4010695
:100BA20043D12053D1BF900001120E66B402034319
:100BB200D140900002120E66C454F0FFE5D154EF0A
:100BC2004FF5D1900003120EBEFDACF0ECF5D2AFA2
:100BD200058FD3900005120E6690FEA4F0900006D9
:100BE200120E66C43333335480FFE5D1547F4FF580
:070BF200D17F00227FFF22EA
:03000B00020008E8
:03000800B2EF3222
:03001B0002005F81
:03005F00B2EE32CC
:0300630002009EFA
:03009E00B2ED328E
:03009B00021B1C29
:031B1C00B2EC32F6
:0300A300021B1F1E
:031B1F00B2EB32F4
:0800A6008F268B278A28892987
:1000AE00E5266401600302021CF508F509F50AF560
:1000BE000BF50CF52AF52B7440252BF582740135C2
:1000CE002AF583E4F0052BE52B7002052A648045A2
:1000DE002A70E4E4F52AF52B7400252BF5827400C2
:1000EE00352AF583E4F0052BE52B7002052A648092
:1000FE00452A70E4AB27AA28A929120E4DFFE598D0
:10010E00543F4FF598EF64C06008EF6440600302FF
:10011E0001D1900002120FE87F807E8D7D5B7C0006
:10012E00120F328F2F8E2E8D2D8C2CE4FFFE7D0123
:10013E00FCAB2FAA2EA92DA82CC3120FC440037FEF
:10014E00FF22C3E4952FF52FE4952EF52E7401951D
:10015E002DF52DE4952CF52CAB27AA28A929900076
:10016E0001120E66FB6401702CC28E538EFE5389F3
:10017E00BF5389CF438E40AF2FAE2EAD2DAC2C7812
:10018E0008120FD58F8D852F8BC2AB5389BF538F1E
:10019E00FDD28E8062EB64027026538EEF438E0189
:1001AE00538EF7438E04AF2FAE2EAD2DAC2C7808A8
:1001BE00120FD58FD6852FD753AFFB438E108037B6
:1001CE007FFF22AB27AA28A929120E4DFF7013908C
:1001DE000008120E66B40105438E20801A538EDF7E
:1001EE008015EFB48011900008120E66B40105431D
:1001FE008780800353877FAB27AA28A92990000701
:10020E00120E667004C29C8002D29C7F0022E526EC
:10021E0064026003020315F50DF50EF50FF510F5EA
:10022E0011F52AF52B74E0252BF5827401352AF58C
:10023E0083E4F0052BE52B7002052A6480452A70B5
:10024E00E4E4F52AF52B7480252BF5827400352A0B
:10025E00F583E4F0052BE52B7002052A6480452A10
:10026E0070E4AB27AA28A929120E4DFF64C06005C1
:10027E00EF64407075EFB4C005439A808003539AC3
:10028E007F900002120FE87F807E8D7D5B7C0012D6
:10029E000F328F2F8E2E8D2D8C2CE4FFFE7D01FCC8
:1002AE00AB2FAA2EA92DA82CC3120FC440037FFF7B
:1002BE0022C3E4952FF52FE4952EF52E7401952D7E
:1002CE00F52DE4952CF52C538EEF538EF7438E04BB
:1002DE00AF2FAE2EAD2DAC2C7808120FD58FD68544
:1002EE002FD753AFFB438E1080037FFF22AB27AA7D
:1002FE0028A929900007120E66C454F0FFE59A54FF
:10030E00EF4FF59A7F0022E526640360030204494D
:10031E00F512F513F514F515F516F52AF52B74608F
:10032E00252BF5827402352AF583E4F0052BE52B97
:10033E007002052A6440452A70E4E4F52AF52B7410
:10034E0000252BF5827401352AF583E4F0052BE5A3
:10035E002B7002052A6440452A70E4AB27AA28A90F
:10036E0029120E4DFF64C06008EF64406003020462
:10037E002CEFB4C00543AC80800353AC7F900002D9
:10038E00120FE87F807E8D7D5B7C00120F328F2FE7
:10039E008E2E8D2D8C2CE4FFFE7D01FCAB2FAA2E14
:1003AE00A92DA82CC3120FC440037FFF22C3E495CE
:1003BE002FF52FE4952EF52E7401952DF52DE49540
:1003CE002CF52CAB27AA28A929900001120E66FB4A
:1003DE00B4031D43AC40AF2FAE2EAD2DAC2C780820
:1003EE00120FD58FD4852FD553D1F043D10A80313A
:1003FE00EB64027026538EEF53ACBF538EF7438ED1
:10040E0004AF2FAE2EAD2DAC2C7808120FD58FD693
:10041E00852FD753AFFB438E1080067FFF227FFFC1
:10042E0022AB27AA28A929900007120E66C454F001
:10043E00FFE5AC54EF4FF5AC7F0022E52664046077
:10044E000302057DF517F518F519F51AF51BF52AB2
:10045E00F52B74A0252BF5827402352AF583E4F072
:10046E00052BE52B7002052A6420452A70E4E4F57D
:10047E002AF52B74C0252BF5827401352AF583E4F9
:10048E00F0052BE52B7002052A6420452A70E4AB9B
:10049E0027AA28A929120E4DFF64C06008EF6440F8
:1004AE006003020560EFB4C005438480800353846B
:1004BE007F900002120FE87F807E8D7D5B7C0012A4
:1004CE000F328F2F8E2E8D2D8C2CE4FFFE7D01FC96
:1004DE00AB2FAA2EA92DA82CC3120FC440037FFF49
:1004EE0022C3E4952FF52FE4952EF52E7401952D4C
:1004FE00F52DE4952CF52CAB27AA28A929900001FF
:10050E00120E66FBB4041D438440AF2FAE2EAD2DEC
:10051E00AC2C7808120FD58FD2852FD353D10F4321
:10052E00D1A08031EB64027026538EEF5384BF53FB
:10053E008EF7438E04AF2FAE2EAD2DAC2C78081255
:10054E000FD58FD6852FD753AFFB438E1080067FE6
:10055E00FF227FFF22AB27AA28A929900007120E9F
:10056E0066C454F0FFE58454EF4FF5847F00227F7C
:01057E00FF7D
:01057F002259
:0A008F008F99750A01E50A70FC2242
:101AA200120E4DFF600C12008F740129F9E43AFA0C
:031AB20080EE22A1
:0A1AFE008F9B750F01E50F70FC22AD
:101AB500120E4DFF600C121AFE740129F9E43AFA70
:031AC50080EE228E
:0A1B08008FAD751401E51470FC2286
:101AC800120E4DFF600C121B08740129F9E43AFA52
:031AD80080EE227B
:0A1B12008F85751901E51970FC229A
:101ADB00120E4DFF600C121B12740129F9E43AFA35
:031AEB0080EE2268
:05000300AE0702008FB2
:0300000002000EED
:0C000E00787FE4F6D8FD75814A021318D3
:100E4D00BB010689828A83E0225002E722BBFE02A3
:090E5D00E32289828A83E49322D6
:100E6600BB010CE58229F582E5833AF583E0225041
:100E760006E92582F8E622BBFE06E92582F8E2228B
:0D0E8600E58229F582E5833AF583E49322A5
:100E9300BB010A89828A83E0F5F0A3E0225006872A
:100EA300F009E71922BBFE07E3F5F009E3192289EC
:0B0EB300828A83E493F5F0740193221F
:100EBE00BB0110E58229F582E5833AF583E0F5F072
:100ECE00A3E0225009E92582F886F008E622BBFE4F
:100EDE000AE92582F8E2F5F008E222E5832AF58395
:080EEE00E993F5F0A3E993225A
:100EF60075F008758200EF2FFFEE33FECD33CDCCB3
:100F060033CCC58233C5829BED9AEC99E582984035
:100F16000CF582EE9BFEED9AFDEC99FC0FD5F0D612
:100F2600E4CEFBE4CDFAE4CCF9A88222B800C1B93C
:100F36000059BA002DEC8BF084CFCECDFCE5F0CB7A
:100F4600F97818EF2FFFEE33FEED33FDEC33FCEBB3
:100F560033FB10D703994004EB99FB0FD8E5E4F96E
:100F6600FA227818EF2FFFEE33FEED33FDEC33FC5B
:100F7600C933C910D7059BE99A4007EC9BFCE99A4F
:100F8600F90FD8E0E4C9FAE4CCFB2275F010EF2F94
:100F9600FFEE33FEED33FDCC33CCC833C810D70794
:100FA6009BEC9AE899400AED9BFDEC9AFCE899F8CF
:0E0FB6000FD5F0DAE4CDFBE4CCFAE4C8F92262
:100FC400EB9FF5F0EA9E42F0E99D42F0E89C45F083
:010FD40022FA
:100FD500E8600FECC313FCED13FDEE13FEEF13FFFA
:030FE500D8F1221E
:100FE800BB010DE58229F582E5833AF583021025D8
:100FF8005007E92582F8021018BBFE07E92582F898
:10100800021031E58229F582E5833AF58302103E24
:0D101800E6FB08E6F908E6FA08E6CBF82248
:0C102500E0F8A3E0F9A3E0FAA3E0FB224E
:0D103100E2FB08E2F908E2FA08E2CBF8223F
:10103E00E493F8740193F9740293FA740393FB2208
:00000001FF
