:101A4100751E02751D037B007A00791DE4FF120BE0
:101A5100F9751E02751D037B007A00791D7F050251
:021A61000BF97F
:10002E007544407545017549007548C2754701759F
:10003E004600754B01E4F54CFB7A0079447F0112C2
:0C004E0000A67D017F0112172153A23F84
:01005A002283
:10156A00751D6075205D7521C07523047B007A00A6
:10157A00791D7F06120580751E5D751FBFE4F52271
:10158A00752501752401FB7A00791D7F811205807A
:10159A0090FEB6E054F34408F0E4FBFD7F810212AA
:0115AA0079C7
:1011EA00E4F508F50974FFF50AF50B751C6443BAB2
:1011FA0080121A4112156AAF1CE4FCFDFE7BC07A0C
:10120A005DF9F8120EF6E47B64FAF9F81215268EE7
:10121A00168F177B007A00790C7F0612109D7FD0FB
:10122A007E07121AA7E51CD394144033E50B251C3C
:10123A00F51CFFE4FCFDFE7BC07A5DF9F8120EF6A0
:10124A00E47B64FAF9F81215268E168F177B007A5A
:10125A0000790C7F0612109D7F07121B5880C67FEB
:0F126A00E87E03121AA790FEECE054EFF080FE2E
:1013B900900001120E66FFE5DE54F04FF5DE900055
:1013C90002120E66C43354E0FFE5DE54DF4FF5DE4A
:1013D900120E4DFFD3941F502B900003120E66FE80
:1013E900D39401501F900004120E66FDD39403504C
:1013F90013EDC43354E0FDEEC433333354804D4F01
:0514090090FEA8F02296
:0B001E00BF010443BC802253BC7F22C2
:1012F300EFD3940F40028060E4F5BDF5BEE5BC5426
:10130300F044404FF5BC0000000000000000000066
:10131300E4FDE5BC30E53D53BCDFE5DEAFBD30E5C4
:101323000EEFFEACBEECFBEEF54DEBF54E802075FB
:101333004D008F4EE5BEC4540FFBE54EC4F8540F69
:10134300C868FFE54DC454F048F54DEF4BF54EAE7C
:0C1353004DAF4E220DBDFABA7E107F0097
:01135F00226B
:03002B0002005B75
:04005B0053BCDF3281
:0F1B58007D607C09ED1D70011C144C70F7DFF1EE
:011B6700225B
:101AA700AB07AA06EB1B70011A14D39400EA940043
:0A1AB70040077F01121B5880EB224C
:100BF900EFD3940740037FFF22120E4DFED39403D7
:100C090040037FFF22EF7041EE700B900001120E3E
:100C190066F452935294120E4DB4010B90000112D6
:100C29000E664293F45294120E4DFEB4020A9000DD
:100C390001120E6642934294EEB4030D9000011224
:100C49000E66FEF45293EE4294EF64017043120E65
:100C59004DFE700B900001120E66F452915292EE05
:100C6900B4010B900001120E664291F45292120ED9
:100C79004DB4020A900001120E6642914292120E80
:100C89004DB4030D900001120E66FEF45291EE422E
:100C990092EF64027043120E4DFE700B9000011228
:100CA9000E66F452955296EEB4010B900001120EA5
:100CB900664295F45296120E4DB4020A9000011242
:100CC9000E6642954296120E4DB4030D9000011224
:100CD9000E66FEF45295EE4296EF64037043120ECF
:100CE9004DFE700B900001120E66F452B152B2EE35
:100CF900B4010B900001120E6642B1F452B2120E09
:100D09004DB4020A900001120E6642B142B2120EAF
:100D19004DB4030D900001120E66FEF452B1EE427D
:100D2900B2EF64047043120E4DFE700B9000011275
:100D39000E66F452B352B4EEB4010B900001120ED8
:100D49006642B3F452B4120E4DB4020A9000011275
:100D59000E6642B342B4120E4DB4030D9000011257
:100D69000E66FEF452B3EE42B4EF64057043120E00
:100D79004DFE700B900001120E66F452C952CAEE74
:100D8900B4010B900001120E6642C9F452CA120E48
:100D99004DB4020A900001120E6642C942CA120EEF
:100DA9004DB4030D900001120E66FEF452C9EE42D5
:100DB900CAEF64067043120E4DFE700B90000112CB
:100DC9000E66F452CB52CCEEB4010B900001120E18
:100DD9006642CBF452CC120E4DB4020A90000112B5
:100DE9000E6642CB42CC120E4DB4030D9000011297
:100DF9000E66FEF452CBEE42CCEF64077043120E3E
:100E09004DFF700B900001120E66F452E152E2EFB1
:100E1900B4010B900001120E6642E1F452E2120E87
:100E29004DB4020A900001120E6642E142E2120E2E
:100E39004DB4030D900001120E66FFF452E1EF422A
:040E4900E27F002222
:1015EB00EFD3940140037FFF22EDD3940340037F9D
:1015FB00FF22EF7004C2A98002D2A9ED700553B788
:10160B00FDC2B9BD010553B7FDD2B9BD020543B744
:0E161B0002C2B9BD030543B702D2B97F002257
:10162900EFD3940140037FFF22EDD3940340037F5E
:10163900FF22EF7004C2AB8002D2ABED700553B745
:10164900F7C2BBBD010553B7F7D2BBBD020543B70E
:0E16590008C2BBBD030543B708D2BB7F002209
:101A6300EFD3940140037FFF22EDD3940340037F20
:101A7300FF22EF25E025E0FFE5AF54FB4FF5AFE490
:021A8300FF2240
:101A8500EFD3940140037FFF22EDD3940340037FFE
:101A9500FF22EFC43354E0FFE5AF54DF4FF5AFE469
:021AA500FF221E
:101A1E00EFD3940140037FFF22EDD3940340037F65
:101A2E00FF22EFC4333354C0FFE5AF54BF4FF5AFC1
:031A3E00E4FF22A0
:10166700EFD3940140037FFF22EDD3940340037F20
:10167700FF22EF7004C2A88002D2A8ED700553B70D
:10168700FEC2B8BD010553B7FED2B8BD020543B7C8
:0E16970001C2B8BD030543B701D2B87F0022DF
:1016A500EFD3940140037FFF22EDD3940340037FE2
:1016B500FF22EF7004C2AA8002D2AAED700553B7CB
:1016C500FBC2BABD010553B7FBD2BABD020543B78C
:0E16D50004C2BABD030543B704D2BA7F002297
:101AF400EFD3940140037FFF22EFC454F0FFE58F3E
:081B040054EF4FF58FE4FF22BE
:101ADB00EFD3940140037FFF22EFC43354E0FFE5C3
:091AEB008F54DF4FF58FE4FF2258
:101AC100EFD3940140037FFF22EFC4333354C0FFAF
:0A1AD100E58F54BF4FF58FE4FF22AC
:1016E300EFD3940140037FFF22EDD3940340037FA4
:1016F300FF22EF7004C2AD8002D2ADED700553B787
:10170300DFC2BDBD010553B7DFD2BDBD020543B77F
:0E17130020C2BDBD030543B720D2BD7F00221A
:10140E00EDD3940340037FFF22EF30E10543E62046
:10141E00800353E6DFEF30E00543E610800353E62A
:10142E00EFED700653B6DF53B5DFBD010653B6DFE1
:10143E0043B520BD020643B62053B5DFBD030643B8
:08144E00B62043B5207F002207
:10136000EFD3940140037FFF22EBD3940340037F2C
:10137000FF22BF0112ED90FE817006E0547FF080E5
:1013800011E04480F0800BEF700890FE83E05487FA
:101390004DF0EB700653B6DF53B5DFBB010653B615
:1013A000DF43B520BB020643B62053B5DFBB0306BF
:0913B00043B62043B5207F002262
:10172100EFD3940140037FFF22EDD3940340037F65
:10173100FF22EF7004C2AC8002D2ACED700553B74A
:10174100EFC2BCBD010553B7EFD2BCBD020543B723
:0E17510010C2BCBD030543B710D2BC7F0022FE
:1015AB00EFD3940140037FFF22EDD3940340037FDD
:1015BB00FF22E5AF54FE4FF5AFED700653B6FE5369
:1015CB00B5FEBD010653B6FE43B501BD020643B6DB
:1015DB000153B5FEBD030643B60143B5017F00229F
:10145600EFD3940140037FFF22EDD3940340037F33
:10146600FF22EF33333354F8FFE5AF54F74FF5AFB0
:10147600ED700653EEFE53DFFEBD010653EEFE434E
:10148600DF01BD020643EE0153DFFEBD030643EE58
:071496000143DF017F00228A
:10149D00EFD3940140037FFF22EDD3940340037FEC
:1014AD00FF22EFC454F0FFE5AF54EF4FF5AFED70F1
:1014BD000653EEFD53DFFDBD010653EEFD43DF0286
:1014CD00BD020643EE0253DFFDBD030643EE0243AC
:0514DD00DF027F002288
:1014E200EFD3940140037FFF22EDD3940340037FA7
:1014F200FF22EF25E0FFE5AF54FD4FF5AFED70069B
:1015020053B6FD53B5FDBD010653B6FD43B502BD4D
:10151200020643B60253B5FDBD030643B60243B508
:04152200027F002222
:10127900EFD3948140037FFF22EBD3940340037F94
:10128900FF22EF247F603004705890FEC4EDF0EB2C
:10129900700653B6FB53B5FBBB010653B6FB43B50A
:1012A90004BB020643B60453B5FBEB640370384331
:1012B900B60443B504803090FEE4EDF0EB700653BC
:1012C900B6F753B5F7BB010653B6F743B508BB02EA
:1012D9000643B60853B5F7BB030D43B60843B50833
:0A12E900800590FEE4EDF07F002286
:10175F00EDD394035026ED700653EEFB53DFFBBD24
:10176F00010653EEFB43DF04BD020643EE0453DFD5
:10177F00FBBD030B43EE0443DF0480037FFF229086
:07178F00FE62EFF07F002273
:1017960090FA10E054F0F0EDD39403500BE0FEED18
:1017A60025E025E0FDEE4DF0EBD39403500690FACC
:1017B60010E04BF090FA10E0BF01054480F0800382
:0617C600547FF07F0022B9
:1017CC0090FA00E054F0F0EDD39403500BE0FEEDF2
:1017DC0025E025E0FDEE4DF0EBD39403500690FA96
:1017EC0000E04BF090FA00E0BF01054480F080036C
:0617FC00547FF07F002283
:1018020090FA20E054F0F0EDD39403500BE0FEED9B
:1018120025E025E0FDEE4DF0EBD39403500690FA5F
:1018220020E04BF090FA20E0BF01054480F08003F5
:06183200547FF07F00224C
:1018380090FA30E054F0F0EDD39403500BE0FEED55
:1018480025E025E0FDEE4DF0EBD39403500690FA29
:1018580030E04BF090FA30E0BF01054480F080039F
:06186800547FF07F002216
:10186E0090FA38E054F0F0EDD39403500BE0FEED17
:10187E0025E025E0FDEE4DF0EBD39403500690FAF3
:10188E0038E04BF090FA38E0BF01054480F0800359
:06189E00547FF07F0022E0
:1018A40090FA40E054F0F0EDD39403500BE0FEEDD9
:1018B40025E025E0FDEE4DF0EBD39403500690FABD
:1018C40040E04BF090FA40E0BF01054480F0800313
:0618D400547FF07F0022AA
:1018DA0090FA48E054F0F0EDD39403500BE0FEED9B
:1018EA0025E025E0FDEE4DF0EBD39403500690FA87
:1018FA0048E04BF090FA48E0BF01054480F08003CD
:06190A00547FF07F002273
:1019100090FA50E054F0F0EDD39403500BE0FEED5C
:1019200025E025E0FDEE4DF0EBD39403500690FA50
:1019300050E04BF090FA50E0BF01054480F0800386
:06194000547FF07F00223D
:1019460090FA58E054F0F0EDD39403500BE0FEED1E
:1019560025E025E0FDEE4DF0EBD39403500690FA1A
:1019660058E04BF090FA58E0BF01054480F0800340
:06197600547FF07F002207
:10197C0090FA60E054F0F0EDD39403500BE0FEEDE0
:10198C0025E025E0FDEE4DF0EBD39403500690FAE4
:10199C0060E04BF090FA60E0BF01054480F08003FA
:0619AC00547FF07F0022D1
:1019B20090FA68E054F0F0EDD39403500BE0FEEDA2
:1019C20025E025E0FDEE4DF0EBD39403500690FAAE
:1019D20068E04BF090FA68E0BF01054480F08003B4
:0619E200547FF07F00229B
:1019E80090FA70E054F0F0EDD39403500BE0FEED64
:1019F80025E025E0FDEE4DF0EBD39403500690FA78
:101A080070E04BF090FA70E0BF01054480F080036D
:061A1800547FF07F002264
:1000660090FE50E054CFF0EDD39403500AE0FEED3D
:10007600C454F0FDEE4DF090FE50E0BF0105448003
:09008600F08003547FF07F00229A
:10058000AD07ED6401707A90FECCE054FEF0E054CB
:10059000FBF090FEC8E054FCF0120E4DFF90FEC838
:1005A000E0548F4FF0900006120E66FF90FECC30A4
:1005B000E00DE04401F090FEB1E04401F0800BE07A
:1005C00054FEF090FEB1E054FEF0EF90FECC30E12E
:1005D0000DE04404F090FEB1E04402F0800BE054E2
:1005E000FBF090FEB1E054FDF0900003120EBEE56A
:1005F000F090FED5F0900003120EBE90FED60209D8
:100600003AED6402707A90FECCE054EFF0E054BF13
:10061000F090FEC9E054FCF0120E4DFF90FEC9E0D0
:10062000548F4FF0900006120E66FF90FECC30E221
:100630000DE04410F090FEB1E04404F0800BE05473
:10064000EFF090FEB1E054FBF0EF90FECC30E30D04
:10065000E04440F090FEB1E04408F0800BE054BF6D
:10066000F090FEB1E054F7F0900003120EBEE5F0FA
:1006700090FED7F0900003120EBE90FED802093A09
:10068000ED6403707A90FECDE054FEF0E054FBF090
:1006900090FECAE054FCF0120E4DFF90FECAE054EA
:1006A0008F4FF0900006120E66FF90FECD30E40DE5
:1006B000E04401F090FEB1E04410F0800BE054FE05
:1006C000F090FEB1E054EFF0EF90FECD30E50DE09C
:1006D0004404F090FEB1E04420F0800BE054FBF0C5
:1006E00090FEB1E054DFF0900003120EBEE5F090F2
:1006F000FED9F0900003120EBE90FEDA02093AED28
:100700006404707A90FECDE054EFF0E054BFF090B6
:10071000FECBE054FCF0120E4DFF90FECBE0548F68
:100720004FF0900006120E66FF90FECD30E60DE011
:100730004410F090FEB1E04440F0800BE054EFF044
:1007400090FEB1E054BFF0EF90FECD30E70DE044F5
:1007500040F090FEB1E04480F0800BE054BFF09098
:10076000FEB1E0547FF0900003120EBEE5F090FE63
:10077000DBF0900003120EBE90FEDC02093AED643D
:1007800080704F900005120E6690FEDEF090000122
:10079000120EBEE5F090FED2F0900001120EBE9057
:1007A000FED3F0900008120E6690FEDDB40106E064
:1007B0004480F08004E0547FF0900007120E6690B1
:1007C000FEC0B40106E04401F08004E054FEF07F76
:1007D0000022ED6405705690FEECE054FEF090FEB1
:1007E000E8E054FCF0120E4DFF90FEE8E0548F4F0D
:1007F000F0900006120E6690FEEC30E00DE0440131
:10080000F090FEB5E04401F0800BE054FEF090FE65
:10081000B5E054FEF0900003120EBEE5F090FEF538
:10082000F0900003120EBE90FEF602093AED640647
:10083000705690FEECE054EFF090FEE9E054FCF0CE
:10084000120E4DFF90FEE9E0548F4FF0900006121B
:100850000E6690FEEC30E20DE04410F090FEB5E044
:100860004404F0800BE054EFF090FEB5E054FBF050
:10087000900003120EBEE5F090FEF7F09000031218
:100880000EBE90FEF802093AED6407705590FEED39
:10089000E054FEF090FEEAE054FCF0120E4DFF90A2
:1008A000FEEAE0548F4FF0900006120E6690FEEDC7
:1008B00030E40DE04401F090FEB5E04410F0800B10
:1008C000E054FEF090FEB5E054EFF0900003120EFD
:1008D000BEE5F090FEF9F0900003120EBE90FEFA15
:1008E0008058ED6408705790FEEDE054EFF090FEF4
:1008F000EBE054FCF0120E4DFF90FEEBE0548F4FF6
:10090000F0900006120E6690FEED30E60DE0441009
:10091000F090FEB5E04440F0800BE054EFF090FE24
:10092000B5E054BFF0900003120EBEE5F090FEFB60
:10093000F0900003120EBE90FEFCF07F0022ED64EA
:1009400081704C900005120E6690FEFEF090000142
:10095000120EBEFDACF0EC90FEF2F0AF05A3EFF08E
:10096000900008120E6690FEFDB40106E04480F08F
:100970008004E0547FF0900007120E6690FEE0B411
:100980000106E04401F08004E054FEF07F00227F85
:02099000FF2244
:10109D00EF2480700302115814700302119D2480F7
:1010AD00B4080040030211E99010C375F003A4C504
:1010BD008325F0C583730210DB0210E80210F802DD
:1010CD001108021118021128021138021148120ECE
:1010DD0093FDACF0EC90FED50211E3900002120EE0
:1010ED00BEFDACF0EC90FED70211E3900004120EA1
:1010FD00BEFDACF0EC90FED90211E3900006120E8D
:10110D00BEFDACF0EC90FEDB0211E3900008120E78
:10111D00BEFDACF0EC90FEF50211E390000A120E4C
:10112D00BEFDACF0EC90FEF70211E390000C120E38
:10113D00BEFDACF0EC90FEF90211E390000E120E24
:10114D00BEFDACF0EC90FEFB0211E3120E93FDAC74
:10115D00F0EC90FED5F0AF05A3EFF0900002120E6B
:10116D00BEFDACF0EC90FED7F0AF05A3EFF0900014
:10117D0004120EBEFDACF0EC90FED9F0AF05A3EF5E
:10118D00F0900006120EBEFDACF0EC90FEDB80463A
:10119D00900008120EBEFDACF0EC90FEF5F0AF0520
:1011AD00A3EFF090000A120EBEFDACF0EC90FEF72E
:1011BD00F0AF05A3EFF090000C120EBEFDACF0ECFD
:1011CD0090FEF9F0AF05A3EFF090000E120EBEFDEC
:0D11DD00ACF0EC90FEFBF0AF05A3EFF022AC
:10099200AD07ED7079C28C120E4DFED39403400365
:1009A2007FFF22E58954FC4EF589900001120E6604
:1009B200FED3940240037FFF22EE7006538E7F53D4
:1009C20089FB900001120E66B40106438E805389A2
:1009D200FB900001120E66B40203438904900002E8
:1009E200120E66FFE58F54FE4FF58F900003120E34
:1009F200BEE5F0F58C900003120EBEF58A9000065B
:100A0200120E667004C28C8002D28C7F0022ED64CA
:100A1200016003020A98C28E120E4DFED394034067
:100A2200037FFF22EEC454F0FFE58954CF4FF589CE
:100A3200900001120E66FED3940240037FFF22EE65
:100A42007006538EBF5389BF900001120E66B40127
:100A520006438E405389BF900001120E66B4020312
:100A6200438940900002120E6625E0FFE58F54FD97
:100A72004FF58F900003120EBEE5F0F58D90000346
:100A8200120EBEF58B900006120E667004C28E80A6
:100A920002D28E7F0022ED64027065538EEF9000C9
:100AA20001120E66FF7006538EFB538EF7EFB401F0
:100AB20006438E04538EF7EFB40203438E08900070
:100AC20002120E6625E025E0FFE58F54FB4FF58FFD
:100AD200900003120EBEE5F0F5D6900003120EBE92
:100AE200F5D7900005120E6690FEA2F09000061255
:100AF2000E66C454F0FFE58E54EF4FF58E7F002250
:100B0200ED6403707253D1F7900001120E66FED3AA
:100B1200940240037FFF22EE700653D1FD53D1FBB6
:100B2200900001120E66B4010643D10253D1FB902C
:100B32000001120E66B4020343D104900002120EA9
:100B420066FFE5D154FE4FF5D1900003120EBEE5CB
:100B5200F0F5D4900003120EBEF5D5900005120EEA
:100B62006690FEA3F0900006120E6633333354F8FB
:100B7200FFE5D154F78077ED6404707853D17F900C
:100B82000001120E66FED3940240037FFF22EE7034
:100B92000653D1DF53D1BF900001120E66B4010695
:100BA20043D12053D1BF900001120E66B402034319
:100BB200D140900002120E66C454F0FFE5D154EF0A
:100BC2004FF5D1900003120EBEFDACF0ECF5D2AFA2
:100BD200058FD3900005120E6690FEA4F0900006D9
:100BE200120E66C43333335480FFE5D1547F4FF580
:070BF200D17F00227FFF22EA
:03000B00020008E8
:03000800B2EF3222
:03001B0002005F81
:03005F00B2EE32CC
:0300630002009EFA
:03009E00B2ED328E
:03009B00021B86BF
:031B8600B2EC328C
:0300A300021B89B4
:031B8900B2EB328A
:0800A6008F3A8B3B8A3C893D37
:1000AE00E53A6401600302021CF526F527F528F5F2
:1000BE0029F52AF53EF53F7440253FF5827401354A
:1000CE003EF583E4F0053FE53F7002053E64804552
:1000DE003E70E4E4F53EF53F7400253FF582740072
:1000EE00353EF583E4F0053FE53F7002053E648042
:1000FE00453E70E4AB3BAA3CA93D120E4DFFE59880
:10010E00543F4FF598EF64C06008EF6440600302FF
:10011E0001D19000021210377F807E8D7D5B7C00B6
:10012E00120F818F438E428D418C40E4FFFE7D0184
:10013E00FCAB43AA42A941A840C312101340037F4F
:10014E00FF22C3E49543F543E49542F542740195CD
:10015E0041F541E49540F540AB3BAA3CA93D9000EA
:10016E0001120E66FB6401702CC28E538EFE5389F3
:10017E00BF5389CF438E40AF43AE42AD41AC4078C2
:10018E00081210248F8D85438BC2AB5389BF538FBA
:10019E00FDD28E8062EB64027026538EEF438E0189
:1001AE00538EF7438E04AF43AE42AD41AC40780858
:1001BE001210248FD68543D753AFFB438E10803752
:1001CE007FFF22AB3BAA3CA93D120E4DFF70139050
:1001DE000008120E66B40105438E20801A538EDF7E
:1001EE008015EFB48011900008120E66B40105431D
:1001FE008780800353877FAB3BAA3CA93D900007C5
:10020E00120E667004C29C8002D29C7F0022E53AD8
:10021E0064026003020315F52BF52CF52DF52EF572
:10022E002FF53EF53F74E0253FF5827401353EF51E
:10023E0083E4F0053FE53F7002053E6480453E7065
:10024E00E4E4F53EF53F7480253FF5827400353EBB
:10025E00F583E4F0053FE53F7002053E6480453EC0
:10026E0070E4AB3BAA3CA93D120E4DFF64C0600585
:10027E00EF64407075EFB4C005439A808003539AC3
:10028E007F9000021210377F807E8D7D5B7C001286
:10029E000F818F438E428D418C40E4FFFE7D01FC29
:1002AE00AB43AA42A941A840C312101340037FFFDB
:1002BE0022C3E49543F543E49542F542740195411A
:1002CE00F541E49540F540538EEF538EF7438E047F
:1002DE00AF43AE42AD41AC4078081210248FD685A4
:1002EE0043D753AFFB438E1080037FFF22AB3BAA55
:1002FE003CA93D900007120E66C454F0FFE59A54D7
:10030E00EF4FF59A7F0022E53A6403600302044939
:10031E00F530F531F532F533F534F53EF53F7460D1
:10032E00253FF5827402353EF583E4F0053FE53F47
:10033E007002053E6440453E70E4E4F53EF53F74C0
:10034E0000253FF5827401353EF583E4F0053FE567
:10035E003F7002053E6440453E70E4AB3BAA3CA9AB
:10036E003D120E4DFF64C06008EF6440600302044E
:10037E002CEFB4C00543AC80800353AC7F900002D9
:10038E001210377F807E8D7D5B7C00120F818F4334
:10039E008E428D418C40E4FFFE7D01FCAB43AA42B0
:1003AE00A941A840C312101340037FFF22C3E49556
:1003BE0043F543E49542F54274019541F541E495C8
:1003CE0040F540AB3BAA3CA93D900001120E66FBE6
:1003DE00B4031D43AC40AF43AE42AD41AC407808D0
:1003EE001210248FD48543D553D1F043D10A8031D6
:1003FE00EB64027026538EEF53ACBF538EF7438ED1
:10040E0004AF43AE42AD41AC4078081210248FD6F3
:10041E008543D753AFFB438E1080067FFF227FFFAD
:10042E0022AB3BAA3CA93D900007120E66C454F0C5
:10043E00FFE5AC54EF4FF5AC7F0022E53A64046063
:10044E000302057DF535F536F537F538F539F53E08
:10045E00F53F74A0253FF5827402353EF583E4F036
:10046E00053FE53F7002053E6420453E70E4E4F52D
:10047E003EF53F74C0253FF5827401353EF583E4A9
:10048E00F0053FE53F7002053E6420453E70E4AB4B
:10049E003BAA3CA93D120E4DFF64C06008EF6440BC
:1004AE006003020560EFB4C005438480800353846B
:1004BE007F9000021210377F807E8D7D5B7C001254
:1004CE000F818F438E428D418C40E4FFFE7D01FCF7
:1004DE00AB43AA42A941A840C312101340037FFFA9
:1004EE0022C3E49543F543E49542F54274019541E8
:1004FE00F541E49540F540AB3BAA3CA93D90000187
:10050E00120E66FBB4041D438440AF43AE42AD41B0
:10051E00AC4078081210248FD28543D353D10F43A9
:10052E00D1A08031EB64027026538EEF5384BF53FB
:10053E008EF7438E04AF43AE42AD41AC4078081205
:10054E0010248FD68543D753AFFB438E1080067F82
:10055E00FF227FFF22AB3BAA3CA93D900007120E63
:10056E0066C454F0FFE58454EF4FF5847F00227F7C
:01057E00FF7D
:01057F002259
:0A008F008F99752801E52870FC2206
:101B0C00120E4DFF600C12008F740129F9E43AFAA1
:031B1C0080EE2236
:0A1B68008F9B752D01E52D70FC2206
:101B1F00120E4DFF600C121B68740129F9E43AFA9A
:031B2F0080EE2223
:0A1B72008FAD753201E53270FC22E0
:101B3200120E4DFF600C121B72740129F9E43AFA7D
:031B420080EE2210
:0A1B7C008F85753701E53770FC22F4
:101B4500120E4DFF600C121B7C740129F9E43AFA60
:031B550080EE22FD
:05000300AE0702008FB2
:0300000002000EED
:0C000E00787FE4F6D8FD75814E0211EAFF
:100E4D00BB010689828A83E0225002E722BBFE02A3
:090E5D00E32289828A83E49322D6
:100E6600BB010CE58229F582E5833AF583E0225041
:100E760006E92582F8E622BBFE06E92582F8E2228B
:0D0E8600E58229F582E5833AF583E49322A5
:100E9300BB010A89828A83E0F5F0A3E0225006872A
:100EA300F009E71922BBFE07E3F5F009E3192289EC
:0B0EB300828A83E493F5F0740193221F
:100EBE00BB0110E58229F582E5833AF583E0F5F072
:100ECE00A3E0225009E92582F886F008E622BBFE4F
:100EDE000AE92582F8E2F5F008E222E5832AF58395
:080EEE00E993F5F0A3E993225A
:100EF600E88FF0A4CC8BF0A42CFCE98EF0A42CFC9B
:100F06008AF0EDA42CFCEA8EF0A4CDA8F08BF0A418
:100F16002DCC3825F0FDE98FF0A42CCD35F0FCEB77
:100F26008EF0A4FEA9F0EB8FF0A4CFC5F02ECD393C
:0F0F3600FEE43CFCEAA42DCE35F0FDE43CFC22A9
:100F450075F008758200EF2FFFEE33FECD33CDCC63
:100F550033CCC58233C5829BED9AEC99E5829840E6
:100F65000CF582EE9BFEED9AFDEC99FC0FD5F0D6C3
:100F7500E4CEFBE4CDFAE4CCF9A88222B800C1B9ED
:100F85000059BA002DEC8BF084CFCECDFCE5F0CB2B
:100F9500F97818EF2FFFEE33FEED33FDEC33FCEB64
:100FA50033FB10D703994004EB99FB0FD8E5E4F91F
:100FB500FA227818EF2FFFEE33FEED33FDEC33FC0C
:100FC500C933C910D7059BE99A4007EC9BFCE99A00
:100FD500F90FD8E0E4C9FAE4CCFB2275F010EF2F45
:100FE500FFEE33FEED33FDCC33CCC833C810D70745
:100FF5009BEC9AE899400AED9BFDEC9AFCE899F880
:0E1005000FD5F0DAE4CDFBE4CCFAE4C8F92212
:10152600C2D5E830E70FB2D5E4C39BFBE49AFAE4F0
:1015360099F9E498F8EC30E717B2D512155C120F5A
:1015460081E4C39BFBE49AFAE499F9E498F88003F2
:10155600120F8130D50DE4C39FFFE49EFEE49DFD8E
:04156600E49CFC22E3
:10101300EB9FF5F0EA9E42F0E99D42F0E89C45F033
:0110230022AA
:10102400E8600FECC313FCED13FDEE13FEEF13FFAA
:03103400D8F122CE
:10103700BB010DE58229F582E5833AF58302107439
:101047005007E92582F8021067BBFE07E92582F8F9
:10105700021080E58229F582E5833AF58302108D37
:0D106700E6FB08E6F908E6FA08E6CBF822F9
:0C107400E0F8A3E0F9A3E0FAA3E0FB22FF
:0D108000E2FB08E2F908E2FA08E2CBF822F0
:10108D00E493F8740193F9740293FA740393FB22B9
:00000001FF
