:10162200E3F2D8A8CDDAC380B99BB029A7259E8D55
:10163200965C8E9087258017796373046CF8673BFC
:1016420061CA5CA157BC53194EB44A8B469B42E017
:101652003F583C0138D735D9330530582DD02B6A45
:101662002927270224FC231121411F8B1DEC1C6317
:101672001AF019911844170A15E114C713BD12C1C3
:1016820011D210F0101A0F500E900DDA0D2E0C8B95
:101692000BF10B5E0AD30A4F09D3095C08EC0881EF
:1016A200081C07BA0761070A06B8066A062005D9A8
:1016B20005960556051A04E004A9047504440414A9
:1016C20003E803BD0394036D03480325030302E308
:1016D20002C502A7028C02710258024002280212BD
:1016E20001FD01E901D601C401B201A1019101820A
:1016F200017301660158014B013E01320127011CB1
:101702000112010800FE00F500EC00E400DC00D448
:1017120000CD00C600BF00B800B200AC00A600A019
:10172200009B00960091008C00870083007E007A67
:1017320000760073006F006B006800650061005E58
:10174200005B0059005600530051004E004C004A05
:101752000047004500430041003F003D003C003A85
:10176200003800370035003400320031002F002EDF
:10177200002D002B002A0029002800270026002522
:0A17820000240023002200210020B3
:100066007517107516017B007A007916E4FF1212D7
:1000760043751703E4F516FB7A0079167F0312120F
:040086004302241FEE
:10225100751640751701751B00751AC27519017540
:102261001800751D01E4F51EFB7A0079167F011235
:0C22710006F07D017F01121F5453A23FB4
:01227D00223E
:1022CA0075161FE4F519751A0175170F751801FBB4
:1022DA007A007916121B537F011223ECE4FDFF02E8
:0222EA001F16BD
:10235200E4F516751701F5187519A2751A40751C62
:1023620001FB7A007916FF120FDCE4FDFF021E1E4C
:03000B0002000AE6
:01000A0032C3
:081497008F198E188D178C16B9
:10149F00E4F51AF51BF51CF51D90162293FC74014B
:1014AF0093FDE41203D3A804A905AA06AB07AF194D
:1014BF00AE18AD17AC161200A9E4FBFAF9F8120337
:1014CF00445023901622E493FC740193FDE412031D
:1014DF00D3A804A905AA06AB07AF19AE18AD17AC70
:1014EF00161200A98024901622E493FC740193FD38
:1014FF00E41203D3A804A905AA06AB07AF19AE18C7
:10150F00AD17AC161200A91203BD8F218E208D1FAF
:10151F008C1E7522007523B5751C00751D01C3E562
:10152F001D9523E5226480F8E51C64809840030232
:02153F00161D77
:10154100E51D25E0FFE51C33FE74222FF58274169C
:101551003EF583E493FC740193FDE41203D3A804E4
:10156100A905AA06AB07AF19AE18AD17AC16120044
:10157100A9E4FBFAF9F81203445033E51D25E0FF15
:10158100E51C33FE74222FF58274163EF583E49335
:10159100FC740193FDE41203D3A804A905AA06ABC8
:1015A10007AF19AE18AD17AC161200A98034E51DAE
:1015B10025E0FFE51C33FE74222FF58274163EF5FB
:1015C10083E493FC740193FDE41203D3A804A905F9
:1015D100AA06AB07AF19AE18AD17AC161200A912C7
:1015E10003BD8F278E268D258C24AF21AE20AD1F04
:1015F100AC1EAB27AA26A925A824120344501285A4
:10160100272185262085251F85241E851C1A851DD9
:011611001BBD
:0F161200051DE51D7002051C02152DAE1AAF1B3C
:0116210022A6
:1018D90043BA801200661222511222CA122352D22E
:1018E900AF7F0C121A248E088F09AC08AD09E412D7
:1018F90003D3E4FBFA7920784012019EE4FBFA79DC
:101909008078451202A78F0D8E0C8D0B8C0AAB0DBA
:10191900AA0CA90BA80A7F337E337D537C401200A1
:10192900A9C004C005C006C007E4FFFE7D207C41B4
:10193900AB0DAA0CA90BA80A12019ED003D002D0A4
:1019490001D0001202A78F118E108D0F8C0EE4FFAB
:10195900FE7DC87C42AB11AA10A90FA80E12019EE8
:10196900121497EF24C9F513EE34FFF512FEAF13E5
:101979007C007D0A12049C8F14AE12AF137C007D8B
:101989000A12049C8D15E4FDAF141224227F05125E
:1019990023DC7D01AF151224227F051223DC0218F6
:0119A900EA53
:101B530090000112046FFFE5DE54F04FF5DE9000B4
:101B63000212046FC43354E0FFE5DE54DF4FF5DEA9
:101B7300120456FFD3941F502B90000312046FFEE0
:101B8300D39401501F90000412046FFDD3940350AB
:101B930013EDC43354E0FDEEC433333354804D4F5F
:051BA30090FEA8F022F5
:0B23EC00BF010443BC802253BC7F22D1
:101A2400EFD3940F40028060E4F5BDF5BEE5BC54ED
:101A3400F044404FF5BC000000000000000000002E
:101A4400E4FDE5BC30E53D53BCDFE5DEAFBD30E58C
:101A54000EEFFEACBEECFBEEF516EBF51780207531
:101A640016008F17E5BEC4540FFBE517C4F8540FD6
:101A7400C868FFE516C454F048F516EF4BF517AEE9
:0C1A840016AF17220DBDFABA7E107F00CD
:011A90002233
:03002B00020026AA
:0400260053BCDF32B6
:0F23DC007D607C09ED1D70011C144C70F7DFF162
:0123EB0022CF
:10124300EFD3940740037FFF22120456FED3940387
:1012530040037FFF22EF7041EE700B9000011204F8
:101263006FF452935294120456B4010B900001127E
:10127300046F4293F45294120456FEB4020A90008F
:101283000112046F42934294EEB4030D90000112D5
:10129300046FFEF45293EE4294EF64017043120420
:1012A30056FE700B90000112046FF452915292EEAD
:1012B300B4010B90000112046F4291F45292120494
:1012C30056B4020A90000112046F42914292120432
:1012D30056B4030D90000112046FFEF45291EE42D6
:1012E30092EF64027043120456FE700B90000112D9
:1012F300046FF452955296EEB4010B900001120460
:101303006F4295F45296120456B4020A90000112E9
:10131300046F42954296120456B4030D90000112D5
:10132300046FFEF45295EE4296EF64037043120489
:1013330056FE700B90000112046FF452B152B2EEDC
:10134300B4010B90000112046F42B1F452B21204C3
:1013530056B4020A90000112046F42B142B2120461
:1013630056B4030D90000112046FFEF452B1EE4225
:10137300B2EF64047043120456FE700B9000011226
:10138300046FF452B352B4EEB4010B900001120493
:101393006F42B3F452B4120456B4020A900001121D
:1013A300046F42B342B4120456B4030D9000011209
:1013B300046FFEF452B3EE42B4EF640570431204BB
:1013C30056FE700B90000112046FF452C952CAEE1C
:1013D300B4010B90000112046F42C9F452CA120403
:1013E30056B4020A90000112046F42C942CA1204A1
:1013F30056B4030D90000112046FFEF452C9EE427D
:10140300CAEF64067043120456FE700B900001127B
:10141300046FF452CB52CCEEB4010B9000011204D2
:101423006F42CBF452CC120456B4020A900001125C
:10143300046F42CB42CC120456B4030D9000011248
:10144300046FFEF452CBEE42CCEF640770431204F8
:1014530056FF700B90000112046FF452E152E2EF59
:10146300B4010B90000112046F42E1F452E2120442
:1014730056B4020A90000112046F42E142E21204E0
:1014830056B4030D90000112046FFFF452E1EF42D2
:04149300E27F0022D2
:101E1E00EFD3940140037FFF22EDD3940340037F61
:101E2E00FF22EF7004C2A98002D2A9ED700553B74C
:101E3E00FDC2B9BD010553B7FDD2B9BD020543B709
:0E1E4E0002C2B9BD030543B702D2B97F00221C
:101E5C00EFD3940140037FFF22EDD3940340037F23
:101E6C00FF22EF7004C2AB8002D2ABED700553B70A
:101E7C00F7C2BBBD010553B7F7D2BBBD020543B7D3
:0E1E8C0008C2BBBD030543B708D2BB7F0022CE
:1022EC00EFD3940140037FFF22EDD3940340037F8F
:1022FC00FF22EF25E025E0FFE5AF54FB4FF5AFE4FF
:02230C00FF22AE
:10230E00EFD3940140037FFF22EDD3940340037F6C
:10231E00FF22EFC43354E0FFE5AF54DF4FF5AFE4D7
:02232E00FF228C
:1022A700EFD3940140037FFF22EDD3940340037FD4
:1022B700FF22EFC4333354C0FFE5AF54BF4FF5AF30
:0322C700E4FF220F
:101E9A00EFD3940140037FFF22EDD3940340037FE5
:101EAA00FF22EF7004C2A88002D2A8ED700553B7D2
:101EBA00FEC2B8BD010553B7FED2B8BD020543B78D
:0E1ECA0001C2B8BD030543B701D2B87F0022A4
:101ED800EFD3940140037FFF22EDD3940340037FA7
:101EE800FF22EF7004C2AA8002D2AAED700553B790
:101EF800FBC2BABD010553B7FBD2BABD020543B751
:0E1F080004C2BABD030543B704D2BA7F00225B
:10238B00EFD3940140037FFF22EFC454F0FFE58F9E
:08239B0054EF4FF58FE4FF221F
:10237200EFD3940140037FFF22EFC43354E0FFE523
:092382008F54DF4FF58FE4FF22B8
:10004600EFD3940140037FFF22EFC4333354C0FF44
:0A005600E58F54BF4FF58FE4FF2241
:101F1600EFD3940140037FFF22EDD3940340037F68
:101F2600FF22EF7004C2AD8002D2ADED700553B74B
:101F3600DFC2BDBD010553B7DFD2BDBD020543B744
:0E1F460020C2BDBD030543B720D2BD7F0022DF
:101C8300EDD3940340037FFF22EF30E10543E620C9
:101C9300800353E6DFEF30E00543E610800353E6AD
:101CA300EFED700653B6DF53B5DFBD010653B6DF64
:101CB30043B520BD020643B62053B5DFBD0306433B
:081CC300B62043B5207F00228A
:101AFA00EFD3940140037FFF22EBD3940340037F8B
:101B0A00FF22BF0112ED90FE817006E0547FF08043
:101B1A0011E04480F0800BEF700890FE83E0548758
:101B2A004DF0EB700653B6DF53B5DFBB010653B673
:101B3A00DF43B520BB020643B62053B5DFBB03061D
:091B4A0043B62043B5207F0022C0
:101F5400EFD3940140037FFF22EDD3940340037F2A
:101F6400FF22EF7004C2AC8002D2ACED700553B70F
:101F7400EFC2BCBD010553B7EFD2BCBD020543B7E8
:0E1F840010C2BCBD030543B710D2BC7F0022C3
:101DDE00EFD3940140037FFF22EDD3940340037FA2
:101DEE00FF22E5AF54FE4FF5AFED700653B6FE532E
:101DFE00B5FEBD010653B6FE43B501BD020643B6A0
:101E0E000153B5FEBD030643B60143B5017F002263
:101CCB00EFD3940140037FFF22EDD3940340037FB6
:101CDB00FF22EF33333354F8FFE5AF54F74FF5AF33
:101CEB00ED700653EEFE53DFFEBD010653EEFE43D1
:101CFB00DF01BD020643EE0153DFFEBD030643EEDB
:071D0B000143DF017F00220C
:101D1200EFD3940140037FFF22EDD3940340037F6E
:101D2200FF22EFC454F0FFE5AF54EF4FF5AFED7073
:101D32000653EEFD53DFFDBD010653EEFD43DF0208
:101D4200BD020643EE0253DFFDBD030643EE02432E
:051D5200DF027F00220A
:101D5700EFD3940140037FFF22EDD3940340037F29
:101D6700FF22EF25E0FFE5AF54FD4FF5AFED70061D
:101D770053B6FD53B5FDBD010653B6FD43B502BDD0
:101D8700020643B60253B5FDBD030643B60243B58B
:041D9700027F0022A5
:1019AA00EFD3948140037FFF22EBD3940340037F5C
:1019BA00FF22EF247F603004705890FEC4EDF0EBF4
:1019CA00700653B6FB53B5FBBB010653B6FB43B5D2
:1019DA0004BB020643B60453B5FBEB6403703843F9
:1019EA00B60443B504803090FEE4EDF0EB70065384
:1019FA00B6F753B5F7BB010653B6F743B508BB02B2
:101A0A000643B60853B5F7BB030D43B60843B508FA
:0A1A1A00800590FEE4EDF07F00224D
:101F9200EDD394035026ED700653EEFB53DFFBBDE9
:101FA200010653EEFB43DF04BD020643EE0453DF9A
:101FB200FBBD030B43EE0443DF0480037FFF22904B
:071FC200FE62EFF07F002238
:101FC90090FA10E054F0F0EDD39403500BE0FEEDDD
:101FD90025E025E0FDEE4DF0EBD39403500690FA91
:101FE90010E04BF090FA10E0BF01054480F0800347
:061FF900547FF07F00227E
:101FFF0090FA00E054F0F0EDD39403500BE0FEEDB7
:10200F0025E025E0FDEE4DF0EBD39403500690FA5A
:10201F0000E04BF090FA00E0BF01054480F0800330
:06202F00547FF07F002247
:1020350090FA20E054F0F0EDD39403500BE0FEED60
:1020450025E025E0FDEE4DF0EBD39403500690FA24
:1020550020E04BF090FA20E0BF01054480F08003BA
:06206500547FF07F002211
:10206B0090FA30E054F0F0EDD39403500BE0FEED1A
:10207B0025E025E0FDEE4DF0EBD39403500690FAEE
:10208B0030E04BF090FA30E0BF01054480F0800364
:06209B00547FF07F0022DB
:1020A10090FA38E054F0F0EDD39403500BE0FEEDDC
:1020B10025E025E0FDEE4DF0EBD39403500690FAB8
:1020C10038E04BF090FA38E0BF01054480F080031E
:0620D100547FF07F0022A5
:1020D70090FA40E054F0F0EDD39403500BE0FEED9E
:1020E70025E025E0FDEE4DF0EBD39403500690FA82
:1020F70040E04BF090FA40E0BF01054480F08003D8
:06210700547FF07F00226E
:10210D0090FA48E054F0F0EDD39403500BE0FEED5F
:10211D0025E025E0FDEE4DF0EBD39403500690FA4B
:10212D0048E04BF090FA48E0BF01054480F0800391
:06213D00547FF07F002238
:1021430090FA50E054F0F0EDD39403500BE0FEED21
:1021530025E025E0FDEE4DF0EBD39403500690FA15
:1021630050E04BF090FA50E0BF01054480F080034B
:06217300547FF07F002202
:1021790090FA58E054F0F0EDD39403500BE0FEEDE3
:1021890025E025E0FDEE4DF0EBD39403500690FADF
:1021990058E04BF090FA58E0BF01054480F0800305
:0621A900547FF07F0022CC
:1021AF0090FA60E054F0F0EDD39403500BE0FEEDA5
:1021BF0025E025E0FDEE4DF0EBD39403500690FAA9
:1021CF0060E04BF090FA60E0BF01054480F08003BF
:0621DF00547FF07F002296
:1021E50090FA68E054F0F0EDD39403500BE0FEED67
:1021F50025E025E0FDEE4DF0EBD39403500690FA73
:1022050068E04BF090FA68E0BF01054480F0800378
:06221500547FF07F00225F
:10221B0090FA70E054F0F0EDD39403500BE0FEED28
:10222B0025E025E0FDEE4DF0EBD39403500690FA3C
:10223B0070E04BF090FA70E0BF01054480F0800332
:06224B00547FF07F002229
:10227E0090FE50E054CFF0EDD39403500AE0FEED03
:10228E00C454F0FDEE4DF090FE50E0BF01054480C9
:09229E00F08003547FF07F002260
:0806F0008F1F8B208A21892253
:1006F800E51F64016003020866F529F52AF52BF564
:100708002CF52DF523F52474402524F58274013544
:1007180023F583E4F00524E524700205236480456D
:100728002370E4E4F523F52474002524F58274008D
:100738003523F583E4F00524E5247002052364805D
:10074800452370E4AB20AA21A922120456FFE5989C
:10075800543F4FF598EF64C06008EF6440600302AF
:10076800081B9000021206357F807E8D7D5B7C0021
:100778001205718F288E278D268C25E4FFFE7D01BA
:10078800FCAB28AA27A926A825C312061140037F77
:10079800FF22C3E49528F528E49527F527740195E9
:1007A80026F526E49525F525AB20AA21A922900057
:1007B8000112046FFB6401702CC28E538EFE5389A4
:1007C800BF5389CF438E40AF28AE27AD26AC2578DE
:1007D800081206228F8D85288BC2AB5389BF538F91
:1007E800FDD28E8062EB64027026538EEF438E0139
:1007F800538EF7438E04AF28AE27AD26AC25780874
:100808001206228FD68528D753AFFB438E10803728
:100818007FFF22AB20AA21A922120456FF70139051
:10082800000812046FB40105438E20801A538EDF2E
:100838008015EFB4801190000812046FB4010543CD
:100848008780800353877FAB20AA21A922900007C5
:1008580012046F7004C29C8002D29C7F0022E51FA4
:100868006402600302095FF52EF52FF530F531F5C6
:1008780032F523F52474E02524F58274013523F537
:1008880083E4F00524E52470020523648045237081
:10089800E4E4F523F52474802524F58274003523D7
:1008A800F583E4F00524E5247002052364804523DC
:1008B80070E4AB20AA21A922120456FF64C0600587
:1008C800EF64407075EFB4C005439A808003539A73
:1008D8007F9000021206357F807E8D7D5B7C001242
:1008E80005718F288E278D268C25E4FFFE7D01FC5F
:1008F800AB28AA27A926A825C312061140037FFF03
:1009080022C3E49528F528E49527F5277401952650
:10091800F526E49525F525538EEF538EF7438E047F
:10092800AF28AE27AD26AC2578081206228FD685CB
:1009380028D753AFFB438E1080037FFF22AB20AA3A
:1009480021A92290000712046FC454F0FFE59A54BD
:10095800EF4FF59A7F0022E51F64036003020A93B4
:10096800F533F534F535F536F537F523F5247460A8
:100978002524F58274023523F583E4F00524E52463
:10098800700205236440452370E4E4F523F52474DC
:10099800002524F58274013523F583E4F00524E568
:1009A80024700205236440452370E4AB20AA21A9E2
:1009B80022120456FF64C06008EF64406003020A14
:1009C80076EFB4C00543AC80800353AC7F9000023F
:1009D8001206357F807E8D7D5B7C001205718F2825
:1009E8008E278D268C25E4FFFE7D01FCAB28AA27E7
:1009F800A926A825C312061140037FFF22C3E49548
:100A080028F528E49527F52774019526F526E49519
:100A180025F525AB20AA21A92290000112046FFB1D
:100A2800B4031D43AC40AF28AE27AD26AC257808EB
:100A38001206228FD48528D553D1F043D10A8031AC
:100A4800EB64027026538EEF53ACBF538EF7438E80
:100A580004AF28AE27AD26AC2578081206228FD61B
:100A68008528D753AFFB438E1080067FFF227FFF78
:100A780022AB20AA21A92290000712046FC454F0C7
:100A8800FFE5AC54EF4FF5AC7F0022E51F6404602E
:100A980003020BC7F538F539F53AF53BF53CF52374
:100AA800F52474A02524F58274023523F583E4F037
:100AB8000524E524700205236420452370E4E4F549
:100AC80023F52474C02524F58274013523F583E4C5
:100AD800F00524E524700205236420452370E4AB67
:100AE80020AA21A922120456FF64C06008EF6440BE
:100AF8006003020BAAEFB4C00543848080035384CB
:100B08007F9000021206357F807E8D7D5B7C00120F
:100B180005718F288E278D268C25E4FFFE7D01FC2C
:100B2800AB28AA27A926A825C312061140037FFFD0
:100B380022C3E49528F528E49527F527740195261E
:100B4800F526E49525F525AB20AA21A922900001D8
:100B580012046FFBB4041D438440AF28AE27AD26B2
:100B6800AC2578081206228FD28528D353D10F439B
:100B7800D1A08031EB64027026538EEF5384BF53AB
:100B88008EF7438E04AF28AE27AD26AC2578081221
:100B980006228FD68528D753AFFB438E1080067F59
:100BA800FF227FFF22AB20AA21A92290000712046E
:100BB8006FC454F0FFE58454EF4FF5847F00227F23
:010BC800FF2D
:010BC9002209
:0A23F7008F99752B01E52B70FC2275
:10002E00120456FF600C1223F7740129F9E43AFA10
:03003E0080EE222F
:0A2401008F9B753001E53070FC225E
:1023A300120456FF600C122401740129F9E43AFA6D
:0323B30080EE2297
:0A240B008FAD753501E53570FC2238
:1023B600120456FF600C12240B740129F9E43AFA50
:0323C60080EE2284
:0A2415008F85753A01E53A70FC224C
:1023C900120456FF600C122415740129F9E43AFA33
:0323D90080EE2271
:05001E00AE070223F70C
:03002300021D9B20
:101D9B00C0E0C083C082C0D075D000C0073098208F
:101DAB00C298E52CC394804003752C00AF2C052CF6
:101DBB0074002FF582E43400F583E599F0752D0559
:101DCB00309905C299752B00D007D0D0D082D08323
:031DDB00D0E03223
:03004300021BA8F5
:101BA800C0E0C083C082C0D075D000C007E59A30BD
:101BB800E021539AFEE531C394804003753100AFAC
:101BC80031053174802FF582E43400F583E59BF00C
:101BD800753205E59A30E106539AFD753000D00755
:091BE800D0D0D082D083D0E032CD
:03008B00021BF164
:101BF100C0E0C083C082C0D075D000C007E5AC3062
:101C0100E02153ACFEE536C394404003753600AF86
:101C110036053674002FF582E43401F583E5ADF025
:101C2100753705E5AC30E10653ACFD753500D007DD
:091C3100D0D0D082D083D0E03283
:03009300021C3A12
:101C3A00C0E0C083C082C0D075D000C007E5843040
:101C4A00E0215384FEE53BC394204003753B00AF7B
:101C5A003B053B74C02FF582E43401F583E585F03A
:101C6A00753C05E58430E1065384FD753A00D007DA
:091C7A00D0D0D082D083D0E0323A
:100BCA00AD07ED6401707A90FECCE054FEF0E0547B
:100BDA00FBF090FEC8E054FCF0120456FF90FEC8E9
:100BEA00E0548F4FF090000612046FFF90FECC3055
:100BFA00E00DE04401F090FEB1E04401F0800BE02A
:100C0A0054FEF090FEB1E054FEF0EF90FECC30E1DD
:100C1A000DE04404F090FEB1E04402F0800BE05491
:100C2A00FBF090FEB1E054FDF09000031204FDE5E4
:100C3A00F090FED5F09000031204FD90FED6020F4C
:100C4A0084ED6402707A90FECCE054EFF0E054BF79
:100C5A00F090FEC9E054FCF0120456FF90FEC9E081
:100C6A00548F4FF090000612046FFF90FECC30E2D2
:100C7A000DE04410F090FEB1E04404F0800BE05423
:100C8A00EFF090FEB1E054FBF0EF90FECC30E30DB4
:100C9A00E04440F090FEB1E04408F0800BE054BF1D
:100CAA00F090FEB1E054F7F09000031204FDE5F075
:100CBA0090FED7F09000031204FD90FED8020F8434
:100CCA00ED6403707A90FECDE054FEF0E054FBF040
:100CDA0090FECAE054FCF0120456FF90FECAE0549B
:100CEA008F4FF090000612046FFF90FECD30E40D96
:100CFA00E04401F090FEB1E04410F0800BE054FEB5
:100D0A00F090FEB1E054EFF0EF90FECD30E50DE04B
:100D1A004404F090FEB1E04420F0800BE054FBF074
:100D2A0090FEB1E054DFF09000031204FDE5F0906C
:100D3A00FED9F09000031204FD90FEDA020F84ED52
:100D4A006404707A90FECDE054EFF0E054BFF09066
:100D5A00FECBE054FCF0120456FF90FECBE0548F19
:100D6A004FF090000612046FFF90FECD30E60DE0C2
:100D7A004410F090FEB1E04440F0800BE054EFF0F4
:100D8A0090FEB1E054BFF0EF90FECD30E70DE044A5
:100D9A0040F090FEB1E04480F0800BE054BFF09048
:100DAA00FEB1E0547FF09000031204FDE5F090FEDE
:100DBA00DBF09000031204FD90FEDC020F84ED6468
:100DCA0080704F90000512046F90FEDEF0900001D3
:100DDA001204FDE5F090FED2F09000011204FD909D
:100DEA00FED3F090000812046F90FEDDB40106E015
:100DFA004480F08004E0547FF090000712046F9062
:100E0A00FEC0B40106E04401F08004E054FEF07F25
:100E1A000022ED6405705690FEECE054FEF090FE60
:100E2A00E8E054FCF0120456FF90FEE8E0548F4FBD
:100E3A00F090000612046F90FEEC30E00DE04401E1
:100E4A00F090FEB5E04401F0800BE054FEF090FE15
:100E5A00B5E054FEF09000031204FDE5F090FEF5B3
:100E6A00F09000031204FD90FEF6020F84ED640672
:100E7A00705690FEECE054EFF090FEE9E054FCF07E
:100E8A00120456FF90FEE9E0548F4FF090000612CC
:100E9A00046F90FEEC30E20DE04410F090FEB5E0F5
:100EAA004404F0800BE054EFF090FEB5E054FBF000
:100EBA009000031204FDE5F090FEF7F09000031293
:100ECA0004FD90FEF8020F84ED6407705590FEED64
:100EDA00E054FEF090FEEAE054FCF0120456FF9053
:100EEA00FEEAE0548F4FF090000612046F90FEED78
:100EFA0030E40DE04401F090FEB5E04410F0800BC0
:100F0A00E054FEF090FEB5E054EFF09000031204B6
:100F1A00FDE5F090FEF9F09000031204FD90FEFA50
:100F2A008058ED6408705790FEEDE054EFF090FEA3
:100F3A00EBE054FCF0120456FF90FEEBE0548F4FA6
:100F4A00F090000612046F90FEED30E60DE04410BA
:100F5A00F090FEB5E04440F0800BE054EFF090FED4
:100F6A00B5E054BFF09000031204FDE5F090FEFBDB
:100F7A00F09000031204FD90FEFCF07F0022ED6465
:100F8A0081704C90000512046F90FEFEF0900001F3
:100F9A001204FDFDACF0EC90FEF2F0AF05A3EFF009
:100FAA0090000812046F90FEFDB40106E04480F040
:100FBA008004E0547FF090000712046F90FEE0B4C2
:100FCA000106E04401F08004E054FEF07F00227F35
:020FDA00FF22F4
:10178C00EF2480700302184714700302188C248015
:10179C00B4080040030218D89017B275F003A4C522
:1017AC008325F0C583730217CA0217D70217E70205
:1017BC0017F7021807021817021827021837120415
:1017CC00D2FDACF0EC90FED50218D29000021204BF
:1017DC00FDFDACF0EC90FED70218D2900004120480
:1017EC00FDFDACF0EC90FED90218D290000612046C
:1017FC00FDFDACF0EC90FEDB0218D2900008120458
:10180C00FDFDACF0EC90FEF50218D290000A12042B
:10181C00FDFDACF0EC90FEF70218D290000C120417
:10182C00FDFDACF0EC90FEF90218D290000E120403
:10183C00FDFDACF0EC90FEFB0218D21204D2FDAC14
:10184C00F0EC90FED5F0AF05A3EFF090000212047F
:10185C00FDFDACF0EC90FED7F0AF05A3EFF09000DF
:10186C00041204FDFDACF0EC90FED9F0AF05A3EF33
:10187C00F09000061204FDFDACF0EC90FEDB80460F
:10188C009000081204FDFDACF0EC90FEF5F0AF05F5
:10189C00A3EFF090000A1204FDFDACF0EC90FEF703
:1018AC00F0AF05A3EFF090000C1204FDFDACF0ECD2
:1018BC0090FEF9F0AF05A3EFF090000E1204FDFDC1
:0D18CC00ACF0EC90FEFBF0AF05A3EFF022B6
:100FDC00AD07ED7079C28C120456FED39403400316
:100FEC007FFF22E58954FC4EF58990000112046FB5
:100FFC00FED3940240037FFF22EE7006538E7F5384
:10100C0089FB90000112046FB40106438E80538952
:10101C00FB90000112046FB4020343890490000298
:10102C0012046FFFE58F54FE4FF58F9000031204EE
:10103C00FDE5F0F58C9000031204FDF58A90000696
:10104C0012046F7004C28C8002D28C7F0022ED647B
:10105C000160030210E2C28E120456FED3940340C8
:10106C00037FFF22EEC454F0FFE58954CF4FF5897E
:10107C0090000112046FFED3940240037FFF22EE16
:10108C007006538EBF5389BF90000112046FB401D8
:10109C0006438E405389BF90000112046FB40203C3
:1010AC0043894090000212046F25E0FFE58F54FD48
:1010BC004FF58F9000031204FDE5F0F58D900003C1
:1010CC001204FDF58B90000612046F7004C28E8022
:1010DC0002D28E7F0022ED64027065538EEF900079
:1010EC000112046FFF7006538EFB538EF7EFB401A1
:1010FC0006438E04538EF7EFB40203438E08900020
:10110C000212046F25E025E0FFE58F54FB4FF58FAD
:10111C009000031204FDE5F0F5D69000031204FDD7
:10112C00F5D790000512046F90FEA2F09000061205
:10113C00046FC454F0FFE58E54EF4FF58E7F002200
:10114C00ED6403707253D1F790000112046FFED35B
:10115C00940240037FFF22EE700653D1FD53D1FB66
:10116C0090000112046FB4010643D10253D1FB90DD
:10117C00000112046FB4020343D104900002120464
:10118C006FFFE5D154FE4FF5D19000031204FDE53D
:10119C00F0F5D49000031204FDF5D590000512046F
:1011AC006F90FEA3F090000612046F33333354F8A3
:1011BC00FFE5D154F78077ED6404707853D17F90BC
:1011CC00000112046FFED3940240037FFF22EE70E5
:1011DC000653D1DF53D1BF90000112046FB4010646
:1011EC0043D12053D1BF90000112046FB4020343CA
:1011FC00D14090000212046FC454F0FFE5D154EFBB
:10120C004FF5D19000031204FDFDACF0ECF5D2AF1C
:10121C00058FD390000512046F90FEA4F090000689
:10122C0012046FC43333335480FFE5D1547F4FF530
:07123C00D17F00227FFF2299
:03001B0002006080
:03006000B2EE32CB
:0300630002008E0A
:03008E00B2ED329E
:03009B00020096CA
:03009600B2EC3297
:0300A30002009EBA
:03009E00B2EB3290
:10233000C0F9A4B0999282F88090407924301912A3
:10234000027800107FBF8883C6A1868E89F1C78C72
:0223500098C132
:0700030053B3E353B4E32201
:03241F00020003B5
:101A9100751607EF90233093FEAC16A80408800258
:101AA100C313D8FC1392C4C2C20000D2C2000015F5
:0A1AB10016C3E5166480948050D936
:101ABB007516077E007401A805088005C333CE3365
:101ACB00CED8F9A816088006CEA2E713CE13D8F805
:101ADB001392C4C2C20000D2C200001516C3E51691
:061AEB006480948050CDE0
:091AF100C2C30000D2C3000022B0
:03242200021A910A
:1000A600020441E86480F8E933E83360110460F043
:1000B600ED33EC337009E8FCE9FDEAFEEBFF2204C0
:1000C60060DED3EB9FEA9EE99DE8C2E78CF0C2F7BB
:1000D60095F0400CE8CCF8E9CDF9EACEFAEBCFFB87
:1000E60012040C85D0F05804700320D5B3E80470D0
:1000F600075002B2D502044B92D5EC0460F7E4CC6B
:10010600C0E0C398F8603B94186008400DD0E0FB4F
:10011600020423E4FBFAC9FC8028E830E406E4C9BB
:10012600FBE4CAFCE830E305E4C9CACBFCE85407A3
:100136006010F8C3E913F9EA13FAEB13FBEC13FCAE
:10014600D8F130F52FC3E49CFCEF9BFFEE9AFEED51
:1001560099FDD0E0FBEF4E4D4C701222DB030204FA
:1001660048EC2CFCEF33FFEE33FEED33FDED30E7CC
:10017600EB020423EF2BFFEE3AFEED39FDD0E0FB58
:1001860050130BBB000302044BED13FDEE13FEEF01
:0801960013FFEC13FC0204232B
:10019E00EC4D6011E8497017ED33EC3304600DE45B
:1001AE00FCFFFEFD22E933E8330470F8020441122D
:1001BE00040C58046009E4CC24815006285009022E
:1001CE00044B284003020448C0E0EB4A7044B98057
:1001DE0006D0E0FB020437EF4E701CBD8008EBFF2B
:1001EE00EAFEE9FD80EBE98DF0A4FEE5F002028760
:1001FE00E9CDF9EAFEEBFFEF89F0A4FCE5F0CE893C
:10020E00F0A42EFFE435F0CD89F0A42DFEE435F0F8
:10021E008067EF4E7005BD80D780C3EF8BF0A4AC26
:10022E00F0EE8BF0A42CFCE435F0F8EF8AF0A42C61
:10023E00E5F038FCE433CB8DF0A42CFCE5F03BF874
:10024E00EE8AF0A42CFCE5F038F8E433CF89F0A464
:10025E002CFCE5F038CF3400CE89F0A42FFFE5F06A
:10026E003EFEE433C98DF0A42EFEE5F039CD8AF0C2
:10027E00A42FFFE5F03EFEE43DFD33D0E0FB50073A
:10028E000BBB000F02044BEC2CFCEF33FFEE33FEE6
:06029E00ED33FD02042314
:1002A40002044BEC5D046005E85904700302044148
:1002B40012040C580460F6EC4860F2EC7004FDFE85
:1002C400FF22C860DB2481C85009C398600250062D
:1002D4000204489850CAF582E9294B4A7005AB825A
:1002E40002043775F0007C1A7880C3EF9BEE9AED18
:1002F40099400DC3EF9BFFEE9AFEED99FDE842F0A5
:10030400DC23ACF0D0E0FFD0E0FED0E0FDAB8220F7
:10031400E7101BEB60BAEC2CFCEF33FFEE33FEED81
:1003240033FD020423E803F830E705C0F075F0005C
:10033400EF2FFFEE33FEED33FD40B830E7C280AA65
:1003440074F8CC6480CCC86480C8F58204604FC360
:10035400EB9FF5F0EA9E42F0E99D42F0E89C45F0FF
:10036400603C501DE5825FFFE582D313CB5BCBF489
:100374002B5582FB50280ABA002409B900200880B2
:100384001DE5825BFBE582D313CF5FCFF4C3132F4C
:100394005582FF50090EBE00050DBD00010CC3EBD4
:1003A4009FF5F0EA9E42F0E99D42F0E89C45F0603A
:0903B40007CC4820E701B3EC225C
:1003BD00ED33EC33600A047003BD8004ECB2E7FC4E
:0103CD00220D
:1003CE0075F020800E75F010800575F0087D007EAA
:1003DE00007F003392D530D503120603EC33401064
:1003EE00EF33FFEE33FEED33FDEC33FCD5F0ED22B3
:0E03FE00E5F0247EA2D513CC92E7CDCEFF22EF
:10040C00E9D2E7C933E833F892D5EDD2E7CD33EC36
:07041C0033FC5002B2D522AF
:10042300EC30E7100FBF000C0EBE00080DBD00043A
:100433000BEB6014A2D5EB13FCED92E7FD2274FFE6
:10044300FCFDFEFF22E480F8A2D574FF13FC7D803F
:03045300E480EF53
:0300000002000EED
:0C000E00787FE4F6D8FD75813C0218D91B
:10045600BB010689828A83E0225002E722BBFE02A4
:09046600E32289828A83E49322D7
:10046F00BB010CE58229F582E5833AF583E0225042
:10047F0006E92582F8E622BBFE06E92582F8E2228C
:0D048F00E58229F582E5833AF583E49322A6
:10049C00C2D5EC30E709B2D5E4C39DFDE49CFCEE7B
:1004AC0030E715B2D5E4C39FFFE49EFE120665C388
:1004BC00E49DFDE49CFC800312066530D507C3E483
:0604CC009FFFE49EFE22EA
:1004D200BB010A89828A83E0F5F0A3E022500687F5
:1004E200F009E71922BBFE07E3F5F009E3192289B7
:0B04F200828A83E493F5F074019322EA
:1004FD00BB0110E58229F582E5833AF583E0F5F03D
:10050D00A3E0225009E92582F886F008E622BBFE19
:10051D000AE92582F8E2F5F008E222E5832AF5835F
:08052D00E993F5F0A3E9932224
:1005350075F008758200EF2FFFEE33FECD33CDCC7D
:1005450033CCC58233C5829BED9AEC99E582984000
:100555000CF582EE9BFEED9AFDEC99FC0FD5F0D6DD
:10056500E4CEFBE4CDFAE4CCF9A88222B800C1B907
:100575000059BA002DEC8BF084CFCECDFCE5F0CB45
:10058500F97818EF2FFFEE33FEED33FDEC33FCEB7E
:1005950033FB10D703994004EB99FB0FD8E5E4F939
:1005A500FA227818EF2FFFEE33FEED33FDEC33FC26
:1005B500C933C910D7059BE99A4007EC9BFCE99A1A
:1005C500F90FD8E0E4C9FAE4CCFB2275F010EF2F5F
:1005D500FFEE33FEED33FDCC33CCC833C810D7075F
:1005E5009BEC9AE899400AED9BFDEC9AFCE899F89A
:0E05F5000FD5F0DAE4CDFBE4CCFAE4C8F9222D
:0E060300C3E49FFFE49EFEE49DFDE49CFC2208
:10061100EB9FF5F0EA9E42F0E99D42F0E89C45F03F
:0106210022B6
:10062200E8600FECC313FCED13FDEE13FEEF13FFB6
:03063200D8F122DA
:10063500BB010DE58229F582E5833AF5830206C7FC
:100645005007E92582F80206BABBFE07E92582F8BC
:100655000206D3E58229F582E5833AF5830206E0B1
:10066500BC000BBE0029EF8DF084FFADF022E4CC79
:10067500F875F008EF2FFFEE33FEEC33FCEE9DEC42
:10068500984005FCEE9DFE0FD5F0E9E4CEFD22ED88
:10069500F8F5F0EE8420D21CFEADF075F008EF2FD2
:1006A500FFED33FD4007985006D5F0F222C398FDC3
:0506B5000FD5F0EA2260
:0D06BA00E6FB08E6F908E6FA08E6CBF822B0
:0C06C700E0F8A3E0F9A3E0FAA3E0FB22B6
:0D06D300E2FB08E2F908E2FA08E2CBF822A7
:1006E000E493F8740193F9740293FA740393FB2270
:00000001FF
