:101A65006164635F56616C75653A2025640A0056AA
:101A75003A20252E336620560A00523A20252E3369
:101A8500660A0054656D703A2025640A00E3F2D8B1
:101A9500A8CDDAC380B99BB029A7259E8D965C8E0B
:101AA5009087258017796373046CF8673B61CA5C7E
:101AB500A157BC53194EB44A8B469B42E03F583C54
:101AC5000138D735D9330530582DD02B6A2927272A
:101AD5000224FC231121411F8B1DEC1C631AF019F4
:101AE500911844170A15E114C713BD12C111D2107C
:101AF500F0101A0F500E900DDA0D2E0C8B0BF10B0A
:101B05005E0AD30A4F09D3095C08EC0881081C0753
:101B1500BA0761070A06B8066A062005D9059605BB
:101B250056051A04E004A904750444041403E803E3
:101B3500BD0394036D03480325030302E302C502B5
:101B4500A7028C0271025802400228021201FD010F
:101B5500E901D601C401B201A1019101820173011C
:101B6500660158014B013E01320127011C0112019A
:101B75000800FE00F500EC00E400DC00D400CD0018
:101B8500C600BF00B800B200AC00A600A0009B00D4
:101B9500960091008C00870083007E007A00760015
:101BA50073006F006B006800650061005E005B00FC
:101BB50059005600530051004E004C004A004700A2
:101BC5004500430041003F003D003C003A0038001D
:101BD500370035003400320031002F002E002D0073
:101BE5002B002A00290028002700260025002400B4
:071BF5002300220021002063
:1028B800752F10752E017B007A00792EE4FF12180F
:1028C80011752F03E4F52EFB7A00792E7F03021889
:0128D80011EE
:1027FC00752E40752F017533007532C27531017518
:10280C003000753501E4F536FB7A00792E7F011224
:0C281C00084F7D017F011224FF53A23FF2
:01282800228D
:10285200752E1FE4F531753201752F0F753001FBAE
:102862007A00792E1220FE7F01122947E4FDFF0231
:0228720024C17F
:081BFC008F318E308D2F8C2EED
:101C0400E4F532F533F534F535901A9293FC74010A
:101C140093FDE41203D3A804A905AA06AB07AF31C8
:101C2400AE30AD2FAC2E1200A9E4FBFAF9F8120382
:101C3400445023901A92E493FC740193FDE412033C
:101C4400D3A804A905AA06AB07AF31AE30AD2FACBB
:101C54002E1200A98024901A92E493FC740193FD3F
:101C6400E41203D3A804A905AA06AB07AF31AE302A
:101C7400AD2FAC2E1200A91203BD8F398E388D37CB
:101C84008C36753A00753BB5753400753501C3E57E
:101C940035953BE53A6480F8E53464809840030266
:021CA4001D829F
:101CA600E53525E0FFE53433FE74922FF582741A8C
:101CB6003EF583E493FC740193FDE41203D3A80478
:101CC600A905AA06AB07AF31AE30AD2FAC2E120078
:101CD600A9E4FBFAF9F81203445033E53525E0FF91
:101CE600E53433FE74922FF582741A3EF583E4933D
:101CF600FC740193FDE41203D3A804A905AA06AB5C
:101D060007AF31AE30AD2FAC2E1200A98034E535C9
:101D160025E0FFE53433FE74922FF582741A3EF502
:101D260083E493FC740193FDE41203D3A804A9058C
:101D3600AA06AB07AF31AE30AD2FAC2E1200A912FA
:101D460003BD8F3F8E3E8D3D8C3CAF39AE38AD37EF
:101D5600AC36AB3FAA3EA93DA83C120344501285BF
:101D66003F39853E38853D37853C36853432853565
:011D76003339
:0F1D77000535E53570020534021C92AE32AF33EC
:011D8600223A
:101ED40043BA801228B81227FC122852D2AF7F0CC2
:101EE4001220388E228F23AC22AD23E41203D3E4D4
:101EF400FBFA7920784012019EE4FBFA7980784558
:101F04001202A78F278E268D258C24AB27AA26A9FB
:101F140025A8247F337E337D537C401200A9C0045E
:101F2400C005C006C007E4FFFE7D207C41AB27AAA4
:101F340026A925A82412019ED003D002D001D000E6
:101F44001202A78F2B8E2A8D298C28E4FFFE7DC8D0
:101F54007C42AB2BAA2AA929A82812019E121BFC99
:101F6400EF24C9F52DEE34FFF52C7BFF7A1A796541
:101F7400852231852332120D8B7BFF7A1A79748581
:101F84002734852633852532852431120D8B7BFF3A
:101F94007A1A797F852B34852A338529328528312D
:101FA400120D8B7BFF7A1A7988852C31852D32129C
:0A1FB4000D8B7FFA12292B021EE2AA
:1020FE00900001120611FFE5DE54F04FF5DE900060
:10210E0002120611C43354E0FFE5DE54DF4FF5DE54
:10211E001205F8FFD3941F502B900003120611FEE8
:10212E00D39401501F900004120611FDD394035056
:10213E0013EDC43354E0FDEEC433333354804D4FAE
:05214E0090FEA8F02244
:0B294700BF010443BC802253BC7F2270
:10203800EFD3940F40028060E4F5BDF5BEE5BC54D3
:10204800F044404FF5BC0000000000000000000014
:10205800E4FDE5BC30E53D53BCDFE5DEAFBD30E572
:102068000EEFFEACBEECFBEEF52EEBF52F802075E7
:102078002E008F2FE5BEC4540FFBE52FC4F8540F74
:10208800C868FFE52EC454F048F52EEF4BF52FAE87
:0C2098002EAF2F220DBDFABA7E107F0083
:0120A4002219
:03002B00020026AA
:0400260053BCDF32B6
:0F292B007D607C09ED1D70011C144C70F7DFF10D
:01293A00227A
:10181100EFD3940740037FFF221205F8FED3940310
:1018210040037FFF22EF7041EE700B900001120622
:1018310011F4529352941205F8B4010B9000011265
:1018410006114293F452941205F8FEB4020A900074
:101851000112061142934294EEB4030D900001125D
:101861000611FEF45293EE4294EF640170431205A7
:10187100F8FE700B900001120611F452915292EE93
:10188100B4010B9000011206114291F4529212051B
:10189100F8B4020A90000112061142914292120517
:1018A100F8B4030D900001120611FEF45291EE42BC
:1018B10092EF640270431205F8FE700B9000011262
:1018C1000611F452955296EEB4010B9000011206E6
:1018D100114295F452961205F8B4020A90000112D1
:1018E1000611429542961205F8B4030D90000112BB
:1018F1000611FEF45295EE4296EF64037043120511
:10190100F8FE700B900001120611F452B152B2EEC2
:10191100B4010B90000112061142B1F452B212054A
:10192100F8B4020A90000112061142B142B2120546
:10193100F8B4030D900001120611FEF452B1EE420B
:10194100B2EF640470431205F8FE700B90000112AF
:101951000611F452B352B4EEB4010B900001120619
:101961001142B3F452B41205F8B4020A9000011204
:10197100061142B342B41205F8B4030D90000112EE
:101981000611FEF452B3EE42B4EF64057043120542
:10199100F8FE700B900001120611F452C952CAEE02
:1019A100B4010B90000112061142C9F452CA12058A
:1019B100F8B4020A90000112061142C942CA120586
:1019C100F8B4030D900001120611FEF452C9EE4263
:1019D100CAEF640670431205F8FE700B9000011205
:1019E1000611F452CB52CCEEB4010B900001120659
:1019F1001142CBF452CC1205F8B4020A9000011244
:101A0100061142CB42CC1205F8B4030D900001122D
:101A11000611FEF452CBEE42CCEF6407704312057F
:101A2100F8FF700B900001120611F452E152E2EF3F
:101A3100B4010B90000112061142E1F452E21205C9
:101A4100F8B4020A90000112061142E142E21205C5
:101A5100F8B4030D900001120611FFF452E1EF42B8
:041A6100E27F0022FE
:1023C900EFD3940140037FFF22EDD3940340037FB1
:1023D900FF22EF7004C2A98002D2A9ED700553B79C
:1023E900FDC2B9BD010553B7FDD2B9BD020543B759
:0E23F90002C2B9BD030543B702D2B97F00226C
:10240700EFD3940140037FFF22EDD3940340037F72
:10241700FF22EF7004C2AB8002D2ABED700553B759
:10242700F7C2BBBD010553B7F7D2BBBD020543B722
:0E24370008C2BBBD030543B708D2BB7F00221D
:10287400EFD3940140037FFF22EDD3940340037F01
:10288400FF22EF25E025E0FFE5AF54FB4FF5AFE471
:02289400FF2221
:10289600EFD3940140037FFF22EDD3940340037FDF
:1028A600FF22EFC43354E0FFE5AF54DF4FF5AFE44A
:0228B600FF22FF
:10006600EFD3940140037FFF22EDD3940340037F37
:10007600FF22EFC4333354C0FFE5AF54BF4FF5AF93
:03008600E4FF2272
:10244500EFD3940140037FFF22EDD3940340037F34
:10245500FF22EF7004C2A88002D2A8ED700553B721
:10246500FEC2B8BD010553B7FED2B8BD020543B7DC
:0E24750001C2B8BD030543B701D2B87F0022F3
:10248300EFD3940140037FFF22EDD3940340037FF6
:10249300FF22EF7004C2AA8002D2AAED700553B7DF
:1024A300FBC2BABD010553B7FBD2BABD020543B7A0
:0E24B30004C2BABD030543B704D2BA7F0022AB
:10000300EFD3940140037FFF22EFC454F0FFE58F49
:0800130054EF4FF58FE4FF22CA
:1028D900EFD3940140037FFF22EFC43354E0FFE5B7
:0928E9008F54DF4FF58FE4FF224C
:10004600EFD3940140037FFF22EFC4333354C0FF44
:0A005600E58F54BF4FF58FE4FF2241
:1024C100EFD3940140037FFF22EDD3940340037FB8
:1024D100FF22EF7004C2AD8002D2ADED700553B79B
:1024E100DFC2BDBD010553B7DFD2BDBD020543B794
:0E24F10020C2BDBD030543B720D2BD7F00222F
:10222E00EDD3940340037FFF22EF30E10543E62018
:10223E00800353E6DFEF30E00543E610800353E6FC
:10224E00EFED700653B6DF53B5DFBD010653B6DFB3
:10225E0043B520BD020643B62053B5DFBD0306438A
:08226E00B62043B5207F0022D9
:1020A500EFD3940140037FFF22EBD3940340037FDA
:1020B500FF22BF0112ED90FE817006E0547FF08093
:1020C50011E04480F0800BEF700890FE83E05487A8
:1020D5004DF0EB700653B6DF53B5DFBB010653B6C3
:1020E500DF43B520BB020643B62053B5DFBB03066D
:0920F50043B62043B5207F002210
:1024FF00EFD3940140037FFF22EDD3940340037F7A
:10250F00FF22EF7004C2AC8002D2ACED700553B75E
:10251F00EFC2BCBD010553B7EFD2BCBD020543B737
:0E252F0010C2BCBD030543B710D2BC7F002212
:10238900EFD3940140037FFF22EDD3940340037FF1
:10239900FF22E5AF54FE4FF5AFED700653B6FE537D
:1023A900B5FEBD010653B6FE43B501BD020643B6EF
:1023B9000153B5FEBD030643B60143B5017F0022B3
:10227600EFD3940140037FFF22EDD3940340037F05
:10228600FF22EF33333354F8FFE5AF54F74FF5AF82
:10229600ED700653EEFE53DFFEBD010653EEFE4320
:1022A600DF01BD020643EE0153DFFEBD030643EE2A
:0722B6000143DF017F00225C
:1022BD00EFD3940140037FFF22EDD3940340037FBE
:1022CD00FF22EFC454F0FFE5AF54EF4FF5AFED70C3
:1022DD000653EEFD53DFFDBD010653EEFD43DF0258
:1022ED00BD020643EE0253DFFDBD030643EE02437E
:0522FD00DF027F00225A
:10230200EFD3940140037FFF22EDD3940340037F78
:10231200FF22EF25E0FFE5AF54FD4FF5AFED70066C
:1023220053B6FD53B5FDBD010653B6FD43B502BD1F
:10233200020643B60253B5FDBD030643B60243B5DA
:04234200027F0022F4
:101FBE00EFD3948140037FFF22EBD3940340037F42
:101FCE00FF22EF247F603004705890FEC4EDF0EBDA
:101FDE00700653B6FB53B5FBBB010653B6FB43B5B8
:101FEE0004BB020643B60453B5FBEB6403703843DF
:101FFE00B60443B504803090FEE4EDF0EB7006536A
:10200E00B6F753B5F7BB010653B6F743B508BB0297
:10201E000643B60853B5F7BB030D43B60843B508E0
:0A202E00800590FEE4EDF07F002233
:10253D00EDD394035026ED700653EEFB53DFFBBD38
:10254D00010653EEFB43DF04BD020643EE0453DFE9
:10255D00FBBD030B43EE0443DF0480037FFF22909A
:07256D00FE62EFF07F002287
:1025740090FA10E054F0F0EDD39403500BE0FEED2C
:1025840025E025E0FDEE4DF0EBD39403500690FAE0
:1025940010E04BF090FA10E0BF01054480F0800396
:0625A400547FF07F0022CD
:1025AA0090FA00E054F0F0EDD39403500BE0FEED06
:1025BA0025E025E0FDEE4DF0EBD39403500690FAAA
:1025CA0000E04BF090FA00E0BF01054480F0800380
:0625DA00547FF07F002297
:1025E00090FA20E054F0F0EDD39403500BE0FEEDB0
:1025F00025E025E0FDEE4DF0EBD39403500690FA74
:1026000020E04BF090FA20E0BF01054480F0800309
:06261000547FF07F002260
:1026160090FA30E054F0F0EDD39403500BE0FEED69
:1026260025E025E0FDEE4DF0EBD39403500690FA3D
:1026360030E04BF090FA30E0BF01054480F08003B3
:06264600547FF07F00222A
:10264C0090FA38E054F0F0EDD39403500BE0FEED2B
:10265C0025E025E0FDEE4DF0EBD39403500690FA07
:10266C0038E04BF090FA38E0BF01054480F080036D
:06267C00547FF07F0022F4
:1026820090FA40E054F0F0EDD39403500BE0FEEDED
:1026920025E025E0FDEE4DF0EBD39403500690FAD1
:1026A20040E04BF090FA40E0BF01054480F0800327
:0626B200547FF07F0022BE
:1026B80090FA48E054F0F0EDD39403500BE0FEEDAF
:1026C80025E025E0FDEE4DF0EBD39403500690FA9B
:1026D80048E04BF090FA48E0BF01054480F08003E1
:0626E800547FF07F002288
:1026EE0090FA50E054F0F0EDD39403500BE0FEED71
:1026FE0025E025E0FDEE4DF0EBD39403500690FA65
:10270E0050E04BF090FA50E0BF01054480F080039A
:06271E00547FF07F002251
:1027240090FA58E054F0F0EDD39403500BE0FEED32
:1027340025E025E0FDEE4DF0EBD39403500690FA2E
:1027440058E04BF090FA58E0BF01054480F0800354
:06275400547FF07F00221B
:10275A0090FA60E054F0F0EDD39403500BE0FEEDF4
:10276A0025E025E0FDEE4DF0EBD39403500690FAF8
:10277A0060E04BF090FA60E0BF01054480F080030E
:06278A00547FF07F0022E5
:1027900090FA68E054F0F0EDD39403500BE0FEEDB6
:1027A00025E025E0FDEE4DF0EBD39403500690FAC2
:1027B00068E04BF090FA68E0BF01054480F08003C8
:0627C000547FF07F0022AF
:1027C60090FA70E054F0F0EDD39403500BE0FEED78
:1027D60025E025E0FDEE4DF0EBD39403500690FA8C
:1027E60070E04BF090FA70E0BF01054480F0800382
:0627F600547FF07F002279
:1028290090FE50E054CFF0EDD39403500AE0FEED52
:10283900C454F0FDEE4DF090FE50E0BF0105448018
:09284900F08003547FF07F0022AF
:08084F008F378B388A39893A92
:10085700E537640160030209C5F508F509F50AF5EE
:100867000BF50CF53BF53C7440253CF582740135DE
:100877003BF583E4F0053CE53C7002053B648045AD
:100887003B70E4E4F53BF53C7400253CF5827400CD
:10089700353BF583E4F0053CE53C7002053B64809D
:1008A700453B70E4AB38AA39A93A1205F8FFE59839
:1008B700543F4FF598EF64C06008EF64406003024F
:1008C700097A9000021207B37F807E8D7D5B7C00E2
:1008D7001206EF8F408E3F8D3E8C3DE4FFFE7D017B
:1008E700FCAB40AA3FA93EA83DC312078F40037F38
:1008F700FF22C3E49540F540E4953FF53F74019529
:100907003EF53EE4953DF53DAB38AA39A93A90004E
:1009170001120611FB6401702CC28E538EFE53899F
:10092700BF5389CF438E40AF40AE3FAD3EAC3D781D
:10093700081207A08F8D85408BC2AB5389BF538F99
:10094700FDD28E8062EB64027026538EEF438E01D8
:10095700538EF7438E04AF40AE3FAD3EAC3D7808B3
:100967001207A08FD68540D753AFFB438E10803731
:100977007FFF22AB38AA39A93A1205F8FF70139006
:100987000008120611B40105438E20801A538EDF2A
:100997008015EFB48011900008120611B4010543C9
:1009A7008780800353877FAB38AA39A93A9000071D
:1009B7001206117004C29C8002D29C7F0022E53788
:1009C70064026003020ABEF50DF50EF50FF510F58A
:1009D70011F53BF53C74E0253CF5827401353BF598
:1009E70083E4F0053CE53C7002053B6480453B70C1
:1009F700E4E4F53BF53C7480253CF5827400353B17
:100A0700F583E4F0053CE53C7002053B6480453B1B
:100A170070E4AB38AA39A93A1205F8FF64C060053B
:100A2700EF64407075EFB4C005439A808003539A12
:100A37007F9000021207B37F807E8D7D5B7C001262
:100A470006EF8F408E3F8D3E8C3DE4FFFE7D01FC1F
:100A5700AB40AA3FA93EA83DC312078F40037FFFC3
:100A670022C3E49540F540E4953FF53F7401953E78
:100A7700F53EE4953DF53D538EEF538EF7438E04D7
:100A8700AF40AE3FAD3EAC3D78081207A08FD6858C
:100A970040D753AFFB438E1080037FFF22AB38AAAA
:100AA70039A93A900007120611C454F0FFE59A5489
:100AB700EF4FF59A7F0022E53764036003020BF2DC
:100AC700F512F513F514F515F516F53BF53C7460BD
:100AD700253CF5827402353BF583E4F0053CE53CA3
:100AE7007002053B6440453B70E4E4F53BF53C741C
:100AF70000253CF5827401353BF583E4F0053CE5C0
:100B07003C7002053B6440453B70E4AB38AA39A909
:100B17003A1205F8FF64C06008EF64406003020BF7
:100B2700D5EFB4C00543AC80800353AC7F9000027F
:100B37001207B37F807E8D7D5B7C001206EF8F40AE
:100B47008E3F8D3E8C3DE4FFFE7D01FCAB40AA3F0E
:100B5700A93EA83DC312078F40037FFF22C3E49538
:100B670040F540E4953FF53F7401953EF53EE49529
:100B77003DF53DAB38AA39A93A900001120611FBA1
:100B8700B4031D43AC40AF40AE3FAD3EAC3D78082B
:100B97001207A08FD48540D553D1F043D10A8031B5
:100BA700EB64027026538EEF53ACBF538EF7438E20
:100BB70004AF40AE3FAD3EAC3D78081207A08FD6DC
:100BC7008540D753AFFB438E1080067FFF227FFF00
:100BD70022AB38AA39A93A900007120611C454F07B
:100BE700FFE5AC54EF4FF5AC7F0022E537640460B6
:100BF70003020D26F517F518F519F51AF51BF53B40
:100C0700F53C74A0253CF5827402353BF583E4F08E
:100C1700053CE53C7002053B6420453B70E4E4F588
:100C27003BF53C74C0253CF5827401353BF583E404
:100C3700F0053CE53C7002053B6420453B70E4ABA6
:100C470038AA39A93A1205F8FF64C06008EF644072
:100C57006003020D09EFB4C0054384808003538409
:100C67007F9000021207B37F807E8D7D5B7C001230
:100C770006EF8F408E3F8D3E8C3DE4FFFE7D01FCED
:100C8700AB40AA3FA93EA83DC312078F40037FFF91
:100C970022C3E49540F540E4953FF53F7401953E46
:100CA700F53EE4953DF53DAB38AA39A93A900001E8
:100CB700120611FBB4041D438440AF40AE3FAD3E66
:100CC700AC3D78081207A08FD28540D353D10F438C
:100CD700D1A08031EB64027026538EEF5384BF534B
:100CE7008EF7438E04AF40AE3FAD3EAC3D78081261
:100CF70007A08FD68540D753AFFB438E1080067F62
:100D0700FF227FFF22AB38AA39A93A9000071206C3
:100D170011C454F0FFE58454EF4FF5847F00227F20
:010D2700FFCC
:010D280022A8
:0A2952008F99750A01E50A70FC2256
:10002E001205F8FF600C122952740129F9E43AFA0C
:03003E0080EE222F
:0A295C008F9B750F01E50F70FC2240
:1028F2001205F8FF600C12295C740129F9E43AFA16
:0329020080EE2242
:0A2966008FAD751401E51470FC221A
:102905001205F8FF600C122966740129F9E43AFAF8
:0329150080EE222F
:0A2970008F85751901E51970FC222E
:102918001205F8FF600C122970740129F9E43AFADB
:0329280080EE221C
:05001E00AE07022952AB
:030023000223466F
:10234600C0E0C083C082C0D075D000C007309820DE
:10235600C298E50BC394804003750B00AF0B050BC9
:1023660074002FF582E43400F583E599F0750C05C9
:10237600309905C299750A00D007D0D0D082D08393
:03238600D0E03272
:0300430002215344
:10215300C0E0C083C082C0D075D000C007E59A300C
:10216300E021539AFEE510C394804003751000AF3D
:1021730010051074802FF582E43400F583E59BF09D
:10218300751105E59A30E106539AFD750F00D007E6
:09219300D0D0D082D083D0E0321C
:03008B0002219CB3
:10219C00C0E0C083C082C0D075D000C007E5AC30B1
:1021AC00E02153ACFEE515C394404003751500AF18
:1021BC0015051574002FF582E43401F583E5ADF0B7
:1021CC00751605E5AC30E10653ACFD751400D0076F
:0921DC00D0D0D082D083D0E032D3
:030093000221E562
:1021E500C0E0C083C082C0D075D000C007E5843090
:1021F500E0215384FEE51AC394204003751A00AF0D
:102205001A051A74C02FF582E43401F583E585F0CB
:10221500751B05E58430E1065384FD751900D0076B
:09222500D0D0D082D083D0E03289
:10119800AD07ED6401707A90FECCE054FEF0E054A7
:1011A800FBF090FEC8E054FCF01205F8FF90FEC872
:1011B800E0548F4FF0900006120611FF90FECC30DD
:1011C800E00DE04401F090FEB1E04401F0800BE056
:1011D80054FEF090FEB1E054FEF0EF90FECC30E10A
:1011E8000DE04404F090FEB1E04402F0800BE054BE
:1011F800FBF090FEB1E054FDF090000312067BE591
:10120800F090FED5F090000312067B90FED60215F2
:1012180052ED6402707A90FECCE054EFF0E054BFD7
:10122800F090FEC9E054FCF01205F8FF90FEC9E00A
:10123800548F4FF0900006120611FF90FECC30E25A
:101248000DE04410F090FEB1E04404F0800BE0544F
:10125800EFF090FEB1E054FBF0EF90FECC30E30DE0
:10126800E04440F090FEB1E04408F0800BE054BF49
:10127800F090FEB1E054F7F090000312067BE5F021
:1012880090FED7F090000312067B90FED80215520C
:10129800ED6403707A90FECDE054FEF0E054FBF06C
:1012A80090FECAE054FCF01205F8FF90FECAE05424
:1012B8008F4FF0900006120611FF90FECD30E40D1E
:1012C800E04401F090FEB1E04410F0800BE054FEE1
:1012D800F090FEB1E054EFF0EF90FECD30E50DE078
:1012E8004404F090FEB1E04420F0800BE054FBF0A1
:1012F80090FEB1E054DFF090000312067BE5F09019
:10130800FED9F090000312067B90FEDA021552ED2A
:101318006404707A90FECDE054EFF0E054BFF09092
:10132800FECBE054FCF01205F8FF90FECBE0548FA2
:101338004FF0900006120611FF90FECD30E60DE04A
:101348004410F090FEB1E04440F0800BE054EFF020
:1013580090FEB1E054BFF0EF90FECD30E70DE044D1
:1013680040F090FEB1E04480F0800BE054BFF09074
:10137800FEB1E0547FF090000312067BE5F090FE8A
:10138800DBF090000312067B90FEDC021552ED6440
:1013980080704F90000512061190FEDEF09000015B
:1013A80012067BE5F090FED2F090000112067B90C9
:1013B800FED3F090000812061190FEDDB40106E09D
:1013C8004480F08004E0547FF090000712061190EA
:1013D800FEC0B40106E04401F08004E054FEF07F52
:1013E8000022ED6405705690FEECE054FEF090FE8D
:1013F800E8E054FCF01205F8FF90FEE8E0548F4F47
:10140800F090000612061190FEEC30E00DE0440169
:10141800F090FEB5E04401F0800BE054FEF090FE41
:10142800B5E054FEF090000312067BE5F090FEF55F
:10143800F090000312067B90FEF6021552ED64064A
:10144800705690FEECE054EFF090FEE9E054FCF0AA
:101458001205F8FF90FEE9E0548F4FF09000061255
:10146800061190FEEC30E20DE04410F090FEB5E07D
:101478004404F0800BE054EFF090FEB5E054FBF02C
:1014880090000312067BE5F090FEF7F0900003123F
:10149800067B90FEF8021552ED6407705590FEED3C
:1014A800E054FEF090FEEAE054FCF01205F8FF90DC
:1014B800FEEAE0548F4FF090000612061190FEED00
:1014C80030E40DE04401F090FEB5E04410F0800BEC
:1014D800E054FEF090FEB5E054EFF09000031206E1
:1014E8007BE5F090FEF9F090000312067B90FEFA7F
:1014F8008058ED6408705790FEEDE054EFF090FED0
:10150800EBE054FCF01205F8FF90FEEBE0548F4F2F
:10151800F090000612061190FEED30E60DE0441042
:10152800F090FEB5E04440F0800BE054EFF090FE00
:10153800B5E054BFF090000312067BE5F090FEFB87
:10154800F090000312067B90FEFCF07F0022ED6411
:1015580081704C90000512061190FEFEF09000017B
:1015680012067BFDACF0EC90FEF2F0AF05A3EFF0B5
:1015780090000812061190FEFDB40106E04480F0C8
:101588008004E0547FF090000712061190FEE0B44A
:101598000106E04401F08004E054FEF07F00227F61
:0215A800FF2220
:101D8700EF24807003021E42147003021E87248012
:101D9700B408004003021ED3901DAD75F003A4C51F
:101DA7008325F0C58373021DC5021DD2021DE20201
:101DB7001DF2021E02021E12021E22021E3212060D
:101DC70050FDACF0EC90FED5021ECD90000212063D
:101DD7007BFDACF0EC90FED7021ECD9000041206FE
:101DE7007BFDACF0EC90FED9021ECD9000061206EA
:101DF7007BFDACF0EC90FEDB021ECD9000081206D6
:101E07007BFDACF0EC90FEF5021ECD90000A1206A9
:101E17007BFDACF0EC90FEF7021ECD90000C120695
:101E27007BFDACF0EC90FEF9021ECD90000E120681
:101E37007BFDACF0EC90FEFB021ECD120650FDAC14
:101E4700F0EC90FED5F0AF05A3EFF090000212067C
:101E57007BFDACF0EC90FED7F0AF05A3EFF0900060
:101E67000412067BFDACF0EC90FED9F0AF05A3EFB2
:101E7700F090000612067BFDACF0EC90FEDB80468E
:101E870090000812067BFDACF0EC90FEF5F0AF0574
:101E9700A3EFF090000A12067BFDACF0EC90FEF782
:101EA700F0AF05A3EFF090000C12067BFDACF0EC51
:101EB70090FEF9F0AF05A3EFF090000E12067BFD40
:0D1EC700ACF0EC90FEFBF0AF05A3EFF022B5
:1015AA00AD07ED7079C28C1205F8FED3940340039F
:1015BA007FFF22E58954FC4EF5899000011206113D
:1015CA00FED3940240037FFF22EE7006538E7F53B0
:1015DA0089FB900001120611B40106438E805389DB
:1015EA00FB900001120611B4020343890490000221
:1015FA00120611FFE58F54FE4FF58F900003120675
:10160A007BE5F0F58C90000312067BF58A900006C4
:10161A001206117004C28C8002D28C7F0022ED6403
:10162A000160030216B0C28E1205F8FED39403407D
:10163A00037FFF22EEC454F0FFE58954CF4FF589AA
:10164A00900001120611FED3940240037FFF22EE9E
:10165A007006538EBF5389BF900001120611B40160
:10166A0006438E405389BF900001120611B402034B
:10167A0043894090000212061125E0FFE58F54FDD0
:10168A004FF58F90000312067BE5F0F58D9000036D
:10169A0012067BF58B9000061206117004C28E802A
:1016AA0002D28E7F0022ED64027065538EEF9000A5
:1016BA0001120611FF7006538EFB538EF7EFB40129
:1016CA0006438E04538EF7EFB40203438E0890004C
:1016DA000212061125E025E0FFE58F54FB4FF58F36
:1016EA0090000312067BE5F0F5D690000312067B04
:1016FA00F5D790000512061190FEA2F0900006128E
:10170A000611C454F0FFE58E54EF4FF58E7F002288
:10171A00ED6403707253D1F7900001120611FED3E3
:10172A00940240037FFF22EE700653D1FD53D1FB92
:10173A00900001120611B4010643D10253D1FB9065
:10174A000001120611B4020343D1049000021206EA
:10175A0011FFE5D154FE4FF5D190000312067BE547
:10176A00F0F5D490000312067BF5D5900005120619
:10177A001190FEA3F090000612061133333354F889
:10178A00FFE5D154F78077ED6404707853D17F90E8
:10179A000001120611FED3940240037FFF22EE706D
:1017AA000653D1DF53D1BF900001120611B40106CE
:1017BA0043D12053D1BF900001120611B402034352
:1017CA00D140900002120611C454F0FFE5D154EF43
:1017DA004FF5D190000312067BFDACF0ECF5D2AFC9
:1017EA00058FD390000512061190FEA4F090000612
:1017FA00120611C43333335480FFE5D1547F4FF5B9
:07180A00D17F00227FFF22C5
:03001B0002006080
:03006000B2EE32CB
:0300630002008E0A
:03008E00B2ED329E
:03009B00020096CA
:03009600B2EC3297
:0300A30002009EBA
:03009E00B2EB3290
:1000A600020441E86480F8E933E83360110460F043
:1000B600ED33EC337009E8FCE9FDEAFEEBFF2204C0
:1000C60060DED3EB9FEA9EE99DE8C2E78CF0C2F7BB
:1000D60095F0400CE8CCF8E9CDF9EACEFAEBCFFB87
:1000E60012040C85D0F05804700320D5B3E80470D0
:1000F600075002B2D502044B92D5EC0460F7E4CC6B
:10010600C0E0C398F8603B94186008400DD0E0FB4F
:10011600020423E4FBFAC9FC8028E830E406E4C9BB
:10012600FBE4CAFCE830E305E4C9CACBFCE85407A3
:100136006010F8C3E913F9EA13FAEB13FBEC13FCAE
:10014600D8F130F52FC3E49CFCEF9BFFEE9AFEED51
:1001560099FDD0E0FBEF4E4D4C701222DB030204FA
:1001660048EC2CFCEF33FFEE33FEED33FDED30E7CC
:10017600EB020423EF2BFFEE3AFEED39FDD0E0FB58
:1001860050130BBB000302044BED13FDEE13FEEF01
:0801960013FFEC13FC0204232B
:10019E00EC4D6011E8497017ED33EC3304600DE45B
:1001AE00FCFFFEFD22E933E8330470F8020441122D
:1001BE00040C58046009E4CC24815006285009022E
:1001CE00044B284003020448C0E0EB4A7044B98057
:1001DE0006D0E0FB020437EF4E701CBD8008EBFF2B
:1001EE00EAFEE9FD80EBE98DF0A4FEE5F002028760
:1001FE00E9CDF9EAFEEBFFEF89F0A4FCE5F0CE893C
:10020E00F0A42EFFE435F0CD89F0A42DFEE435F0F8
:10021E008067EF4E7005BD80D780C3EF8BF0A4AC26
:10022E00F0EE8BF0A42CFCE435F0F8EF8AF0A42C61
:10023E00E5F038FCE433CB8DF0A42CFCE5F03BF874
:10024E00EE8AF0A42CFCE5F038F8E433CF89F0A464
:10025E002CFCE5F038CF3400CE89F0A42FFFE5F06A
:10026E003EFEE433C98DF0A42EFEE5F039CD8AF0C2
:10027E00A42FFFE5F03EFEE43DFD33D0E0FB50073A
:10028E000BBB000F02044BEC2CFCEF33FFEE33FEE6
:06029E00ED33FD02042314
:1002A40002044BEC5D046005E85904700302044148
:1002B40012040C580460F6EC4860F2EC7004FDFE85
:1002C400FF22C860DB2481C85009C398600250062D
:1002D4000204489850CAF582E9294B4A7005AB825A
:1002E40002043775F0007C1A7880C3EF9BEE9AED18
:1002F40099400DC3EF9BFFEE9AFEED99FDE842F0A5
:10030400DC23ACF0D0E0FFD0E0FED0E0FDAB8220F7
:10031400E7101BEB60BAEC2CFCEF33FFEE33FEED81
:1003240033FD020423E803F830E705C0F075F0005C
:10033400EF2FFFEE33FEED33FD40B830E7C280AA65
:1003440074F8CC6480CCC86480C8F58204604FC360
:10035400EB9FF5F0EA9E42F0E99D42F0E89C45F0FF
:10036400603C501DE5825FFFE582D313CB5BCBF489
:100374002B5582FB50280ABA002409B900200880B2
:100384001DE5825BFBE582D313CF5FCFF4C3132F4C
:100394005582FF50090EBE00050DBD00010CC3EBD4
:1003A4009FF5F0EA9E42F0E99D42F0E89C45F0603A
:0903B40007CC4820E701B3EC225C
:1003BD00ED33EC33600A047003BD8004ECB2E7FC4E
:0103CD00220D
:1003CE0075F020800E75F010800575F0087D007EAA
:1003DE00007F003392D530D503120781EC334010E5
:1003EE00EF33FFEE33FEED33FDEC33FCD5F0ED22B3
:0E03FE00E5F0247EA2D513CC92E7CDCEFF22EF
:100D2900E5452431F8E6054522782E300702783169
:100D3900E475F0011207E30205F82000EB7F2ED2DB
:100D4900008018EF540F2490D43440D4FF30040BA2
:100D5900EF24BFB41A0050032461FFE54660021571
:100D6900460549E5497002054830070D782EE475B6
:100D7900F0011207E3EF02063E02001E7403D207D8
:100D89008003E4C207F5458B2E8A2F8930E4F546A6
:100D9900F548F549E54660077F20120D6480F57531
:100DA90047FFC201C200C202C203C205C206C2088D
:100DB900120D32FF700D3007057F00120D75AF4916
:100DC900AE4822B4255FC2D5C204120D32FF24D029
:100DD900B40A00501A75F00A784630D50508B6FFEE
:100DE9000106C6A426F620D5047002D20380D924B0
:100DF900CFB41A00EF5004C2E5D204021062D20146
:100E090080C6D20080C0D20280BCD2D580BAD205B9
:100E190080B47F20120D642002077401B54600409A
:100E2900F1120D29FF120D64020D9DD208D2068020
:100E390095120D29FB120D29FA120D29F94A4B7049
:100E49000679597A117BFF20022EE546602A7E0039
:100E59008E8275830012061160060EEE654770F0EA
:100E6900C2D5EBC0E0EAC0E0E9C0E0EE1210C2D0A2
:100E7900E0F9D0E0FAD0E0FB1205F8FF60AAEBC078
:100E8900E0EAC0E0E9C0E0120D64D0E02401F9D045
:100E9900E03400FAD0E0FBE5470460DCD547D980AF
:100EA90087D20280A21210A560F7E54770010412EB
:100EB9000456A947600DE547600914F54712114C1E
:100EC900EF60F3EA30E702F404C3995077EAF425B6
:100ED900470430E701E404F547800D1210A560C10D
:100EE900EA05472547120456EA7844F630E701E453
:100EF900254704D54704200501141210C2E4C0E0B7
:100F090012114C7844E6601320E70714F6120D4CD1
:100F1900802204F6D0E014C0E07F00120D4CE547B2
:100F29006007120D431547800B300503120D43D09E
:100F3900E0020D9DD0E00480C51210A560A0E54730
:100F4900041204567844EAF6E547200502600104D4
:050F590024041210C287
:100F5E0074FF04C0E012114C120D4CE5472005023F
:100F6E006003120D43D0E0B547E87F45120D567869
:100F7E0044E67F2B30E7047F2DF404C0E0120D64AD
:100F8E00D0E075F00A84C0F0120D4DD0E0120D4D78
:100F9E00020D9D791080027908C206C2088008D21F
:100FAE00D5790A8004790AC2D5E547047002F5475F
:100FBE00E4FAFDFEFF120D29FC7B08200113120D31
:100FCE0029FD7B1030000A120D29FE120D29FF7B20
:100FDE0020EC3382D592D55013C3E43000069FFF28
:100FEE00E49EFEE42001039DFDE49CFCE4CBF8C2EC
:100FFE0001EC700CCFCECDCCE824F8F870F380174E
:10100E00C3EF33FFEE33FEED33FDEC33FCEB33FB7E
:10101E00994002FB0FD8E9EB300105F8D0E0C44847
:10102E00B201C0E00AEC4D4E4F78207B0070C2EA50
:10103E00B5470040BCC0E01210C4D0F0D0E0200193
:10104E0004C4C0E0C4B201C0F0120D4DD0F0D5F012
:10105E00EB020D9D1207F30E3A530FA1580E0B4CD7
:10106E000E07420FA54F0FAD440FAD490E20430F93
:10107E00B3550EE4460F42450EAE471179500E0F92
:10108E002D0E132E0E362B0E17230E342011622A20
:10109E000DCF4800000E2EE547B4FF03754706122C
:1010AE000D29FC120D29FD120D29FE120D29FF78B6
:1010BE003D020485790AA2D5200314300509B91022
:1010CE00020404B9080104A2D5200602500104202E
:1010DE0002689202B546005034C0E07F20300319FA
:1010EE007F30A20272067205500F12111BC202C28D
:1010FE0006C205C2087F30800F300503E9C0E0123A
:10110E000D64300503D0E0F9D0E0B546CC300517BC
:10111E007F30B9100C120D647F583004077F788031
:10112E0003B90803120D643002057F2D020D647F92
:10113E00202008F87F2B2006F322920280CF7F001A
:10114E00B407005005243DF8E6FF22286E756C6C3E
:10115E002900D201120D293001F8C201784630D58E
:10116E000108F6020DCF2D50434958120D292403C4
:10117E00B405004001E490117493120D55743A12A7
:0A118E000D55D203754604020FA1AF
:10040C00E9D2E7C933E833F892D5EDD2E7CD33EC36
:07041C0033FC5002B2D522AF
:10042300EC30E7100FBF000C0EBE00080DBD00043A
:100433000BEB6014A2D5EB13FCED92E7FD2274FFE6
:10044300FCFDFEFF22E480F8A2D574FF13FC7D803F
:03045300E480EF53
:10045600F920E72824F950037907E4F42402FB186D
:10046600DBFDE624FB5014E9600DE4F618E604F61D
:0F047600B40A08E4F6D9F57401F60A22C2D522B9
:10048500ED33EC3392D5FA602AB4FF33EDC2E77B46
:10049500FF60067A0479AAE4227A0479B320D504A8
:1004A5007A0479AE224E614E002B494E46002D4905
:1004B5004E4600E47A08F608DAFC7B00740722E869
:1004C500C0E0ECC0E0EDC0E0EEC0E0EFC0E0EA75F2
:1004D500F010A4CAABF075F04DA42BFBE435F0FC8D
:1004E500EA2410FAEB34C5FBEC34D9FCEDC2E7FF86
:1004F50075F056A4F42411C5F0F434C58FF0A42A80
:10050500E5F03BE43CF620E7141205B8D0E0FFD057
:10051500E0FED0E0FDD0E0FC1202A78014F4041246
:1005250005B8D0E0FFD0E0FED0E0FDD0E0FC120140
:100535009ED0E0F8E6FAEDD2E7CD33EC332482FB2A
:10054500E4C3CF33CFCE33CECD33CD33DBF37B070F
:1005550075F00A846004F6081B0AE5F0F6088FF0CA
:10056500740AA4FFACF08EF0740AA42CFEACF05013
:10057500010C8DF0740AA42CFDE435F0F608DBDEE1
:03058500740722D6
:100588003F8000004120000042C80000447A00007B
:10059800461C400047C35000497424004B189680FD
:1005A8004CBEBC205A0E1BCA6753C21C749DC5AEF4
:1005B800FB60065407601C23231205E6EB543860E1
:1005C800091205D21205E112019EECF8EDF9EEFAD6
:1005D800EFCB22EB1205E180F1543803241C90057F
:1005E80088FE93FC0EEE93FD0EEE930ECE93FF2243
:0300000002293B97
:0C293B00787FE4F6D8FD758149021ED4B7
:1005F800BB010689828A83E0225002E722BBFE0201
:09060800E32289828A83E4932233
:10061100BB010CE58229F582E5833AF583E022509E
:1006210006E92582F8E622BBFE06E92582F8E222E8
:0D063100E58229F582E5833AF583E4932202
:10063E00BB010689828A83F0225002F722BBFE019B
:02064E00F32295
:10065000BB010A89828A83E0F5F0A3E02250068775
:10066000F009E71922BBFE07E3F5F009E319228937
:0B067000828A83E493F5F0740193226A
:10067B00BB0110E58229F582E5833AF583E0F5F0BD
:10068B00A3E0225009E92582F886F008E622BBFE9A
:10069B000AE92582F8E2F5F008E222E5832AF583E0
:0806AB00E993F5F0A3E99322A5
:1006B30075F008758200EF2FFFEE33FECD33CDCCFE
:1006C30033CCC58233C5829BED9AEC99E582984081
:1006D3000CF582EE9BFEED9AFDEC99FC0FD5F0D65E
:1006E300E4CEFBE4CDFAE4CCF9A88222B800C1B988
:1006F3000059BA002DEC8BF084CFCECDFCE5F0CBC6
:10070300F97818EF2FFFEE33FEED33FDEC33FCEBFE
:1007130033FB10D703994004EB99FB0FD8E5E4F9B9
:10072300FA227818EF2FFFEE33FEED33FDEC33FCA6
:10073300C933C910D7059BE99A4007EC9BFCE99A9A
:10074300F90FD8E0E4C9FAE4CCFB2275F010EF2FDF
:10075300FFEE33FEED33FDCC33CCC833C810D707DF
:100763009BEC9AE899400AED9BFDEC9AFCE899F81A
:0E0773000FD5F0DAE4CDFBE4CCFAE4C8F922AD
:0E078100C3E49FFFE49EFEE49DFDE49CFC2289
:10078F00EB9FF5F0EA9E42F0E99D42F0E89C45F0C0
:01079F002237
:1007A000E8600FECC313FCED13FDEE13FEEF13FF37
:0307B000D8F1225B
:1007B300BB010DE58229F582E5833AF5830208261C
:1007C3005007E92582F8020819BBFE07E92582F8DC
:1007D300020832E58229F582E5833AF58302083F70
:1007E300FAE6FB0808E6F925F0F618E6CA3AF62217
:1007F300D083D082F8E4937012740193700DA3A395
:1008030093F8740193F5828883E4737402936860A8
:06081300EFA3A3A380DFA8
:0D081900E6FB08E6F908E6FA08E6CBF8224F
:0C082600E0F8A3E0F9A3E0FAA3E0FB2255
:0D083200E2FB08E2F908E2FA08E2CBF82246
:10083F00E493F8740193F9740293FA740393FB220F
:00000001FF
